:020000040020DA
:10000000C83700208D022000E3902000E1902000FE
:10001000E1902000E1902000E1902000000000002D
:10002000000000000000000000000000E19020003F
:10003000E190200000000000E19020008591200068
:10004000A7912000AD912000B3912000B99120002C
:10005000000000008B91200091912000E190200091
:10006000E1902000000000000000000000000000FF
:100070000000000000000000E190200000000000EF
:100080000000000000000000E1902000E19020004E
:10009000E1902000E1902000E1902000E19020001C
:1000A000E1902000E1902000E1902000E19020000C
:1000B000E1902000E1902000E1902000E1902000FC
:1000C000E1902000E1902000E1902000E1902000EC
:1000D000E19020000000000000000000000000008F
:1000E0000000000000000000000000000000000010
:1000F0000000000000000000D9162000E9162000D2
:1001000000000000000000000000000000000000EF
:1001100000000000000000000000000000000000DF
:1001200000000000000000000000000000000000CF
:1001300000000000000000000000000000000000BF
:1001400000000000000000000000000000000000AF
:10015000000000000000000000000000000000009F
:10016000000000000000000000000000000000008F
:10017000000000000000000000000000000000007F
:10018000000000000000000000000000000000006F
:10019000000000000000000000000000000000005F
:1001A000000000000000000000000000000000004F
:1001B000000000000000000000000000000000003F
:1001C000000000000000000000000000000000002F
:1001D000000000000000000000000000000000001F
:1001E000000000000000000000000000000000000F
:1001F00000000000000000000000000000000000FF
:1002000000000000000000000000000000000000EE
:1002100000000000000000000000000000000000DE
:1002200000000000000000000000000000000000CE
:1002300000000000000000000000000000000000BE
:1002400000000000000000000000000000000000AE
:10025000000000000000000000000000000000009E
:10026000000000000000000000000000000000008E
:10027000E1902000CD152000E5152000390F200069
:10028000E1902000850A2000E1902000FF22482410
:1002900008B5084B08481A60084AE369121A084969
:1002A00098470848084AA369121A0021984700F0A5
:1002B000BDF8FEE7B4200D40400000200E020020F3
:1002C00000A8200010020020C72F002002981A4624
:1002D0000090BDF80410BDF80C30014801F0EEBAF2
:1002E000DCA5200030B5048889B0054634B1762CF1
:1002F00022D000230380032009B030BDF02000F09D
:1003000069F82149214802F041FA214A2146214851
:1003100005F090FA43F239011E4809F0CEF843F295
:10032000390221461B4809F0D2F84FF4A0611A485F
:1003300008F0C0FF76232B80174808F0D6FF00286E
:10034000DAD0C0238DF80C30A8238DF80D3012239D
:100350008DF80E305623114C04A903A88DF80F30E8
:1003600009F093F821780E4801F0A8FA23780122C9
:100370000133237043F2390321460093054804AB4F
:1003800009F0BEF8D1E700BFA5032000200200203D
:10039000CD0220003802002028020020F61C002098
:1003A000C8A5200008B538B9F02000F01BF8BDE85A
:1003B0000840024808F024BF08BD00BF18A620006E
:1003C00008B500F019F80022014B1A7008BD00BFF3
:1003D000F71C0020024A13781843107000F01AB876
:1003E000F71C0020034A137823EA0000107000F085
:1003F00011B800BFF71C0020054A136843F003033F
:10040000136002F58052136843F0030313607047D2
:1004100000B40D40044B00F003021A60C0F38100E9
:1004200003F58053186070470CB00D402DE9F04182
:1004300086B000F071FC00F01BFD00F0B5FC00F090
:1004400083FA01F0EFF908F05EFF00F009FDFFF715
:10045000B7FF012008F048FE01F0BAFF00F048FCA9
:1004600000F00AFA07F042FE002000F065FB0120D0
:1004700000F062FB5149002000F024FC02F0FCF87F
:1004800008F089FE022008F02FFE4D4808F0B8FE63
:100490004C4808F0B5FE4C4801F010FA4B4B4C4E5E
:1004A000186808F0ADFE4B4801F008FA4A4B4B4C77
:1004B000186808F0A5FE4A4801F000FA306808F014
:1004C0009FFE002002F0FCF801F0A0F80021454852
:1004D00002F01AF801F0DCFD082101A801F0B4F9DE
:1004E0009DF80A309DF80B70002547EA032701AB01
:1004F00003CB206061603C4801F0E0F9DFF808813F
:10050000615D4046013501F0D9F9072DF8D1DFF8DA
:10051000FC80E179354801F0D1F9D8F82C504AF641
:10052000CD310220A84739460320A8471A210120CF
:10053000A84701A9D8F8343008220920984705F0C7
:10054000DFFC2B4A236813606368536005F0D2F91F
:100550000021284801F0D8FF00F0ACFC002126481B
:1005600001F0D2FF08F0A5FEB36901209847234BA4
:1005700001AA03F11005144618685968083303C42A
:10058000AB422246F7D11B781D48237008F038FE95
:1005900001A806F031FB1B4808F081FE00F0AEFB1D
:1005A000012008F0A1FD00F0AFFB01F029FF10F0E1
:1005B000FF0FF8D101F0CCF8F5E700BF312620009D
:1005C0004BA6200058A6200070A6200058A52000A9
:1005D00074A5200077A6200094A52000BF2F00203E
:1005E0007EA62000AC00002085A62000A9A6200041
:1005F000742400202C01002050000020BFA6200001
:10060000AFA62000D0A32000A3A6200090A4200025
:100610002DE9F04104880646772C21D07E2C43D06A
:10062000002C3CD101F0CCFE294D2A4B2A4FDFF89B
:10063000B48018702C602B6857F8232032B9274AF1
:100640001370772333800120BDE8F08108F8034060
:1006500093680021802098472B6801332B60EAE7DC
:1006600000231F4A13601A4A1360194B1B4A1B6868
:1006700012789A4204DC1A4B1B68002BF0D1E0E799
:10068000184AD256002A1EDA134A002052F82320B4
:10069000104B197801F010FF50B97E23D2E70023E8
:1006A00003800320BDE8F0810A4B1B788B42CAD13E
:1006B000074B0C491A688B5C03F07F038B54084A84
:1006C000136801331360024A13680133CCE700BF9B
:1006D0004C020020AA2F002060000020F81C0020FF
:1006E00048020020AB2F002010B40A4B0A491A78A8
:1006F0000023934203DA51F82340A04208D107496E
:100700000748CA5C62F07F02CA5410BC01F014BFF3
:100710000133EEE7F81C002060000020AB2F002022
:100720005000002008B50821084808F009FD0422FF
:100730000321002000F0AAFB002000F00BFB0322A5
:100740000021034800F044FB012008BD00900D404B
:100750001508200008B51021084808F0F1FC042213
:100760000220114600F092FB022000F0F3FA04226E
:100770000221034800F02CFB012008BD00B00D4011
:100780001508200008B50221084808F0D9FC042209
:100790000121022000F07AFB022000F0DBFA0122A6
:1007A0000221034800F014FB012008BD00B00D40F9
:1007B0001508200008B54021084808F0C1FC0422B3
:1007C0000621022000F062FB012000F0C3FA06229D
:1007D0000221034800F0FCFA012008BD00B00D40E2
:1007E0001508200008B58021084808F0A9FC04225B
:1007F0000721022000F04AFB012000F0ABFA07229B
:100800000221034800F0E4FA012008BD00B00D40C9
:100810001508200038B5054611480C4608F087FD3C
:10082000E8B110210E4808F070FD35B9032C16D13F
:100830000C48BDE83840FFF757BF022D0FD1042CFC
:1008400001D10948F5E7012C01D10848F1E7062C50
:1008500001D10748EDE7072C01D10648E9E738BD8B
:100860005002002008A42000E8A32000F8A32000E4
:1008700018A42000D8A320000021014808F045BD9D
:1008800050020020FF2310B5064C4FF4FA6023609D
:1008900000F096F830220021062000F013FB002320
:1008A000236010BD00920D40802870B51ED1002439
:1008B0000F4E104D3368224623F0800333602B68BF
:1008C000072143F080032B600B4B20461C6000F097
:1008D000DDFA3368012223F0400333602B680621E0
:1008E00023F040032B60204600F0D0FA002070BDBA
:1008F00020940D4000940D4000920D40F8B500F09A
:1009000083F80F4B0024D3E900673A46B04238BF62
:100910007A1C15460443C3E900450A49D1E900237E
:10092000921B63EB070312196B41C1E9002301F02D
:10093000AFFC18B1BDE8F84001F02EBCF8BD00BF17
:1009400018020020100200200F4B104A1A6053F8C2
:10095000042C42F0050243F8042C53F8042C42F016
:10096000020243F8042C0A4A136843F0010313609F
:100970000022084B1A60042243F80C2C012243F891
:10098000082C0F22DA62704714E000E047E801000B
:1009900008200D400C000340034BD3E90023100A4C
:1009A00040EA0360704700BF18020020034BD3E900
:1009B0000023D00B40EA4340704700BF10020020E4
:1009C000054B18601C3B1A6842F001021A601A6855
:1009D000D207FCD4704700BF2800034010B5064C76
:1009E000236823F001032360FFF788FF236843F0A7
:1009F0000103236010BD00BF10E000E0014B186848
:100A0000704700BF58020020064B18685A68083328
:100A10001B681B0443EA0223034A0343106843EAAA
:100A20000060704740500D404C500D4010B50446DA
:100A3000114A1368DB07FCD508F0B1FBFFF7E4FFB0
:100A4000231A062BD8BFC41D0C4B220E1A60C4F308
:100A5000074243F8042CC4F3072243F8082CE2B2FF
:100A600043F80C2C08F097FB054B91201C60BDE867
:100A7000104000F06FB900BF50500D404C500D4079
:100A80005802002008B500F04BFE0022054B9120D3
:100A90001A6000F07BF9912000F06AF9BDE8084087
:100AA00001F068BD5802002010B5094B094903F157
:100AB00058020C681868044204D0D868806910F0A5
:100AC000800003D02C339342F3D3012010BD00BF2C
:100AD00038A4200028200D402C23154A70B503FBB4
:100AE00000234FF6BF72DC680546236C626413F086
:100AF00050021BD113F4D06F0BD04FF4407323631B
:100B0000FF236360E36AE262E362236B43F0010365
:100B1000236370BD56F8253033B12068C0B29847C2
:100B2000A369DB06F6D570BD2368F9E7014EF7E748
:100B300038A420005C02002001282DE9F74F06466A
:100B400000F2B0802C254543584F7C1994F9208041
:100B5000B8F1000FC0F2A68094F92290B9F1000F0D
:100B6000C0F2A080524800F04DFE524A79591368F5
:100B7000E5680B4313605368616894F921A00B4347
:100B800053609368A1685FFA89FB0B43936000236D
:100B9000C5F8C83F23690AEBC8021A6094F92330EC
:100BA000227D00939DF8003058461946019300F0CD
:100BB00077F9019B08221946584600F067F901238E
:100BC0003D494FEA0939009A59F8010003FA02F247
:100BD000024349F801204FEA083858F8010003FAA7
:100BE0000AF2024348F801205022AA63AA6B94F942
:100BF000240042F4D062AA6302226A634FF4407276
:100C00002A63A26900286A62E269AA624FF0700250
:100C1000EA620D4614DB94F92510284A41EAC00423
:100C20001460020354598B4023435351C9B200222C
:100C3000C0B200F02BF9224A136843F4004313605A
:100C40002C2303FB067393F92640002C1BDB93F93E
:100C500027A05FFA84F85FFA8AF9012249464046E4
:100C600000F01EF901232403625903FA0AF3134327
:100C7000635108224946404600F008F9104A1368BB
:100C800043F4804313602C2303FB0676F26896F846
:100C90002800136B43F00103136303B0BDE8F04F6A
:100CA00000F058B803B0BDE8F08F00BF38A42000B2
:100CB000A90A200028200D4020940D4004410D4039
:100CC00030D0004001289CBF014B43F820107047F2
:100CD0005C020020012808D82C22044B02FB0030C3
:100CE000C3689A699206FCD41960704738A4200042
:100CF0000022014B1A60704700500D400822014B42
:100D00001A60704700500D40A022024B1A6050221A
:100D10001A60704700500D40084A094B1A60094B91
:100D200080321A60084B80321A60084B80321A6099
:100D30004FF40012064B1A60704700BF00E100E05C
:100D400068020020640200206C0200207002002073
:100D500008ED00E0054B41091A68012300F01F006F
:100D600003FA00F042F82100704700BF680200203B
:100D7000054B41091A68012300F01F0003FA00F037
:100D800042F82100704700BF64020020054B410972
:100D90001A68012300F01F0003FA00F042F8210056
:100DA000704700BF70020020054A064B06491A60D2
:100DB000064A0B681340B3F1807FFAD1704700BF39
:100DC0000101020100200D4004200D40000001013E
:100DD000024B02EBC10243F822007047740200206C
:100DE000F8B507460E460024084D05EB411547FAB5
:100DF00004F3DB07E1B204D555F824300BB13046DB
:100E000098470134082CF2D1F8BD00BF74020020CD
:100E10002DE9F04780464FEA0837DFF8409007F1A8
:100E2000804505F5592500F07BFCD5F8186457F886
:100E300009404FEAC80A24FA0AF446EA0400E4B278
:100E40004146C0B2F6B204FA0AF4FFF7C9FFC5F88A
:100E50001C6447F80940BDE8F08700BF18970D40B3
:100E600080220021014808F0EDB800BF7402002084
:100E7000034A044B1A60044B803A1A60704700BF63
:100E800080400D40F4020020F8020020034B01EBEB
:100E9000C0011B6843F82120704700BFF402002006
:100EA000034B01EBC0011B6843F82120704700BFD2
:100EB000F8020020024A136843F0300313607047C1
:100EC00000700D400E2870B50BD1154B154E1C68E7
:100ED00044F002051D60356825F03F0343F001032F
:100EE0003360114E336823F0FF031A43114301436B
:100EF0000E4A316013681B06FCD50D4B0D4A1B686A
:100F000012680E2803F0FC0343EA022308BF054AD7
:100F10001BB204BF1560024A184608BF146070BDBA
:100F200034000144F486084008700D4000700D4004
:100F30000C700D4010700D4010B58F20064CFFF75F
:100F400025FF8F20FFF714FF206818B101F0F4FA95
:100F50000023236010BD00BFFC020020084B93F962
:100F60000020002A09DBED21064A11601160E3210F
:100F700011601A7862F07F021A700120704700BF7A
:100F8000F91C002038880840094A13689B07FCD4E4
:100F9000ED22084B1A601A60074A12680AB1EF2264
:100FA0001A60064A0120137803F07F03137070471C
:100FB0004C860840388808402C860840F91C0020E0
:100FC000A0F10B01CBB20F2B10B5044613D80B4B7D
:100FD0001B6813F03F0302D0FFF7D6FF012301EB9C
:100FE0008101074A0B3111600BB1FFF7B7FF054BC9
:100FF00060B21C7010BD4FF0FF3010BD4886084035
:101000003C8608400C02002008B50B4B1B68990673
:101010000FD1FFF7A3FF012308490A68D207FCD5C7
:10102000074A1168C1F300110BB1FFF7ADFF084685
:1010300008BD0023F0E700BF4886084064860840EA
:101040004C860840044B186800F02200A0F12003F1
:1010500058425841704700BF4C860840024B186800
:1010600000F04000704700BF4C86084010B50C46A9
:10107000002969D00D2869D8DFE800F0070E192093
:10108000226832454A6860624264314B1B68003313
:1010900018BF0123236021E005222E4B1B6803F0BB
:1010A0007F030B3B93FBF2F30B33DBB2F2E72A4BEC
:1010B0001A68043B1B6843EA0223EBE7274BF7E778
:1010C0000021274B21601A6802F001022260586A51
:1010D00010F020003BD042F002022260002010BD40
:1010E000204B21491A680023D2B201EBC3000079DA
:1010F000904202D851F83330CCE701330E2BF4D1B3
:101100006FF01703C6E7194B1B685BB2493BC1E799
:10111000174B1B6899060FD1FFF720FF01231549D4
:101120000A68D207FCD5144A1168493949B20BB193
:10113000FFF72AFF2160D1E70023F0E70B23A9E79F
:101140001A23A7E70723A5E7022010BD012010BD41
:101150002C8608403C860840CC850840D485084051
:101160000086084040860840C8A4200058860840F1
:1011700048860840648608406086084038B50546C1
:101180000C46134A13689B07FCD4124B93F90030AA
:10119000002B01DBFFF7E2FEEE220F4B691E1A6007
:1011A0001A60A21C43F8102C2144022000F046FAD9
:1011B0000A49013C41EA0411022000F051FA0220E0
:1011C00000F058FA022000F06DFA002038BD00BF90
:1011D0004C860840F91C00203888084002C001C035
:1011E000F8B51F4B93F90030002B2CDBFFF70CFCFC
:1011F0000446FFF7B3FEC4F1FF2404F57F04F63480
:10120000FFF702FCC442FBD40126FFF7FDFE28B322
:10121000144C2368990621D4E9230427124D2B602E
:1012200023689A0703D4013F17F0FF070DD1236805
:101230009B070ED4EE2301212B602B600EB1FFF72C
:10124000A3FE0846F8BD0026DFE70620FFF7B8FB3F
:10125000E6E7216811F00201FBD1EFE70221F0E798
:10126000F91C00204C8608403888084010B5072833
:1012700058D8DFE800F0040F1A2125573F52012902
:1012800003D1FFF76BFE002010BD00294CD1FFF702
:101290007BFEF8E7A1F10B030F2B45D8C8B2FFF78F
:1012A0008FFE0130EFD1032010BD88B21F4BC2B2B8
:1012B000000A1A605860E6E788B2C2B21C4BF7E732
:1012C00031F0030330D11B4B11F0010F1A6814BF2A
:1012D00042F0010222F001021A60174B11F00200E5
:1012E0001A6803D042F020021A60CCE722F02002F4
:1012F0001A6010BD01F118031F2B15D80D230F4ADA
:1013000052F83340D800A14203DC024412790C4B5E
:10131000EAE713F1FF33F3D2B5E7C9B2094B49311C
:101320001960B0E7012010BD022010BDC88508403B
:10133000D08508400086084024860840C8A42000C4
:10134000408608405886084009280DD1082A0DD14A
:1013500061B1074B074A013953F8040D934201F874
:10136000010FF9D10020704701207047022070471B
:10137000C8850840A885084009280DD1082A0DD144
:1013800061B1074B074A083111F8010D43F8040F0A
:101390009342F9D100207047012070470220704726
:1013A000A4850840C485084070B52B4E336813F0FF
:1013B000400308D0294D2B68DCB21B0605D5ED2271
:1013C000274B1A601A60002070BD042CF7D9023C2C
:1013D0008C42F4DCE4B2032C2AD001190139032039
:1013E00000F034F91F4B611E43EA0111032000F0A5
:1013F00037F9032000F03EF9032000F053F90320F1
:1014000000F05CF90028FAD129682D682806D6D5A5
:10141000493949B289B2042004F048FD05F07F0142
:10142000032004F043FD33685A0608D4204670BDFB
:101430002B6803702B6843702B688370E4E7336874
:101440001B0603D5084801F077F8EFE7ED22044BBF
:101450001A601A60EAE700BF4C86084028880840F6
:101460003888084002C0010C84000020F8B5304ED6
:10147000357815F0010559D1012411222D4B7F2714
:101480001C605C609C60A3F59323FC3B1A60802287
:10149000294B1A601022294B1A608122284B1A60AE
:1014A000F822284B1A600922C3F8902115227033C4
:1014B0001A600B2203F59B2303F59E731A604022EA
:1014C000A3F59B23A3F5F0731A601A6842F020027B
:1014D0001A60D52243F81C5CDF62DA611A4B187877
:1014E000FFF76EFD194A8D20136843F00403136063
:1014F000FFF730FC164B8E201F60FFF72BFC0220FD
:1015000000F0C4F81349022000F0A0F8032000F016
:10151000BDF81049032000F091F829460E4800F06C
:10152000F3FF3378204623433370F8BD0020F8BD25
:10153000F91C0020A8200D401C000144B087084081
:1015400020000144588608400C0200208C86084088
:1015500094860840288808408400002038B5038815
:1015600004463BB3B3F5707F03D000230380032010
:1015700038BD822921D104F037FC04F0D3FB80214F
:10158000FFF712FF002805DD80B204F0C5FB0C4B0D
:101590001B6998470B4B1A7852060BD500221A701C
:1015A000094B1D68FFF7F0FCFFF760FFAB0601D0A9
:1015B000FFF7D4FC4FF470732380012038BD00BFC7
:1015C00074A52000F91C00204886084008B503488F
:1015D00000F0B2FF0022024B1A6008BD8400002018
:1015E00034880840064B07481A68042A1FBF06497A
:1015F0000A7842F040020A7000221A6000F09CBF94
:101600002C88084084000020F91C002010B5094CEB
:1016100040220021204607F015FD0122064B2E2016
:101620001A605C60FFF796FBBDE810402F20FFF7C3
:1016300091BB00BF0000002004F00F4003289EBFB4
:10164000014B0001195070470000002003289EBF85
:10165000024B03EB00104160704700BF0000002008
:1016600003289EBF024B03EB00108160704700BF50
:1016700000000020032806D80123034A03FA00F0E3
:10168000116808431060704728F00F40032806D8FF
:101690000123034A03FA00F0116808431060704701
:1016A00020F00F40032806D80123034A03FA00F074
:1016B000116808431060704714F00F4003289FBF63
:1016C000044B03EB0010806800F0070088BF002087
:1016D000704700BF000000204FF0FF32014B1A603E
:1016E000704700BF04F50F400122014B1A6070479C
:1016F0004CF00F40084B19461A68D002FCD4074B37
:101700001A6822F480321A600A68D203FCD41A687C
:1017100042F400321A60704704200D4000200D4052
:1017200010B5094C226890070DD0084B1A4619686D
:101730004901FCD413685B01FCD5FFF74FF9FFF7B3
:10174000D9FF0023236010BD58200D4004200D4018
:1017500038B5264B1C6814F03F0414D1244D55F8BD
:10176000243023B1984770B10134032CF7D1214DB7
:101770002B7843B1FFF742F90446FFF745F9201AE9
:10178000092800D90CB930BF38BD1B4B1A6822F4A8
:1017900000321A60194A11461068C002FCD41A6857
:1017A00042F480321A600B68DB03FCD5FFF72CF99A
:1017B000201A092803D8BDE83840FFF79BBF6328EB
:1017C0000F4C0BD92B78022B08D1236000F06AFE56
:1017D00030B1FFF78FFF0023236038BD0123F4E70A
:1017E000FFF70CF90028CED1F3E700BF4886084088
:1017F00000030020FA1C002000200D4004200D40B2
:1018000058200D400023064A52F82310814206D08A
:1018100011B942F8230070470133032BF4D170470C
:10182000000300200022054B1A60054A136843F0AC
:10183000040313600122034B1A70704758200D40B7
:1018400010ED00E0FA1C002030B5184B1A78431E4A
:101850001AB9174A1278122A06D001F52011154A32
:10186000273191421CD130BD134A12784B2AF4D152
:101870004A0802F12814B4F1281F07D1002301F50A
:10188000201127311044934205DB30BD14F8015D6F
:1018900003F8015FEFE711F80149C4540133F2E79F
:1018A00011F8010903F8010FDBE700BF2B00280046
:1018B0002A00280027002800290028000FB407B5B7
:1018C00004AA52F8041B0448019200F021F803B066
:1018D0005DF804EB04B070479400002070B5054635
:1018E0000C460A4E102C07D874B12B682246686843
:1018F0000649BDE8704018472B68102231466868D9
:10190000984710B9103CEDE7204670BD0DA72000A8
:101910002DE9F04F8046154600268FB00791079BB2
:101920001B78BBB1079F00E027463C4614F8013BFB
:101930000BB1252BF8D1079B9F4210D0A7EB0309D1
:101940004A46D8F800300799D8F80400984728B1DB
:101950004FF0FF3630460FB0BDE8F08F4E443B7875
:10196000002BF7D07B78002BF4D0214600240846CA
:1019700010F8012B0B462B2A39D02DD8202A39D02C
:10198000232A3AD0A2F13107082F3FD84FF0000A9E
:101990000B4611F8012BA2F13000092830D91A7832
:1019A0002E2A4FD159785A1CA1F13000092842D86B
:1019B000002711781346A1F13000092802F1010235
:1019C00034D91A786C2A40F0AA805A786C2A3CD113
:1019D00044F0800402333BE02D2A04D0302AD1D1D8
:1019E00044F0100401E044F001040146BFE744F074
:1019F0000604FAE744F00204F7E744F00804F4E7C9
:101A00000A2303FB0A2AAAF1300AC1E72A2A0AD1CB
:101A1000D5F800A00346BAF1000F05F10405B8BFE0
:101A200044F00104BBE74FF0000AB8E70A2303FBC8
:101A30000717303FBDE72A2903D12F680233043549
:101A4000BFE713464FF0FF37BBE7013344F06004B4
:101A50001A78642A00F0908000F28380462A00F011
:101A6000AD806FD8252A00F0BE8064D8002A3FF4EC
:101A700071AF0133079304F4E063B3F5806F00F0B6
:101A8000698200F2B380B3F5807F00F0F380B3F594
:101A9000407F7FF444AF8B4B14F4804F8A4A18BFC9
:101AA0001A460DF1330300211F462868043550EA19
:101AB000010E40F08982FF1A04BF302203F8012C86
:101AC0004FF0780208BF03F1FF3303F8012C4FF009
:101AD000300208BF012703F8022C23220337BA453E
:101AE0008CBFAAEB070A4FF0000A14F00104A3F11F
:101AF000030903F8032C06D151464046FFF7EEFEDA
:101B000000287FF425AFD8F800303A464946D8F887
:101B10000400984700287FF41BAF3E4448E2682A3F
:101B200096D15A78682A02D144F0200452E7013352
:101B300044F040048CE7412A4CD0452A99D144F422
:101B4000424496E7582A33D004D8472A91D144F426
:101B5000A1348EE7612A3AD0632A8AD144F4A06482
:101B600087E76E2A3CD00AD8662A24D029D3672A70
:101B70002AD0692A7FF47DAF44F4245479E7732A8C
:101B80002BD007D86F2A10D0702A7FF472AF44F49C
:101B900040746EE7752A05D0782A7FF46AAF44F462
:101BA000C85466E744F4106463E744F4885460E77B
:101BB00044F4B2445DE744F400745AE744F48444C6
:101BC00057E744F4024454E744F4813451E744F4C1
:101BD000C1344EE744F4E1344BE744F4806448E711
:101BE00044F4E06445E744F4C06442E7B3F5C06FF1
:101BF00034D0B3F5E06F00F0F681B3F5A06F7FF459
:101C00008EAEBAF1010F2B688CBF0AF1FF3A4FF08C
:101C1000000A14F0010405F104058DF8203007D105
:101C200051464046FFF75AFE00287FF491AE5644D5
:101C3000D8F80030012208A9D8F8040098470028F5
:101C40007FF486AE0AF1010734B151464046FFF7F2
:101C500045FE00287FF47CAE3E4460E6D8F80030B4
:101C600001221A49D8F80400984700287FF470AE82
:101C7000013654E6002FACBF24F01004012714F401
:101C80000053069304F0E00300F0D480402B00F0F2
:101C9000CA800AD8002B00F0C980202B18D000225F
:101CA0000023CDE90023002320E0602B00F0BE805C
:101CB000802BF4D1073525F0070303F10805D3E99C
:101CC000002309E02DA720003EA7200060A72000E8
:101CD00095F90020D3170435002A73F10001E0DAEA
:101CE000524263EB4303CDE900230123059304F43F
:101CF000C053B3F5805F00F0C880B3F5C05F00F05B
:101D0000EA80B3F5006F40F00181DDE90023CDE901
:101D100002230DF1360BDDE90223134340F0C980A5
:101D20000DF13603A3EB0B030293029B41F608026D
:101D3000BB4238BFFF1A41F2080304EA020228BF7F
:101D400000279A4202D1002F08BF012741F608015F
:101D5000029B8A4203EB070040F0DC80DDE90023B0
:101D6000134300F0D780A24914F4804FA14B4FF0E9
:101D7000020908BF0B46069A72B1059A002A40F084
:101D8000CD8004F00602022A00F0CC80062A9A4A8E
:101D900004BF4FF00109134609EB000292458CBFC6
:101DA000AAEB020A4FF0000A14F00102009204D1DB
:101DB000E10640F1BB8057449246B9F1000F09D0CB
:101DC000D8F800404A461946D8F80400A047002831
:101DD0007FF4BEAD3C46029B1E44102CD8F8003068
:101DE00000F2AE803CB122468449D8F804009847FE
:101DF00000287FF4ADADD8F80030029A5946D8F8E3
:101E000004004E44984700287FF4A2AD009B3E4456
:101E1000002B00F0D08051464046FFF75FFD0028C0
:101E200000F0C98094E5B5F9002053E72A6804352D
:101E3000D31751E7402B1FD009D8FBB1202B14D06A
:101E40000023002205930023CDE900234FE7602BF8
:101E500014D0802BF4D1073525F0070303F10805D2
:101E6000D3E90023CDE9002304E02A780023CDE95B
:101E700000230435069B39E72A88F7E72B68002200
:101E800019460435CDE90012F4E70DF1360BDDE912
:101E9000002352EA03013FF443AF02F0070130315F
:101EA0000BF8011DD10841EA4371D8080A460346E0
:101EB000EFE7DDE902010A22002306F031FEDDE949
:101EC000020130320BF8012D00230A2206F028FE11
:101ED000CDE902011FE74A4B14F4804F0DF1360B98
:101EE000484918BF1946DDE9002352EA03003FF4D0
:101EF00017AF02F00F00085C4FEA131E0BF8010D3C
:101F0000100940EA037002467346EEE70DF1360B06
:101F1000002309E74FF000094B462CE74FF0010979
:101F2000394B39E74FF00109384B35E75146404608
:101F30000593FFF7D3FC059B00283FF43EAF07E570
:101F400010222E49D8F80400984700287FF400ADED
:101F5000103C42E7D5F800B00435BBF1000F2ED09D
:101F6000D94699F8003009F1010233BBA9EB0B09FE
:101F7000002F02DBB94528BFB946CA458CBFAAEB82
:101F8000090A4FF0000A14F0010406D151464046F8
:101F9000FFF7A4FC00287FF4DBACD8F800304A46F9
:101FA0005946D8F80400984700287FF4D1AC4E4435
:101FB000002C7FF430AF5644B1E49146D1E7DFF80E
:101FC00050B04FF00609D3E700F00F0E12F80EE004
:101FD0004FEA111C03F801ED4FEA101E4EEA017E94
:101FE0007046614663E52B6804351E6097E400BFC8
:101FF0004FA7200052A7200057A720001DA72000B0
:102000002DA720003EA7200055A720007CA6200079
:1020100059A72000F8B50388064615462BB14A2B70
:1020200017D0002303800320F8BD164807F090F96D
:10203000044634B90122144B1A704A23338001201C
:10204000F8BDA168201D07F035F92468F1E7246880
:1020500005E08829F3D10B4807F07AF90446002CF3
:10206000EBD0231D9D42F2D12146064807F079F9B5
:10207000064D62692F682A60A2690AB1E06990473B
:102080002F60DAE70C030020FB1C0020A0040020D6
:1020900010B50024054B06481C7007F056F9214680
:1020A000BDE81040034800F02FBA00BFFB1C002021
:1020B0000C0300209C00002070B504460A4DE3612B
:1020C0000A4B2E681B786661A2615BB1084B201D2C
:1020D0002B6007F0EFF82E602146BDE87040054800
:1020E00007F054B9A160F7E7A0040020FB1C002012
:1020F0009C0000200C03002070B5094B05461B789E
:102100003BB1084C084B26680430236007F0DBF82D
:1021100026602946BDE87040044807F037B900BF83
:10212000FB1C0020A00400209C0000200C030020C9
:1021300010B5084B04461B7843B1043000F0B0F8EA
:102140002146BDE81040044807F00BB9C3600361A5
:10215000F6E700BFFB1C00200C03002010B50C4C60
:10216000236813B90B4A136010BDFEF715FC2268F3
:1021700092E80A000B441B1A92680AB90344F1E77B
:1021800092E812002144091A8B4228BF0B46F3E75C
:102190001403002010030020014800F0CDB900BF57
:1021A000AC0000202DE9F8430388054633B1592BD4
:1021B00046D0002303800320BDE8F883234A136040
:1021C00059232B800120BDE8F88301209B681BB9AF
:1021D0000028F5D00B60F3E7DC68A242F5D000B12F
:1021E0000B6099680029EBD0C86882420ABF8968F1
:1021F0000B469960F5E78229E2D1144F4FF00009B0
:10220000B84600263C68002CDAD0204607F08FF84C
:1022100098B122468821E06800F04EF958B9E06094
:10222000A3682EB1B360C4F80890FFF797FFE8E702
:10223000C8F80030F7E7FFF7AFFF2646A468E2E7EB
:102240008729D8D1014900200B68C0E7140300207A
:1022500010B50446FFF7A0FFE3680B4A0BB1136803
:1022600033B90A4B1B68E36013681460A36004E091
:10227000A34206D1054A1268DA60BDE81040FFF7B4
:102280006DBF9B68ECE700BF14030020A004002092
:10229000024B1868003018BF01207047140300205B
:1022A00010B50B4A04461368834208D18368136053
:1022B000FFF754FF0023A360E36010BD1346002B1B
:1022C000F8D09A689442F9D1A2689A60F0E700BF0A
:1022D0001403002038B5836804460D469BB10A48B4
:1022E00004600220A07304F10C0098470238012812
:1022F00001D9832D05D121462046BDE8384000F0A4
:1023000005B80123A37338BDA00400202DE9F843CC
:102310001C4F89463D681C4E2C46D6F800808442EE
:1023200004D00CB9BDE8F8832468F8E7ACB1A37B0E
:1023300063B10023A37395B9A3683BB14C4505D0A5
:1023400034602A46832104F10C0098473B689C4284
:102350000FD123683B60C6F80080BDE8F883AC422B
:1023600004D022468721284606F0C7FF2D68E2E701
:102370001346002BEFD01A689442F9D122681A60F4
:10238000E9E700BFA4040020A0040020002370B5EA
:1023900001261D46084A1370084A146804B970BD26
:1023A000E37B33B1A673E573002282212046FFF759
:1023B00091FF2468F2E700BF001D0020A404002064
:1023C000024B1878421C1A70704700BFFE1C002098
:1023D0008A22064B1A700023054A1370054A1370AF
:1023E000054A1360054A1360704700BFFE1C0020B9
:1023F000FD1C0020FF1C0020A4040020A0040020DD
:102400002DE9F0411F4E33780BB1FFF7BFFF1E4D92
:102410002C78F4B10C22DFF884E01C499EF80030DF
:102420001B4F5A438818DFF87880895C0133426873
:10243000806803F01F03013C3970C8F800208EF853
:1024400000302C70B0B9134C134B1B682360236809
:1024500023B9337828781844BDE8F08133780BB17C
:10246000FFF794FFD8F800203978206806F045FF80
:102470002368EAE7812904BF0123837306F03DFF47
:10248000E7E700BF001D0020FF1C00201C03002008
:10249000FC1C00209C040020A4040020FD1C002043
:1024A00018030020024A034B10781B781844704729
:1024B000FF1C0020001D0020F0B50B4E3378202BB0
:1024C0000FD00C25094C0A4F24781C4404F01F043B
:1024D0006C4301333D19A86039556A6033700020A0
:1024E000F0BD0120F0BD00BFFF1C0020FD1C00203E
:1024F0001C03002038B5034C256806F0FEFE25605D
:1025000038BD00BFA004002030B40A4C0A4625683C
:102510002B4683420CD04BB950B101210560817329
:1025200020608381812130BCFFF7E4BF1B68F0E7A6
:1025300030BC7047A404002038B1837B013B012BE1
:102540009FBF0123014AC37313707047001D002011
:10255000024610B5064853600468029B1160936000
:10256000026014B90846FEF761FA002010BD00BFF2
:10257000A804002010B5084C206858B100238168D9
:10258000236043689847236823B1BDE8104018686A
:10259000FEF74CBA10BD00BFA804002070B5058836
:1025A0000446672D08D0792D32D06DBBFFF708FFA8
:1025B0001A4B18701A4B1D601A4E194D304606F012
:1025C0001EFF431C03D167232380012070BD0A280E
:1025D0002B6806D07E2BF1DC5A1C2A60124AD0549C
:1025E000ECE75A1C2A6000250F4A2846D5540B4BAD
:1025F0001978FFF761FF0D4B2A4685211868FFF710
:102600005BFF38B97923DFE700230380032070BD27
:102610008529DAD10022024B1A60CDE7B42F0020C1
:10262000AC040020B0040020011D0020A004002004
:102630000D2810B5014616D00C4C237853B90C4820
:1026400006F0CAFE08B9012323700A48FFF774FF99
:10265000012010BD0A28F8D1054806F0BDFE00286B
:10266000F3D00023F0E7002010BD00BF811D002043
:10267000B0040020BC00002008B5054905488022B0
:1026800006F0A3FEBDE8084000210348FFF73CBF69
:10269000821D0020B0040020BC000020064A136800
:1026A00043F004031360054B186804331B6840EAC9
:1026B000032080B2704700BF00700D4014700D40C1
:1026C00010B5174A136823F00C0313600122154B51
:1026D0001A601A68012AFCD10822134B13491A60A8
:1026E000E32203F505731A601A460B68DB07FCD575
:1026F0000F4C102100232068013900F0010043EA4B
:1027000000034FEA43039BB2F5D1002BF1D00949F6
:10271000180A03F0FE0308600B60EF23136010BD7E
:1027200000700D40A8200D402486084064860840B3
:102730009C86084014700D402DE9F047054610486E
:102740000F46904606F004FE0446DFF83890DFF8A6
:1027500038A00CB9BDE8F087012D0DD8504606F021
:102760002AFE03464246394628466668B047204658
:1027700006F028FE0446ECE7D9F80030F2E700BF87
:102780003C060020400600205805002028B121B159
:1027900041600146014806F0F9BD70473C06002043
:1027A00008B50A4807F03EFD094806F0CEFD094984
:1027B000094803F045F9094807F034FD084806F0D8
:1027C000C4FDBDE80840074806F0BFBDF400002086
:1027D0004406002027942000D8000020CC000020D0
:1027E000580500203C06002008B538B1416804486F
:1027F00003F02AFABDE8084006F03CBE08BD00BF61
:10280000D8000020014806F0A3BD00BF4406002008
:102810002DE9F04180460027FFF7F4FF3C460546CE
:102820001DB9BCB92046BDE8F08195F82460B742D7
:102830000AD8F20805F10801404606F0F9FA18B97D
:10284000802E06D037462C46284606F0E8FD054681
:10285000E6E72C46064806F07BFD8442E2D021469E
:10286000034806F07EFD2146014806F09CFDD9E7AD
:102870004406002038B5044600283ED04368002BAB
:102880003BD001461D4806F06CFD6368586806F0B1
:102890005FFD054660B343689C4225D163682946C5
:1028A000586806F05EFD6368586806F051FD20B96F
:1028B00063681348596803F0A1F92146114807F0ED
:1028C000D5FC2946104807F0D1FC104A2046136871
:1028D000013B1360FFF788FF04F108010246BDE8E1
:1028E00038400320FFF728BF284606F06BFDD0E7ED
:1028F00004F1080002F0C6FFD0E738BD440600200E
:10290000D8000020F4000020E8000020400600204D
:1029100010B5044678B1406868B106F019FD28B9D1
:102920002146BDE81040044803F068B94068FFF74D
:10293000A1FF6068F1E710BDD80000202DE9F04745
:10294000074610468946904606F096FD824618B91D
:1029500000242046BDE8F0873846FFF759FF0446BB
:1029600060B1FFF741FF014628B11022404606F052
:102970005FFA0028EDD02046FFF77CFF274E336832
:10298000142B04D1264806F0E5FCFFF773FF5146EF
:10299000244806F010FE054658B95146214803F078
:1029A000A3F805460028D3D000236860036006F032
:1029B000CCFC1D4807F046FC04460028C8D0014660
:1029C000174806F0F0FC194807F03CFC20B92146F6
:1029D000154807F04BFCBBE744600146686806F009
:1029E000D5FC33686560013333603B4604F108056C
:1029F00007F110062A4618685968083303C2B34223
:102A00001546F7D1002284F82490A261E261226287
:102A1000394642460220FFF78FFE9AE74006002023
:102A200044060020D8000020F4000020E800002028
:102A300038B505460D4806F08BFC044600B938BD94
:102A4000AC420ED12146094806F08BFC21460848CD
:102A500007F00CFC221D1146BDE838400120FFF7AD
:102A60006BBE204606F0AEFCE7E700BF580500202D
:102A7000CC00002038B50546084806F069FC04463D
:102A800008B9204638BD10222946201D06F0D0F98D
:102A90000028F6D0204606F095FCF0E75805002007
:102AA000F8B505460F46FFF7E5FF044640B9134861
:102AB00007F0C8FB0446E0B10146114806F073FC7C
:102AC0002B46261D05F1100E32461868596808334A
:102AD00003C273451646F7D16FB1394604F11400AD
:102AE00007F099FB002323772A4629460020FFF7A9
:102AF00023FE2046F8BD0123F5E700BFCC000020EF
:102B00005805002038B50B4806F022FC0025044685
:102B10000CB9284638BD251D284601F005F918B125
:102B200090F82230002BF4D1204606F04BFC0446EE
:102B3000EEE700BF5805002038B50D4806F008FC48
:102B400004460B4D04B938BD237F63B904F114006A
:102B500005F038FB38B12046FFF76AFF284606F03B
:102B6000F7FB0446EEE7204606F02CFCF9E700BF31
:102B70005805002037B5124B124D1C782B7905F102
:102B80000801C4EB03226B7913449BB2ADF8063005
:102B9000BDF806302022184480B206F046FCBDF88D
:102BA000062004F1280192B2294406F03EFC18B137
:102BB00040BA80B203B030BD4FF6FF70FAE700BFF5
:102BC000321E00207C240020022000212DE9F0414B
:102BD0002B4F2C4D97F800E02B4C0EF1280C0CEBF2
:102BE00005035E782070F6000736864204DA01B1EC
:102BF00020700020BDE8F0810CEB000305EB03081A
:102C0000EB5C012B36D00CD3632B0ED003F0C0034A
:102C1000802B1DD0C02B27D0402B2BD151B1207041
:102C200008E00130C0B20121DFE701B1207005F0FA
:102C3000C3F810B10120BDE8F08122783B78134938
:102C400013440B445B7802321A442270BDE8F081D1
:102C500001B12070704400F128020221042005F027
:102C6000DDFB0220BDE8F08101B120702B7EFF2B3F
:102C7000F0D1DFE7821C98F801001044D2E700BFD2
:102C8000321E00207C240020331E0020A4240020BB
:102C9000F0B5C578124B0D44EDB2DD7082780F0AA5
:102CA0003A44D2B29A70447897425C7006781E70AB
:102CB00005D9601CC0B2587008B901361E70C9B27F
:102CC0008D420BDA0132D2B29A703AB95A78013297
:102CD000D2B25A7012B91A7801321A70F0BD00BF20
:102CE0007024002010B5094C0146236803F114003C
:102CF000FFF7CEFF064A2368117819755178597588
:102D00009178D2789975DA7510BD00BFA02900209E
:102D10007024002010B505F02BFE05F067FC01F0D3
:102D2000A7FB00231946154A15480133DBB2082BCF
:102D300022F8021FF9D100231946124A0A2B02F188
:102D400030020FD14FF480620F4B10491A800023DC
:102D50001A461C4603700A2A01F1200107D103B16B
:102D6000027010BD013302F8301CDBB2E6E701321D
:102D700021F8204CD2B20123EDE700BF8A2B0020BE
:102D80002C1E0020C929002040170020B02B002055
:102D9000F8B5104E3578E5B10F4F05F127033C88A3
:102DA000A34203DB002333703B80F8BD0B4BA4F13F
:102DB0002802521B5919184606F0E0F80023641B3C
:102DC000A4B23C80283C221200F8242C00F8234CAA
:102DD0003370F8BD321E002068240020A424002097
:102DE000F8B5284C284E2288013292B2B2F5FA4F3B
:102DF00028BF4FF480520025130A43EA02239BB2F6
:102E00000A2D0DD1228000221746204C1E4E227022
:102E1000D5B20A2D0CD107B1257000252846F8BD82
:102E2000013506EB451737F8107C9F42E8D1DBE708
:102E300002F1010E06EB4E1C3CF810CCBCF1000F69
:102E400010D107B12570540135192B82698260B900
:102E500001461022284606F0F5F80D4B32191B7971
:102E60001375DBE772460127D2E703462F4600F1D0
:102E7000100E3A4618685968083303C2734517465E
:102E8000F7D1EAE740170020A02B00202C1E0020DD
:102E9000102E00200023F0B51C460B4A0B4E137079
:102EA000D9B2082902D104B11170F0BD1D4636F81F
:102EB00015700133874205D104B11170002326F843
:102EC0001530F0BD0124EBE72C1E00208C2B0020D8
:102ED00004282DE9F74FB74C00F03081B64FB74BBF
:102EE000DFF8FCE2B6490328DEF800503B600B60D7
:102EF0003E4671D195F8252002F00F02032A14D125
:102F0000AB8B002B40F093800822AE4B1A7002F07E
:102F1000F7FBAC4B1A78AC4B12F0200100F0238683
:102F200000221A8085F82520A7E0022A7FD1A3F18C
:102F30003C0B00238BF83530A44B93F8352042F03E
:102F4000020283F83520022283F83C20042283F811
:102F50003D20002283F83E20402283F83F2022803B
:102F6000602283F83420994E2B7D06F1180786F8ED
:102F700030306B7D86F83130AB7D86F83230EB7DBA
:102F800086F833302B7E86F82C306B7E86F82D3019
:102F9000AB7E86F82E30EB7E86F82F302B8A338579
:102FA0006B8A738595E80F0087E80F00394606F1B4
:102FB000080005F07BFC95F8253013F0100313BFD3
:102FC000002386F83630402386F8373014BF86F861
:102FD000363086F837304BE3022840F09A800023E1
:102FE000794A238013807A4AD3780133DBB2D370D5
:102FF00063B993780133DBB293703BB953780133F3
:10300000DBB2537013B913780133137095F8253080
:1030100003F0FD02052A13D195F826300133DBB207
:10302000782B85F8263002D1002385F8253000233F
:10303000684A23801370684A1370624A13705BE118
:10304000002BF4D0AA8B5F48002A5BD095F826208D
:10305000511E85F82610002AE9D195F82720082A64
:1030600004D0591E01290BD8052A09D1002385F85F
:1030700025308023037002F043FB142200F02DBDA5
:10308000042A94BF0321302103F00F0398BF91401D
:10309000013B013285F8261085F82720072BC6D87A
:1030A00001A252F823F000BF0B382000C9302000E5
:1030B000D3302000D93A20002F302000D93A200008
:1030C0002F302000D93A20000022404B83F83520D1
:1030D00032E70423037002F013FB394B1B683360A3
:1030E000394B1B88002B00F05E85AB8B002B00F06A
:1030F0005A8518223C332380344B83F835205022E4
:10310000324B2EE703F00F03032B90D108230370FB
:10311000FDE6052866D1314A1268128A002A86D057
:1031200000220C3B3B600B60274BCEF800201A803E
:1031300022800822234B1A7002F0E2FA224B1A88EE
:10314000002A3FF474AF02F130039BB223801F4C7E
:10315000283B19126371214B08321B6852BA217146
:10316000197DA2850022E1711121E2851A8AA171DF
:1031700022855A8A04F1180562850FCB85E80F0075
:10318000294604F1080005F091FB0B4B04F13C02C9
:103190001A6006F06CF9C04380B2002800F0D081BC
:1031A000E08504F06FFF6022084B1A7000225A700D
:1031B0005A809EE0682400209C290020B82400202A
:1031C0006C240020902900209C2B00207C240020CF
:1031D0002D1E0020321E0020311E002098290020C4
:1031E000A029002013F83C2CA3F13C0B02F0F002C4
:1031F000602A7FF41CAF9BF804309BF805201B026B
:103200002188981888423FF712AF28321344238050
:103210009BF80830FF2B3FF40AAF9C4B0BF10602E2
:103220001A6000229A4D9B4F2A703A709BF8062034
:1032300098464AB901233B70FFF7C6FC01283FF4CA
:10324000F6AE5CD3022854D0934805F02DFADFF88F
:1032500048A2002840F0C680504605F0C9FA002870
:1032600040F0C0809BF81830FF2B67D048F2FE007A
:10327000BBF81820824261D0BBF8081081425DD0B3
:10328000A9B9BBF80A1091B9BBF80C1079B9BBF811
:103290000E1061B9BBF8101049B9BBF8121031B962
:1032A000BBF8141019B9BBF81610002946D0B2B9F2
:1032B000BBF81A209AB9BBF81C2082B9BBF81E20B3
:1032C0006AB9BBF8202052B9BBF822203AB9BBF842
:1032D000242022B9BBF82620B2F5807F2ED0238887
:1032E000B3F5A06F17D94FF4A0620021022005F0BA
:1032F00095F80022694B1A7003B0BDE8F08F2B7867
:1033000003F128025A44C8F800205278083303EB2E
:10331000C2032B7098E79BF80730012B03D80022DB
:1033200003201146E3E704F08FFD00287FF47FAE11
:103330009BF80730013B8BF80730DAE748F2FE02D2
:10334000BBF8081091427FF472AEBBF81820BAB9EE
:10335000BBF81A20A2B9BBF81C208AB9BBF81E2002
:1033600072B9BBF820205AB9BBF8222042B9BBF889
:1033700024202AB9BBF82620B2F5807F3FF457AE4F
:10338000FF2B3FF454AE444805F070F90246002884
:103390007FF44DAE02210120A9E73A2B57D006D881
:1033A0002C2B3FF444AEA2EB0B02012145E03B2B5A
:1033B0003FF43DAE3C2BF6D13B78980704D5590637
:1033C000F1D443F040031FE043F002031CE02B78EC
:1033D00003F128025A44C8F800205278083303EB5E
:1033E000C2032B70D8F8002013782B2B17D0D4D819
:1033F000062B00F0A980112B54D0002BD3D13B78A1
:10340000D907D0D443F001033B70FFF7DDFB01285F
:103410003FF40DAEDBD302283FF46BAFE2E73B781D
:1034200013F00401BFD12A7843F004033B7002F18A
:1034300028035B44D87810B12A32042057E7C8F833
:1034400000305B78083202EBC3022A70CAE706F04C
:1034500008F84FF6FF7398427FF4E9AD2B78104AD5
:10346000D05C01F097FF2B7828330BEB03021BF89D
:103470000300517804F0B0FF012804BF002323802B
:103480002388002B3FF4D3AD33E700BF94290020FD
:10349000321E0020311E002094240020902900209C
:1034A000A4240020FFF774FC2388B14F303B238015
:1034B000BBF82E3037607BBBBBF82AA0BAF1000FF7
:1034C0003FF4B5ADAB4AAC4B9046136003F5A07921
:1034D000BBF828B0A94BD8F800504D45BFF4A7ADB4
:1034E0002A8AAAB1924513D16A8A0AB15A450FD1E4
:1034F0002A682AB96A681AB9AA680AB9EA689AB140
:10350000184610222946019305F092FC019B58B100
:103510002035C8F80050DEE705F0A9FF4FF6FF732D
:1035200098427FF484ADC7E700230221944A3760B4
:103530001360944A1170944A1760944A1380FBE513
:103540004FF6FF73E3852CE6FFF722FC05F08CFFB6
:103550004FF6FF7398427FF46AADBBF82A70002FD4
:103560003FF465ADBBF82880B8F1000F3FF45FADC4
:10357000874D824B95F82590B9F1000F0FD02A8A1C
:10358000BA420CD16A8A424509D11846102229460E
:10359000019305F04DFC019B002800F040817D4A1D
:1035A00030359542E6D99BF8353003F03F03022BC6
:1035B0000BD10023784A18469146784E78491780F7
:1035C0003370082B6AD100B133709BF835305D073A
:1035D0003FF52DAD14238BF835303C232380502349
:1035E0008BF834309BF833309BF831009BF82F1068
:1035F0008BF82F309BF832309BF82E20674D8BF8DC
:103600002E309BF82D308BF82D009BF82C000131CB
:1036100028709BF83050C9B28BF832208BF83130CB
:103620008BF82C508BF830008BF8331061B90132D5
:10363000D2B28BF832203AB90133DBB28BF8313099
:1036400013B9431C8BF83030BBF82830524A4B4D2D
:103650001380BBF82A20ABF82A30ABF8282095E875
:103660000F008AE80F0005F11001284605F01EF949
:1036700006234C4DAB714C4B1B79EB712388283BD7
:103680001A126B7100232A7185F83B3085F83A30A5
:103690002B8705F0E9FEC043288784E531F8022F27
:1036A0000133BA42DBB24FF001008AD100239E46BB
:1036B0001A461D46364833705FFA8EF30A2B03D143
:1036C00002B1337055B9B2E490F8251000296FD1DA
:1036D00002B1337030252E4B05FB0E35284B4FF0D1
:1036E000000A1D60032385F8263085F82430042362
:1036F00085F82330214B85F822A00FCB85E80F00F9
:1037000001202A4B85F825001A78A8832A765A7852
:1037100085F827A06A769A78DB78AA76EB769BF80C
:103720002F302F82EB759BF82E30A5F81280AB75E9
:103730009BF82D306B759BF82C302B75FFF7D2FA68
:103740009BF8343003F0F002502A5ED91B09053B88
:103750009F005246534686F800A0BB4204DA0BEBAA
:10376000030090F83C10A1BB002A4ED033704CE00F
:10377000AC24002098290020A02B002084240020C5
:10378000A0290020902900206C2400209C2B0020E0
:10379000A4290020542B0020421700202C1E0020BA
:1037A0008A2B00207C240020102E00202D1E0020BB
:1037B000072907D15DB190F8262095F826309A4266
:1037C00088BF054630300EF1010E012274E7054630
:1037D000F8E7012903D10133DBB20122BDE7022959
:1037E00015D190F83D10042911D102B133709B44DA
:1037F0009BF83E209BF83F3043EA0223402BA9F878
:10380000003028BF4023EB832B8410225DE40BEBB8
:10381000030191F83D100029A6D00B44DCE7B24B20
:103820009BF835101D60B14B11F0040F18701F4646
:1038300007D0202285F825001A7001F061FFFFF7FC
:10384000F6BB9BF834302288A9481B099B00283A14
:10385000037009F00F09D31A9BB2B9F1020F23804C
:10386000804618D101F03F02122A1BD00BB98807FD
:1038700018D0DBF82C206B699A4213D0890706D543
:10388000B9F1010FC1D0B9F1020F3FF455AB1023CC
:103890008BF8353024E1B9F1010FE7D101F03F0297
:1038A000022AE2E7CA0649D5A98B002946D005F1CC
:1038B0001800FFF7EDF98F4B9BF8302018789042F5
:1038C0003CD19BF831205978914237D19BF832E0B6
:1038D0009A78724532D19BF833E0DB7873452DD16D
:1038E000EB7695F8273028766976AA76F3B995F8BD
:1038F000240095F8263095F82210C01AA0EBD100CC
:10390000C0B243B2002B95F823200144BCBF404213
:1039100043B2A2EB92021344C9B2DBB285F8233062
:1039200003EBD10385F8221085F8243001233B7086
:1039300095F8243085F826300023AB8395F82520B0
:1039400002F00F03013B072B3FF671AB01A151F8C9
:1039500023F000BF75392000AF392000953A2000D0
:10396000CF3B20001F3C2000493C20008F38200026
:10397000BB3B20003B78DB0711D5032385F82530BE
:1039800040233B7000232088AB8318B142233B7057
:10399000FFF7A8F90022584B1A80FFF7B8BA9BF836
:1039A000353003F03F03022B7FF441AB2DE73B782A
:1039B000D80765D59BF8353003F03F03122B5FD154
:1039C0009BF8343003F0F002502A35D900221B094D
:1039D000053B98009646134688F80020834204DA97
:1039E0000BEB030191F83C202AB9BEF1000F23D064
:1039F00088F8003020E0012A04D10133DBB24FF017
:103A0000010EEBE7022A32D191F83D20042A2ED193
:103A1000BEF1000F01D088F80030384A134493F803
:103A20003E2093F83F3043EA0223354A402B13806F
:103A300028BF4023EB832B84032385F825309BF894
:103A40002C3001202B759BF82D306B759BF82E3098
:103A5000AB759BF82F30EB75FFF744F942233B70B1
:103A60000023254AAB8323801380FFF750BA0BEB6A
:103A7000030292F83D20002AB7D01A44D3B2BEE721
:103A800020233B7001F03CFE0022174B1B6883F89B
:103A900025209AE59BF83530D90733D5D00631D4A7
:103AA000AB8B002B7FF4C3AA2088013080B2FFF7D4
:103AB00019F93B7843F010023A70228812B143F0B2
:103AC00012033B7001F01CFE0123AB83082385F831
:103AD0002530002385F827301122084B83F8352044
:103AE0003C232380FFF70BBBA02900209029002056
:103AF0002C1E0020702400209C2B00207C24002001
:103B00004217002099060FD5BBF83A3030685BBAEF
:103B10009BB29BF83AE09BF83B101844238841EA9B
:103B20000E215B1A30602380208838B1D30605D47B
:103B30003B7843F002033B70FFF7D4F89BF8362044
:103B40009BF83730298C03EB02239BB2444A8B420B
:103B5000138000D803B911801388EB833B78990751
:103B60003FF465AA16E712F0100008D0198001236F
:103B7000AB83042385F8271085F82530ACE7198836
:103B800051B1D20748BFA883AA8B52B9EA8B9142A0
:103B900088BF1A801B88AB83002385F82730FFF786
:103BA0009CBA1A80F8E72F4B1B789F077FF53FAA36
:103BB0003C2310222380FFF79FBA3B78DE077FF576
:103BC00036AA002385F8253010233B7035E620887F
:103BD00008B1FFF787F89BF8353013F0010315D0D3
:103BE0003B78D80749BF0723062385F825300023F3
:103BF00052BF85F8253085F82630AB830120FFF7CA
:103C000071F810233B7001F07BFD40E63A78D10754
:103C100014D50522AB8385F82520FFF708BA208844
:103C200008B1FFF75FF89BF83530DA0706D50723B0
:103C300085F82530002385F82630DFE72388002B20
:103C40007FF425AEFFF7F3B93B78DB077FF5EFA9EB
:103C5000072385F82530002385F82630FFF7E7B9DC
:103C60004217002090290020054BC0F3072203EAE9
:103C70000023000C40BA134380B240EA034070476F
:103C800000FFFF0010B5044640B103F039F8044BC3
:103C90002146BDE81040186801F0B0BF10BD00BF5C
:103CA00000010020024B0349186801F0C9BE00BFA3
:103CB00000010020853C20002DE9F8439846154B73
:103CC00005461868914601F00FFF0446F0B107461B
:103CD00005F110033E4628686968083503C69D4211
:103CE0003746F7D1002104F1100084F8219084F8C0
:103CF000228006F090FA04F11800002106F08BFAF9
:103D00000023204684F8203002F0FAFF2046BDE868
:103D1000F88300BF00010020024B0146186801F043
:103D200093BF00BF0001002070B50C4D0646286807
:103D300001F0BEFE044676B90024204670BD102274
:103D40003146204605F074F80028F6D02146286850
:103D500001F08AFE0446002CF1D1EDE700010020BD
:103D6000024B0146186805F026BC00BF0001002088
:103D700070B5054610200E4602F0B2F8064904461A
:103D800005F031FC30B9324629462046BDE8704086
:103D900002F07EBF70BD00BFDFA720002DE9F84311
:103DA000434D0027286801F083FE0446414EDFF8AA
:103DB00008810CB9BDE8F88394F82230042B17D899
:103DC000DFE803F020031643540004F110094846CD
:103DD00004F0F8F960B12046FEF74CFE70B1032301
:103DE000052184F82230484606F015FA84F8207040
:103DF0002146286801F038FE0446DAE7022384F8F9
:103E00002230F5E794F82030022B03D92046FFF743
:103E100039FFEDE704F11809484604F0D3F900280A
:103E2000E6D031880029E3D12246084694F82030B4
:103E3000013384F8203000F06DFA4FF47A73D8F82B
:103E400010104846B1FBF3F10DE004F1100004F04E
:103E5000B9F90028CCD00423002184F8223084F85A
:103E6000207004F1180006F0D6F9C1E794F820306C
:103E7000022B0AD92046FEF7FDFD0028C6D0037F9D
:103E8000002BC3D1FEF7D4FDC0E704F11809484662
:103E900004F098F90028ABD030880028A8D194F815
:103EA00020302246013384F820302146C3E700BF8A
:103EB0000001002068240020102E00202DE9F04F82
:103EC000704C85B0E379DFF8DC81FF2B40F0868011
:103ED0006D4B19780293621892F82920002A7DD13F
:103EE0002C3101EB040A9AF80430FF2B76D00D5DDB
:103EF00015F0400702D0237EFF2B6FD00022B8F8C8
:103F000000001423019096461046604EDFF880C1F1
:103F10003370CCF800200096CDF80CC0019E03EB66
:103F20000109B1454BDBBEF1000F01D058490860D3
:103F30000AB1009A13700AF1040004F0B5FB554B66
:103F4000186000284AD1029B187820443030FFF7CF
:103F5000EBFE514C2060FFF7DFFE26688246A1464B
:103F6000002E3BD0039B1C68002C49D00146082240
:103F7000A01C04F05DFF96F8223005F0800B002BAA
:103F800044D15CB354F8022FCAF800206268CAF822
:103F90000420002F36D086F82030404B0122D9680B
:103FA0004FF47A7386F82220B1FBF3F106F110008A
:103FB00006F031F9D9F8003083F821B00EE004EBB7
:103FC000090B9BF801C0BCF1000F0DD1BEF1000F31
:103FD00001D02F4908600AB1009A13700023A8F895
:103FE000003005B0BDE8F08F14F8092003EBCC03D6
:103FF000022A04BF58464FF0010EDBB201228DE7C2
:104000002046B8E7022386F82230D3E7AA06C0B2DA
:1040100006D428B1012BE1D1022386F82230DDE756
:104020006CB3224652F8023FCAF800305368CAF80F
:104030000430E7B1012386F82230184B06F1100056
:10404000D9684FF47A73B1FBF3F106F0E4F8D9F8CC
:10405000003093F82130002BACD02B06AAD41048A6
:10406000FEF708FD0028A5D0FEF7E2FCA2E7002C31
:10407000EDD00028EBD0022386F82230E7E7002FAE
:10408000D8D1E4E77C240020321E0020341E00201A
:10409000900C0020880C00208C0C0020102E00209A
:1040A00084240020682400202DE9F74F8D4CDFF890
:1040B0005CA2E379FF2B40F013818B4E04F12C05B9
:1040C00033785A191279FF2A00F00A81234493F8B1
:1040D0002920002A40F00481844B854F1A60142265
:1040E0009846DFF82CB23A7030783B782C30BAF82A
:1040F000002003449342C0F28E802044043004F038
:10410000D3FA7C4B18609946002800F0E980238997
:104110007BB963896BB9A3895BB9E3894BB9238AFE
:104120003BB9638A2BB9A38A1BB9E38A002B00F041
:10413000D780714F384604F0B7FAB846002840F0EF
:10414000CF8040F2FF23228B07F1100B9A4240F000
:10415000B480638B002B40F0B080A38B002B40F029
:10416000AC80E38B002B40F0A880238C002B40F028
:10417000A480638CB3F5807F40F09F8094F8243056
:10418000FF2B40F09A8097E80F008BE80F00337800
:104190001D44043595E80F0087E80F006022227067
:1041A000282262713A22A271FF220023E271882242
:1041B000337063706380237184F82930E02384F8BE
:1041C0002820D9F800204D4E84F82C30931C123250
:1041D000354618685968083303C593422E46F7D10F
:1041E0000223474984F840300A6884F84130C4F813
:1041F0004220444B4A685A600022C4F84A209A81FF
:10420000628505F02EF9C04350236085AAF800307E
:1042100003B0BDE8F08FE2185178002960D0E35C6C
:10422000012B20D12389C8F8002073B9638963B9B1
:10423000A38953B9E38943B9238A33B9638A23B97C
:10424000A38A13B9E38A002B4AD02B48FFF76CFDF1
:104250000246CBF8000078B90223D8F800102648AF
:104260001944FFF729FD3A78337813442B445B78DF
:1042700002EBC3023A7037E7FFF74EFDD8F8002093
:10428000014602F1020901900822484604F0D0FDDF
:10429000019B58B1D9F800201A60D9F804205A605F
:1042A000DBF80030022283F82220DCE7DBF8003064
:1042B00093F82220002AD6D1F4E7134804F0F4F949
:1042C000D9F8003083420BD198E80F008BE80F003B
:1042D00033781D44043595E80F0088E80F005DE74A
:1042E000002393E77C240020321E0020900C002045
:1042F000341E0020880C002084240020AC240020E0
:1043000074240020BE24002094240020682400206F
:104310008C0C0020F8B500234E4C4F4F63703B705F
:1043200063803A230646A3716020FF232070E37167
:1043300000294CD16183A183E183218484F8221078
:10434000022001212376607684F8231084F824303B
:10435000537B84F82530D389E384872384F828307D
:10436000002384F82930E3621346DFF800E102F10C
:10437000100C754618685968083303C56345AE4686
:10438000F7D100251046257104F08EF9002852D18E
:104390005EB3324D334610362A46186859680833E2
:1043A00003C2B3421546F7D123892D491BBB63894C
:1043B0000BBBA389FBB9E389EBB9238ADBB9638A19
:1043C000CBB9A38ABBB9E38AABB90B80F8BD0B4666
:1043D00004F1180E01F1100C75461868596808337D
:1043E00003C56345AE46F7D1B7E71E49A1F11000FA
:1043F00004F05CFAD8E7282301203A786371403250
:10440000A318A054022218485A700268C3F8022068
:104410004268C3F806200022C3F80A20DA8150233C
:104420000B803B7828331C440023638005F019F887
:10443000C0436080F8BD182340226371084B25817A
:104440006581A581E58125826582A582E5821A8044
:10445000E7E700BF7C240020321E002084240020D7
:10446000682400209424002074240020AC24002020
:1044700008B5044803F0CCFFBDE80840024803F04B
:10448000C7BF00BF200100201401002008B5064866
:1044900000F06EFF0122054B1A7000225A70AA220A
:1044A0009A70DA7008BD00BF89462000351E0020D2
:1044B00010B50E4C0220A17901F0F8FCA379112B64
:1044C00009D1218D638D9942A8BF1946BDE81040DE
:1044D000012001F0EBBC062BF3D03A2B03D1218D48
:1044E00049BA89B2F2E70021F0E700BF7C2400203E
:1044F00030B513780546087A83F0020398421FD13D
:10450000487A537898421BD1887A9378984217D189
:10451000C87AD378984213D1087B137998420FD187
:10452000487B537998420BD1887B9379984207D185
:10453000C87BD379984203D10320A840C0B230BDD4
:104540000B890E4C6BB94B89B3F57F4F09D18B8921
:10455000FE2B06D12368CA89022023F8022B236090
:10456000EBE7226801F1080303CB083242F8080C9C
:1045700042F8041C01202260DFE700BF9C0C0020F1
:1045800010B5084C01462378012B08D10822A01C45
:1045900004F04EFC00280CBF2046002010BD002077
:1045A00010BD00BF351E002008B50146102001F0E7
:1045B0008BFC044B00219B6803489847BDE80840EA
:1045C000FCF7A2BBB0A52000CD45200010B50C46DD
:1045D00011462046FFF7CCFB044B1B6813B19B68C8
:1045E00020469847024B1C6010BD00BF940C002071
:1045F000A40C00202DE9F84315090F2D0646984616
:1046000002F00F0432D00F2C35D01DB12A463046AF
:1046100004F03EFC2A190F2A274605DCC2F11002DD
:104620000021701904F00EFDCCB1DFF85880C7F1FD
:104630001000D8F8009022464946304404F028FC87
:10464000022C05D10A2D9FBFFF23F372FE23337383
:104650004C44C8F80040BDE8F8831024D6E77DB18B
:1046600041463046BDE8F84305F05ABE0F2C00D154
:1046700010241025CAE7002DEFD110273C46D4E7BF
:10468000BDE8F8839C0C002000232DE9F04FB84FC3
:10469000B84E87B03B703370044601F0A5FB01F0C3
:1046A00041FBB54D04212860092001F0FFFBB34B0D
:1046B000B9461B68A8460BB1FFF7FAFE002C40F084
:1046C0002A81AF4904A804F089FFAE4BAE4D1A8889
:1046D00000933E2A40F25282D8F800B0AB4C0BF166
:1046E00002032360337805F118000233019300239D
:1046F000019A0BF80230FFF743FF029430B905F13D
:104700000800FFF73DFF002800F007818024029A8F
:104710000BF10303136068782A78030943EA021354
:10472000DBB2990841EA83135BB210F00F0FD9B2E4
:1047300002F00F0740F0F3806A88002A40F0EF8013
:104740001FB910F0F00F00F0058170278F4A136831
:1047500003F8011B13608C4B8C4A9879112808BF11
:1047600047F0040717F0040F02BF116801F8010BAE
:104770001160D979402900F0EF80FF2900F0EF8027
:10478000012940F0EF8047F00107B3F808A0BAF123
:10479000000F40F001815A89002A40F0FD809A897B
:1047A000002A40F0F980DA89002A40F0F5801A8A60
:1047B000002A40F0F1805A8A002A40F0ED809A8A5F
:1047C000002A40F0E980DB8A002B40F0E58044F0CD
:1047D00040046D49DFF8B4A10B7EFF2B40F06881E7
:1047E0004A7E44F0080C022A40F017814B8B002BC4
:1047F00040F013818B8B002B40F00F81CB8B002B73
:1048000040F00B810B8C002B40F007814B8C002B70
:1048100040F003818B8C002B40F0FF8091F8263014
:10482000002B40F0FA80DAF8003091F8272044F0AD
:104830000B0403F8012BCAF800302823524889F8EA
:1048400000308379112B514B33D1018D0A0A42EA92
:1048500001224FF2B00192B222F00F0E1FFA8EFE2B
:104860008E4540F06481B0F82AC04FEA1C2141EA2D
:104870000C2121F00F0189B2714540F05881029A54
:104880001168F3220A70028D0231150A428D120A54
:1048900002EB051202F5AA6201F8012C029A1160DE
:1048A000394AD18D1A6822F8021B1A60302289F821
:1048B0000020D8F8001032781B688F545B1A0A4425
:1048C0005470337004A9102001F0FEFA304B1B68BD
:1048D0009847304B30EA200428BF15245B6998477D
:1048E000009BC4F17D041F8899F800A03578241A34
:1048F000A7EB0A02631B9A4240F3098201F008F811
:104900007823B7FBF3F701388742C0F25F810020BC
:1049100007B0BDE8F08F2146D4E60446FBE61B4A0B
:104920007FB910F0F00F0CD1116823F03F0303435F
:104930000B70154B03315B88682721F8023C11602E
:1049400009E71148136800686027186003F8041B22
:10495000136000E77827FEE647F0020715E747F007
:10496000030712E7106800F8011B10600DE700BF95
:10497000401E00203F1E0020AC0C0020940C0020A4
:10498000DFA72000682400207C2400209C0C00204D
:1049900064A52000B0A520008648FFF7F1FD864BF6
:1049A000186088B1019B42781BF80330814943EAC3
:1049B0000213019A04200BF80230804AFFF798FD99
:1049C00060F03F00C4B204E748F2FE039A450ED1FE
:1049D0007B494B8B5BB98B8B4BB9CB8B3BB9774A04
:1049E00008310420FFF784FD0443E4B2F1E6754B7F
:1049F000DFF8C0E1D3F800C09A466246734603CBA5
:104A00005160714910608B429E4602F10802F5D157
:104A10000CF11003CAF80030DBE6694B598B91BBEF
:104A2000998B81BBD98BB9B9198CA9B9598C99B912
:104A300093F8241081B9DAF8001044F00A0408460B
:104A400000F8012B33F8252F043121F8032C9B7833
:104A50008370CAF80010F0E6594BD98B99B9198CBC
:104A600089B993F8221071B9DAF8001044F00904FA
:104A7000084600F8012B53F8232F063141F8052C86
:104A80001B790371E5E7DAF80020DFF83CE1144612
:104A90000EF1100B734603CB5B45206061609E46B0
:104AA00004F10804F6D11032CAF800206446C4E6C6
:104AB00001F118000391FFF763FD3F4B0399186064
:104AC00088B142780020019B44F004041BF80330B5
:104AD00018311343019A0BF8023004AAFFF708FDBE
:104AE0000443E4B2A9E648F2FE030A8B9A4208D1D5
:104AF0004B8B33B98B8B23B9CB8B13B904AA1831E9
:104B0000ECE7DAF80020DFF8C0C096460CF1100A96
:104B1000634603CB5345CEF80000CEF804109C4604
:104B20000EF1080EF4D1274B10321A6085E6698D1C
:104B3000090289B2B1F5704F0BD1F1211A681170D9
:104B4000298DA2F80110698D090AD17004321A600A
:104B5000A6E602F47F42B2F5704F1A6807D1F2213F
:104B60001170298D090A5170698D5180EEE7F0218D
:104B70001170A96A053242F8041CE8E74122D8F80E
:104B8000003034781A70621CD2B2134405F1280741
:104B90002A4603CABA4218605960154603F1080351
:104BA000F6D199F8003029342833347089F8003070
:104BB00088E600BF84240020980C00207424002084
:104BC0007C2400209C0C002094240020D8F800A015
:104BD000357851462A460AF1040004F0CFF9009BCB
:104BE000544A1B8804351B0A63F03F038AF80030DF
:104BF000009BEDB21B88A4EB050B8AF801301388EB
:104C00002BF0070B190A8AF8033001338AF80210D7
:104C1000138099F80010484B484F19445A460AEB44
:104C2000050001933570C7F800B004F031F905EBC9
:104C30000B0080B201F070F800F070FE019B054699
:104C40009A4600283FF463AE04A8FFF7ADFC28465F
:104C500000F09CFE284600F083FE394A1368934614
:104C6000012B3FF454AE043B012B7FF650AE3B6862
:104C700099F80050D8F800201D4405233370009B9C
:104C8000053C1B8824F007041B0A63F01F03137004
:104C9000009B3C601B882B4CADB2537023889D4217
:104CA00001D3012034E6D8F80000EA0802713A681E
:104CB0005B1B9342B8BF3B6096F800903B680AEBE1
:104CC00005011A464844009304F0E2F8009B09EB02
:104CD000030080B201F020F800F020FE8146002899
:104CE0003FF415AE04A8FFF75FFC484600F04EFE07
:104CF000484600F035FE3B681D44DBF80030ADB29D
:104D0000012B3FF404AE043B012BC7D8FFE5D8F8D4
:104D1000000009492844514404F0BAF8009B18885F
:104D20002844A0EB0A0080B200F0F6FF04A8FFF7C9
:104D30003BFCB6E7441700207C240020A80C002090
:104D4000A40C0020682400202DE9F04F0024424FDD
:104D5000424D89B03C702C7000F0E4FF404EB946E3
:104D60003060042001F0AAF83E4B00B218603E48C3
:104D700004F0DDFAB046DFF800B118B13B4BABF8F8
:104D800000401C80D8F800301A785E7846EA022687
:104D900002F0F802C02A0CD0E02A1CD00024334BC9
:104DA000ABF800401C80A2462746234602942646C4
:104DB0003AE000244FF0010A9A78DF782B78C6F3A6
:104DC0000A06043347EA02272B700294BBF800302E
:104DD000D3B9012328E01A79DF7802929A782B78E8
:104DE000BBF80040053347EA02272B7000F0AEFF06
:104DF00004442878C6F30A06241AB442B4BF002437
:104E000001244FF0000AE1E7BAF1000FE1D00F20D2
:104E100001F066F80146164804F0E5FB18B9134B9B
:104E2000ABF8000018805346BBF8002032B37EB1C7
:104E30000E4B1B88B3420BD10E4B1B88BB4207D1D4
:104E40000F2001F04DF80146094804F0CCFB78BB77
:104E500009B0BDE8F08F00BF401E00203F1E0020BB
:104E6000AC0C0020A00C0020B00C00204A17002041
:104E7000B52F0020481700204617002040F213519C
:104E8000721E92B28A4213D813B1BAF1000FDFD06A
:104E9000B04B4FF480611E80AF4BB0481F8004F0D0
:104EA00034FA0F2001F01CF80146AD4804F096FBDF
:104EB0002F78052F77D0D8F80030DA5D02F0E001C6
:104EC000602940F00C82B91C19443B4493F80180DE
:104ED000A4484FFA88F3002B0160BCBF0131016088
:104EE00012F0100F019302F0080103469E4F40F0AC
:104EF000BD80002940F0A980016831F8010FA7F8B2
:104F000001008978F970196811F8040B1960830899
:104F100003F00F0141F060013970797803F030033C
:104F200043EA801301F00F010B437B7012F004037E
:104F300003938D4D05D18B490B6813F8010BA871B4
:104F40000B6012F003020BBF864A884B13689B5C10
:104F500009BF13F8011BEB711360E97118F0400FE2
:104F6000C8F30113DFF814B200F0E980019A002AB7
:104F7000BDBF7F4A9BF8001012680022BEBF5218C6
:104F800091780A09002B00F08E807A490878012870
:104F900040F087804878904218BF0021764A11601F
:104FA000002940F0BE8100F0D1FE744D2B78834281
:104FB0003FF64EAF00F0CAFE2B78714AA0EB030813
:104FC000C2F8008099F80070029A07EBC20040F224
:104FD000145200EB080191423FF63AAF644ADFF801
:104FE00074911168424619445F4B664D184403F0B2
:104FF0004FFF002E00F09181BAF1000F02D02B88F4
:105000001F442F80002C00F084812E802B8823B138
:10501000B9F800209A427FF41BAFB9F8004052491A
:105020002246594803F034FF584B1C800023584C4B
:10503000A9F800302B80236823B1FFF739FA2368E1
:105040005B68984700F0BAF902E76021397001689F
:105050000D780331A80800F0300005F00F05284353
:10506000787031F8020C788019605FE701F0FF0575
:1050700089B901680878C0F3830040F06000387097
:1050800011F801EB7D804FEA9E0000F0300040EA0D
:105090008E107870E8E760233B7000237B707B8084
:1050A00044E700217AE719463A4A0F20D25C05917D
:1050B000049200F015FF0346049A05993648FFF75D
:1050C00099FA18F0080108F0030208F004036FD001
:1050D000A3B9324B1B88ADF81C30531E012B06D8E8
:1050E00020490B6813F8010B8DF81D000B6000239D
:1050F0002B498A5C07A92B48FFF77CFA99F8000036
:10510000184900F1280389F80030039B002B00F0B8
:1051100098800B681A7802F0F802F02A40F091802B
:105120001122AA711A7802F0040E02F0F302F03A8A
:10513000032A3FF638AFDFE802F0719FACB61A4A97
:105140000F20D25C049200F0CBFE049A034617496C
:10515000B4E700BF4A17002048170020B00C002019
:10516000B52F00209C0C0020B80C00209AA720002E
:10517000AC0C0020351E0020980C00203F1E0020A3
:10518000A80C0020461700207C2400206824002062
:10519000940C00209EA72000C00C00208BA72000AC
:1051A000A6A72000D00C0020A2A720008DA72000D9
:1051B00053B3019B002B07DA5B4B9BF800101B6875
:1051C0000B44997801F00F01584B1878012818D139
:1051D00093F8018088450CBF98464FF00008544B67
:1051E000C3F80080B8F1000F3FF4DDAE514B102042
:1051F0009A5C019200F074FE019A034608F10201E4
:1052000079E74FF00008EAE74B4B102013F80280D3
:1052100000F066FE4246034648496CE7B3F80120B9
:1052200005332A8533F8022C6A850B60BEF1000F26
:1052300004D10B6833F8022BEA850B60303089F813
:105240000000394A0B6812689B1A8BF80030002E58
:105250003FD100F07BFD9BF80030C01A99F8003078
:105260001844283803122B716871AB79112B7FF425
:105270009AAEAB88AB8596E6B3F801202A85DA783A
:10528000A2F5805292B2120242F0F0026A85043313
:10529000CBE75A78A2F5805292B2120242F0F002A5
:1052A0002A855A88F2E75A7802331209A2F5756204
:1052B00092B2120242F0F0023A8513F8012C02F089
:1052C0000F02A2F5756292B2120242F0F0027A85E4
:1052D000ABE7A6F128031A122A716B71C5E7412AC0
:1052E0007FF4B6AD7A1CD2B21344DFF854E003F178
:1052F000280C724618685968083303C263459646FD
:10530000F7D199F80030293728332F7089F8003009
:1053100049E62F8847442F8078E64744A9F8007073
:1053200074E60231C0E600BFAC0C0020351E002040
:10533000980C00209EA72000A2A720008DA7200087
:10534000B80C002008B5054803F0CFFF20B1BDE838
:105350000840024803F0C0BF08BD00BFD0110020C4
:10536000024B1B6803B1184718467047CC11002048
:10537000014B1860704700BFCC11002010B51446D7
:10538000FDF72EFD18B1024BC4611B68836110BD8F
:10539000A004002007B5074B8DF80700186828B156
:1053A000054B0DF107021978FDF7A4F803B05DF87D
:1053B00004FB00BF842B0020BE2F002008B5002274
:1053C00002210448FDF796F80023034A1380034A9C
:1053D000137008BD2C01002068240020321E00201C
:1053E000F8B5454E3388002B00F08580B3F5A06FEB
:1053F00002D900233380F8BD404B1A8B72B95A8B07
:1054000062B99A8B52B9DA8B42B91A8C32B95A8C7A
:1054100022B99A8C12B9DA8C002AEAD01B7EFF2BB3
:1054200062D0374803F022F9002846D13448FDF70E
:10543000EFF9044680BBFDF765FB05460028D8D090
:10544000284602F09FFD07460028D2D12846FEF7E5
:105450006BFC044698BB0346024601462846FEF70D
:105460002BFC05460028C4D0264803F01DF92A4627
:10547000014608B121462348FEF74CFF224B05F1B7
:10548000180019694FF47A73B1FBF3F104F0C3FE0D
:10549000012385F82030F8BDFDF7A6F90546002860
:1054A000CED1E36923B11B6A93F88C0004F096FB1C
:1054B0002046BDE8F840FDF7DDB9114DC0E790F892
:1054C0002230002B95D0022B08D10323052180F830
:1054D0002230103004F09FFE84F820702046FEF742
:1054E0001BFCFFF73DFF84E70020FFF739FF002397
:1054F000064A33801370F8BD682400207C24002005
:105500009424002084240020102E0020321E00202D
:105510002DE9F8430388064614464BB140F23A326F
:10552000934200F09080002303800320BDE8F883BD
:105530001C461D46634A64491370D8B208281AD124
:1055400004B11070614B1B680B64FCF739FF604BB2
:105550001870FCF735FF5F4B402118705E4803F070
:10556000A9FEFDF7D7FB01F0DFFB40F23A333380B1
:105570000120BDE8F88321F8335001240133DCE732
:105580004FF00008554D564F85F800802B78072BBB
:105590001AD90022534B03F5C071986A3033844204
:1055A00004BF43F8082C03F80B2C8B42F5D30021E1
:1055B0004D4B03F5A07298692033844208BF23F84D
:1055C000101C9342F7D3D0E757F8043C9C4207D114
:1055D00037F8080CFDF75EFC27F8088C47F8048CB8
:1055E0002B78083701332B70D0E7404B9C42BCD15D
:1055F000204603F07AFE0028B7D003F031F9FFF718
:10560000EFFEB2E7002CB0D0394B03201C60FDF751
:105610005FFCFFF7E5FEFFF795FEA6E7354C228815
:10562000002AA2D0344B9A79062A05D193F8353056
:105630009B0701D5FFF786FE0120FDF749FC238873
:10564000002B92D0DBE70229E8D00BD80029D9D073
:1056500001298AD1002C88D0284B05201C60FDF739
:1056600037FCCCE787298BD088297FF47EAF1A4B93
:105670009C42BAD1204603F038FE00283FF475AFB3
:105680000023164DA046174F194C2B702B78072B73
:105690003FF66BAF4FF0300909FB037393F82530E9
:1056A0005BB1404603F018FE2B78022009FB037320
:1056B0002360FDF70DFCFFF793FE2B7801332B7071
:1056C000E4E700BF431E0020E0110020A0040020FA
:1056D000BD2F0020BE2F0020D0110020411E002031
:1056E000E8110020A4290020A02B00206C2F00200E
:1056F000A0290020682400207C2400209829002074
:10570000F8B51A4B1D687DB105F12804184B1B78BC
:105710005B061CD500231846164A17491370082B40
:1057200006D190B1137010E0144B1C681834EDE7EB
:1057300031F8087C2E8AB74212D151F8046C7EB140
:1057400000B11370002326606360FFF7FBFD206843
:1057500058B10B4B62681978BDE8F840FCF7CABE37
:1057600001330831DBB20120D9E7F8BDA0290020C0
:1057700090290020421E0020E811002098290020D6
:10578000BD2F00202DE9F043038885B0054614465F
:10579000002B3AD09C2B03D000230380032037E05A
:1057A0001D4B1B788B4230D1002C2ED01B4B1B780D
:1057B0009B072AD51A4BDFF87880B3F80090194B75
:1057C0004A461968404603F063FB2368EBB1164A6A
:1057D000164E118DA368508D376833600B0A43EA6B
:1057E0000123010A41EA002189B2019102F1180165
:1057F000CDF808800091CDF80C90D4F800809BB2D1
:10580000083261682046C04737609C2301202B8006
:1058100005B0BDE8F08300BFBD2F00209029002017
:10582000682400209C2900207C240020A004002063
:10583000441E002070B5104B0E46197804461546DC
:1058400021B901220D481A70FCF75EFE14B94FF021
:10585000FF3070BD002184E86000094D074B2E68C1
:105860002246A66008462B60FFF788FD2E60E060A8
:105870000028ECD0012070BD582300203C010020FE
:10588000A00400202DE9F843074620B91648BDE8DA
:10589000F843FCF713B800242546DFF85080DFF802
:1058A00050907B19795D5E7806EB0126B6B26EB931
:1058B000002C0DDB05D001340235102DF1D1BDE8EF
:1058C000F8834846FBF7FAFF0124F5E7002C08DCD3
:1058D00015B13A2003F07CFC31464046FBF7EEFF61
:1058E000EAE74FF0FF34F7E7CAA72000DCA7200063
:1058F000D9A7200008B5044804F094FCBDE808408E
:10590000024804F08FBC00BF580100204C01002069
:10591000014804F0CFBC00BF4C01002038B50E4850
:1059200004F090FC054650B10C4804F08BFC044692
:10593000286030B92946084804F098FC25462846D6
:1059400038BD00F0ADF904F1A001A4F8800004F125
:10595000820000F077FAF2E74C01002058010020A5
:1059600010B501460446074804F096FC48B121688A
:10597000054804F07BFC2146BDE81040014804F0D6
:1059800075BC10BD4C0100205801002010B5014627
:105990000446094804F080FC68B12468B4F880101B
:1059A000204600F039FA04F1A00104F18200BDE8BC
:1059B000104000F061BA10BD4C01002030B1054B21
:1059C0009B68C01A044B8010584370474FF0FF305B
:1059D000704700BF64010020ABAAAAAA38B50D4DDC
:1059E000002818BF05460C4803F0B2FC044610B965
:1059F0004FF0FF3038BD211D284603F0F4FD20B1E3
:105A00002046BDE83840FFF7D9BF204603F0DAFC56
:105A1000ECE700BFDFA720006412002008B50246B3
:105A200003F0A4FD42B1431C06D0044B1268185C7D
:105A3000104100F0010008BD002008BD91230020A6
:105A400010B5074A1368072B9FBF5C1C1460054AFA
:105A500003609DBF816042F823000120002010BD3B
:105A60005813002044120020F8B505460C460C27B8
:105A70000E4E2146284603F079FD431C16BFB3683D
:105A8000002007FB003003F09DFCFFF797FF014665
:105A9000284603F061FD044628B101462846FFF779
:105AA000BDFF0028E5D02046F8BD00BF64010020FE
:105AB00038B505460B4803F04BFCFFF77FFF014666
:105AC000284603F049FD044601462846FFF7A6FF95
:105AD00028B921462846BDE83840FFF7C5BF204613
