:020000040020DA
:10000000903800208D022000BB972000B997200077
:10001000B9972000B9972000B99720000000000090
:10002000000000000000000000000000B997200060
:10003000B997200000000000B9972000F1092000C6
:10004000779820007D9820008398200089982000D0
:10005000000000005B98200061982000B997200004
:10006000B997200000000000000000000000000020
:100070000000000000000000B99720000000000010
:100080000000000000000000B9972000B997200090
:10009000B9972000B9972000B9972000B9972000A0
:1000A000B9972000B9972000B9972000B997200090
:1000B000B9972000B9972000B9972000B997200080
:1000C000B9972000B9972000B9972000B997200070
:1000D000B9972000000000000000000000000000B0
:1000E0000000000000000000000000000000000010
:1000F000000000000000000039192000491920000C
:1001000000000000000000000000000000000000EF
:1001100000000000000000000000000000000000DF
:1001200000000000000000000000000000000000CF
:1001300000000000000000000000000000000000BF
:1001400000000000000000000000000000000000AF
:10015000000000000000000000000000000000009F
:10016000000000000000000000000000000000008F
:10017000000000000000000000000000000000007F
:10018000000000000000000000000000000000006F
:10019000000000000000000000000000000000005F
:1001A000000000000000000000000000000000004F
:1001B000000000000000000000000000000000003F
:1001C000000000000000000000000000000000002F
:1001D000000000000000000000000000000000001F
:1001E000000000000000000000000000000000000F
:1001F00000000000000000000000000000000000FF
:1002000000000000000000000000000000000000EE
:1002100000000000000000000000000000000000DE
:1002200000000000000000000000000000000000CE
:1002300000000000000000000000000000000000BE
:1002400000000000000000000000000000000000AE
:10025000000000000000000000000000000000009E
:10026000000000000000000000000000000000008E
:10027000B9972000C1172000091820002110200084
:10028000B9972000BD0A2000B997200008B5094B96
:10029000FF221A600848094A4824E3690849121AEB
:1002A00098470848084AA3690021121A984700F0A5
:1002B000B5F8FEE7B4200D40400000200E020020FB
:1002C00034AF2000100200208F30002073B5038867
:1002D0000446642B52D0722B6ED0002B72D142F6A2
:1002E00004223B4848F2FE0682814EF2EA32C28185
:1002F000384A43808380C38053809380D3804AF6FA
:10030000057341F20225938140F683634B210680F9
:1003100005814181168015815181D38104F066FCED
:1003200010B92D4809F0D4FA2A4804F05FFC10B93E
:10033000294809F0CDFA294A0021294806F048F851
:1003400043F23901264809F063FC2548002143F2B5
:10035000390209F067FC4FF47061224809F011FB83
:1003600002F090FB4FF47063B0FBF3F101FB13015B
:100370001D4889B209F005FB642323801A4809F05F
:100380001BFB08B9002020E043F23905174809F0AB
:100390009FFA174906220E4B0095114809F05BFCA5
:1003A000144809F095FA0B4B00950D4812490622A6
:1003B00009F051FC722323800A4809F0FDFA002855
:1003C000C9D1DFE700230380032002B070BD00BF66
:1003D0006417002054170020A8AC2000FD03200063
:1003E000400200202002002030020020D5AC200076
:1003F000E9AC2000EFAC200003AD200010B5049A5A
:10040000BDF814400292BDF80C101A46024823466B
:10041000BDE8104001F01CBC09AD20002DE9F04101
:1004200086B000F0D7FC00F095FD00F015FD00F05F
:1004300085FA01F0C1FB09F0CDFA00F083FD08F068
:1004400025FC012009F0BCF902F0ACF900F0AEFC8B
:1004500000F00CFA08F072FC002000F0BBFB012059
:1004600000F0B8FB5249002000F08AFC02F0F8FAD4
:1004700009F0F9F9022009F0A3F94E4809F028FA29
:100480004D4809F025FA4D4801F0E2FB4C4B4D4D2B
:10049000186809F01DFA4C4801F0DAFB4B4B4C4C44
:1004A000186809F015FA4B4801F0D2FB286809F0EA
:1004B0000FFA002002F0F6FA01F0D8F946480021C0
:1004C00002F016FA01F0A2FF01A8082101F086FB54
:1004D0009DF80B309DF80A80002643EA082801ABFE
:1004E00003CB206061603D4801F0B2FBA15D3C4858
:1004F000013601F0ADFB072E354FF7D1394EF979B2
:10050000394801F0A5FBF46A4AF6CD310220A04734
:1005100041460320A0471A210120A04701A9736B7F
:1005200008220920984706F00DF9304A3B6813600D
:100530007B68536006F06AFA2D48002102F0D8F972
:1005400000F02AFD00212B4802F0D2F901F0C4FF8F
:1005500000F072FA284B1860284B01201870AB6924
:100560009847274B01AA03F11005144618685968EB
:10057000083303C4AB422246F7D11B7821482370CD
:1005800009F0A6F901A807F0CDF81F4809F0EFF926
:1005900000F012FC012009F013F900F013FC02F046
:1005A00019F910F0FF0FF8D101F05CFAF5E700BF80
:1005B0001D2A20006AAD200076AD20008EAD2000FF
:1005C00038AC200044AC200095AD200064AC200085
:1005D000873000209CAD2000AC000020A3AD20009F
:1005E000C1AD200070AB2000C7AD20001825002051
:1005F0004401002050000020DC240020D0240020F2
:10060000DDAD2000CDAD2000B0AA200070B505887A
:100610000446772D30D07E2D3FD0002D4DD102F0F5
:10062000B9F8294B1870294B1D601D462B68284AC4
:10063000264E52F823204AB126480021C15493681F
:1006400080209847336801333360EFE7224A137004
:10065000772320E01F4AD256002A12DB1B4A136878
:1006600001331360194B1C4A1B6812789342F1DB6B
:100670001A4B1B68002BEBD0184A00231360134A57
:10068000EFE7114A00201178114A52F8232002F0B6
:1006900003F930B97E23238013E00B4B1B788B4288
:1006A0000FD10A4B0B491A688B5C03F07F038B5404
:1006B0000A4A136801331360D0E700230380032044
:1006C00070BD012070BD00BF7230002050020020BC
:1006D00060000020733000202A1D002054020020FA
:1006E000094B1A780023934204DA084951F8231081
:1006F000814207D106490748CA5C62F07F02CA54AA
:1007000002F00EB90133EEE72A1D00206000002040
:10071000733000205000002008B50948082109F076
:1007200079F803210422002000F022FC002000F0D0
:100730006FFB04480021032200F0A2FB012008BD4A
:1007400000900D400908200008B50948102109F063
:1007500061F804210A46022000F00AFC022000F0A1
:1007600057FB04480221042200F08AFB012008BD47
:1007700000B00D400908200008B50948022109F021
:1007800049F801210422022000F0F2FB022000F0CF
:100790003FFB04480221012200F072FB012008BD4A
:1007A00000B00D400908200008B50948402109F0B3
:1007B00031F806210422022000F0DAFB012000F0CB
:1007C00027FB04480221062200F05AFB012008BD45
:1007D00000B00D400908200008B50948802109F043
:1007E00019F807210422022000F0C2FB012000F0CA
:1007F0000FFB04480221072200F042FB012008BD44
:1008000000B00D400908200038B5054611480C46D7
:1008100009F0F4F8E8B10F48102109F0DDF81DB92E
:10082000032C16D10C4810E0022D12D1042C01D15A
:100830000A480AE0012C01D1094806E0062C01D142
:10084000084802E0072C04D10748BDE83840FFF70C
:1008500047BF38BD58020020B8AA2000D8AA2000FF
:10086000E8AA2000C8AA2000F8AA20000148002118
:1008700009F0B2B85802002010B5074CFF232360DE
:100880004FF4FA6000F096F800213022062000F0C4
:100890008BFB0023236010BD00920D40802870B5B3
:1008A0001ED1104E104D3368002423F080033360B6
:1008B0002B68204643F080032B600C4B07211C6003
:1008C000224600F055FB3368204623F04003336096
:1008D0002B68062123F040032B60012200F048FB27
:1008E000002070BD20940D4000940D4000920D40FA
:1008F000F8B500F0A1F80F4B0024D3E900673A46A1
:10090000B04238BF7A1C15460443C3E90045DFF8FE
:1009100028E0DEE90001821B61EB070312196B413D
:10092000CEE9002301F0A0FE18B1BDE8F84001F0C7
:100930002BBEF8BD10020020180200200F4B104AF9
:100940001A6053F8042C42F0050243F8042C53F8C3
:10095000042C42F0020243F8042C0A4A136843F0C4
:1009600001031360084B00221A60042243F80C2C88
:10097000012243F8082C0F22DA62704714E000E0ED
:1009800047E8010008200D400C000340034BD3E969
:100990000023100A40EA0360704700BF10020020E5
:1009A000034BD3E90023D00B40EA4340704700BF1C
:1009B00018020020054B18601C3B1A6842F0010227
:1009C0001A601A68D207FCD4704700BF28000340A1
:1009D00010B5064C236823F001032360FFF788FF5E
:1009E000236843F00103236010BD00BF10E000E066
:1009F00038B500F021F80A4C0A4D0123A370A86015
:100A0000FFF776FFA3784BB100F016F8064AA96805
:100A100093685B1A184400239060A37038BD00BF30
:100A2000D0240020DC2400209C240020014B1868E6
:100A3000704700BF60020020074B084A1968043362
:100A40001B681268120442EA0323054A0B4310682C
:100A500043EA0060704700BF40500D4048500D40D1
:100A60004C500D4010B50446114B1B68DB07FBD5FD
:100A700008F0FDFEFFF7E0FF231A062BD8BFC41DC8
:100A80000C4B220E1A60C4F3074243F8042CC4F343
:100A9000072243F8082CE2B243F80C2C08F0E3FEDE
:100AA000054B91201C60BDE8104000F0B1B900BFBB
:100AB00050500D404C500D406002002070B500F0C9
:100AC00099FFFFF7B9FF0E4C01230E4EA3700E4B9A
:100AD000B060002591201D6000F0B2F9912000F077
:100AE000A3F901F03BFFA37843B1FFF7A5FF074A45
:100AF000B1689368A5705B1A1844906070BD00BF20
:100B0000D0240020DC240020600200209C2400204F
:100B10000023084A1068084A9958084205D01A4428
:100B2000D268906910F0800003D02C33582BF0D19C
:100B30000120704728200D4018AB2000F8B506466C
:100B4000FFF77AFF1E4A01231E4993702C2303FBF3
:100B500006134FF6BF711C4DDC68A860236C6164FE
:100B60009BB213F0500117460CD0A369DB0618D4D2
:100B7000164B53F826301BB12068C0B29847F4E7F3
:100B80002368F2E713F4D06F0BD04FF44073236364
:100B9000FF236360E36AE162E362236B43F00103D6
:100BA0002363BB7853B1FFF747FF094AA9689368ED
:100BB0005B1A1844024B906000229A70F8BD00BF87
:100BC000D024002018AB2000DC2400206402002088
:100BD0009C2400202DE9F04F012885B0064600F244
:100BE000BF802C244443604B1D1995F920A005F1CA
:100BF0002007BAF1000F9946C0F2B28095F9223071
:100C0000002BC0F2AD80594800F0C6FF584A59F891
:100C100004301168EC680B43136051686B6895F9F8
:100C200021B00B4353609168AB6895F822800B4369
:100C300093600023C4F8C83F2B690BEBCA021A600B
:100C400095F823305FFA88FC01939DF804306046E4
:100C500019462A7DCDF80CC0029300F093F9029B4F
:100C6000DDF80CC019466046082200F081F94FFA01
:100C700088F840494FEA08389DF9042058F80100E7
:100C8000012303FA02F2024348F801204FEA0A3A2C
:100C90005AF8010003FA0BF202434AF801205022ED
:100CA000A263A26B95F8240042F4D062A2630222F0
:100CB00062634FF440722263AA696262EA69A262C7
:100CC0007022E26242B2002A0C4614DB95F925102C
:100CD000294D41EAC20129607979120315594FB2B1
:100CE000BB402B431351002200F042F9234A136802
:100CF00043F4004313602C2303FB069393F8265020
:100D000020336FB2002F1CDB93F807A0EDB25FFA1F
:100D10008AF82846414601223F0300F033F94FFA92
:100D20008AFA3A59012303FA0AF313433B51082282
:100D30002846414600F01CF9104A136843F48043EA
:100D400013602C2303FB0696F26896F82800136BB9
:100D500043F00103136305B0BDE8F04F00F058B84D
:100D600005B0BDE8F08F00BF18AB2000110B2000CC
:100D700028200D4020940D4004410D4030D000400B
:100D800001289CBF014B43F82010704764020020EB
:100D9000012808D8044B2C2202FB0030C3689A6952
:100DA0009206FCD41960704718AB2000014B00225A
:100DB0001A60704700500D40014B08221A607047BE
:100DC00000500D40024BA0221A6050221A6070475A
:100DD00000500D40084A094B1A60094B80321A60D6
:100DE000084B80321A60084B80321A60074B4FF470
:100DF00000121A60704700BF00E100E07802002096
:100E00006C020020700200207402002008ED00E057
:100E1000044B41091A6800F01F000123834042F887
:100E20002130704778020020044B41091A6800F015
:100E30001F000123834042F8213070476C020020DC
:100E4000044B41091A6800F01F000123834042F857
:100E50002130704774020020054A064B1A60064B89
:100E60001A68064B1340B3F1807FF8D1704700BF7A
:100E70000101020100200D4004200D40000001018D
:100E8000024B02EBC10243F8220070477C020020B3
:100E9000F8B507460E46094D002405EB411547FA03
:100EA00004F3DB07E1B204D555F824300BB130462A
:100EB00098470134082CF2D1F8BD00BF7C02002015
:100EC0002DE9F74F019000F095FDFFF7B5FD019971
:100ED000184E4FEA0139184F0123DFF864A009F1D9
:100EE0008045B860B37005F55925D5F8188459F8D0
:100EF0000A404FEAC10B24FA0BF448EA0400C0B2DE
:100F0000E4B2FFF7C5FF04FA0BF45FFA88F3C5F803
:100F10001C3449F80A40B3784BB1FFF78DFD074AFE
:100F2000B96893685B1A184400239060B37003B0EB
:100F3000BDE8F08FD0240020DC2400209C24002079
:100F400018970D4002480021802208F0E7BB00BF3F
:100F50007C020020034A044B1A60044B803A1A605A
:100F6000704700BF80400D4000030020FC020020BD
:100F7000034B01EBC0011B6843F82120704700BF01
:100F800000030020034B01EBC0011B6843F8212044
:100F9000704700BFFC020020024A136843F0300390
:100FA0001360704700700D400E2870B50BD1164BC2
:100FB000164E1C6844F002051D60356825F03F039D
:100FC00043F001033360124E336823F0FF031A43EA
:100FD0001143014331600F4B1B681B06FBD50E4BC1
:100FE0000E4A1B6812680E2803F0FC0343EA022332
:100FF00008BF064A9BB204BF1560034A9BB208BFF4
:10100000146018B270BD00BF34000144F48608407B
:1010100008700D4000700D400C700D4010700D40B8
:1010200070B5FFF709FD104E104C0123B060104D54
:101030008F20A370FFF704FF8F20FFF7F5FE2868CD
:1010400018B101F06DFC00232B60A37853B1FFF7BA
:10105000F3FC084AB16893685B1A1844034B90602C
:1010600000229A7070BD00BFDC240020D024002034
:10107000040300209C240020044B186800F0220088
:10108000A0F1200358425841704700BF4C860840E9
:10109000024B186800F04000704700BF4C860840C3
:1010A00008B50B4B93F90020002A09DB094AED2112
:1010B00011601160E32111601A7862F07F021A70EA
:1010C000FFF7BAFC044BD861044B0120D87108BD6E
:1010D0002B1D002038880840DC240020D02400206C
:1010E00038B505460C46134B1B689B07FBD4124BC7
:1010F00093F90030002B01DBFFF7D2FF0F4BEE22FC
:101100001A60691E1A60A21C43F8102C21440220A8
:1011100000F0C4FB013C0A4924012143022000F0F5
:10112000CFFB022000F0D6FB022000F0EBFB0020FA
:1011300038BD00BF4C8608402B1D00203888084071
:1011400002C001C0044B1A6810B142F0010201E074
:1011500022F001021A6070470086084009280DD16C
:10116000082A0DD161B1074B013953F8042D01F85C
:10117000012F054A9342F8D10020704701207047A3
:1011800002207047C8850840A885084009280DD16D
:10119000082A0DD161B1074B083111F8012D43F830
:1011A000042F054A9342F8D1002070470120704770
:1011B00002207047A4850840C485084070B52B4EB6
:1011C000336813F0400308D0294D2B68DCB21B06AE
:1011D00005D5284BED221A601A60002070BD042C42
:1011E000F7D9023C8C42F4DCE4B2032C1BD0011989
:1011F0000139032000F05AFB631E1F491B01032025
:10120000194300F05DFB032000F064FB032000F0B5
:1012100079FB032000F082FB0028FAD129682D68B1
:101220002806D6D506E02B6803702B6843702B6820
:101230008370F3E7493949B289B2042005F0BCFB59
:10124000032005F07F0105F0B7FB33685A060BD584
:10125000064B1B681B0603D5084801F061FB03E041
:10126000044BED221A601A60204670BD4C8608407F
:10127000288808403888084002C0010C84000020FB
:1012800010B5114B1B689B07FBD4104BED221A6065
:101290001A600F4A12680AB1EF221A600D4A0E4C0A
:1012A000137803F07F031370E37953B1FFF7C4FBA6
:1012B0000A4A0B49D369C9695B1A18440023D061F3
:1012C000E371012010BD00BF4C86084038880840FB
:1012D0002C8608402B1D0020D02400209C240020B8
:1012E000DC24002038B5A0F10B04E3B20F2B054637
:1012F00013D80B4B1B6813F03F0302D0FFF7C0FF5E
:10130000012304EB8404074A0B3414600BB1FFF78C
:10131000C7FE054BE8B21D7000E0FF2040B238BDAB
:10132000488608403C8608400C02002038B50C4630
:10133000072855D8DFE800F0040F1B1F26543B4F49
:10134000012903D1FFF7ACFE002038BD002949D1A7
:10135000FFF796FFF8E7A1F10B030F2B42D8C8B2B5
:10136000FFF7C0FF431C0CBF0320002038BD8CB228
:10137000E2B21D4B02E08CB21C4BE2B2240A1A60AE
:101380005C60E1E731F003052CD101F00100FFF7CB
:10139000D9FE174B14F002001A681BBF284642F012
:1013A000200222F020021A6008BF1A6038BD01F145
:1013B00018031F2B16D80D230E49DA0051F83300FD
:1013C000844204DC8B181A790B4B1A60BCE713F1CA
:1013D000FF33F1D2B8E7CCB2084B49341C60B3E715
:1013E000012038BD022038BDC8850840D08508409E
:1013F00024860840A8AB2000408608405886084054
:1014000038B50C4600296CD00D286CD8DFE800F008
:10141000070D181A216B3142476B5E606267334BD0
:101420001B68003318BF012356E0314B05221B68AF
:1014300003F07F030B3B93FBF2F30B33DBB24BE088
:101440002C4B00E02C4B1A68043B1B6843EA022338
:1014500042E02A4B002008601A68243302F001029F
:101460000A601B6813F0200337D042F002020A60C2
:1014700038BD234B1A680023D2B2224901EBC300C6
:101480000079904202D851F8333025E001330E2B19
:10149000F3D11FE01C4B1B685BB2493B1CE01B4BAC
:1014A0001B68990603D1FFF7FBFD012300E0002331
:1014B000174A1268D207FBD5164A1568493DEDB2A6
:1014C0000BB1FFF7DDFE6DB2256006E00B2303E0F4
:1014D0001A2301E06FF017032360002038BD0723B3
:1014E000FAE7022038BD012038BD00BF2C86084035
:1014F0003C860840CC850840D485084000860840DA
:1015000040860840A8AB200058860840488608401E
:10151000648608406086084010B50B4B1B6899062E
:1015200003D1FFF7BDFD012300E00023074A126845
:10153000D207FBD5064A1468C4F300140BB1FFF7B9
:101540009FFE204610BD00BF4886084064860840C4
:101550004C8608402DE9F843364B93F90030002BB8
:101560000EDBFFF769FA0446FFF79AFDFFF764FA0E
:101570006FF009031B1BC342F8D44FF0010801E0D0
:101580004FF00008FFF7C8FF00284CD02A4E336800
:1015900013F0200447D1294D294FEB7943B1FFF7D0
:1015A0004BFA284AF969D369EC715B1A1844D06187
:1015B000FFF742FA244C0123AB71E923B8614FF0E5
:1015C0000409236033689A0708D409F1FF3919F038
:1015D000FF0903D00620FFF7EDF9F3E733689B0717
:1015E00004D4EE2323602360012404E0306810F06B
:1015F0000200FBD10446AB7953B1FFF71DFA114A43
:10160000B96993695B1A18440C4B906100229A7176
:10161000FFF712FA0123F861EB71B8F1000F05D062
:10162000FFF72EFE02E00220BDE8F8832046BDE869
:10163000F88300BF2B1D00204C860840D0240020DA
:10164000DC2400209C24002038880840F8B5334E64
:10165000357815F001055FD1314B01241C605C60C9
:101660009C60A3F593231122FC3B1A602D4B802232
:101670001A602D4B10221A602C4B81221A602C4BC1
:10168000F8221A600922C3F89021152270331A60DB
:1016900003F59B230B2203F59E731A60A3F59B238E
:1016A000A3F5F07340221A601A687F2742F02002E7
:1016B0001A60D52243F81C5CDF62DA611D4B187892
:1016C000FFF710FE1C4A8D20136843F004031360DB
:1016D000FFF79EFB194B8E201F60FFF799FB02203E
:1016E00000F004F91649022000F0E0F8032000F0B1
:1016F000FDF80320124900F0D1F82946114801F005
:10170000F7F8337823433370FFF796F90E4BD8611F
:101710000E4B2046DC71F8BD0020F8BD2B1D0020CB
:10172000A8200D401C000144B0870840200001445F
:10173000588608400C0200208C8608409486084099
:101740002888084084000020DC240020D0240020C9
:1017500038B503880446DBB1B3F5707F03D00023AE
:101760000380032038BD822915D105F0C3F805F0A8
:101770005FF88021FFF722FD002805DD80B205F02B
:1017800051F80C4B1B6998470B4B1A78520604D43E
:101790004FF470732380012038BD00221A70074B6C
:1017A0001D68FFF76DFDFFF751FFAB06F0D0FFF7A7
:1017B00077FCEDE744AC20002B1D00204886084054
:1017C00070B5FFF739F90B4E0B4C0123B0600B4895
:1017D000A37001F0A5F80A4B00251D60A37843B162
:1017E000FFF72AF9074AB1689368A5705B1A184495
:1017F000906070BDDC240020D024002084000020F4
:10180000348808409C24002070B5FFF715F9114B6F
:1018100001221D46104C9A70104AA06011680026E3
:10182000042918BF0E490F481EBF0B7843F0400330
:101830000B70166001F074F8AB784BB1FFF7FCF851
:10184000094AA16893685B1A1844024B90609E7025
:1018500070BD00BFD0240020DC2400202C8808406C
:101860002B1D0020840000209C24002010B5094C72
:1018700000212046402207F051FF074B01221A6049
:101880002E205C60FFF7C4FABDE810402F20FFF760
:10189000BFBA00BF0000002004F00F4003289EBF25
:1018A000014B0001195070470000002003289EBF23
:1018B000024B03EB00104160704700BF00000020A6
:1018C00003289EBF024B03EB00108160704700BFEE
:1018D0000000002003289FBF034901230A688340BA
:1018E0009CBF13430B60704728F00F4003289FBF35
:1018F000034901230A6883409CBF13430B60704770
:1019000020F00F4003289FBF034901230A6883404A
:101910009CBF13430B60704714F00F4003289FBF18
:10192000044B03EB0010806800F0070088BF002024
:10193000704700BF00000020024B4FF0FF321A60DA
:10194000704700BF04F50F40014B01221A60704739
:101950004CF00F40094B1A6812F4801F1A46F9D157
:10196000043B196821F4803119601168C903FCD463
:101970001A6842F400321A60704700BF04200D401C
:10198000F8B5184C184F23784BB1FFF755F8174AA4
:10199000396813685B1A1844002310602370FFF73E
:1019A0004BF8134E7860012502203168657000F015
:1019B000C3FD30BF022000F0A3FD3060FFF73CF80C
:1019C0006378386025705BB1FFF736F8074A06493F
:1019D000536849685B1A1844024B506000225A70E1
:1019E000F8BD00BFD0240020DC2400209C2400206F
:1019F0000803002070B5154B1A681C4612F0030F3F
:101A000023D0134B1A685101FBD41A685201FCD53C
:101A10000025FEF7DDFFFFF79DFF2560022000F0A7
:101A20006FFD0C4B0C4C1860FFF706F801230B4EB2
:101A300023706378306043B1FEF7FEFF084A716897
:101A4000536865705B1A1844506070BD58200D4093
:101A500004200D4008030020D0240020DC240020B6
:101A60009C2400202DE9F041414B1C6814F03F04F8
:101A700013D1404B53F8243023B1984768B1013457
:101A8000032CF6D13C4D2B783BB1FEF7CFFF04463B
:101A9000FEF7D2FF201A092803D8BDE8F041FFF76E
:101AA0006FBF002CF9D0354B1A6822F400321A604F
:101AB000334A1168C902FBD4196841F480311960B6
:101AC0001368DB03FCD5FEF7B7FF201A092803D8FB
:101AD000BDE8F041FFF73EBF63282A4E02D92B78BC
:101AE000022B00D00123284D3360284C02202968A6
:101AF00000F022FD2378264F4BB1FEF79DFF254ACB
:101B0000396813685B1A1844002310602370FEF7CD
:101B100093FF01237860637000F0B4FEF0B14FF0E2
:101B20000008FFF717FFC6F80080022000F0E8FC6D
:101B30002860FEF781FF0123237063783860A3B12A
:101B4000FEF77AFF134A1249536849685B1A184432
:101B50000E4B506083F80180BDE8F081FEF766FF10
:101B60000028DCD030BFBDE8F081BDE8F08100BFC7
:101B7000488608400C0300202C1D002000200D404A
:101B800004200D4058200D4008030020D0240020E0
:101B9000DC2400209C2400200023064A52F8231055
:101BA000814206D011B942F8230070470133032B5C
:101BB000F3D170470C030020054B00221A60054A40
:101BC000136843F004031360034B01221A7070473B
:101BD00058200D4010ED00E02C1D002030B5184BB2
:101BE0001A78431E3AB9174A1278122A03D1164AB4
:101BF00012784B2A03D001F52011273117E04A084B
:101C000002F12814B4F1281F04D014F8015D03F880
:101C1000015FF7E701F5201127310023934205DA30
:101C200011F801598418E5540133F7E730BD074A2C
:101C3000914204D011F8012903F8012FF7E730BDD4
:101C40002B0028002A00280029002800270028004F
:101C50000FB407B504AA52F8041B0448019200F01F
:101C600021F803B05DF804EB04B070479400002045
:101C700070B505460C46102C07D92B6868680849D2
:101C80001022984750B9103CF5E734B12B686868CA
:101C90002246BDE8704002491847204670BD00BF8B
:101CA00070AE20002DE9F04F80468FB0069107926C
:101CB0000026069B1B78002B00F05F83069B1C46CA
:101CC00013F8012B1AB9069B9C4203D10FE0252A79
:101CD000F5D1F8E7069BD8F80400E51A0699D8F87C
:101CE00000302A469847002840F02A832E44237863
:101CF000002B00F042836378611C002B00F03D83D1
:101D000000240A4611F8013B2B2B11D006D8202BBA
:101D100011D0232B12D144F00804F2E72D2B04D06C
:101D2000302B0BD144F01004EBE744F00104E8E75A
:101D300044F00604E5E744F00204E2E7A3F13101D0
:101D400008290DD8134600251A4613F8011BA1F1E6
:101D50003000092811D80A2202FB0515303DF3E7AF
:101D60002A2B09D1079B01321D68191D002D0791EF
:101D7000B8BF44F0010400E0002513782E2B1CD1DD
:101D80005178531CA1F1300009280ED819460027BC
:101D90000A780B46A2F13000092801F101010FD8A1
:101DA0000A2303FB0727303FF2E72A2906D1931CB9
:101DB000079A111D0791176802E013464FF0FF378D
:101DC0001A786C2A09D15A786C2A02D144F080041E
:101DD0000AE0013344F060040BE0682A09D15A7824
:101DE000682A03D144F02004023302E0013344F0B6
:101DF00040041A78642A3CD01FD8462A48D00DD80F
:101E0000252A5AD003D8002A00F0B78257E0412A89
:101E10004AD0452A53D144F4424450E0582A31D0A4
:101E200004D8472A4BD144F4A13448E0612A38D081
:101E3000632A44D144F4A06441E06E2A3AD007D822
:101E4000662A22D027D3672A28D0692A11D036E003
:101E5000732A2CD006D86F2A11D0702A2FD144F4BF
:101E600040742CE0752A07D0782A28D144F4C8544D
:101E700025E044F4245422E044F410641FE044F4C8
:101E800088541CE044F4B24419E044F4007416E0B1
:101E900044F4844413E044F4024410E044F48134F4
:101EA0000DE044F4C1340AE044F4E13407E044F4C2
:101EB000806404E044F4E06401E044F4C06401336D
:101EC000069304F4E063B3F5806F00F0AA8116D89E
:101ED000B3F5807F2BD0B3F5407F7FF4EAAE079B4C
:101EE000A04914F4804F03F104029F4818BF08462C
:101EF0000DF1330107920F461A680023C5E1B3F5CF
:101F0000C06F08D0B3F5E06F00F03182B3F5A06F79
:101F10007FF4CFAE00E2D8F80030D8F8040093493F
:101F200001229847002840F00B820136C1E6002FBD
:101F3000ACBF24F01004012714F40053039304F001
:101F4000E00337D0402B17D008D8DBB1202B2AD1A3
:101F5000079B1A1D079293F9002017E0602B11D000
:101F6000802B20D1079B073323F0070303F10802DE
:101F70000792D3E900230AE0079B1A1D0792B3F9E1
:101F8000002003E0079B1A1D07921A68D317002A46
:101F900073F1000109DA524263EB4303CDE90023F8
:101FA0004FF0010933E000220023CDE900234FF078
:101FB00000092CE0402B16D007D8CBB1202B20D124
:101FC000079B1A1D07921A78EEE7602B10D0802B22
:101FD00017D1079B073323F0070303F10802079289
:101FE000D3E90023E1E7079B1A1D07921A88DBE774
:101FF000079B00211A1D07921B681846CDE90001B6
:10200000D5E700220023CDE900234FF0000904F4B6
:10201000C053B3F5805F0CD0B3F5C05F33D0B3F5D8
:10202000006F4FD1DDE900230DF1360ACDE904231D
:1020300004E0DDE900230DF1360A15E0DDE90423B3
:1020400013433AD0DDE904010A22002306F082FF9F
:10205000DDE9040130320AF8012D00230A2206F0DE
:1020600079FFCDE90401E9E752EA030125D002F046
:10207000070130310AF8011DD10841EA4371D8083F
:102080000A460346F0E7384B14F4804F0DF1360A48
:10209000344908BF1946DDE9002352EA03000CD099
:1020A00002F00F00085C4FEA131E0AF8010D100938
:1020B00040EA037002467346EFE70DF1360BCAEBB8
:1020C0000B0B03E00DF1360A4FF0000B41F608024E
:1020D00041F208035F4502EA04028CBFCBEB07071D
:1020E00000279A4202D1002F08BF012741F60801BC
:1020F0008A4207EB0B030DD1DDE9000150EA010232
:1021000008D01B4914F4804F1A4A4FF0020C18BF34
:102110000A4602E04FF0000C62460399A1B1B9F102
:10212000000F0AD104F0060102290AD0062912493B
:1021300004BF4FF0010C0A4606E04FF0010C0F4AB5
:1021400002E00F4A4FF0010C63449D428CBFED1A30
:10215000002514F0010922D1E30613D52F444D4682
:102160001DE000BF3BAE20004CAE20006EAE200054
:1021700060AE20005DAE200065AE200063AE2000A2
:102180009AAD200040462946CDF80CC00092FFF7DA
:102190006FFD009ADDF80CC0002840F0D180BCF142
:1021A000000F0DD01146D8F800306246D8F8040070
:1021B000CDF800C09847DDF800C0002840F0C0808E
:1021C0003C465E44102CD8F800300DD9D8F80400F5
:1021D0006C491022CDF800C09847002840F0B0802C
:1021E000103CDDF800C0EDE75CB1D8F804006549AB
:1021F0002246CDF800C09847DDF800C0002840F026
:102200009F80D8F80030D8F8040051465A466644FA
:102210009847002840F094803E44B9F1000F79D0EF
:1022200073E0079BD3F800A01A1D0792BAF1000FC4
:1022300009D05346994699F800200133002AF9D174
:10224000CAEB090903E0DFF840A14FF00609002FAF
:1022500002DBB94528BFB9464D458CBFC9EB050522
:10226000002514F0010405D140462946FFF700FD82
:10227000002865D1D8F80030D8F8040051464A4605
:10228000984700285CD14E443EE052EA030E0ED03F
:1022900002F00F0E10F80EE04FEA131C01F801EDEA
:1022A0004FEA121E4EEA037E72466346EDE70B4686
:1022B0007F1A01BF3022012701F1FF3301F8012C01
:1022C00003377822BD4203F8012C4FF0300203F8A7
:1022D000022C88BFED1B4FF0230298BF002514F09D
:1022E0000104A3F1030903F8032C04D14046294655
:1022F000FFF7BEFC20BBD8F80030D8F804004946F0
:102300003A469847E0B93E4424B140462946FFF793
:10231000AFFCA8B92E44CCE4079B012D03F10402C5
:102320001B688CBF05F1FF35002514F001040792EE
:102330008DF8203008D140462946FFF799FC10B1AE
:102340004FF0FF301AE02E44D8F80030D8F80400DF
:1023500008A9012298470028F2D16F1C2CB14046F1
:102360002946FFF785FC0028EAD13E44A1E4079BFB
:102370001A1D1B6807921E609BE430460FB0BDE833
:10238000F08F00BF2BAE200067AE2000F8B50388A9
:10239000064615462BB14A2B15D000230380032097
:1023A000F8BD174807F03BFB04462CB1201DA1687F
:1023B00007F0E7FA2468F8E7124B01221A704A2363
:1023C00033800120F8BD8829FBD10D4807F027FB99
:1023D0000446002CF3D0231D9D420ED1084821460F
:1023E00007F027FB084B62691F681A60A2691D4647
:1023F0000AB1E06990472F60E1E72468E9E700BF90
:10240000180300202D1D00202C03002010B5064BC2
:10241000002406481C7007F0FFFA2146BDE8104072
:10242000034800F065BA00BF2D1D002018030020EE
:102430009C00002070B504460A4DE3610A4B2E68EB
:102440001B786661A26133B1084B201D2B6007F039
:1024500098FA2E6000E0A1602146BDE87040044873
:1024600007F0FBBA2C0300202D1D00209C0000204B
:102470001803002070B5094B05461B783BB1084C8A
:10248000084B26680430236007F084FA266029464A
:10249000BDE87040044807F0E0BA00BF2D1D0020E1
:1024A0002C0300209C0000201803002010B5084BCE
:1024B00004461B781BB1043000F0DEF801E0C36075
:1024C00003612146BDE81040024807F0B2BA00BFE0
:1024D0002D1D00201803002000230649002241F88A
:1024E0002320054941F8232004495A5401330C2B79
:1024F000F3D17047DC2400209C240020D02400204D
:1025000038B50A4B04461B5C094D63B1FEF794FADB
:10251000084A55F8243052F8241042F824005B1A77
:10252000034445F8243055F8240038BDD024002059
:102530009C240020DC240020014B43F8201070472D
:102540009C24002010B50E4C236813B90D4A13606B
:1025500010BDFEF71BFA216891E80C001A44131A0B
:102560008A6842B192E812002144091A8B4228BFBE
:102570000B469268F5E71844024B186010BD00BF87
:102580001C03002020030020014800F0C9B900BF4F
:10259000AC000020F8B5038805462BB1592B09D0B3
:1025A000002303800320F8BD1E4A136059232B80AB
:1025B0000120F8BD872920D08229F7D1194F0026A4
:1025C0003C68002CF2D0204607F018FA90B1E06881
:1025D0008821224600F060F950B9E060A3680EB18E
:1025E000B36000E03B600023A360FFF7ABFFE5E7CB
:1025F000FFF7CAFF2646A468E3E70A490B680BB950
:102600000B60D3E7D868904201D19B68F7E70B6075
:1026100099680029CAD0C86890420ABF89680B46E9
:102620009960F5E71C03002010B50446FFF7ACFFE6
:10263000E3680B4A4BB113683BB1A34203D1094A8B
:102640001268DA6007E09B68F6E7064B1B68E360F8
:1026500013681460A360BDE81040FFF773BF00BFAC
:102660001C0300202C030020024B1868003018BF08
:10267000012070471C03002010B50B4A0446136864
:10268000984206D18368136008E09A68A24203D09A
:102690001346002BF9D103E0A2689A60FFF752FFBE
:1026A0000023A360E36010BD1C03002038B58368DD
:1026B00004460D469BB10A4804600220A07304F151
:1026C0000C0098470238012801D9832D05D12046F6
:1026D0002146BDE8384000F005B80123A37338BD9A
:1026E0002C0300202DE9F8431C4A0446156889464E
:1026F0002B4690461A4E3768A34204D00BB11B6894
:10270000FAE7BDE8F88334B3A37BABB10023A3732E
:1027100045B1AC4204D028468721224607F054F93F
:102720002D68F5E7A3683BB14C4505D0346004F152
:102730000C0083212A469847D8F800309C4203D1E8
:102740002268064B05E0134623B11A68A242FAD16B
:1027500022681A603760BDE8F88300BF30030020AC
:102760002C03002010B5094B00221A70084B1C687E
:102770005CB1E37B3BB101230022A373E2732046EB
:102780008221FFF793FF2468F2E710BD301D00207F
:1027900030030020024B1878421C1A70704700BFAB
:1027A000331D0020064B8A221A70064A002313703C
:1027B000054A1370054A1360054A1360704700BF4D
:1027C000331D00202E1D00202F1D0020300300206F
:1027D0002C0300202DE9F041214E33780BB1FFF797
:1027E000C1FF204D2C78002C34D0DFF88CE00C2277
:1027F0009EF800301C495A4388181C4F895CDFF84A
:102800007C804268DFF878C08068013303F01F03E2
:10281000013C3970C8F80020CCF800008EF8003078
:102820002C7088B9124C134B1B68236023688BB142
:1028300033780BB1FFF796FF20683978D8F800207D
:1028400007F0C2F82368EFE7812904BF01238373EF
:1028500007F0BAF8337828781844BDE8F08100BF53
:10286000301D00202F1D002034030020311D0020CA
:10287000B4040020300300202E1D00202803002077
:1028800024030020024A034B10781B781844704739
:102890002F1D0020301D0020F0B50C4E3478202C68
:1028A00011D00B4B0B4D1B780B4F234403F01F0330
:1028B0002B700C256B430134FD18A860F9546A6035
:1028C00034700020F0BD0120F0BD00BF2F1D00209E
:1028D0002E1D0020321D00203403002038B5034C8B
:1028E000256807F071F8256038BD00BF2C03002073
:1028F00010B50A4609490C68234683420DD00BB136
:102900001B68FAE748B10460086001218173838184
:102910008121BDE81040FFF7E1BF10BD300300206A
:1029200038B1837B013B012B9FBF024A0123C37354
:1029300013707047301D0020024610B506485360E2
:102940000468029B11609360026014B90846FEF7A8
:1029500089F8002010BD00BFB804002010B5084C55
:10296000206858B100232360816843689847236832
:1029700023B1BDE810401868FEF774B810BD00BF61
:10298000B804002038B505880446672D09D0792D94
:102990002ED0002D32D1FFF7FDFE1B4B18701B4BC4
:1029A0001D601B4807F096F8431C01D167231DE00A
:1029B0000A28164B07D01A687E2AF2DC511C1960CF
:1029C000144B9854EDE7196800254A1C1A60114A07
:1029D0000D4B555428461978FFF75EFF0E4B8521A5
:1029E00018682A46FFF758FF20B97923238009E0A9
:1029F000852907D1054B00221A60D2E70023038006
:102A0000032038BD012038BD7C300020BC040020EC
:102A1000C0040020B41D00202C0300200D2810B598
:102A2000014615D00B4C23782BB90B4807F03EF824
:102A300048B9012306E00A2805D1074807F036F80F
:102A400008B1002323700548FFF76AFF012010BD7D
:102A5000002010BD341E0020C0040020BC00002057
:102A600008B505480549802207F019F8BDE8084077
:102A700003480021FFF73CBFC0040020341D0020A4
:102A8000BC000020054A136843F004031360044BA4
:102A90001B68906943EA002080B2704700700D40C7
:102AA00014700D40174A136823F00C031360164B83
:102AB00001221A601A68012AFCD1144B08221A60FC
:102AC000E322C3F8142203F505731946104B1B6863
:102AD000DB07FBD5102000230E4A0138126802F0F4
:102AE000010243EA02034FEA43039BB2F4D1002BF5
:102AF000F0D0094A180A03F0FE0310601360EF23B8
:102B00000B60704700700D40A8200D4024860840DF
:102B1000648608409C86084014700D4008B506483D
:102B200003F00EFA054B01221A7000225A70AA22F5
:102B30009A70DA7008BD00BF2D2D2000361E0020CF
:102B400010B50F4C0220A17903F036FFA379112BA9
:102B500001D0062B05D1238D618D9942A8BF19465E
:102B600008E03A2B05BF94F8281094F8293000218A
:102B700043EA01210120BDE8104003F01DBF00BF62
:102B80002025002010B513780446087A83F002034C
:102B900098421DD1487A5378984219D1887A93780F
:102BA000984215D1C87AD378984211D1087B13790D
:102BB00098420DD1487B5379984209D1887B93790B
:102BC000984205D1C87BD379984201D103201BE0FC
:102BD0000B890F4A6BB94B89B3F57F4F09D18B89AC
:102BE000FE2B06D11368C989022023F8021B13604B
:102BF0000AE0136851F8080F083343F8080C4868D6
:102C000043F8040C13600120A040C0B210BD00BF07
:102C1000D004002010B5084C01462378012B08D1C0
:102C2000A01C082206F06EFC00280CBF20460020E5
:102C300010BD002010BD00BF361E002008B50146A3
:102C4000102003F0C7FE044B04489B6800219847FE
:102C5000BDE80840FEF7B6B890AC2000612C20001B
:102C600010B508460C46114602F0D6F9044B1B6815
:102C700013B19B6820469847024B1C6010BD00BFF3
:102C8000FC090020E40400202DE9F8434FEA121962
:102C9000B9F10F0F80461D4602F00F040BD00F2C28
:102CA00005D1B9F1000F0AD11024274619E0B9F176
:102CB000000F09D004E00F2C4FF0100900D11024B0
:102CC00040464A4606F050FC09EB04020F2A27460C
:102CD00006DC08EB09000021C2F1100206F01EFD1F
:102CE000BCB1114DC7F110002E6840443146224658
:102CF00006F03AFC022C08D1B9F10A0F9FBFFF235E
:102D000088F80B30FE2388F80C3034442C60BDE882
:102D1000F883B9F1000F05D040462946BDE8F843D5
:102D200006F03FBFBDE8F883D00400202DE9F04F46
:102D3000944E954D002387B033702B70044603F0FA
:102D4000D9FD03F075FD914F04213860092003F08F
:102D500033FE8F4B8DE860001B680BB1FFF7F0FE70
:102D600004A80CB98B4900E0214606F0AEFF8A4B5F
:102D70008A4E1A8803933E2A40F20B82D7F800A0AD
:102D8000874D0AF102032B60009B06F1180093F8AF
:102D90000090002309F102090AF80930FFF73AFF11
:102DA00020B906F10800FFF735FF20B10AF103034F
:102DB0002B60802400E0044672783078130943EADF
:102DC0000013DBB2990841EA8313DBB212F00F0F54
:102DD000D9B2DFF8CC8100F00F000ED16F4E7688AB
:102DE0005EB910B912F0F00F21D0D8F8003070267B
:102DF00003F8011BC8F800301AE078B912F0F00FA0
:102E00000CD1296823F03F031A43664B0A701B88D4
:102E1000033121F8023C6826296009E05F4A2B68EB
:102E200010686026186003F8041B2B6000E0782609
:102E30005A4B9A790293112A08BF46F00406730789
:102E40005EBFD8F8003003F8012BC8F80030029BB1
:102E5000DB79402B06D0FF2B07D0012B08D146F0A1
:102E600001060BE046F0020608E046F0030605E026
:102E7000D8F8002002F8013BC8F80020029A474B1E
:102E8000128982B95A8972B99A8962B9DA8952B9B2
:102E90001A8A42B95A8A32B99A8A22B9DB8A13B994
:102EA00044F0400013E04048FFF7B4FE3F4B186089
:102EB00078B142781AF80930042043EA02130AF87C
:102EC000093039493A4AFFF75DFE60F03F00C4B26D
:102ED00028E0029B31491A8948F2FE039A420CD13C
:102EE0004B8B53B98B8B43B9CB8B33B9042008314F
:102EF0002F4AFFF747FE2043E9E7D8F80020DFF824
:102F0000A8C096460CF1100B634603CB5B45CEF888
:102F10000000CEF804109C460EF1080EF4D1204BB0
:102F200010321A60DFF874B09BF81830FF2B40F0B5
:102F30008D809BF8192044F0080C022A5FFA8CFC63
:102F400038D1BBF81A30ABBBBBF81C3093BBBBF815
:102F50001E307BBBBBF8203063BBBBF822304BBBC1
:102F6000BBF8243033BB9BF826301BBBD8F80030AD
:102F70009BF8272044F00B0003F8012BC4B2C8F8DB
:102F80000030A2E0351E0020401E0020DC0400209E
:102F9000FC09002011AF20000C2500202025002076
:102FA000D00400202225002028250020C80400206D
:102FB000182500209C4B588B194688BB988B78BBF2
:102FC000D88BA8B9188C98B9588C88B993F8240074
:102FD00070B9296844F00A00C4B2084600F8012B11
:102FE00033F8252F043121F8032C9B78837015E0EA
:102FF000C98B8D4BA1B9198C91B993F8221079B96D
:10300000296844F00900C4B2084600F8012B53F8BF
:10301000232F063141F8052C1B790371296054E0F8
:10302000824ADFF81C82146808F11009A64643465C
:1030300003CB4B45CEF80000CEF8041098460EF1B5
:10304000080EF4D11034146064463EE00BF1180011
:10305000FFF7E0FD764B186050B143781AF809107D
:1030600044F004040B43E4B20AF8093000200EE0F7
:1030700048F2FE03BBF818209A4210D1BBF81A3070
:103080006BB9BBF81C3053B9BBF81E303BB90BF120
:10309000180104AAFFF776FD2043C4B215E0634A85
:1030A000DFF89C81D2F800E008F11009F4464346AD
:1030B00003CB4B45CCF80000CCF8041098460CF13B
:1030C000080CF4D10EF110031360019A564928231D
:1030D00013708B79112B51D14FF2B0030A8D52BA74
:1030E00092B222F00F0080B2984215D14B8D5BBA9C
:1030F00023F00F031B041B0C83420DD12868F3231C
:1031000003704B8D1A0A0B8D1B0A02EB031303F598
:10311000AA634370831C27E0029B43495B8D5BBA23
:1031200003F47F43B3F5704F09D12B68F1221A7075
:103130000A8DA3F801204A8D120ADA700CE002F41D
:103140007F42B2F5704F2B6808D1F2221A700A8DB7
:10315000120A5A704A8D5A80043305E0F0221A7020
:10316000886A053343F8040C2B60324B1A882B68AD
:1031700023F8022B019A2B6030231370009B3A68CE
:103180001B78D65413445C70284B1B689B1A009A1A
:1031900019E03A6841231370009B06F128051C785A
:1031A000631CDBB21344324603CAAA42186059605A
:1031B000164603F10803F6D1009B29341C70019BCD
:1031C000019A1B782833102013700DEB000103F0D7
:1031D00001FC194BDFF86C901B689847174B30EADD
:1031E000200428BF15245B699847039BC4F17D0424
:1031F0001D88019B241A1E78009BAA1B93F800804F
:10320000DFF844B0C8EB04039A42DFF840A040F373
:10321000CC8003F009FC7823B5FBF3F50135A84217
:1032200016DC0020D2E000BF20250020D0040020C2
:10323000C80400204E25002080AC200090AC200067
:10324000382500200C250020351E0020401E0020BF
:10325000D7F800809AF8005041462A4608F1040049
:1032600006F0F8F9B9F800305A4A6FEA83436FEA7A
:103270009343C3F3072388F80030B9F800300435CE
:1032800088F801301388EDB2190A88F80330013349
:10329000DFF854C188F8021013809BF80010631BFC
:1032A00023F007034C4E61441A4608EB0500CDF8A5
:1032B00008C08AF800503360019306F055F9019B6D
:1032C000581980B203F0AEFA03F0B4FBDDF808C081
:1032D000804665460028A4D004A8FFF7AFFC40460E
:1032E00003F0E0FB404603F0C7FB3C4A13689046FE
:1032F000012B96D0043B012B93D99BF800B0336887
:10330000053C5B441FFA83FB05238AF80030344BED
:1033100024F007041A68B9F8003034606FEAC34338
:103320006FEAD343C3F307231370B9F80030537027
:103330002C4B1B889B4548D23A684FEADB01117140
:103340003268CBEB03039342B8BF234A3868B8BF57
:103350001360009B346893F80090224605EB0B0144
:10336000484406F001F909EB040080B203F05AFA70
:1033700003F060FB044600283FF453AF04A8FFF7B6
:103380005DFC204603F08EFB204603F075FB124BDC
:103390001B689B44D8F800301FFA8BFB012B3FF4CD
:1033A00040AF043B012BC3D83BE738680E4940448B
:1033B000314406F0D9F8B9F800004044801B80B2CF
:1033C00003F030FA04A8FFF739FC012007B0BDE88C
:1033D000F08F00BF78170020E0040020E4040020F4
:1033E000DC0400200C250020202500202DE9F04FD2
:1033F000A04FA14E87B000243C70347003F018FA3F
:103400009E4DB8462860042003F0DEFA9C4B00B2C3
:1034100018609C4806F0F2FADFF894B2009518B1F3
:10342000994BABF800401C80009B1B6819785D78B5
:1034300045EA012501F0F801C0291AD0E02926D17A
:103440009F7893F804A0DB78BBF8004043EA072795
:103450003378C5F30A050533337003F0FDF92044D2
:1034600034784FF00009041BAC42B4BF002401249F
:1034700094E29F78DB78002443EA07273378C5F38A
:103480000A05043333704FF00109A24686E27E4BF1
:1034900000241C80A14627462346A2462546ABF8B9
:1034A0000040BBF80020AAB1002D00F09182764BBD
:1034B0001B88AB4240F08C82744B1B88BB4240F0AF
:1034C00087820F2003F092FA0146714806F002FC51
:1034D000D8B97DE240F213516A1E92B28A4214D8E2
:1034E0001BB1B9F1000F00F07382674B4FF480619C
:1034F0001D80664B63481F8006F06EFA0F2003F0B4
:1035000075FA0146624806F0E0FB3778052F00F0B7
:10351000CD81009B1968CA5D02F0E003602B40F08A
:10352000AC81B81C0F4497F801B00844594B5FFABE
:103530008BF10E06186044BF0130186012F0100FB6
:103540000091554E02F008012FD1D1B9196831F818
:10355000010FA6F801008978F170196811F8040BC1
:103560001960830803F00F0141F060013170717838
:1035700003F0300343EA801301F00F010B43737033
:103580002EE0186860210746317017F8011B0330E0
:103590004FEA910E0EF0300E01F00F014EEA0101DC
:1035A00071703988186071801AE001F0FF0791B9D5
:1035B00019680878C0F3830040F06000307011F89B
:1035C00001EB77804FEA9E0000F0300040EA8E1059
:1035D0007070196004E0602333700023737073808F
:1035E00002F0040303F0FF0101912B4F2BB929498D
:1035F0000B6813F8010BB8710B6012F003020BBFDC
:10360000244A264B13689B5C09BF13F8011BFB710E
:103610001360F9711BF0400FCBF301124AD0009BED
:10362000190641BF1549144B09681B7851BF002189
:103630005B189978090982B1194B1878012805D1CE
:10364000587888420CBF1946002100E00021154B34
:103650001960002940F0BA8128E11146124B0F2071
:103660009A5C0391029203F0C1F9039903460F4853
:1036700029E000BF351E0020401E0020DC04002091
:10368000CC040020D40400207617002074170020FA
:103690007D300020D0040020E8040020ABAE2000E4
:1036A000361E0020C8040020C4AE2000F004002014
:1036B0007A170020A64B0F209A5C029203F096F92D
:1036C000A4490346A448029AFFF7DEFA0BF008006B
:1036D0000BF0030200F0FF010BF00403B0B1002B6C
:1036E0004AD19E4B1B88ADF81430531E012B9FBF4F
:1036F0009B490B6813F8010B0B609A4B98BF8DF830
:1037000015009A5C984805A9002333E0002B27D0C8
:10371000009B1B0641BF9549954B09681B7851BF1B
:103720000B465B18997801F00F039249087801283D
:1037300004D14878984218BF002100E000218E4B48
:1037400000911960002900F0B1808C4B102013F813
:1037500002B003F04BF9009903460231824808E0B9
:103760007B4B102013F802B003F040F9794903466F
:103770007D485A46FFF788FA98F80000784900F12A
:10378000280388F80030019B002B56D00B681A786C
:1037900002F0F802F02A50D11122BA711A7802F020
:1037A000040E02F0F302F03A5FFA8EFE032A7DD88F
:1037B000DFE802F0020A1622B3F8012005333A8549
:1037C00033F8022C7A852CE0B3F801203A85DA78B8
:1037D000A2F5805292B2120242F0F0027A8509E01C
:1037E0005A78A2F5805292B2120242F0F0023A8563
:1037F0005A887A85043314E05A7802331209A2F504
:10380000756292B2120242F0F002328513F8012C76
:1038100002F00F02A2F5756292B2120242F0F002BB
:1038200072850B60BEF1000F04D10B6833F8022BD8
:10383000FA850B60303088F800004C4A0B6812683B
:103840009B1A4B4A137065B903F006F8484B1B7876
:10385000C01A98F800301844283803123B71787168
:1038600004E0A5F128031A123A717B71BA79444B2E
:10387000112A1BD19A889A8518E0412A40F0A88025
:103880007A1CD2B28B18DFF8F8E003F1280C7246EC
:1038900018685968083303C263459646F7D198F80B
:1038A000003029372833377088F8003002F0D4FF11
:1038B0002F4E3378834200F28B8002F0CDFF3378B5
:1038C000304AC71A176040F2145298F800B00BEB58
:1038D000CA0A0AEB070191427AD8244A284811689B
:1038E000504419443A4605F03FFEDFF8AC80264EBE
:1038F00065B1B9F1000F02D032885A4432800CB160
:10390000358007E032883A44328003E007EB0B024F
:10391000A8F8002033881BB1B8F800209A4257D18C
:10392000B8F8004019482246154905F01DFE184B0D
:103930001C80184C0023A8F800303380236823B182
:10394000FFF7FEF823685B68984702F01FFB3FE033
:10395000AFAE2000B3AE2000F0040020A9AE2000DE
:10396000D0040020B5AE200000050020DC040020BB
:10397000401E0020361E0020C8040020C4AE2000D7
:10398000E8040020E00400207A1700202025002011
:103990000C250020FC09002076170020BBF8003021
:1039A00093B1B9F1000F0FD00F2003F01FF80146BB
:1039B000094806F08FF918B9084B1880084B188091
:1039C0004FF001094B466CE501236AE5023145E6FB
:1039D00007B0BDE8F08F00BF7D30002076170020D3
:1039E0007A17002037B5124B124D1C782B796A7963
:1039F000C4EB032313449BB2ADF80630BDF8063088
:103A000005F108011844202280B206F073F8BDF8D1
:103A1000062004F12801294492B206F06BF810B197
:103A200040BA80B201E04FF6FF7003B030BD00BF76
:103A3000411E00202025002028492DE9F04188461C
:103A40000D78274E2835AB195C782648E4000734FA
:103A500002239C423DDBE9187218715C204F01295A
:103A600032D002D3632902D013E001332FE0037078
:103A700018461C4C04F030FFD8B998F80030227872
:103A8000283313443B445B78134402332370BDE86E
:103A9000F08101F0C001802905D0C02905D040295E
:103AA00012D1037005E0037006E03A7E0370FF2A2E
:103AB00002D10120BDE8F08104200221EA1801F0C2
:103AC00065FE0220BDE8F081527802321344DBB279
:103AD000BFE703700020BDE8F08100BF411E002059
:103AE00020250020471E0020F0B5C578124A0D445D
:103AF000EDB2D57083780F0A3B44DBB29370447803
:103B0000BB4254700678167005D2601CC0B250706B
:103B100008B901361670C9B28D420CDA0133DBB236
:103B2000054993703BB94B780133DBB24B7013B945
:103B30000B7801330B70F0BD1425002010B5084C34
:103B4000014620681430FFF7CFFF064A236811783A
:103B50001975517859759178D2789975DA7510BDC3
:103B6000442A00201425002008B501F06DF901F069
:103B7000F5FE02F0C1F900231149002221F81320BB
:103B80000133DBB2082BF7D10E49302303FB0211BE
:103B90000132D2B200230A2A81F82530F4D10A4A30
:103BA0004FF480611180094A002102EB4312013376
:103BB000DBB20A2B1182F6D1054A137008BD00BF93
:103BC000302C0020482A00207E170020442C0020A2
:103BD000481E00202DE9F041134F3D7815B3DFF862
:103BE000508005F12703B8F80040A34205DB00230D
:103BF0003B70A8F80030BDE8F0810C4EA4F128021B
:103C000005F12801641BA4B206F128003144521BBF
:103C100005F020FDA8F80040283C23123371002352
:103C200074713B70BDE8F081411E0020202500200A
:103C30000C2500202DE9F041034626480288013278
:103C400092B2B2F5FA4F28BF4FF4805200240A2CEA
:103C50000AD0214D05EB44152E8A55BAADB2AE42BD
:103C600004F10104F3D1EAE7DFF874E002800022F6
:103C70000A2A18D0184E55017419B4F81080571C30
:103C8000FFB2B8F1000F0CD18EF8002002886182DB
:103C900052BA228263B920461946102205F03EFD31
:103CA00011E03A46E4E78EF800200020BDE8F081FC
:103CB000274603F1100E3A4618685968083303C2C4
:103CC00073451746F7D1054B35441B7920462B75B4
:103CD000BDE8F0817E170020442C00208C2D0020B0
:103CE000481E002030B50A490023082B0DD0094C8E
:103CF0005A1C34F81350D2B2854204D100220B7002
:103D000024F8132030BD1346EFE70B7030BD00BF21
:103D1000481E0020302C00202DE9F74FA44E042827
:103D20003468B246A34F00F06182A349A34DA44A70
:103D300003280D601560894615D194F8253003F0ED
:103D40000F03032B08D1A38B002B40F0AD869D4BB6
:103D500008221A7000F09CBD022B40F0A5860023BB
:103D600005F8073CCAE3022878D1974A002313805C
:103D7000964A3B80D3780133DBB2D37063B9937832
:103D80000133DBB293703BB953780133DBB253702C
:103D900013B913780133137094F8253003F0FD0242
:103DA000052A0DD194F826300133DBB2782B84F844
:103DB000263040F07986002384F8253000F074BE68
:103DC000002B00F07186A28B7E48002A3DD094F82B
:103DD0002620511E84F82610002A40F0658694F8AB
:103DE0002720082A04D0591E01290AD8052A08D1FB
:103DF000002384F825308023037002F059FA00F084
:103E000055BD042A9CBF0321914003F00F0394BFCA
:103E1000C9B230210132013B84F8261084F82720F2
:103E2000072B00F24186DFE813F0650308000A0063
:103E3000FA043F06FA043F06FA0400225BE3042377
:103E4000037002F035FA00F061BD03F00F03032B9D
:103E500040F02A860823037000F01ABD052811D10E
:103E60005B4B1B681B8A002B00F01E860C3D156007
:103E7000554A0023138033603B80524B08220D606B
:103E80001A70B1E115F83C3C3C3D03F0F003602BA7
:103E900040F00A862B796A791B0239889818884283
:103EA00000F30286283213443B802B7AFF2B00F06C
:103EB000FB85484BAA1D484C484E1A6000222270D0
:103EC0003270AA799846B2B901233370FFF7B4FD76
:103ED000012800F0E98503D3022800F0E1850AE01B
:103EE000237803F128022A44C8F8002052780833C6
:103EF00003EBC20323703A4800F042FE002840F072
:103F0000B580374800F0E2FE002840F0AF802A7EFE
:103F1000334BFF2AA3F1180366D048F2FE00198B39
:103F2000814261D0198981425ED079B9598969B9D4
:103F3000998959B9D98949B91B8A3BB9698A294BE9
:103F400021B9998A11B9DB8A002B4DD0298B254BD9
:103F500079B9598B69B9998B59B9D98B49B9198CE8
:103F600039B9598C29B9998C19B9DB8CB3F5807F93
:103F70003AD03B88B3F5A06F04D9022000214FF45A
:103F8000A06206E0EB79174C012B06D800210A4607
:103F9000032001F0FBFB00F083BD04F0EBFC0028E4
:103FA00040F08285E379013BE37100F079BD00BF09
:103FB000442A00200C250020402A00205C250020F7
:103FC00010250020342A0020402C0020431E002011
:103FD0003C2A0020382A0020411E0020421E0020DA
:103FE000382500202025002048F2FE032989994227
:103FF00040F05A85298B9A4B81B9598B71B9998BAD
:1040000061B9D98B51B9198C41B9598C31B9998C95
:1040100021B9DB8CB3F5807F00F04685FF2A00F0E4
:104020004385904800F08CFD0246002840F03C8516
:1040300001200221ADE721D93A2B6ED026D93B2BA6
:1040400000F032853C2B64D133788749980735D509
:1040500058065ED443F040030B70FFF7EDFC0128D7
:1040600000F022852DD3022800F01A85D8F8002010
:10407000DFF820B213782B2BDDD12EE0062B00F0D9
:104080000B81112B66D0002B43D103E02C2B00F0C9
:104090000B853EE03378D9073BD4734A43F00103E4
:1040A0001370FFF7C9FC012800F0FE84DBD22378EF
:1040B00003F128022A44CBF8002008E043F0020371
:1040C000CAE7237803F128022A44C8F8002052786E
:1040D000083303EBC2032370C8E7337803F004000E
:1040E00000F0FF01A8B9604A43F00403137022787E
:1040F00002F128032B44D87810B104202A3248E773
:10410000CBF800305B78083202EBC302574B1A70D1
:10411000ACE704200121521B3BE705F007FD4FF6F9
:10412000FF73984240F0C08423782833E85C01F0A4
:1041300019FF23782833EA18E85C517801F004FB72
:10414000012804BF00233B803B88002B00F0AC8497
:1041500000F0A6BCFFF73EFD3B88454E303B3B8060
:10416000EB8DC9F8006063B9B5F82A80B8F1000F8B
:1041700000F09A843F4B404D2B60394BB3F828B088
:104180000BE005F0D9FC4FF6FF73984240F08C84A9
:10419000EAE7238A3BB920342C602C68374B9C42D9
:1041A000F7D300F081BC9845F5D1638A0BB19B45EC
:1041B000F1D123682BB963681BB9A3680BB9E36815
:1041C00033B12F482146102205F09CF90028E2D196
:1041D0002C4A022111702C4A002316602B4ACAF87F
:1041E0000030C9F80060138002F062F8274B1A888B
:1041F000002A00F0598402F13003194C9BB23B8035
:10420000283B191263711C4B08321B6852BA21718A
:10421000197DA2850022E2851A8AE17122855A8AD7
:1042200011216285A17104F118050FCB85E80F00FB
:1042300004F10800294600F0A9FD154B04F13C02E9
:104240001A6005F079FCC04380B208B1E08502E055
:104250004FF6FF73E38504F0A3FC00F01BBC00BF26
:104260002025002038250020421E0020411E00206D
:1042700050250020442C00203C2A0020842D0020C2
:1042800028250020342A002010250020402C002062
:10429000402A0020382A0020FFF79CFC05F049FC4A
:1042A0004FF6FF73984240F0FF83B5F82AB0BBF198
:1042B000000F00F0F983C14B1B8D002B00F0F4833D
:1042C000BF4E344696F82580B8F1000F0FD0328AE1
:1042D0005A450CD1728A9A4209D1BA483146102205
:1042E000019305F00FF9019B002800F01E81B64AEA
:1042F00030369642E6D195F8352002F03F02022A88
:1043000013D1B249B24E8846A1F800B00022082A63
:104310000AD0B04931F8121001328B45D2B2F6D131
:1043200000223270944657E0327095F83520A34B46
:10433000500700F1B983142283F835203C223A80DB
:10434000502283F8342093F8332093F8314093F8C7
:104350002F0083F82F2093F8322093F82E109C4ED4
:1043600083F82E2093F82D2083F82D4093F82C40CD
:104370000130347093F83060C0B283F8321083F8A3
:10438000312083F82C6083F8304083F8330060B923
:104390000131C9B283F8321039B90132D2B283F88F
:1043A000312012B9621C83F830202B8D874A854C4E
:1043B00013806A8D6B852A8504F1100594E80F003F
:1043C00085E80F002046294600F0E0FC4DE3BEF1F1
:1043D000070F10D00132D2B20A2A19D0302101FBC6
:1043E000024101F1200090F805E0BEF1000FEED18E
:1043F00032700C4611E0BCF1000F04D080799CF8BB
:1044000026108842E6D94FF0300C0CFB024CE1E755
:1044100064463270002C00F0478303226382694BAC
:1044200084F8262084F82420042284F823200FCB4B
:1044300084E80F00684B01201A784FF000092276BB
:104440005A7884F8250062769A78DB78A276E3764B
:1044500095F82F30A083E37595F82E30CAF8004008
:10446000A37595F82D3084F82290637595F82C305B
:1044700084F82790A4F810B02375FFF75FFB95F838
:10448000343003F0F002502A34D9544A1B09053B5A
:10449000980096464B461178834228DAEA1892F83B
:1044A0003C1021B3012901D101331EE0022917D1AB
:1044B00092F83DC0BCF1040F12D18EF80010337099
:1044C00092F83E1092F83F3043EA0123B3F57A7F29
:1044D000A8F8003028BF4FF47A73E383238409E0FF
:1044E000EA1892F83D2012B11344DBB2D4E78EF8FB
:1044F000001033701022314B83F835202F4B93F886
:10450000352042F0020283F83520022283F83C2055
:10451000042283F83D20032283F83E20E82283F81A
:104520003F2040223A80602265E295F835302C4ADF
:1045300003F004013446CAF80060107001F0FF0B6C
:1045400021B1202386F82500137003E21B4A08F0EE
:104550000F0892F83420B8F1020F4FEA12124FEA16
:1045600082011B4A11703A88A2F12802A2EB0102D3
:1045700092B23A8003D103F03F01122905E0B8F16D
:10458000010F03D103F03F0102292BD00AB999078B
:1045900028D0A98DB28A914204D1084AD18DF28ADD
:1045A00091421FD09A0740F11F82B8F1010FA1D0AC
:1045B000B8F1020F40F01882A0E700BF20250020CC
:1045C000482A002028250020282C00207C170020C5
:1045D000481E0020302C0020431E0020491E0020D1
:1045E000342A0020DB0652D5B18B00294FD006F1CA
:1045F0001800FFF779FAB54B95F830101878B44ADF
:10460000884244D192F8311093F801C08C453ED1D4
:1046100092F832E09978714539D192F83320DB78FD
:10462000934234D1F37696F82730307686F819C065
:10463000B1761BBB96F8243096F8261096F8220027
:10464000591AA1EBD001C9B25FFA81FE1EF0800FAA
:1046500096F82330084418BF4942A3EB930318BFD0
:104660005FFA81FE03EB0E02C0B2D3B286F82330AC
:1046700003EBD00386F8220086F82430954B012204
:104680001A7096F8243086F826300023B38396F803
:104690002510DFF8408201F00F03013B072B00F2E9
:1046A0000382DFE813F00800250097005A017C011F
:1046B0009601A1014C0198F80020864BD0070FD538
:1046C000032286F82520388840221A700022B283FF
:1046D000002800F0DA8042221A70FFF72FFAD4E0A7
:1046E00095F8353003F03F03022B40F0DD8101E700
:1046F00098F80030D90762D595F8353003F03F03BC
:10470000122B5CD1724B93F8343003F0F002502A34
:104710003AD9714A1B099646053B11786F489B00B0
:104720009B452DDA05EB0B0292F83C1041B30129B1
:1047300002D10BF1010B20E0022918D192F83DC003
:10474000BCF1040F13D192F83F308EF8001092F8AC
:104750003E10634A43EA0123B3F57A7F138028BFF2
:104760004FF47A7380F800B0F38333840CE005EBE8
:104770000B0292F83D201AB193445FFA8BFBCFE70E
:104780008EF8001080F800B0032386F8253095F8E5
:104790002C300120337595F82D30737595F82E3037
:1047A000B37595F82F30F375FFF7C8F9494A4223DE
:1047B00013704C4A0023B3833B80138068E02023AE
:1047C00088F8003001F074FDDAF80030002283F838
:1047D0002520AAE595F83530DA0725D5C80623D473
:1047E000B38B002B40F060813888013080B2FFF736
:1047F000A5F998F8003043F0100288F800203A88B4
:104800001AB1344A43F01203137001F051FD012331
:10481000B383082386F82530002386F82730112239
:104820002B4B83F83520E2E09A060DD595F83A2017
:1048300095F83B3043EA0223D9F800201A44C9F81E
:1048400000203A88D31A3B80388848B1CB0607D479
:1048500098F8003043F0020388F80030FFF76EF953
:1048600095F8362095F83730318C03EB02239BB254
:104870001B4A8B42138000D803B911801388F3833D
:1048800098F800309D0700F00F81164B00221A8027
:1048900001F00EFD0F4B1A78124B02F0200000F0D1
:1048A000FF0128B100221A8084F825201422B7E7DE
:1048B00002F0100000F0FF05B0B119800123A383BE
:1048C000042384F8253084F82710A8E71425002055
:1048D00020250020342A0020491E0020481E0020E8
:1048E0007C170020402C0020198861B1D00748BFF8
:1048F000A583A28B32B9E28B914288BF1A801B88B4
:10490000A38300E01A80002384F827306C4B1B68D7
:10491000C9F800306B4B1B882BB1A38B1BB13C3308
:104920003B80182207E0684B1B78990740F1BC8058
:104930003C233B801022654B83F8352059E098F8E2
:104940000030DA0740F1B080002386F825305E4B56
:1049500010221A7001F0ACFCA6E0388808B1FFF70D
:10496000EDF895F8353013F001030FD098F80030CA
:10497000DB0745BF072386F825300623002346BF03
:1049800086F82630B38386F8253016E098F80020A4
:10499000D0071BD5052286F82520B38384E038880C
:1049A00008B1FFF7CBF895F83530D9070ED50723B6
:1049B00086F82530002386F826300120FFF7BEF860
:1049C000102388F8003001F073FC0DE03B885BB9E0
:1049D0006AE098F80030DA0766D5072386F82530B4
:1049E000002386F826305FE0102385F835303C231D
:1049F0003B80364B502283F83420344D237D05F123
:104A0000180685F83030637D85F83130A37D85F850
:104A10003230E37D85F83330237E85F82C30637E99
:104A200085F82D30A37E85F82E30E37E85F82F3073
:104A3000238A2B85638A6B8594E80F0086E80F0034
:104A400005F10800314600F0A1F994F82530DB06A5
:104A500057BF0323002385F83630E82346BF85F887
:104A6000373085F8363085F83730184C0623A37177
:104A7000174B1B79E3713B88283B1A1263710023A3
:104A8000227184F83B3084F83A30238705F051F8DE
:104A9000C04320870D4B60221A7000225A705A8042
:104AA000094B00221A7007E00A4A002313700A4AD1
:104AB0003B801370044A137003B0BDE8F08F00BF51
:104AC00010250020402C0020342A00202025002022
:104AD0008C2D0020411E0020421E00202DE9F341B4
:104AE0000446154D00910E4690461F4601952346FB
:104AF00012480321202205F02CF801282B4616D15C
:104B00002A6804F11001107020462A68023250F819
:104B1000044B884242F8044BF9D11868089B86740C
:104B20004361099B80F813800777836100E00020D0
:104B300002B0BDE8F08100BF040A0020AC2E0020C6
:104B400070B506460B4D0C4B2B602C680B4B9C42F2
:104B50000BD2237833B1A27CA01C3146D20804F0DA
:104B6000D1FC20B120342C60EFE7002070BD012083
:104B700070BD00BF040A0020AC2E00200C2F0020C6
:104B800013B5084C80220346009201940648032185
:104B9000202204F0DEFF08B9206800E0002002B007
:104BA00010BD00BF080A0020A42D002010B50C4A3B
:104BB0000C4B136013680C498B420DD2197849B124
:104BC000411C02D0997C814204D148F2FE015C88EC
:104BD0008C4202D02033ECE70023184610BD00BF02
:104BE000080A0020A42D0020042E002037B504461A
:104BF0000F4D80230093019523460E480721122272
:104C000004F0A7FF01282B460ED12A6804F11001F9
:104C1000107020462A68023250F8044B884242F84D
:104C2000044BF9D1186800E0002003B030BD00BF8C
:104C3000000A0020282E0020F7B50546204C8023CE
:104C400000930E46174601941E48032120222B464E
:104C500004F07FFF012830D12A46236805F11001B6
:104C600018702368023352F8040B8A4243F8040B8D
:104C7000F9D12068C77416B90123037505E0002334
:104C800003753146183005F005FE23680E480121F2
:104C9000997402234370FF220023027043808380B3
:104CA000C38003818372C17202736B7B4373EB8990
:104CB000C381FFF79BFF206800E0002003B0F0BD38
:104CC000080A0020A42D00208017002013B5084CEE
:104CD000802203460092019406480721122204F024
:104CE00038FF08B9206800E0002002B010BD00BF06
:104CF000000A0020282E002038B50546C8B10D480E
:104D0000022200244270FF230122C2724480848068
:104D1000C4800481847203730370EB7B43732B8A1A
:104D2000C381FFF7D3FF044A106008B104F035FFD8
:104D30002C7038BD80170020000A002010B50F4BE2
:104D40000F4C236020680F4B98420ED203784BB172
:104D5000037D3BB9183004F05DF818B1084B1868B2
:104D6000FFF7CAFF23682033EBE700F0E3FB00F016
:104D700069F9BDE81040044804F00CBEA42D0020E1
:104D8000080A0020042E00200C2F00202DE9F843F3
:104D900048F2FE030A8805469A42884621D00B78DD
:104DA000FF2B1ED01B4B0024A1461F461A4A1A6037
:104DB0003E681A4A964218D233787BB1B37C012BF5
:104DC0000CD148F2FE0372889A4207D04046B11CCB
:104DD00004F0F0FE484524BF3446814620363E604C
:104DE000E6E70120FFF7E2FE04464CB92C806C8018
:104DF000AC80EC802C816C81AC81EC81BDE8F883C7
:104E0000A31C123453F8042BA34245F8042BF9D108
:104E1000BDE8F883080A0020A42D0020042E0020FD
:104E200010B5FDF72FFE0446FDF72CFE054B2402BE
:104E30009A68A4B22044B0FBF2F302FB130000EB2B
:104E4000520010BD8C2D002073B5304C00F07EF860
:104E500000F0A2F9002160222D4804F05FFC00213F
:104E600020464FF48E7204F059FC2A4B20221A700F
:104E7000294B18221A704FF4A0632360274B402659
:104E80002671A360FFF7CCFF42F21073236148F252
:104E9000FE03314640F2FF260025E0602575204CD8
:104EA0002A46238065802B46A580E5802046009514
:104EB0000195FFF713FE20461A4904F072FE2946B9
:104EC00001222046FFF7B8FE4FF480732046E381AD
:104ED00026806580A580E58025816581A581FFF715
:104EE00085FE4FF40073204626806580A580E5800E
:104EF00025816581A581E381FFF778FE0A480C21B1
:104F000002B0BDE8704004F03CBD00BF8C2D002015
:104F1000AC2E0020A92E0020A82E0020C0270900BA
:104F200080170020182500200C2F002010B5044603
:104F300040B102F079FC044B2146BDE810401868EE
:104F400001F0D6BB10BD00BFCC000020024B0349CE
:104F5000186801F011BB00BFCC0000202D4F2000CD
:104F60002DE9F8439846154B05461868914601F01F
:104F700031FB0446F0B1074605F110033E462868B0
:104F80006968083503C69D423746F7D104F1100021
:104F9000002184F8219084F8228005F07BFC04F144
:104FA0001800002105F076FC002384F8203020460C
:104FB00002F03AFC2046BDE8F88300BFCC00002098
:104FC000024B0146186804F0EABE00BFCC00002086
:104FD00070B50C4D0646286801F0E2FA044666B941
:104FE000002070BD20463146102204F08BFA38B103
:104FF0002146286804F0A3FE0446002CF2D1EFE716
:10500000204670BDCC000020024B0146186804F019
:10501000ADBE00BFCC00002070B5054610200C4688
:1050200001F0E4FC0649064604F054FE30B930466F
:1050300029462246BDE8704002F0BEBB70BD00BFED
:1050400011AF200070B53F4D286801F0A9FA044661
:10505000002876D094F82230042B6DD8DFE803F0D6
:105060001D036C33410004F11006304603F0D2FEFC
:10507000002861D0204600F0FDF950B1032384F8E8
:1050800022303046052105F005FC002384F820304D
:1050900052E0022384F822304EE094F82030022BB4
:1050A0002BD804F11806304603F0B4FE002843D094
:1050B000254B188800283FD194F820300146013351
:1050C00084F820302CE004F1100003F0A3FE98B324
:1050D0000423002184F8223084F8201004F1180001
:1050E00028E094F82030022B0BD9204600F0C2F9BA
:1050F00018B1037F0BB900F09BF92046FFF716FFAC
:105100001AE004F11806304603F084FEA0B10E4BFD
:10511000188888B9214694F82030013384F820306B
:10512000224600F037FE094B304619694FF47A7376
:10513000B1FBF3F105F0AEFB2868214604F0FFFD5A
:1051400085E770BDCC0000200C2500208C2D0020B0
:105150002DE9F04105460D480F46904604F05FFCEE
:10516000044688B1012D04D8094804F08EFC03469A
:1051700001E0084B1B682846666839464246B0473E
:10518000204604F089FCEBE7BDE8F081D81100204F
:10519000700D00206C0D002008B50A4805F081FB59
:1051A000094804F039FC0949094801F0E5F90948C2
:1051B00005F077FB084804F02FFCBDE808400748DD
:1051C00004F02ABCFC000020140E00200D9C2000DE
:1051D000EC000020E0000020700D0020D81100201D
:1051E00008B5034638B15968034804F0D8FDBDE856
:1051F000084004F0FCBC08BDEC000020014804F0AD
:105200000EBC00BF140E00202DE9F0418046FFF7D0
:10521000F5FF0026044637469CB194F82450B54269
:105220000AD3404604F10801EA0804F06BF918B902
:10523000802D08D02E462746204604F0E3FC044685
:10524000EAE73C4667B1084804F0E9FB844207D02E
:105250000548214604F0EDFB0348214604F00CFC10
:105260002046BDE8F08100BF140E002038B504468A
:1052700000283DD04368002B3AD01E48214604F058
:10528000D8FB6368586804F0CAFB054630B1436830
:10529000A34207D0284604F0FFFBF6E704F108001C
:1052A00001F0BEF863682946586804F0C2FB6368E1
:1052B000586804F0B4FB20B963680F48596801F0DE
:1052C00017FA21460D4805F010FB29460C4805F059
:1052D0000CFB0C4A20461368013B1360FFF780FF6C
:1052E00004F108010246BDE838400320FFF730BF53
:1052F00038BD00BF140E0020EC000020FC00002090
:10530000080100206C0D002010B5044678B14068FB
:1053100068B104F084FB20B14068FFF7A7FF606824
:10532000F7E72146BDE81040014801F0E1B910BDA2
:10533000EC0000202DE9F0470746104689469046CC
:1053400004F057FC824610B90020BDE8F0873846CB
:10535000FFF75AFF044660B1FFF742FF014628B14C
:105360004046102204F0CEF8002854D02046FFF723
:105370007DFF2A4E3368142B04D1294804F051FBD9
:10538000FFF774FF2748514604F0F0FC054658B972
:105390002448514601F01EF905460028D4D00023C8
:1053A0006860036004F038FB1F4805F08AFA044681
:1053B0000028C9D01A48214604F05EFB1B4805F0BE
:1053C00080FA824620B92146174805F08EFABBE7DD
:1053D00044606868514604F040FB336865600133FF
:1053E00033603B4604F1080507F110062A461868A9
:1053F0005968083303C2B3421546F7D100210C2285
:1054000084F8249004F1180004F088F90220394649
:105410004246FFF79DFE2046BDE8F0876C0D002058
:10542000140E0020EC000020FC00002008010020E9
:1054300038B505460D4804F0F2FA0446A0B1AC4276
:105440000ED12146094804F0F4FA2146084805F037
:105450004CFA211D01200A46BDE83840FFF778BE0E
:10546000204604F019FBE8E738BD00BF700D0020AE
:10547000E000002038B50546084804F0D0FA04469C
:1054800048B1201D2946102204F03CF818B12046EE
:1054900004F002FBF3E7204638BD00BF700D00208A
:1054A000F8B505460F46FFF7E5FF044640B9134837
:1054B00005F007FA0446F0B11148214604F0DCFA81
:1054C0002B46261D05F1100E324618685968083320
:1054D00003C273451646F7D137B104F114003946BB
:1054E00005F0D8F9002300E00123237700202946A6
:1054F0002A46FFF72DFE2046F8BD00BFE000002041
:10550000700D002038B50A4804F089FA04460025D9
:1055100064B1251D2846FFF75BFD10B190F82230DD
:1055200023B9204604F0B8FA0446F1E7284638BD0E
:10553000700D002010B50A4804F071FA044670B1ED
:10554000237F43B904F1140003F064FC18B1204632
:10555000FFF76EFFEFE7204604F09EFAEEE710BD7E
:10556000700D00202DE9F043334C344D85B004F12B
:1055700008030FCB8DE80F002B786E46E779002BE0
:105580003DD003F0D9FADFF8BC90804629783A2361
:1055900000B3814284F8283013D0B9F80020521AA1
:1055A000024492B2A9F80020283A131262712C31F9
:1055B0002C30C8EB020220442144043A237104F049
:1055C00049F8B9F8003085F80080C8EB0308A9F85D
:1055D000008014E0B9F80020A371521A92B2A2F12F
:1055E000280318122C31A9F800202071214404F15D
:1055F0002C002C3A637104F02DF885F800801048D7
:1056000004F00DFA804690B1D8F804C0BCF1000F48
:1056100009D00C4B2A781B8838322C3B304639464F
:1056200022449BB2E047404604F036FAEAE7054BD5
:10563000188005B0BDE8F08320250020411E002021
:10564000DC1100200C250020F8B5384B384C1B79B4
:1056500004F11806E371237E04F10805FF2B08D13D
:1056600095E80F0086E80F0028463146FFF78EFBCD
:105670001BE02F46B6462F4A3B4603CB73451060CE
:1056800051601F4602F10802F6D196E80F0085E846
:105690000F00284B284D03F110062A461868596858
:1056A000083303C2B3421546F7D1244D2B787BB3A0
:1056B00003F042FA2B7806463A22B0B183421C4FDF
:1056C00084F8282023D01E490A88D21A024492B2B4
:1056D0000A80283A111239717A7103F12C012C30A9
:1056E000921B38443944043A0FE01549A2710A88E4
:1056F000D21A92B20A80A2F12801081220716171B7
:10570000104803F12C0121442C3A03F0A3FF2E7022
:105710002B7881222833E518E25400236B706B80CC
:1057200004F004FAC0436880F8BD00BF8C2D00204F
:10573000202500209017002038250020411E002041
:105740000C2500204C25002038B504460B480D469A
:1057500004F065F978B10379A34209D14379AB42EA
:1057600004D183683BB19847002038BDFF2BF8D0A7
:1057700004F092F9EEE7012038BD00BFE0110020EF
:105780000146014804F069B9E01100202DE9F74F06
:10579000484E8146337888469246474C3BB1283381
:1057A000E35C3A2B0AD1454B00221A807FE0A379B3
:1057B0003A2B03D194F92830002BF4DA03F0BCF92A
:1057C0003F4D404A0746AC469346307005F1100EF7
:1057D0002B4603CB7345106051601D4602F1080251
:1057E000F6D1364D04EB47002B88303030339BB276
:1057F000B3F5A06F88BF4FF4A0632B802A882E4B8F
:10580000D21B1946303ACDF804C0009303F022FFB2
:105810009DE80810602222700022627062803A22A5
:1058200017B183F8282000E09A71274A224B127999
:10583000E271228972B95A8962B99A8952B9DA89B0
:1058400042B91A8A32B95A8A22B99A8A12B9DB8ABB
:10585000002BA8D01D4B0FCB8CE80F009BF800301D
:10586000FF2B05D1B9F1040F9DD1B8F1020F9AD1E8
:1058700014491648FFF78AFA3778504607F128038B
:10588000E21804F8039082F8018004F058F92B889C
:105890002C37283BE0511A12637133782271283378
:1058A0001C440023638004F041F9C043608003B0CE
:1058B000BDE8F08F411E0020202500200C2500208F
:1058C00038250020901700208C2D0020282500204E
:1058D0002DE9F0411E460F461B4905460C46602344
:1058E0000B7000234B704B803A238B71174B904603
:1058F0001B7900F1100ECB71331D1A120A714B7116
:1059000001F11802134628686968083503C3754514
:105910001A46F7D10E482C3600F11001FFF736FA7F
:105920000C4B1B782833E518E75400236B8085F86F
:10593000018004F0FBF8C043074B68801E80BDE87F
:10594000F04100F035BB00BF202500208C2D002049
:1059500028250020411E00200C25002008B5044801
:10596000FFF70EFFBDE808400248FFF709BF00BF80
:1059700014010020200100202DE9F74F664C674AF2
:10598000E1791378FF2903F12C0C0CEB04091CF8C6
:1059900004700192DFF8A48140F0B580234493F8AD
:1059A0002930002B40F0AF8099F80430FF2B00F035
:1059B000AA8007F0400303F0FF061BB1237EFF2BF4
:1059C00000F0A1805649574D14230022B8F800B0CA
:1059D0000B702A600CEB030EDE4511DA04EB0E0AA5
:1059E0009AF8010010B92A600B708CE014F80EE0F0
:1059F00003EBC003DBB2BEF1020F08BF5246E9E77A
:105A000009F104000B702A60FFF7BAF8464B1860E2
:105A1000002878D1019B187820443030FFF7D8FA5D
:105A2000424C2060FFF7CCFA25688346A146002D42
:105A300069D03C4B1C6834B1A01C5946082203F0C5
:105A400061FDC0B200E0204695F8223027F07F0AC1
:105A50005FFA8AFAEBB9002C55D054F8022FCBF834
:105A600000206268CBF804207EB185F82030304BEE
:105A70000122D9684FF47A7385F8222005F11000CD
:105A8000B1FBF3F104F006FF39E0022385F8223080
:105A900035E0BA0606D428B1012B34D1022385F8AB
:105AA000223030E0ACB3224652F8023FCBF800304F
:105AB0005368CBF804306EB1012385F822301C4BBB
:105AC00005F11000D9684FF47A73B1FBF3F104F0DB
:105AD000E1FE04E01CB110B1022385F82230D9F8B0
