:020000040020DA
:100000003C2900208D022000B79F2000B59F2000D2
:10001000B59F2000B59F2000B59F20000000000084
:10002000000000000000000000000000B59F20005C
:10003000B59F200000000000B59F2000C5A920004A
:10004000E7A92000EDA92000F3A92000F9A92000CC
:1000500000000000CBA92000D1A92000B59F2000FE
:10006000B59F20000000000000000000000000001C
:100070000000000000000000B59F2000000000000C
:100080000000000000000000B59F2000B59F200088
:10009000B59F2000B59F2000B59F2000B59F200090
:1000A000B59F2000B59F2000B59F2000B59F200080
:1000B000B59F2000B59F2000B59F2000B59F200070
:1000C000B59F2000B59F2000B59F2000B59F200060
:1000D000B59F2000000000000000000000000000AC
:1000E0000000000000000000000000000000000010
:1000F0000000000000000000ED2F2000FD2F200078
:1001000000000000000000000000000000000000EF
:1001100000000000000000000000000000000000DF
:1001200000000000000000000000000000000000CF
:1001300000000000000000000000000000000000BF
:1001400000000000000000000000000000000000AF
:10015000000000000000000000000000000000009F
:10016000000000000000000000000000000000008F
:10017000000000000000000000000000000000007F
:10018000000000000000000000000000000000006F
:10019000000000000000000000000000000000005F
:1001A000000000000000000000000000000000004F
:1001B000000000000000000000000000000000003F
:1001C000000000000000000000000000000000002F
:1001D000000000000000000000000000000000001F
:1001E000000000000000000000000000000000000F
:1001F00000000000000000000000000000000000FF
:1002000000000000000000000000000000000000EE
:1002100000000000000000000000000000000000DE
:1002200000000000000000000000000000000000CE
:1002300000000000000000000000000000000000BE
:1002400000000000000000000000000000000000AE
:10025000000000000000000000000000000000009E
:10026000000000000000000000000000000000008E
:10027000B59F2000E12E2000F92E20000528200047
:10028000B59F200039232000B59F200008B5094BF9
:10029000FF221A600848094A4824E3690849121AEB
:1002A00098470848084AA3690021121A984701F0A4
:1002B0001DFDFEE7B4200D40400000202A02002072
:1002C0005CB92000300200203C21002038B50388B2
:1002D000044615462BB1722B0CD00023038003205B
:1002E00038BD00F05BFC09480AF0AAFB72232380AA
:1002F000012038BD064B1B788B42F9D105480AF026
:100300009FFB284600F0E2FBEDE700BF7CB4200035
:10031000322100208EB420002DE9F04100248046D7
:10032000254608EB05035B7818F8056003EB062605
:10033000B6B296B9002C12DB01D001342CE0194C76
:1003400019482168194A0844C1F580710AF0DFFB99
:1003500023681844206001241EE0002C0DDC75B1D8
:10036000104F11483968124A0844C1F580710AF0EB
:10037000CEFB3B681844386001E04FF0FF34094F72
:1003800009483968334608440A4AC1F580710AF0C1
:10039000BEFB3B68184438600235102DC1D1BDE862
:1003A000F08100BF40020020751600209FB420009D
:1003B000A0B42000A2B42000F8B5838D0446B3F5A4
:1003C000887F6AD00AD8B92B16D0B3F5857F48D07C
:1003D000002B40F0D880B92383850DE0B3F5A87FCA
:1003E00000F0B98040F25112934200F0C380B3F59F
:1003F0009E7F40F0C8808CE004F12C0064493322D9
:1004000007F05AF9012801D80020F8BD6149624877
:1004100009F0C6FC614B0E221A60614B186807F0A8
:10042000DFFC604B186006E05E4D5D4B2968186884
:100430000AF073FD28605B4B584D1868564EF8B1B2
:10044000FFF76AFF2968584A7018C1F580710AF0F1
:100450005EFB2B681844D3282860E5D94FF48573D8
:10046000A3854D4809F0FAFC4B49024604F12C00E3
:1004700007F022F90128C7D9484B00221A60D3E7B8
:1004800029684A4A7018C1F580710AF040FB2B6850
:1004900018444FF488732860A3853F4809F0DEFCB8
:1004A0003D49024604F12C0007F006F90128ABD9BA
:1004B0003A4B00221A6006F073FA3D4B18603C4E2E
:1004C000364D3068344F002838D00830FFF724FF0D
:1004D00029683368374A781893F82430C1F5807159
:1004E0000AF015FB2B6818442860306806F04AFAB9
:1004F000FFF712FF2968336878189B69C1F580718E
:100500002D4A0AF004FB2B6818444FF49E732860B0
:10051000A385214809F0A2FC1F49024604F12C00E2
:1005200007F0CAF801287FF66FAF214D1B4B002260
:1005300028681A600AF0A1FC2860C0E729681F4AF1
:100540007818C1F580710AF0E2FA2B6818444FF46C
:10055000A8732860A385104809F080FC0E49024664
:1005600004F12C0007F0A8F801287FF64DAF40F207
:100570005113A38504F12C0011490F2207F09CF8B8
:1005800001287FF641AF0023A3850320F8BD00BFFB
:10059000A5B42000D9B42000751600204002002028
:1005A00058010020580200207BB52000E8B420004C
:1005B00054020020FAB4200004B520000CB520003D
:1005C00013B5200000487047B9032000064B10B552
:1005D0003F221A70054C50225A700223238002F0E9
:1005E000B9FE0023238010BDA01B00208C1B00201F
:1005F00070B504880546B4F5CF7F17D00FD864BB1B
:100600003B4B20461C703B4B5B6998473A4B85211E
:100610001868224603F02CFD4FF4CF731BE0B4F5AD
:10062000D87F3DD0B4F5E07F41D016E085293CD19C
:10063000324B812001219B68984731480AF000FA2B
:100640002B4B1B786BB92F4880210AF078FAFFF703
:10065000BDFF4FF4D8732B8027E000232B800320AD
:1006600070BD244B01205B69984727480AF0E8F9E0
:10067000264C04F1600614F8022C237C52B1012BA5
:1006800008D820200AF0C4F9204607F005FB0A200C
:100690000AF0BEF92034B442EDD14FF4E073DAE74A
:1006A00018480AF067FA0028CAD1012070BD184B1B
:1006B0001B788B4209D1114B9A4206D115480AF09A
:1006C000BFF91E2009F036FEE7E7134B1B788B427B
:1006D000E3D1124B1B789B07DFD5114B0022196821
:1006E000104B11481B88CA5402F0C0FED5E700BF6A
:1006F0007416002038B42000D40500208CB22000ED
:1007000023B52000440200203DB520009E1F00209C
:100710001E21002054B52000322100202C1C002076
:10072000381C00208C1B00206DB52000034630B51E
:10073000164A85B000F1100553F8041BAB4242F88D
:10074000041BF9D103466C462246186859680833E1
:1007500003C2AB421446F7D10D4B012468460D4944
:100760001C700AF059FB00216846224605F038FE4D
:100770001E20694600F03AFB30B10449402209F0DE
:1007800063FC05480AF05CF905B030BD5813002041
:1007900074160020981B00207DB5200008B54FF48A
:1007A000E13002F015FD0448002103F08DFCBDE8A6
:1007B0000840024802F0C8BD10010020C107200017
:1007C00030B52D4C85B023782546212B1FD161787B
:1007D0002A4802F04BFE2A4B002119806378502BE7
:1007E0003BD11022684609F08DFA6B4654F8020F8F
:1007F000616803C3234802F039FE684607F04CFAEB
:100800000A200AF005F96846FFF790FF25E03F2B24
:1008100023D11D48617802F029FE63784D2B19D150
:10082000212323700023194A01331A4412F8012CA2
:100830001749140902F00F02645C525C05EB430097
:10084000082B05F813404270EDD10D4B12221A808F
:1008500002F080FD0A4B00221A800E4C0E4A04F171
:100860001005234603CBAB42106051601C4602F1D9
:100870000802F6D105B030BDA01B0020B4B52000A1
:100880008C1B0020DAB52000EAB52000981B002060
:100890000AB62000A81B00206813002008B50D48E8
:1008A0000D49102209F022F980B90C4802F0DEFD52
:1008B000094807F0F1F90A4802F0D8FD094807F0A5
:1008C000EBF9BDE808400A200AF0A2B8BDE80840EC
:1008D00002F040BD68130020A81B00201BB62000BA
:1008E0004FB62000B81B002038B5038904469E2B64
:1008F0000AD004D8002B50D19E23038104E0A32BFF
:100900001BD0BA2B41D048E004F10800202106F0AA
:1009100033FF012801D8002038BD04F152002149DD
:10092000042209F0C9FA30B11F4B10221A700023BB
:100930002381022038BDA323238104F10805284622
:10094000202106F019FF0128E5D994F852302F2B09
:10095000EAD194F85330202B04D1144B1B88A4F80F
:100960006C300DE028460AF08EFA0023204480F80F
:10097000513004F1520104F16C00022209F0E6FA50
:10098000012384F87430BA23238104F108000A217A
:1009900006F0F2FE0128F6D8BDE7002323810320EC
:1009A00038BD00BF98B720002C1C002055B6200091
:1009B00038B5838D0446632B0D4604D0762B11D0B9
:1009C000C3B963238385284609F048FA29460246BD
:1009D00004F12C0006F070FE012801D8002038BD7B
:1009E0007623A38504F12C0004491B2206F064FE43
:1009F0000128F3D90023A385032038BD14B72000B4
:100A000010B5B0F850300446882B21D003D83BB144
:100A1000862B12D04AE08E2B35D08F2B3CD045E070
:100A200003676D30FFF7CEFD206748BB224B1B8864
:100A3000A4F86C308623A4F8503020461F49FFF7F5
:100A4000B7FF012801D8002010BD8823A4F850303A
:100A5000A38D13B1562B02D009E05623A38504F1D0
:100A60002C001749582206F027FE0128EBD9154A19
:100A700000231021A3851170A4F85030022010BD6E
:100A80008E23A4F8503020460F49FFF791FF01282C
:100A9000D9D98F23A4F85030236F204698470128D6
:100AA000D1D900232367074B10221A700023A4F822
:100AB0005030032010BD00BF30B7200061B62000C9
:100AC0003FB720002C1C0020BEB620002DE9F041CD
:100AD0002F4D04462B78A84613F0300601D11A0694
:100AE00009D5002C51D0002323672146BDE8F041F1
:100AF00028480AF0DDB803F0400202F0FF073AB3DD
:100B000024480AF0C1F8044620B9202388F80030B0
:100B1000BDE8F081204B2146186804F1520506F02B
:100B2000B7FE04F10800294619220AF0B1F904F1D0
:100B30002C00294619220AF0ABF9A4F85060266768
:100B400084F8746020464FF4A0610AF02AF810E09F
:100B50000028DAD01B070AD50AF035F848B120235F
:100B6000276721460B482B700AF0A2F801E00AF033
:100B700024F82046FFF7B8FE94F87430012B04D116
:100B80002046BDE8F041FFF73BBFBDE8F08100BF64
:100B90002C1C0020600000203C1C002008B54FF4F5
:100BA000A04006F057FEBDE8084001480AF05CB8D6
:100BB0006000002070B50D46044658B18169A94215
:100BC00008D0054E306807F0D3F93068294607F0A1
:100BD000C5F9A56170BD00BF6C00002038B50D4699
:100BE00004460021102209F08DF82A7D294607329B
:100BF0002046D21008F0ACFF2046BDE8384001493D
:100C00000AF00AB9981B002008B505F0B3FD05F0FD
:100C1000A9FD034B01461868BDE808400AF094B9E5
:100C20006C00002008B5074B014618680AF0A5F9CA
:100C3000014628B1044B1868BDE808400AF084B9A1
:100C400008BD00BF6C00002058010020024B034982
:100C5000186807F0B1B800BF6C000020BBA22000EC
:100C6000024B014618680AF06FB900BF6C00002003
:100C700008B5044B014618680AF07FF9BDE8084042
:100C80000AF0F0B86C00002038B50B4C054694F81B
:100C90008D1071B94FF49272204609F033F8012398
:100CA000204684F88C5084F88D3000F09DFF20465B
:100CB00038BD002038BD00BF681A002070B5064658
:100CC00010460D460AF0D0F8014608B9002413E09A
:100CD0000A4B186807F09EF804460028F6D0FFF784
:100CE000A1FF66606B8A23816B7E237420B1838CA5
:100CF00013B94FF400738384204670BD6C0000204C
:100D0000F8B5194F0646386807F06AF8044600251A
:100D1000BCB16368B3420ED14FF6FF7322899A4289
:100D200009D03DB1336A28469B6821469B689847A5
:100D3000054600E02546214638680AF0EEF80446EC
:100D4000E6E75DB130462946FFF734FF336AB06904
:100D50009B6821461B699847B08302E04FF6FF73FA
:100D6000B3832846F8BD00BF6C00002010B50446D0
:100D700009F07FFA034B2146BDE81040186807F0E0
:100D8000D7B800BF6C00002070B5094D0646286832
:100D900007F026F8044650B163689E4202D120460F
:100DA000FFF7E4FF286821460AF0B7F8F2E770BDC4
:100DB0006C000020044B93F88D0020B1D868837D2F
:100DC000002B08BF00207047681A0020064A92F8DE
:100DD0008D3033B192F88C3083420CBF1046002026
:100DE00070471846704700BF681A00202DE9F0418F
:100DF00080460F46FFF7EAFF10B300F1100400F140
:100E00008805F026637DBBB120463946102208F0E4
:100E10006DFE40B9A67C16F0800F06F1010614BFE6
:100E2000F6B206F07F06236A2046DA68944204BFD1
:100E30000022DA6009F043FA3C34AC42E2D100E02F
:100E4000F0264046394609F099FA0546002849D06F
:100E5000046A0123837500210223C174017586741D
:100E600084F88F30214BA360FFF7A4FE39462B4650
:100E700007F1100251F8040B914243F8040BF9D129
:100E8000FF2284F893204FF6FF72082384F89030F5
:100E90000C2384F89130142384F894300A2384F8C6
:100EA00092304FF4E063A4F898304FF48073A4F8C4
:100EB0009A30A4F89C20AB83E068A84205D020B10A
:100EC0000AF0EBF8E36800229A75F02384F88E307C
:100ED000A368E5605B6920469847054B20461C6087
:100EE00009F08EFC2846BDE8F08100BFB00000206C
:100EF000641A0020034B1A8B82420CBF1846002054
:100F0000704700BFB00000202DE9F8438046087EFE
:100F10000C4609F033FA0646002800F0828021468C
:100F20004246056AFFF7CAFE074618B985F88D00E4
:100F3000BDE8F883637E0374208AFFF7DBFF8146F8
:100F400030B93846FFF712FF85F88D90BDE8F88379
:100F500094F851305B0604D5002004F13C0109F0FF
:100F600047F80123B375A37D04F110013375237D88
:100F7000F374E37DB374C5F80890637DEE6085F883
:100F80008F30F02385F88E30238CA5F89830638C51
:100F9000A5F89A30A37E85F89030E27E134485F858
:100FA000912085F89430237F324685F89230637F14
:100FB00085F89330E38BA5F89C30234653F8040B57
:100FC0008B4242F8040BF9D104F13C0306F12402F0
:100FD000543453F8041BA34242F8041BF9D1394698
:100FE0003046FFF7E7FDAB6828465B699847AB687A
:100FF00038461B69002198470B4BB0831A68308232
:1010000002B91D60284609F0FBFB2846414609F05D
:1010100051F895F88F3023B12846BDE8F84309F020
:10102000FDBBBDE8F88300BF641A00202DE9F04144
:10103000064610B300F1100400F18808637D3BB947
:101040003C344445FAD13046BDE8F04109F0D8BB04
:101050004FF6FF730A4FA383386806F0C1FE0546BA
:101060000028EDD06B689C4202D1284609F001F9B6
:101070003868294609F051FFF1E7BDE8F08100BF6B
:101080006C00002038B50D4D286806F0A9FE044616
:1010900090B162685AB1136A4BB1637CD90706D527
:1010A00023F001036374106A214609F08BF9286864
:1010B000214609F032FFEAE738BD00BF6C0000208E
:1010C000024B0146186806F049BF00BF6C000020C3
:1010D000014B00221A8070478C1B00202DE9F04F35
:1010E0009DB000215C2205A808F00CFE08238DF8B5
:1010F0002E300C238DF82F300A238DF830304FF42A
:101100008073ADF836304FF4E063ADF834308E4B79
:1011100001AF1B8BADF82430FF238DF831304FF633
:10112000FF73ADF83230894B0FCB87E80F0038469C
:1011300005F020FB044680B90F2007F077F822461F
:1011400001460123384605F0DDFA002800F0F98059
:1011500010304FF4167109F01DFD7D4C7D4B267843
:101160001B787D4AF61A2C3303EB020AD35C5046F7
:101170008DF82C309AF8013002218DF82B3009F0CF
:1011800034FBA0469AF804302C3E23F07F028DF801
:101190002820C3F3C20203F007038DF82A309AF81F
:1011A0000530F6B28DF82D30ADF826008DF82920E7
:1011B0000AF1080305AD0AF1180E2A4618685968A5
:1011C000083303C273451546F7D11824B44280F2A0
:1011D000B1801AF8043023B10AEB040255780235C5
:1011E00000E0012505EB0409B14500F3AA80023BAC
:1011F000062B00F29D80DFE803F00432529B9B9B9C
:101200007E00052D40F39D800AEB0403D9781A79FE
:10121000490041EAD2118DF86910C2F3011102F0C0
:101220000F0298788DF86B205A798DF868008DF848
:101230006A108DF86C2000287AD0072806D1504615
:10124000A11D09F0D2FAADF86E0071E0022878D144
:101250009A79DB798DF86E208DF86F3068E0082D73
:101260006FDD0AEB040393F802B0DB785046211DD2
:101270008DF84D308DF84CB009F0A2FA0BF1070251
:10128000D210D31DAB4212905BDABBF1800F58D85D
:1012900004F108010EA8514408F05AFC48E0102D52
:1012A0004FD10AEB0405EB78A11D8DF82E302B7978
:1012B00050468DF82F306B798DF8303009F095FA63
:1012C00004F10801ADF83400504609F08EFA04F13B
:1012D0000A01ADF83600504609F087FA6B7BADF88D
:1012E000240004F10E0150468DF8313009F07DFAEA
:1012F000ADF832001CE0202D23D10AEB04039A78CC
:10130000DB7804F1080150468DF864208DF86530D3
:1013100009F056FA10345444189014AA04F1100538
:10132000134620686168083403C3AC421A46F7D1FB
:101330004C464BE7384605A909F0F4F80023A8F815
:1013400000301DB0BDE8F08FB0000020A81B0020C9
:101350008C1B00202C190020A01B00201FB5124B55
:10136000124A1B7800212C339C186170D154A0B90B
:1013700040F2FF23ADF80200ADF80400ADF806001E
:10138000ADF80800ADF80A00ADF80C006846ADF8FD
:1013900000304FF4D053ADF80E309B2100220223D1
:1013A00005F068FE04B010BD2C190020A01B002021
:1013B0002DE9F04F054689467E4B90F88C101B783E
:1013C0007D4AC6682C33D1549C18B37C85B06370B9
:1013D000B28B2046022109F00EFA00232371F37C20
:1013E000002B18BF8023237195F88F2043EAC20396
:1013F000DBB22371327D02F007021343237195F8AB
:101400008E306371B9F1000F0AD195F88E3013F068
:10141000800F03F1010308BF03F07F0385F88E30CE
:101420000023A371E371334604F1080206F11001B1
:1014300053F8040B8B4242F8040BF9D12B784BB3D1
:10144000AB6828465B6998470623022121766376BC
:101450002B78A3766B785B08E3766B78DB012377D8
:10146000AA7843EA0213EA78134323772B78072BF1
:1014700006D1617720461E21EA8809F0BCF907E011
:10148000022B40F093806377AB79A377EB79E37716
:10149000202700E0182704EB07080E234FF0000A6E
:1014A0004FF0040B04F807B088F8013088F802A068
:1014B00095F89030204688F8033095F89130B91DA2
:1014C00088F8043095F8923088F80530B5F89820FF
:1014D00009F091F9204607F10801B5F89A2009F0C2
:1014E0008AF9AB6820461A8B07F10A0109F083F9E3
:1014F00088F80CA095F89330204688F80D30B5F8A0
:101500009C2007F10E0109F076F996F8382007F1D2
:1015100010036AB30822E2541E2388F8113096F8AB
:101520003830204688F8123096F8393007F1140127
:1015300088F81330726B09F04FF92046726B07F18F
:10154000180109F049F907F11C0020445A46514698
:1015500008F0D8FB07F1200306F124021C443436BE
:1015600052F8043BB24244F8043BF9D107F130038E
:10157000B9F1000F15D140F2FF22ADF800204FF471
:10158000D052ADF80290ADF80490ADF80690ADF8E9
:101590000890ADF80A90ADF80C90ADF80E206846B2
:1015A00000E048469B21012205F064FD05B0BDE83E
:1015B000F08F00BF2C190020A01B002008B509489F
:1015C00090F88D30012B09D107490B7EFF2B03D0FA
:1015D0000831FFF7EDFE01E009F012F9034B00229C
:1015E0001A8008BD681A0020A01B00208C1B002058
:1015F0002DE9F04106460C46904607F0C5FC01284F
:101600005ED0002E5CD07068002859D0026A002A93
:1016100056D0002C54D02B4D2B4B297893F800E05A
:1016200092F88C20294F0EF12C0E11F0800F01F151
:1016300001010EEB070307F80E2008BF01F07F0140
:10164000402229705A7000229A702A7800F1100105
:10165000DA701A1D50F8045B884242F8045BF9D135
:10166000214605221A7512225A7500229A75802287
:10167000DA7504F1100003F1180251F8044B8142AD
:1016800042F8044BF9D1062283F82820042283F87B
:101690002920002283F82A2083F82B2083F82C208D
:1016A00083F82D803046FFF7E3FA48B13046FFF764
:1016B000DFFABDE8F0419B2102222E2305F0DABCBF
:1016C000BDE8F081280200202C190020A01B00207A
:1016D000F0B50A461549064685B000200C7E91F803
:1016E0002A30DCB1012B19D88B7EFE2B13D06C462F
:1016F0006F460F4B03EB401303F1100E254618689D
:101700005968083303C573452C46F7D1304639462E
:10171000FFF76EFF07E0CB7E802BE8D10130032876
:1017200001F12001DAD105B0F0BD00BF841F002017
:101730009E1F002030B50A4B90F88C001B78094D95
:101740002C33E8545C1900236370A270E3700846E0
:10175000BDE830409B210322042305F08BBC00BF71
:101760002C190020A01B00202DE9F04F844C8FB0D5
:1017700006AE04F108030FCB86E80F00814B824AC6
:101780001B78128803932C33E05C1F190592FFF736
:101790001DFB0546002800F0F08090F89330C468E7
:1017A00001937B780293FB780493029B59060AD538
:1017B0002046391D102208F099F9002840F0DD80FC
:1017C0004FF0140A01E04FF0040A9DF81820FF2A98
:1017D00004D14FF002084FF0000B17E020463146CD
:1017E00008F084FC834678B1B5F89A00BBF808107D
:1017F000A28BB1FBF0F1B2FBF0F29142C0F0B380EA
:10180000A269934500F0AF804FF001084FF0000946
:10181000059B039A9E1A2C3EF6B2B24522DA17F8BF
:101820000A10E1B107EB0A025678052906F1020613
:1018300004D0062914D15379019311E092F8039052
:101840000AA80021102208F05DFA09F107020AF146
:1018500004010AA83944D21008F07AF900E0012600
:10186000B244D5E70AA805F0A1F8019B0746002B72
:1018700032D1002800F0818090F82130002B7CD1FB
:1018800090F824304B4578D105F07CF8002874D0CE
:10189000384605F077F806A9102208F027F9002845
:1018A0006BD1012387F821303C23BB61A06950B183
:1018B000FFF7DEF938B1A069FFF7DAF99B210222C0
:1018C000334605F0D7FB029B1A0656D5284606A9D3
:1018D000049AFFF72FFF50E006A804F04BFF0746DD
:1018E00078B90F2006F0A2FC3A460146012306A86B
:1018F00004F008FF002840D010304FF4167109F0B2
:1019000049F95846FFF7DCFB20460AA94A4606ABD0
:1019100009F0EDFB88B3B5F89C30019AB8F1010FDE
:1019200003FB02F383614FF0000380F8208080F80E
:10193000213014D1A06950B1FFF79AF938B1A069EC
:10194000FFF796F99B210222334605F093FB029B99
:101950001B0604D5284606A9049AFFF7EBFE0A4B9E
:1019600000221A8009E04FF6FF73ABF808309BF8AD
:10197000113043F001038BF811300FB0BDE8F08F48
:10198000A01B00202C1900208C1B002008B5074844
:1019900005F0C8FA064805F0C5FA064805F0C2FA8F
:1019A000BDE80840044805F0BDBA00BF8C00002027
:1019B000A4000020980000208000002070B590F85E
:1019C0009430012606FA03F44FF47A71E401B4FB73
:1019D000F1F4C0F8A040054602F050FC4FF6FF714C
:1019E000F4406043B0FBF1F1D5F8A03021445B1A1C
:1019F000C5F8A030002385F8963085F8956005F18C
:101A0000C4002B46BDE87040014A02F035B900BF62
:101A1000891A200010B50B4C07F0BCFAFFF732FB17
:101A2000238801332380FFF7C5F928B922883B2A90
:101A300002D92080FFF792FCBDE81040024802F076
:101A40003BB900BF78130020DC04002010B5044629
:101A500007F09AFA012813D04FF6FF72B4F89C30C1
:101A600093420DD094F89310FF2909D0594304F5FF
:101A700082702346BDE810408901024A02F0FCB89A
:101A800010BD00BF5D1B200070B51D4D04462B78B6
:101A900053B9012004F05EFC10B101232B7003E068
:101AA00004F1C400802114E094F89530BBB194F89F
:101AB00092303BB194F896209A4203D220460021FE
:101AC000FFF776FC0023D4F8A01084F8953004F1D9
:101AD000C4002346BDE870400A4A02F0CDB894F82D
:101AE000911094F8902094F894300A449342BCBF2B
:101AF000013384F894302046BDE87040FFF75EBFA4
:101B000077170020891A200070B505460C4607F0AB
:101B10003BFA01281ED005F1E806304609F02FF8FF
:101B2000304609F027F8A8B144B102F0A7FBB0FB9A
:101B3000F4F101FB140000EB540100E0214605F133
:101B4000E4002B46044A02F097F82846BDE87040AE
:101B5000FFF77CBF70BD00BF5D1B200070B5134B4D
:101B600004461B7800F1E4055BB9012004F0F2FBA8
:101B700038B928462346BDE8704080210C4A02F05F
:101B80007BB8E368986918B194F89310FFF7A0FD4B
:101B9000284602F0ADF804F5847008F0EBFF20B1A0
:101BA0002046BDE87040FFF751BF70BD7717002099
:101BB0005D1B200010B502F061FB3C2358434FF63B
:101BC000FF73B0FBF3F0054B1930188080210448F7
:101BD000044A0023BDE8104002F04EB878130020FC
:101BE000DC040020151A200010B5044602F046FB64
:101BF0004FF47052B0FBF2F101FB120081B22346A8
:101C000004F1A40001F5F051024ABDE8104002F0D1
:101C100033B800BF191C20002DE9F0470646C568FF
:101C200000F010FBB0F5163F8CBFA0F596384FF0D2
:101C300001080DB32B6AFBB1AC69ECB1E368434515
:101C40000FD302F01BFB10F00104274F32D138688C
:101C500006F0C6F84FF6FF7A8146B9F1000F10D1B1
:101C600044B32046FFF704F830B12046FFF700F8F0
:101C700001463046FFF79CFB3046BDE8F047FFF7D2
:101C8000B3BFD9F80430AB420ED1D9F80C3043457C
:101C90000AD22B6A48469B6800211B6998470CB101
:101CA000504501D282464C464946386809F035F91C
:101CB0008146D2E7386806F093F80146002479B1EE
:101CC0004B68AB4207D12CB1CA68E3689A4238BF6F
:101CD0000C4600E00C46386809F01FF90146EEE7B3
:101CE000002CC9D0BDE700BF6C0000202DE9F041F9
:101CF00086B000F07BFC00F01FFD00F0B9FC00F0A6
:101D000079FA01F019FA08F043FF00F00DFD07F031
:101D10005BFB022008F00AFE02F030F900F052FCF2
:101D200000F000FA002000F061FB012000F05EFBF3
:101D30004F49002000F030FC02F08EFA08F04BFE14
:101D4000042008F0F3FD4B4808F07AFE4A4808F0FA
:101D500077FE4A4801F08AFB494B4A4D186808F063
:101D60006FFE494801F082FB484B494C186808F067
:101D700067FE484801F07AFB286808F061FE002001
:101D800002F08CFA01F0CCF84348002102F09CF9F3
:101D900001F05EFF01A8082101F0E0F99DF80B3089
:101DA0009DF80A80002643EA082801AB03CB206097
:101DB00061603A4801F05AFBA15D3948013601F0F3
:101DC00055FB072E324FF7D1364EF979364801F0E0
:101DD0004DFBF46A4AF6CD310220A047414603206C
:101DE000A0471A210120A04701A9736B08220920EE
:101DF000984706F0C7F82D4A3B6813607B6853602C
:101E000006F024FA2A48002102F05EF900F0B6FC40
:101E10002848002102F058F908F090FEAB69012033
:101E20009847254B01AA03F1100514461868596814
:101E3000083303C4AB422246F7D11B781F482370F6
:101E400008F0FEFD01A807F08DF81D4808F06CFEB3
:101E500000F0BEFB082008F069FD00F0BFFB02F0B7
:101E6000A5F810F0FF0FF8D101F0FEF8F5E700BF7C
:101E7000154220009DB72000A9B72000C1B720005F
:101E80000CB4200018B42000C8B7200038B42000DB
:101E900034210020CFB7200038010020D6B7200021
:101EA000F4B7200044B32000FAB72000981B0020AC
:101EB000D0010020CC00002010B8200000B8200085
:101EC00078B2200070B505880446772D30D07E2D7D
:101ED0003FD0002D4DD102F049F8294B1870294B05
:101EE0001D601D462B68284A264E52F823204AB111
:101EF00026480021C15493688020984733680133F5
:101F00003360EFE7224A1370772320E01F4AD2564E
:101F1000002A12DB1B4A136801331360194B1C4A59
:101F20001B6812789342F1DB1A4B1B68002BEBD035
:101F3000184A00231360134AEFE7114A0020117872
:101F4000114A52F8232002F093F830B97E232380FF
:101F500013E00B4B1B788B420FD10A4B0B491A68CD
:101F60008B5C03F07F038B540A4A136801331360C0
:101F7000D0E700230380032070BD012070BD00BFA7
:101F80001E210020FC040020DC0000201F21002076
:101F90007817002000050020094B1A78002393428F
:101FA00004DA084951F82310814207D1064907484D
:101FB000CA5C62F07F02CA5402F09EB80133EEE7B9
:101FC00078170020DC0000201F210020CC0000201A
:101FD00008B50948082108F0D3FC03210422002099
:101FE00000F0B8FB002000F01FFB04480021032292
:101FF00000F052FB012008BD00900D40C1202000E0
:1020000008B50948102108F0BBFC04210A4602204B
:1020100000F0A0FB022000F007FB0448022104228C
:1020200000F03AFB012008BD00B00D40C1202000A7
:1020300008B50948202108F0A3FC0521042202204C
:1020400000F088FB022000F0EFFA0448022105228C
:1020500000F022FB012008BD00B00D40C12020008F
:1020600008B50948402108F08BFC06210422022013
:1020700000F070FB022000F0D7FA0448022106228B
:1020800000F00AFB012008BD00B00D40C120200077
:1020900008B50948802108F073FC072104220220BA
:1020A00000F058FB022000F0BFFA0448022107228A
:1020B00000F0F2FA012008BD00B00D40C120200060
:1020C00038B5054611480C4608F07DFDE8B10F48CB
:1020D000102108F066FD1DB9032C16D10C4810E044
:1020E000022D12D1042C01D10A480AE0052C01D19D
:1020F000094806E0062C01D1084802E0072C04D16B
:102100000748BDE83840FFF747BF38BD0405002049
:102110008CB22000ACB22000BCB220009CB22000E7
:10212000CCB220000148002108F03BBD040500208E
:1021300010B5074CFF2323604FF4FA6000F096F8C7
:1021400000213022062000F021FB0023236010BD77
:1021500000920D40802870B51ED1104E104D33688E
:10216000002423F0800333602B68204643F0800373
:102170002B600C4B07211C60224600F0EBFA336801
:10218000204623F0400333602B68062123F04003F0
:102190002B60012200F0DEFA002070BD20940D407B
:1021A00000940D4000920D40F8B500F083F80F4BFD
:1021B0000024D3E900673A46B04238BF7A1C15467E
:1021C0000443C3E90045DFF828E0DEE90001821B93
:1021D00061EB070312196B41CEE9002301F030FED9
:1021E00018B1BDE8F84001F0BBBDF8BD30020020D9
:1021F000380200200F4B104A1A6053F8042C42F0AA
:10220000050243F8042C53F8042C42F0020243F870
:10221000042C0A4A136843F001031360084B0022A0
:102220001A60042243F80C2C012243F8082C0F22D8
:10223000DA62704714E000E047E8010008200D4032
:102240000C000340034BD3E90023100A40EA03606B
:10225000704700BF30020020034BD3E90023D00BAE
:1022600040EA4340704700BF38020020054B186029
:102270001C3B1A6842F001021A601A68D207FCD4AB
:10228000704700BF2800034010B5064C236823F0B8
:1022900001032360FFF788FF236843F001032360F5
:1022A00010BD00BF10E000E0014B1868704700BF90
:1022B0000C050020074B084A196804331B68126894
:1022C000120442EA0323054A0B43106843EA006004
:1022D000704700BF40500D4048500D404C500D40DD
:1022E00010B50446114B1B68DB07FBD508F077FBE4
:1022F000FFF7E0FF231A062BD8BFC41D0C4B220E9C
:102300001A60C4F3074243F8042CC4F3072243F8CD
:10231000082CE2B243F80C2C08F05DFB054B912031
:102320001C60BDE8104000F07FB900BF50500D4068
:102330004C500D400C05002008B500F07BFE064B0C
:10234000002291201A6000F087F9912000F078F9BE
:10235000BDE8084001F0EEBE0C0500200023084A4D
:102360001068084A9958084205D01A44D268906902
:1023700010F0800003D02C33582BF0D1012070478F
:1023800028200D40ECB22000164A38B52C2303FB60
:1023900000234FF6BF72DC680546236C62649BB273
:1023A00013F050020DD0A369DB0609D40E4B53F88D
:1023B00025301BB12068C0B29847F4E72368F2E7E4
:1023C00038BD13F4D06F0BD04FF440732363FF2359
:1023D0006360E36AE262E362236B43F00103236319
:1023E00038BD00BFECB22000100500202DE9F04FF1
:1023F000012885B0064600F2BF802C244443604B80
:102400001D1995F920A005F12007BAF1000F994692
:10241000C0F2B28095F92230002BC0F2AD8059484D
:1024200000F07AFE584A59F804301168EC680B4302
:10243000136051686B6895F921B00B435360916844
:10244000AB6895F822800B4393600023C4F8C83F23
:102450002B690BEBCA021A6095F823305FFA88FCEF
:1024600001939DF80430604619462A7DCDF80CC0D2
:10247000029300F079F9029BDDF80CC01946604622
:10248000082200F067F94FFA88F840494FEA083807
:102490009DF9042058F80100012303FA02F20243D7
:1024A00048F801204FEA0A3A5AF8010003FA0BF201
:1024B00002434AF801205022A263A26B95F824003F
:1024C00042F4D062A263022262634FF4407222633C
:1024D000AA696262EA69A2627022E26242B2002ADA
:1024E0000C4614DB95F92510294D41EAC2012960FB
:1024F0007979120315594FB2BB402B431351002277
:1025000000F028F9234A136843F4004313602C2396
:1025100003FB069393F8265020336FB2002F1CDB89
:1025200093F807A0EDB25FFA8AF8284641460122E7
:102530003F0300F019F94FFA8AFA3A59012303FAD6
:102540000AF313433B5108222846414600F002F9A2
:10255000104A136843F4804313602C2303FB069650
:10256000F26896F82800136B43F00103136305B07B
:10257000BDE8F04F00F058B805B0BDE8F08F00BFDF
:10258000ECB220005D23200028200D4020940D4057
:1025900004410D4030D0004001289CBF014B43F85E
:1025A0002010704710050020012808D8044B2C2269
:1025B00002FB0030C3689A699206FCD41960704728
:1025C000ECB22000014B00221A60704700500D4011
:1025D000014B08221A60704700500D40024BA022A8
:1025E0001A6050221A60704700500D40084A094B8B
:1025F0001A60094B80321A60084B80321A60084B0F
:1026000080321A60074B4FF400121A60704700BF07
:1026100000E100E024050020180500201C05002032
:102620002005002008ED00E0044B41091A6800F085
:102630001F000123834042F8213070472405002009
:10264000044B41091A6800F01F000123834042F83F
:102650002130704718050020044B41091A6800F02A
:102660001F000123834042F82130704720050020DD
:10267000054A064B1A60064B1A68064B1340B3F125
:10268000807FF8D1704700BF0101020100200D409A
:1026900004200D4000000101024B02EBC10243F88F
:1026A0002200704728050020F8B507460E46094D60
:1026B000002405EB411547FA04F3DB07E1B204D52A
:1026C00055F824300BB1304698470134082CF2D12C
:1026D000F8BD00BF280500202DE9F04780464FEAED
:1026E0000837DFF8409007F1804505F5592500F0DF
:1026F000A1FCD5F8186457F809404FEAC80A24FA33
:102700000AF446EA0400E4B2C0B24146F6B204FA62
:102710000AF4FFF7C9FFC5F81C6447F80940BDE893
:10272000F08700BF18970D4002480021802207F073
:10273000E9BA00BF28050020034A044B1A60044B85
:10274000803A1A60704700BF80400D40AC05002001
:10275000A8050020034B01EBC0011B6843F82120B2
:10276000704700BFAC050020034B01EBC0011B68A4
:1027700043F82120704700BFA8050020024A1368D3
:1027800043F030031360704700700D400E2870B5A1
:102790000BD1164B164E1C6844F002051D603568BF
:1027A00025F03F0343F001033360124E336823F0FA
:1027B000FF031A431143014331600F4B1B681B0693
:1027C000FBD50E4B0E4A1B6812680E2803F0FC0363
:1027D00043EA022308BF064A9BB204BF1560034ABE
:1027E0009BB208BF146018B270BD00BF3400014432
:1027F000F486084008700D4000700D400C700D40CC
:1028000010700D4010B58F20064CFFF725FF8F206C
:10281000FFF716FF206818B101F06EFC002323605B
:1028200010BD00BFB0050020174B93F90020002A0F
:1028300009DB164AED2111601160E32111601A785D
:1028400062F07F021A70124B01201A68A3F57C73A4
:1028500042F00802C3F8F0230E4A1060D3F8F023C8
:1028600042F00402C3F8F0231860A3F5A5236A22FE
:10287000643B1A60084B81221A60084B68221A6078
:10288000074B80221A60704779170020388808406B
:1028900000B40D4020B00D4020000144B087084036
:1028A0001C000144094B1B689B07FBD4084BED221D
:1028B0001A601A60074A12680AB1EF221A60064AC3
:1028C0000120137803F07F03137070474C86084093
:1028D000388808402C8608407917002038B5A0F1C8
:1028E0000B04E3B20F2B054613D80B4B1B6813F0F8
:1028F0003F0302D0FFF7D6FF012304EB8404074A0D
:102900000B3414600BB1FFF78FFF054BE8B21D705D
:1029100000E0FF2040B238BD488608403C860840B1
:102920002902002010B50B4B1B68990603D1FFF755
:102930007BFF012300E00023074A1268D207FBD582
:10294000064A1468C4F300140BB1FFF7ABFF20462E
:1029500010BD00BF48860840648608404C86084089
:10296000044B186800F02200A0F12003584258419F
:10297000704700BF4C860840024B186800F04000CA
:10298000704700BF4C86084038B50C4600296CD013
:102990000D286CD8DFE800F0070D181A216B3142C2
:1029A000476B5E606267334B1B68003318BF0123BF
:1029B00056E0314B05221B6803F07F030B3B93FB72
:1029C000F2F30B33DBB24BE02C4B00E02C4B1A68DC
:1029D000043B1B6843EA022342E02A4B00200860C4
:1029E0001A68243302F001020A601B6813F0200306
:1029F00037D042F002020A6038BD234B1A68002328
:102A0000D2B2224901EBC3000079904202D851F8BA
:102A1000333025E001330E2BF3D11FE01C4B1B6834
:102A20005BB2493B1CE01B4B1B68990603D1FFF7C7
:102A3000FBFE012300E00023174A1268D207FBD5F2
:102A4000164A1568493DEDB20BB1FFF72BFF6DB289
:102A5000256006E00B2303E01A2301E06FF0170363
:102A60002360002038BD0723FAE7022038BD01208B
:102A700038BD00BF2C8608403C860840CC85084005
:102A8000D485084000860840408608407CB320007A
:102A9000588608404886084064860840608608409A
:102AA00038B505460C46134B1B689B07FBD4124BED
:102AB00093F90030002B01DBFFF7B6FE0F4BEE223F
:102AC0001A60691E1A60A21C43F8102C21440220CF
:102AD00000F03EFA013C0A4924012143022000F0A3
:102AE00049FA022000F050FA022000F065FA0020B6
:102AF00038BD00BF4C860840791700203888084050
:102B000002C001C0F8B51F4B93F90030002B0DDB5C
:102B1000FFF7D0FB0446FFF787FEFFF7CBFB6FF014
:102B200009031B1BC342F8D4012600E00026FFF76F
:102B3000F9FE18B3144C236899061FD4134DE923EA
:102B40002B60042723689A0707D4013F17F0FF077B
:102B500003D00620FFF78AFBF4E723689B0704D421
:102B6000EE232B6001242B6004E0206810F00200AB
:102B7000FBD1044626B1FFF795FE01E00220F8BD27
:102B80002046F8BD791700204C8608403888084058
:102B9000044B1A6810B142F0010201E022F0010278
:102BA0001A6070470086084038B50C46072855D88B
:102BB000DFE800F0040F1B1F26543B4F012903D10F
:102BC000FFF732FE002038BD002949D1FFF76AFE29
:102BD000F8E7A1F10B030F2B42D8C8B2FFF77EFE36
:102BE000431C0CBF0320002038BD8CB2E2B21D4B49
:102BF00002E08CB21C4BE2B2240A1A605C60E1E78E
:102C000031F003052CD101F00100FFF7C1FF174B94
:102C100014F002001A681BBF284642F0200222F07E
:102C200020021A6008BF1A6038BD01F118031F2B7B
:102C300016D80D230E49DA0051F83300844204DC23
:102C40008B181A790B4B1A60BCE713F1FF33F1D2E2
:102C5000B8E7CCB2084B49341C60B3E7012038BD5B
:102C6000022038BDC8850840D08508402486084029
:102C70007CB32000408608405886084009280DD1C2
:102C8000082A0DD161B1074B013953F8042D01F821
:102C9000012F054A9342F8D1002070470120704768
:102CA00002207047C8850840A885084009280DD132
:102CB000082A0DD161B1074B083111F8012D43F8F5
:102CC000042F054A9342F8D1002070470120704735
:102CD00002207047A4850840C485084070B52B4E7B
:102CE000336813F0400308D0294D2B68DCB21B0673
:102CF00005D5284BED221A601A60002070BD042C07
:102D0000F7D9023C8C42F4DCE4B2032C1BD001194D
:102D10000139032000F024F9631E1F491B01032021
:102D2000194300F027F9032000F02EF9032000F0EA
:102D300043F9032000F04CF90028FAD129682D68E6
:102D40002806D6D506E02B6803702B6843702B68E5
:102D50008370F3E7493949B289B2042005F04CFA8F
:102D6000032005F07F0105F047FA33685A060BD5BA
:102D7000064B1B681B0603D5084801F0BDF903E0AC
:102D8000044BED221A601A60204670BD4C86084044
:102D9000288808403888084002C0010C0001002043
:102DA000F8B52B4E357815F001054ED1294B01248D
:102DB0001C605C609C60A3F59323A3F51473F82258
:102DC0001A600922C3F89021152270331A6003F5A6
:102DD0009B230B2203F59E731A60A3F59B23A3F597
:102DE000F07340221A601A687F2742F020021A60AE
:102DF000D52243F81C5CDF62DA61174B1878FFF7C5
:102E00006DFD164A8D20136843F004031360FFF72D
:102E10000BFC134B8E201F60FFF706FC022000F016
:102E2000BFF81049022000F09BF8032000F0B8F82A
:102E300003200C4900F08CF80B48294601F044F9B6
:102E40003378204623433370F8BD0020F8BD00BF1F
:102E500079170020A8200D40290200208C86084008
:102E600094860840288808400001002038B503886F
:102E70000446E3B140F2EF32934203D000230380D3
:102E8000032038BD822915D105F054F905F0F0F87A
:102E90008021FFF723FF002805DD80B205F0E2F86E
:102EA0000C4B1B6998470C4B1A78520604D440F21D
:102EB000EF332380012038BD00221A70074B1D68B4
:102EC000FFF7F0FCFFF76CFFAB06F0D0FFF7ACFCB0
:102ED000EDE700BF18B420007917002048860840AD
:102EE00008B5034801F008F9024B00221A6008BD3A
:102EF0000001002034880840064B07481A68042A5D
:102F00001FBF06490A7842F040020A7000221A6088
:102F100001F0F2B82C880840000100207917002049
:102F200010B5094C00212046402206F0EBFE074B6D
:102F300001221A602E205C60FFF776FBBDE810408E
:102F40002F20FFF771BB00BF0000002004F00F40EE
:102F500003289EBF014B000119507047000000205C
:102F600003289EBF024B03EB00104160704700BF77
:102F70000000002003289EBF024B03EB001081607D
:102F8000704700BF0000002003289FBF03490123B2
:102F90000A6883409CBF13430B60704728F00F40C2
:102FA00003289FBF034901230A6883409CBF134342
:102FB0000B60704720F00F4003289FBF0349012397
:102FC0000A6883409CBF13430B60704714F00F40A6
:102FD00003289FBF044B03EB0010806800F007003C
:102FE00088BF0020704700BF00000020024B4FF058
:102FF000FF321A60704700BF04F50F40014B0122F9
:103000001A6070474CF00F40094B1A6812F4801F89
:103010001A46F9D1043B196821F48031196011680E
:10302000C903FCD41A6842F400321A60704700BF2A
:1030300004200D4010B50A4B1A681C4612F0030F0D
:103040000CD0084B1A685101FBD41A685201FCD508
:10305000FFF71AF9FFF7D8FF0023236010BD00BF68
:1030600058200D4004200D4038B5254B1C6814F045
:103070003F0413D1234B53F8243023B1984768B150
:103080000134032CF6D1204D2B783BB1FFF70CF91E
:103090000446FFF70FF9201A092801D830BF38BDC0
:1030A000002CFBD0194B1A6822F400321A60184A1F
:1030B0001168C902FBD4196841F4803119601368A2
:1030C000DB03FCD5FFF7F6F8201A092803D8BDE882
:1030D0003840FFF799BF63280E4C02D92B78022B9A
:1030E00000D00123236000F0B9FF20B1FFF78CFF6F
:1030F0000023236038BDFFF7D7F80028CED1F5E7CD
:1031000048860840B40500207A17002000200D40B2
:1031100004200D4058200D400023064A52F8231089
:10312000814206D011B942F8230070470133032BC6
:10313000F3D17047B4050020054B00221A60054A00
:10314000136843F004031360034B01221A707047A5
:1031500058200D4010ED00E07A17002030B5184BD4
:103160001A78431E3AB9174A1278122A03D1164A1E
:1031700012784B2A03D001F52011273117E04A08B5
:1031800002F12814B4F1281F04D014F8015D03F8EB
:10319000015FF7E701F5201127310023934205DA9B
:1031A00011F801598418E5540133F7E730BD074A97
:1031B000914204D011F8012903F8012FF7E730BD3F
:1031C0002B0028002A0028002900280027002800BA
:1031D00000200149FFF7E0B9B13320002DE9F74F96
:1031E0000388074633B1B3F5817F11D000230380F4
:1031F00003208EE0484A1380484A1380484A1380CF
:10320000484B01221A704FF481733B80012080E00B
:1032100082294FF00106F9D1DFF804914248B9F84C
:103220000050424B425D1E70432ADFF8EC8082461C
:103230002BD1DFF8E8B0BBF80020954225D2521B15
:10324000052A22DD00EB050C604639490622CDF83F
:1032500004C006F04BFCDDF804C00446A8B9604683
:103260002146062206F04EFD2E4BA8F80040ABF892
:103270000040A9F800401E702E4B185D013407F085
:10328000EFFB0D2CF8D1002438E0B8F80060B5420F
:10329000F9D00AD2741BA4B28C2C20D80AEB0501F9
:1032A0002246254806F054FC1AE006F19C04641BF3
:1032B000A4B28C2C13D82B461F4A591B9B2B1144AC
:1032C00005D81AF80310521BD1540133F4E7002338
:1032D000B34205D21AF80320CA540133F8E7002498
:1032E0000F4B1E800F4B1A7842B90C4A13481288B4
:1032F000A8F8002001221A7000F0FEFE104B1C807E
:10330000002C80D00F4B1B6803B1984704F0DCFA07
:1033100079E703B0BDE8F08F7C1300207A1300201A
:103320007E130020171800207B1700202821002082
:1033300045B820004CB82000A01B00201001002040
:103340008C1B0020C0050020014B1860704700BF97
:10335000C005002038B5C02007F082FB114B0024C7
:103360001149A2B20988914216D93C2A04BF0F4BD9
:103370001B6818785D1CC02804D1DB2007F070FBA7
:10338000DC2004E0DB2802D107F06AFBDD2007F037
:1033900067FB01342B46E3E7C02007F061FB002008
:1033A00038BD00BFA01B00208C1B0020381C002053
:1033B00038B5284B1A78032A31D8DFE802F04817CD
:1033C0000602C02843D1012213E0DC2808D0DD2802
:1033D00008D003221A70204B1A88204B1A8036E03E
:1033E000C02000E0DB2001221A7018E0DB2802D1A7
:1033F00002221A702BE0C02811D1184A1188164AEF
:103400001088814223D0164C2488844216BF0022A3
:1034100011801A70134800F06FFE012038BD0F496B
:103420000F4C0D8824886A1C9C2A08BF0022A242E7
:1034300005D103221A70084B1B880B8007E00A4B4A
:10344000542858550A8002D11B5D432BE2D000203E
:1034500038BD00BF171800207C1300207A1300200D
:103460007E130020100100207B1700200FB407B549
:1034700004AA52F8041B0448019200F035F803B086
:103480005DF804EB04B07047200100201FB5084C24
:103490008DE80300114602A81A460294CDF80CD01C
:1034A00000F022F8009B00221A7004B010BD00BF8B
:1034B000E7AA200070B505460C46102C07D92B68EA
:1034C000686808491022984750B9103CF5E734B1B4
:1034D0002B6868682246BDE87040024918472046BC
:1034E00070BD00BFB3B820002DE9F04F80468FB00B
:1034F000069107920026069B1B78002B00F05F8345
:10350000069B1C4613F8012B1AB9069B9C4203D15B
:103510000FE0252AF5D1F8E7069BD8F80400E51A54
:103520000699D8F800302A469847002840F02A83A8
:103530002E442378002B00F042836378611C002B1B
:1035400000F03D8300240A4611F8013B2B2B11D0DB
:1035500006D8202B11D0232B12D144F00804F2E717
:103560002D2B04D0302B0BD144F01004EBE744F0AA
:103570000104E8E744F00604E5E744F00204E2E76A
:10358000A3F1310108290DD8134600251A4613F876
:10359000011BA1F13000092811D80A2202FB0515F0
:1035A000303DF3E72A2B09D1079B01321D68191D15
:1035B000002D0791B8BF44F0010400E00025137806
:1035C0002E2B1CD15178531CA1F1300009280ED8A4
:1035D000194600270A780B46A2F13000092801F1AC
:1035E00001010FD80A2303FB0727303FF2E72A29FE
:1035F00006D1931C079A111D0791176802E0134624
:103600004FF0FF371A786C2A09D15A786C2A02D108
:1036100044F080040AE0013344F060040BE0682ABF
:1036200009D15A78682A03D144F02004023302E019
:10363000013344F040041A78642A3CD01FD8462A4B
:1036400048D00DD8252A5AD003D8002A00F0B782D6
:1036500057E0412A4AD0452A53D144F4424450E02D
:10366000582A31D004D8472A4BD144F4A13448E039
:10367000612A38D0632A44D144F4A06441E06E2A20
:103680003AD007D8662A22D027D3672A28D0692AB9
:1036900011D036E0732A2CD006D86F2A11D0702AA8
:1036A0002FD144F440742CE0752A07D0782A28D111
:1036B00044F4C85425E044F4245422E044F4106453
:1036C0001FE044F488541CE044F4B24419E044F48C
:1036D000007416E044F4844413E044F4024410E01F
:1036E00044F481340DE044F4C1340AE044F4E1349C
:1036F00007E044F4806404E044F4E06401E044F44E
:10370000C0640133069304F4E063B3F5806F00F006
:10371000AA8116D8B3F5807F2BD0B3F5407F7FF414
:10372000EAAE079BA04914F4804F03F104029F48BE
:1037300018BF08460DF1330107920F461A6800239F
:10374000C5E1B3F5C06F08D0B3F5E06F00F031828A
:10375000B3F5A06F7FF4CFAE00E2D8F80030D8F810
:103760000400934901229847002840F00B8201365B
:10377000C1E6002FACBF24F01004012714F400535D
:10378000039304F0E00337D0402B17D008D8DBB107
:10379000202B2AD1079B1A1D079293F9002017E0CE
:1037A000602B11D0802B20D1079B073323F0070318
:1037B00003F108020792D3E900230AE0079B1A1DD0
:1037C0000792B3F9002003E0079B1A1D07921A68BD
:1037D000D317002A73F1000109DA524263EB430365
:1037E000CDE900234FF0010933E000220023CDE9A9
:1037F00000234FF000092CE0402B16D007D8CBB1A6
:10380000202B20D1079B1A1D07921A78EEE7602B18
:1038100010D0802B17D1079B073323F0070303F148
:1038200008020792D3E90023E1E7079B1A1D0792DC
:103830001A88DBE7079B00211A1D07921B681846B0
:10384000CDE90001D5E700220023CDE900234FF0A8
:10385000000904F4C053B3F5805F0CD0B3F5C05F2A
:1038600033D0B3F5006F4FD1DDE900230DF1360AF7
:10387000CDE9042304E0DDE900230DF1360A15E06B
:10388000DDE9042313433AD0DDE904010A220023D1
:1038900005F054FEDDE9040130320AF8012D002361
:1038A0000A2205F04BFECDE90401E9E752EA0301E3
:1038B00025D002F0070130310AF8011DD10841EA94
:1038C0004371D8080A460346F0E7384B14F4804F9A
:1038D0000DF1360A344908BF1946DDE9002352EAE2
:1038E00003000CD002F00F00085C4FEA131E0AF828
:1038F000010D100940EA037002467346EFE70DF12F
:10390000360BCAEB0B0B03E00DF1360A4FF0000B40
:1039100041F6080241F208035F4502EA04028CBF47
:10392000CBEB070700279A4202D1002F08BF0127DF
:1039300041F608018A4207EB0B030DD1DDE90001D6
:1039400050EA010208D01B4914F4804F1A4A4FF084
:10395000020C18BF0A4602E04FF0000C62460399C1
:10396000A1B1B9F1000F0AD104F0060102290AD071
:103970000629124904BF4FF0010C0A4606E04FF039
:10398000010C0F4A02E00F4A4FF0010C63449D42C4
:103990008CBFED1A002514F0010922D1E30613D5DE
:1039A0002F444D461DE000BF8FB820000AB620000E
:1039B000B1B82000A3B82000A0B82000A8B820000B
:1039C000A6B82000CDB7200040462946CDF80CC04F
:1039D0000092FFF76FFD009ADDF80CC0002840F060
:1039E000D180BCF1000F0DD01146D8F800306246EE
:1039F000D8F80400CDF800C09847DDF800C00028D2
:103A000040F0C0803C465E44102CD8F800300DD900
:103A1000D8F804006C491022CDF800C0984700285F
:103A200040F0B080103CDDF800C0EDE75CB1D8F8A4
:103A3000040065492246CDF800C09847DDF800C073
:103A4000002840F09F80D8F80030D8F80400514694
:103A50005A4666449847002840F094803E44B9F1A5
:103A6000000F79D073E0079BD3F800A01A1D0792CE
:103A7000BAF1000F09D05346994699F80020013356
:103A8000002AF9D1CAEB090903E0DFF840A14FF0A1
:103A90000609002F02DBB94528BFB9464D458CBF4A
:103AA000C9EB0505002514F0010405D1404629465F
:103AB000FFF700FD002865D1D8F80030D8F80400E1
:103AC00051464A46984700285CD14E443EE052EAAF
:103AD000030E0ED002F00F0E10F80EE04FEA131C8A
:103AE00001F801ED4FEA121E4EEA037E724663466C
:103AF000EDE70B467F1A01BF3022012701F1FF33AA
:103B000001F8012C03377822BD4203F8012C4FF055
:103B1000300203F8022C88BFED1B4FF0230298BF40
:103B2000002514F00104A3F1030903F8032C04D1C8
:103B300040462946FFF7BEFC20BBD8F80030D8F835
:103B4000040049463A469847E0B93E4424B140460D
:103B50002946FFF7AFFCA8B92E44CCE4079B012D02
:103B600003F104021B688CBF05F1FF35002514F03A
:103B7000010407928DF8203008D140462946FFF70E
:103B800099FC10B14FF0FF301AE02E44D8F8003005
:103B9000D8F8040008A9012298470028F2D16F1C28
:103BA0002CB140462946FFF785FC0028EAD13E4467
:103BB000A1E4079B1A1D1B6807921E609BE4304618
:103BC0000FB0BDE8F08F00BF7FB82000AAB820007A
:103BD000F8B50388064615462BB14A2B15D00023AD
:103BE00003800320F8BD174806F0FEFF04462CB101
:103BF000201DA16806F0A3FF2468F8E7124B0122FC
:103C00001A704A2333800120F8BD8829FBD10D4862
:103C100006F0EAFF0446002CF3D0231D9D420ED18E
:103C20000848214606F0EAFF084B62691F681A60DF
:103C3000A2691D460AB1E06990472F60E1E7246858
:103C4000E9E700BFC405002018180020D4050020B3
:103C500010B5064B002406481C7006F0C2FF214632
:103C6000BDE81040034800F02FBA00BF181800202C
:103C7000C40500202801002070B504460A4DE36108
:103C80000A4B2E681B786661A26133B1084B201D78
:103C90002B6006F054FF2E6000E0A1602146BDE8D5
:103CA0007040044806F0BEBFD4050020181800205C
:103CB00028010020C405002070B5094B05461B787B
:103CC0003BB1084C084B26680430236006F040FFE7
:103CD00026602946BDE87040044806F0A3BF00BF37
:103CE00018180020D405002028010020C405002059
:103CF00010B5084B04461B781BB1043000F0A8F83F
:103D000001E0C36003612146BDE81040024806F0AF
:103D100075BF00BF18180020C405002010B50E4C58
:103D2000236813B90D4A136010BDFEF78BFA2168A2
:103D300091E80C001A44131A8A6842B192E8120002
:103D40002144091A8B4228BF0B469268F5E71844B4
:103D5000024B186010BD00BFC8050020CC05002034
:103D6000014800F0C9B900BF38010020F8B5038848
:103D700005462BB1592B09D0002303800320F8BD41
:103D80001E4A136059232B800120F8BD872920D0BB
:103D90008229F7D1194F00263C68002CF2D020462A
:103DA00006F011FF90B1E0688821224600F060F92A
:103DB00050B9E060A3680EB1B36000E03B6000233F
:103DC000A360FFF7ABFFE5E7FFF7CAFF2646A4684D
:103DD000E3E70A490B680BB90B60D3E7D868904258
:103DE00001D19B68F7E70B6099680029CAD0C868C1
:103DF00090420ABF89680B469960F5E7C805002024
:103E000010B50446FFF7ACFFE3680B4A4BB11368EB
:103E10003BB1A34203D1094A1268DA6007E09B680C
:103E2000F6E7064B1B68E36013681460A360BDE807
:103E30001040FFF773BF00BFC8050020D405002065
:103E4000024B1868003018BF01207047C8050020D9
:103E500010B50B4A04461368984206D18368136074
:103E600008E09A68A24203D01346002BF9D103E080
:103E7000A2689A60FFF752FF0023A360E36010BDC1
:103E8000C805002038B5836804460D469BB10A4832
:103E900004600220A07304F10C0098470238012846
:103EA00001D9832D05D120462146BDE8384000F0D8
:103EB00005B80123A37338BDD40500202DE9F843CC
:103EC0001C4A0446156889462B4690461A4E3768A8
:103ED000A34204D00BB11B68FAE7BDE8F88334B302
:103EE000A37BABB10023A37345B1AC4204D02846F9
:103EF0008721224606F046FE2D68F5E7A3683BB110
:103F00004C4505D0346004F10C0083212A469847C3
:103F1000D8F800309C4203D12268064B05E01346D6
:103F200023B11A68A242FAD122681A603760BDE84C
:103F3000F88300BFDC050020D405002010B5094B34
:103F400000221A70084B1C685CB1E37B3BB1012373
:103F50000022A373E27320468221FFF793FF2468B7
:103F6000F2E710BD1D180020DC050020024B187878
:103F7000421C1A70704700BF1E180020064B8A2290
:103F80001A70064A00231370054A1370054A13601D
:103F9000054A1360704700BF1E1800201A18002041
:103FA0001C180020DC050020D40500202DE9F0417C
:103FB000214E33780BB1FFF7C1FF204D2C78002C38
:103FC00034D0DFF88CE00C229EF800301C495A43B4
:103FD00088181C4F895CDFF87C804268DFF878C065
:103FE0008068013303F01F03013C3970C8F80020DA
:103FF000CCF800008EF800302C7088B9124C134BAE
:104000001B68236023688BB133780BB1FFF796FFF1
:1040100020683978D8F8002006F0B4FD2368EFE76F
:10402000812904BF0123837306F0ACFD337828781F
:104030001844BDE8F08100BF1D1800201C180020A6
:10404000E00500201B180020D8050020DC0500201A
:104050001A180020D005002060070020024A034BF8
:1040600010781B78184470471C1800201D18002079
:10407000F0B50C4E3478202C11D00B4B0B4D1B7827
:104080000B4F234403F01F032B700C256B430134AB
:10409000FD18A860F9546A6034700020F0BD01205A
:1040A000F0BD00BF1C1800201A18002019180020AD
:1040B000E005002038B5034C256806F063FD256057
:1040C00038BD00BFD405002010B50A4609490C6868
:1040D000234683420DD00BB11B68FAE748B1046058
:1040E00008600121817383818121BDE81040FFF7C1
:1040F000E1BF10BDDC05002038B1837B013B012B03
:104100009FBF024A0123C373137070471D1800201C
:10411000024610B5064853600468029B1160936024
:10412000026014B90846FEF7DBF8002010BD00BF9E
:104130006407002010B5084C206858B100232360A4
:10414000816843689847236823B1BDE81040186828
:10415000FEF7C6B810BD00BF6407002010B50446C6
:10416000FEF77AF894E80C001344C01A024B984208
:104170008CBF0020012010BDFEFFFF7F38B50588F1
:104180000446672D09D0792D2ED0002D32D1FFF7AE
:10419000EDFE1B4B18701B4B1D601B4806F0D5FD38
:1041A000431C01D167231DE00A28164B07D01A686B
:1041B0007E2AF2DC511C1960144B9854EDE7196803
:1041C00000254A1C1A60114A0D4B5554284619788F
:1041D000FFF74EFF0E4B852118682A46FFF748FF70
:1041E00020B97923238009E0852907D1054B0022D6
:1041F0001A60D2E700230380032038BD012038BDB8
:10420000292100207007002068070020A018002046
:10421000D40500200D2810B5014615D00B4C23788D
:104220002BB90B4806F07DFD48B9012306E00A28AA
:1042300005D1074806F075FD08B100232370054835
:10424000FFF75AFF012010BD002010BD9F1800206D
:10425000680700204801002008B50548054980226C
:1042600006F058FDBDE8084003480021FFF72CBFC9
:10427000680700201F18002048010020054A136825
:1042800043F004031360044B1B68906943EA002069
:1042900080B2704700700D4014700D40174A1368CB
:1042A00023F00C031360164B01221A601A68012ACE
:1042B000FCD1144B08221A60E322C3F8142203F540
:1042C00005731946104B1B68DB07FBD51020002334
:1042D0000E4A0138126802F0010243EA02034FEA73
:1042E00043039BB2F4D1002BF0D0094A180A03F023
:1042F000FE0310601360EF230B60704700700D40E9
:10430000A8200D4024860840648608409C8608400A
:1043100014700D4008B5064803F096FA054B0122CB
:104320001A7000225A70AA229A70DA7008BD00BF73
:10433000254520002119002010B50F4C0220A1793D
:1043400003F05AFFA379112B01D0062B05D1238D41
:10435000618D9942A8BF194608E03A2B05BF94F831
:10436000281094F82930002143EA01210120BDE8FA
:10437000104003F041BF00BFA01B002010B5137810
:104380000446087A83F0020398421DD1487A537894
:10439000984219D1887A9378984215D1C87AD378FF
:1043A000984211D1087B137998420DD1487B5379FB
:1043B000984209D1887B9379984205D1C87BD379FB
:1043C000984201D103201BE00B890F4A6BB94B893E
:1043D000B3F57F4F09D18B89FE2B06D11368C989AC
:1043E000022023F8021B13600AE0136851F8080F3B
:1043F000083343F8080C486843F8040C13600120A4
:10440000A040C0B210BD00BF7C07002010B5084C12
:1044100001462378012B08D1A01C082205F066FB79
:1044200000280CBF2046002010BD002010BD00BF9A
:104430002119002008B50146102003F0EBFE044BC3
:1044400004489B6800219847BDE80840FEF7C6B8BD
:1044500064B420005944200010B508460C461146AB
:1044600002F0ACF9044B1B6813B19B6820469847D7
:10447000024B1C6010BD00BF2008002090070020E8
:104480002DE9F8434FEA1219B9F10F0F80461D4686
:1044900002F00F040BD00F2C05D1B9F1000F0AD197
:1044A0001024274619E0B9F1000F09D004E00F2CC1
:1044B0004FF0100900D1102440464A4605F048FB51
:1044C00009EB04020F2A274606DC08EB090000214D
:1044D000C2F1100205F016FCBCB1114DC7F110007D
:1044E0002E6840443146224605F032FB022C08D1AA
:1044F000B9F10A0F9FBFFF2388F80B30FE2388F81D
:104500000C3034442C60BDE8F883B9F1000F05D0BD
:1045100040462946BDE8F84306F07EBCBDE8F88376
:104520007C0700202DE9F04F944E954D002387B075
:1045300033702B70044603F0FDFD03F099FD914F9D
:1045400004213860092003F057FE8F4B8DE860008E
:104550001B680BB1FFF7F0FE04A80CB98B4900E013
:10456000214606F0A0FC8A4B8A4E1A8803933E2A05
:1045700040F20B82D7F800A0874D0AF102032B60AE
:10458000009B06F1180093F80090002309F102093E
:104590000AF80930FFF73AFF20B906F10800FFF7E3
:1045A00035FF20B10AF103032B60802400E00446AC
:1045B00072783078130943EA0013DBB2990841EAB4
:1045C0008313DBB212F00F0FD9B2DFF8CC8100F009
:1045D0000F000ED16F4E76885EB910B912F0F00F51
:1045E00021D0D8F80030702603F8011BC8F800303D
:1045F0001AE078B912F0F00F0CD1296823F03F03CC
:104600001A43664B0A701B88033121F8023C682666
:10461000296009E05F4A2B6810686026186003F87B
:10462000041B2B6000E078265A4B9A790293112ADA
:1046300008BF46F0040673075EBFD8F8003003F8E1
:10464000012BC8F80030029BDB79402B06D0FF2BF2
:1046500007D0012B08D146F001060BE046F0020618
:1046600008E046F0030605E0D8F8002002F8013B18
:10467000C8F80020029A474B128982B95A8972B948
:104680009A8962B9DA8952B91A8A42B95A8A32B910
:104690009A8A22B9DB8A13B944F0400013E04048FB
:1046A000FFF7B4FE3F4B186078B142781AF8093032
:1046B000042043EA02130AF8093039493A4AFFF75D
:1046C0005DFE60F03F00C4B228E0029B31491A89C8
:1046D00048F2FE039A420CD14B8B53B98B8B43B9F2
:1046E000CB8B33B9042008312F4AFFF747FE204314
:1046F000E9E7D8F80020DFF8A8C096460CF1100BC7
:10470000634603CB5B45CEF80000CEF804109C4610
:104710000EF1080EF4D1204B10321A60DFF874B09D
:104720009BF81830FF2B40F08D809BF8192044F047
:10473000080C022A5FFA8CFC38D1BBF81A30ABBBEC
:10474000BBF81C3093BBBBF81E307BBBBBF82030E2
:1047500063BBBBF822304BBBBBF8243033BB9BF8A8
:1047600026301BBBD8F800309BF8272044F00B0004
:1047700003F8012BC4B2C8F80030A2E020190020D1
:104780002B19002088070020200800203BB92000BA
:104790008C1B0020A01B00207C070020A21B0020F7
:1047A000A81B002074070020981B00209C4B588BEE
:1047B000194688BB988B78BBD88BA8B9188C98B948
:1047C000588C88B993F8240070B9296844F00A001D
:1047D000C4B2084600F8012B33F8252F043121F824
:1047E000032C9B78837015E0C98B8D4BA1B9198C74
:1047F00091B993F8221079B9296844F00900C4B23C
:10480000084600F8012B53F8232F063141F8052CF8
:104810001B790371296054E0824ADFF81C82146816
:1048200008F11009A646434603CB4B45CEF80000DD
:10483000CEF8041098460EF1080EF4D1103414602E
:1048400064463EE00BF11800FFF7E0FD764B186080
:1048500050B143781AF8091044F004040B43E4B251
:104860000AF8093000200EE048F2FE03BBF81820D9
:104870009A4210D1BBF81A306BB9BBF81C3053B94F
:10488000BBF81E303BB90BF1180104AAFFF776FD07
:104890002043C4B215E0634ADFF89C81D2F800E0FF
:1048A00008F11009F446434603CB4B45CCF8000011
:1048B000CCF8041098460CF1080CF4D10EF110035A
:1048C0001360019A5649282313708B79112B51D10B
:1048D0004FF2B0030A8D52BA92B222F00F0080B2AA
:1048E000984215D14B8D5BBA23F00F031B041B0CB0
:1048F00083420DD12868F32303704B8D1A0A0B8D68
:104900001B0A02EB031303F5AA634370831C27E021
:10491000029B43495B8D5BBA03F47F43B3F5704F51
:1049200009D12B68F1221A700A8DA3F801204A8D53
:10493000120ADA700CE002F47F42B2F5704F2B6875
:1049400008D1F2221A700A8D120A5A704A8D5A80C2
:10495000043305E0F0221A70886A053343F8040C2A
:104960002B60324B1A882B6823F8022B019A2B609C
:1049700030231370009B3A681B78D65413445C7044
:10498000284B1B689B1A009A19E03A684123137060
:10499000009B06F128051C78631CDBB213443246E9
:1049A00003CAAA4218605960164603F10803F6D1FB
:1049B000009B29341C70019B019A1B78283310201E
:1049C00013700DEB000103F025FC194BDFF86C9020
:1049D0001B689847174B30EA200428BF15245B69F1
:1049E0009847039BC4F17D041D88019B241A1E78FF
:1049F000009BAA1B93F80080DFF844B0C8EB0403C7
:104A00009A42DFF840A040F3CC8003F02DFC7823DD
:104A1000B5FBF3F50135A84216DC0020D2E000BF5B
:104A2000A01B00207C07002074070020CE1B002064
:104A300054B4200064B42000B81B00208C1B00205C
:104A4000201900202B190020D7F800809AF8005078
:104A500041462A4608F1040005F0F0F8B9F80030A4
:104A60005A4A6FEA83436FEA9343C3F3072388F8F4
:104A70000030B9F80030043588F801301388EDB201
:104A8000190A88F803300133DFF854C188F802109E
:104A900013809BF80010631B23F007034C4E614406
:104AA0001A4608EB0500CDF808C08AF800503360BC
:104AB000019305F04DF8019B581980B203F0D2FA2A
:104AC00003F0D8FBDDF808C0804665460028A4D076
:104AD00004A8FFF7AFFC404603F004FC404603F097
:104AE000EBFB3C4A13689046012B96D0043B012B0C
:104AF00093D99BF800B03368053C5B441FFA83FBF5
:104B000005238AF80030344B24F007041A68B9F8FA
:104B1000003034606FEAC3436FEAD343C3F3072323
:104B20001370B9F8003053702C4B1B889B4548D24A
:104B30003A684FEADB0111713268CBEB0303934211
:104B4000B8BF234A3868B8BF1360009B346893F835
:104B50000090224605EB0B01484404F0F9FF09EBF5
:104B6000040080B203F07EFA03F084FB04460028C0
:104B70003FF453AF04A8FFF75DFC204603F0B2FBFF
:104B8000204603F099FB124B1B689B44D8F8003079
:104B90001FFA8BFB012B3FF440AF043B012BC3D822
:104BA0003BE738680E494044314404F0D1FFB9F87E
:104BB00000004044801B80B203F054FA04A8FFF7C1
:104BC00039FC012007B0BDE8F08F00BF841300203E
:104BD0008C07002090070020880700208C1B0020F5
:104BE000A01B00202DE9F04F9E4F9F4E87B0002460
:104BF0003C70347003F03CFA9C4DB84628600420A9
:104C000003F002FB9A4B00B218609A4805F0DBFFF4
:104C1000DFF88CB2009518B1974BABF800401C80C0
:104C2000009B1B6819785D7845EA012501F0F801C1
:104C3000C0291AD0E02926D19F7893F804A0DB7808
:104C4000BBF8004043EA07273378C5F30A0505336C
:104C5000337003F021FA204434784FF00009041B2C
:104C6000AC42B4BF002401248EE29F78DB7800249C
:104C700043EA07273378C5F30A05043333704FF04E
:104C80000109A24680E27C4B00241C80A1462746F5
:104C90002346A2462546ABF80040BBF80020AAB147
:104CA000002D00F08B82744B1B88AB4240F0868253
:104CB000724B1B88BB4240F081820F2003F0B6FA92
:104CC00001466F4806F0F4F8C0B977E26A1E8B2AF5
:104CD00014D81BB1B9F1000F00F07082664B4FF48D
:104CE00080611D80654B63481F8005F05AFF0F20CF
:104CF00003F09CFA0146624806F0D5F83778052F94
:104D000000F0CC81009B1968CA5D02F0E003602BC3
:104D100040F0AB81B81C0F4497F801B00844594BE0
:104D20005FFA8BF10E06186044BF0130186012F074
:104D3000100F0091544E02F008012FD1D1B919681B
:104D400031F8010FA6F801008978F170196811F89F
:104D5000040B1960830803F00F0141F0600131700A
:104D6000717803F0300343EA801301F00F010B4325
:104D700073702EE0186860210746317017F8011B28
:104D800003304FEA910E0EF0300E01F00F014EEAA3
:104D9000010171703988186071801AE001F0FF0715
:104DA00091B919680878C0F3830040F06000307052
:104DB00011F801EB77804FEA9E0000F0300040EAE6
:104DC0008E107070196004E06023337000237370DC
:104DD000738002F0040303F0FF0101912A4F2BB905
:104DE00028490B6813F8010BB8710B6012F003022D
:104DF0000BBF244A254B13689B5C09BF13F8011BAA
:104E0000FB711360F9711BF0400FCBF3011249D015
:104E1000009B190641BF1549134B09681B7851BF08
:104E200000215B189978090982B1194B187801287B
:104E300005D1587888420CBF1946002100E00021B6
:104E4000144B1960002940F0B78127E11146124B3D
:104E50000F209A5C0391029203F0E8F9039903464C
:104E60000E4828E0201900202B1900208807002078
:104E70007807002080070020821300208013002084
:104E80002A2100207C07002094070020EEB8200093
:104E9000211900207407002007B920009C0700207A
:104EA00086130020A54B0F209A5C029203F0BEF9F6
:104EB000A3490346A348029AFFF7E2FA0BF0080061
:104EC0000BF0030200F0FF010BF00403B0B1002B64
:104ED0004AD19D4B1B88ADF81430531E012B9FBF48
:104EE0009A490B6813F8010B0B60994B98BF8DF82A
:104EF00015009A5C974805A9002333E0002B27D0C2
:104F0000009B1B0641BF9449944B09681B7851BF15
:104F10000B465B18997801F00F0391490878012836
:104F200004D14878984218BF002100E000218D4B41
:104F300000911960002900F0B1808B4B102013F80C
:104F400002B003F073F9009903460231814808E08A
:104F50007A4B102013F802B003F068F97849034641
:104F60007C485A46FFF78CFA98F80000774900F120
:104F7000280388F80030019B002B56D00B681A7864
:104F800002F0F802F02A50D11122BA711A7802F018
:104F9000040E02F0F302F03A5FFA8EFE032A7DD887
:104FA000DFE802F0020A1622B3F8012005333A8541
:104FB00033F8022C7A852CE0B3F801203A85DA78B0
:104FC000A2F5805292B2120242F0F0027A8509E014
:104FD0005A78A2F5805292B2120242F0F0023A855B
:104FE0005A887A85043314E05A7802331209A2F5FC
:104FF000756292B2120242F0F002328513F8012C6F
:1050000002F00F02A2F5756292B2120242F0F002B3
:1050100072850B60BEF1000F04D10B6833F8022BD0
:10502000FA850B60303088F800004B4A0B68126834
:105030009B1A4A4A137065B903F02EF8474B1B7848
:10504000C01A98F800301844283803123B71787160
:1050500004E0A5F128031A123A717B71BA79434B27
:10506000112A1BD19A889A8518E0412A40F0A6801F
:105070007A1CD2B28B18DFF8F4E003F1280C7246E8
:1050800018685968083303C263459646F7D198F803
:10509000003029372833377088F8003002F0FCFFE1
:1050A0002E4E3378834200F2898002F0F5FF337888
:1050B00098F800B02E4AC71A0BEBCA0A17600AEB21
:1050C00007028C2A7AD8244A284811685044194487
:1050D0003A4604F03DFDDFF8AC80264E65B1B9F1EB
:1050E000000F02D032885A4432800CB1358007E07C
:1050F00032883A44328003E007EB0B02A8F8002024
:1051000033881BB1B8F800209A4257D1B8F8004054
:1051100019482246154904F01BFD184B1C80184CF9
:105120000023A8F800303380236823B1FFF704F987
:1051300023685B68984702F0C7FB3FE0F2B82000A5
:10514000F6B820009C070020ECB820007C07002067
:10515000F8B82000AC070020880700202B19002099
:10516000211900207407002007B9200094070020AF
:105170008C07002086130020A01B00208C1B002021
:105180002008002082130020BBF8003093B1B9F151
:10519000000F0FD00F2003F049F80146094805F031
:1051A00087FE18B9084B1880084B18804FF001098A
:1051B0004B4672E5012370E5023148E607B0BDE8D1
:1051C000F08F00BF2A2100208213002086130020C8
:1051D00037B5124B124D1C782B796A79C4EB032337
:1051E00013449BB2ADF80630BDF8063005F1080156
:1051F0001844202280B205F0B8FDBDF8062004F165
:105200002801294492B205F0B0FD10B140BA80B235
:1052100001E04FF6FF7003B030BD00BF2C19002035
:10522000A01B002028492DE9F04188460D78274E23
:105230002835AB195C782648E400073402239C42E9
:105240003DDBE9187218715C204F012932D002D37E
:10525000632902D013E001332FE0037018461C4C81
:1052600003F042FFD8B998F800302278283313446D
:105270003B445B78134402332370BDE8F08101F0B6
:10528000C001802905D0C02905D0402912D1037062
:1052900005E0037006E03A7E0370FF2A02D1012088
:1052A000BDE8F08104200221EA1801F041FE02204D
:1052B000BDE8F081527802321344DBB2BFE70370DD
:1052C0000020BDE8F08100BF2C190020A01B0020A9
:1052D00032190020F0B5C578124A0D44EDB2D570F0
:1052E00083780F0A3B44DBB293704478BB4254701E
:1052F0000678167005D2601CC0B2507008B901362D
:105300001670C9B28D420CDA0133DBB205499370D5
:105310003BB94B780133DBB24B7013B90B780133D7
:105320000B70F0BD941B002010B5084C014620689E
:105330001430FFF7CFFF064A2368117819755178AA
:1053400059759178D2789975DA7510BD3C1C00209A
:10535000941B002008B501F04BF901F0D1FE02F0DA
:105360009DF900231149002221F813200133DBB2FB
:10537000082BF7D10E49302303FB02110132D2B2C0
:1053800000230A2A81F82530F4D10A4A4FF48061BB
:105390001180094A002102EB43120133DBB20A2BD0
:1053A0001182F6D1054A137008BD00BF281E0020E7
:1053B000401C00208A1300203C1E002033190020CE
:1053C0002DE9F041134F3D7815B3DFF8508005F11A
:1053D0002703B8F80040A34205DB00233B70A8F880
:1053E0000030BDE8F0810C4EA4F1280205F128013F
:1053F000641BA4B206F128003144521B04F01EFCC9
:10540000A8F80040283C23123371002374713B70CC
:10541000BDE8F0812C190020A01B00208C1B00206F
:1054200030B50A490023082B0DD0094C5A1C34F81A
:105430001350D2B2854204D100220B7024F81320FD
:1054400030BD1346EFE70B7030BD00BF33190020AD
:10545000281E002030B509490023082B0BD0084C2A
:105460005A1C34F81350D2B21DB90B7024F8130033
:1054700030BD1346F1E70B7030BD00BF331900207B
:10548000281E00202DE9F74FA44E04283468B246A8
:10549000A34F00F06182A349A34DA44A03280D60E5
:1054A0001560894615D194F8253003F00F03032BBE
:1054B00008D1A38B002B40F0A9869D4B08221A70BF
:1054C00000F096BD022B40F0A186002305F8073CB2
:1054D000C8E3022878D1974A00231380964A3B807C
:1054E000D3780133DBB2D37063B993780133DBB285
:1054F00093703BB953780133DBB2537013B913780F
:105500000133137094F8253003F0FD02052A0DD104
:1055100094F826300133DBB2782B84F8263040F043
:105520007586002384F8253000F070BE002B00F053
:105530006D86A28B7E48002A3DD094F82620511E0D
:1055400084F82610002A40F0618694F82720082A63
:1055500004D0591E01290AD8052A08D1002384F84D
:1055600025308023037002F059FB00F04FBD042A60
:105570009CBF0321914003F00F0394BFC9B23021B7
:105580000132013B84F8261084F82720072B00F213
:105590003D86DFE813F0630308000A00F4043B06CD
:1055A000F4043B06F404002259E30423037002F0E0
:1055B00035FB00F05BBD03F00F03032B40F02686A4
:1055C0000823037000F014BD052811D15B4B1B6844
:1055D0001B8A002B00F01A860C3D1560554A0023EB
:1055E000138033603B80524B08220D601A70B1E18A
:1055F00015F83C3C3C3D03F0F003602B40F0068680
:105600002B796A791B0239889818884200F3FE8545
:10561000283213443B802B7AFF2B00F0F785484B50
:10562000AA1D484C484E1A60002222703270AA7996
:105630009846B2B901233370FFF7F4FD012800F05A
:10564000E58503D3022800F0DD850AE0237803F125
:1056500028022A44C8F800205278083303EBC2031A
:1056600023703A4800F060FE002840F0B5803748CB
:1056700000F000FF002840F0AF802A7E334BFF2A65
:10568000A3F1180366D048F2FE00198B814261D065
:10569000198981425ED079B9598969B9998959B90D
:1056A000D98949B91B8A3BB9698A294B21B9998A99
:1056B00011B9DB8A002B4DD0298B254B79B9598B39
:1056C00069B9998B59B9D98B49B9198C39B9598CA0
:1056D00029B9998C19B9DB8CB3F5807F3AD03B8816
:1056E000B3F5A06F04D9022000214FF4A06206E0B8
:1056F000EB79174C012B06D800210A46032001F054
:1057000017FC00F07FBD03F03DFD002840F07E85D2
:10571000E379013BE37100F075BD00BF3C1C002044
:105720008C1B0020381C0020DC1B0020901B00205C
:105730002C1C0020381E00202E190020341C0020B4
:10574000301C00202C1900202D190020B81B00202F
:10575000A01B002048F2FE032989994240F056859B
:10576000298B9A4B81B9598B71B9998B61B9D98BB6
:1057700051B9198C41B9598C31B9998C21B9DB8C4B
:10578000B3F5807F00F04285FF2A00F03F85904806
:1057900000F0AAFD0246002840F0388501200221D1
:1057A000ADE721D93A2B6ED026D93B2B00F02E85C0
:1057B0003C2B64D133788749980735D558065ED499
:1057C00043F040030B70FFF72DFD012800F01E850C
:1057D0002DD3022800F01685D8F80020DFF820B27B
:1057E00013782B2BDDD12EE0062B00F00B81112B33
:1057F00066D0002B43D103E02C2B00F007853EE060
:105800003378D9073BD4734A43F001031370FFF791
:1058100009FD012800F0FA84DBD2237803F1280285
:105820002A44CBF8002008E043F00203CAE72378BB
:1058300003F128022A44C8F800205278083303EB09
:10584000C2032370C8E7337803F0040000F0FF01BF
:10585000A8B9604A43F004031370227802F12803C8
:105860002B44D87810B104202A3248E7CBF8003016
:105870005B78083202EBC302574B1A70ACE7042086
:105880000121521B3BE705F08CFA4FF6FF7398425B
:1058900040F0BC8423782833E85C02F001F82378D8
:1058A0002833EA18E85C517801F020FB012804BF96
:1058B00000233B803B88002B00F0A88400F0A2BCB2
:1058C000FFF77EFD3B88454E303B3B80EB8DC9F8B2
:1058D000006063B9B5F82A80B8F1000F00F0968433
:1058E0003F4B404D2B60394BB3F828B00BE005F02F
:1058F0005EFA4FF6FF73984240F08884EAE7238A05
:105900003BB920342C602C68374B9C42F7D300F015
:105910007DBC9845F5D1638A0BB19B45F1D12368D5
:105920002BB963681BB9A3680BB9E36833B12F487F
:105930002146102204F0DAF80028E2D12C4A022194
:1059400011702C4A002316602B4ACAF80030C9F89F
:105950000060138002F062F9274B1A88002A00F0D9
:10596000558402F13003194C9BB23B80283B19123D
:1059700063711C4B08321B6852BA2171197DA285D4
:105980000022E2851A8AE17122855A8A11216285F4
:10599000A17104F118050FCB85E80F0004F1080090
:1059A000294600F0C7FD154B04F13C021A6005F0D2
:1059B000FEF9C04380B208B1E08502E04FF6FF7304
:1059C000E38503F0F3FC00F017BC00BFA01B002030
:1059D000B81B00202D1900202C190020D01B0020FE
:1059E0003C1E0020341C00207C1F0020A81B00202F
:1059F0002C1C0020901B0020381E0020381C00208A
:105A0000301C0020FFF7DCFC05F0CEF94FF6FF73E9
:105A1000984240F0FB83B5F82AB0BBF1000F00F0CC
:105A2000F583BF4B1B8D002B00F0F083BD4E344639
:105A300096F82580B8F1000F0FD0328A5A450CD164
:105A4000728A9A4209D1B84831461022019304F073
:105A50004DF8019B002800F01B81B44A3036964275
:105A6000E6D195F8352002F03F02022A13D1B04961
:105A7000B04E8846A1F800B00022082A0AD0AE49EC
:105A800031F8121001328B45D2B2F6D100223270B9
:105A9000944657E0327095F83520A14B510700F13C
:105AA000B583142283F835203C223A80502283F8B3
:105AB000342093F8332093F8314093F82F0083F883
:105AC0002F2093F8322093F82E109A4E83F82E2030
:105AD00093F82D2083F82D4093F82C40013034703A
