:20000000E8430020C584000001CA011001CA011001CA011001CA011001CA011001CA011024
:2000200001CA011001CA011001CA011001CA011001CA011001CA01103FCA0110FFFFFFFF82
:20004000FFFFFFFFFFFFFFFFFFFFFFFFFFFFFFFFFFFFFFFFFFFFFFFFFFFFFFFFFFFFFFFFC0
:20006000FFFFFFFFFFFFFFFFFFFFFFFFFFFFFFFFFFFFFFFFFFFFFFFFFFFFFFFFFFFFFFFFA0
:20008000FFFFFFFFFFFFFFFFFFFFFFFFFFFFFFFFFFFFFFFFFFFFFFFFFFFFFFFFFFFFFFFF80
:2000A000FFFFFFFFFFFFFFFFFFFFFFFFFFFFFFFFFFFFFFFFFFFFFFFFFFFFFFFFFFFFFFFF60
:2000C000FFFFFFFFFFFFFFFFFFFFFFFFFFFFFFFFFFFFFFFFFFFFFFFFFFFFFFFFFFFFFFFF40
:2000E000FFFFFFFFFFFFFFFFFFFFFFFFFFFFFFFFFFFFFFFFFFFFFFFFFFFFFFFFFFFFFFFF20
:200100003C000000000000000000000034010000000000000000000001000000000000006D
:20012000000000000000000000000000010000000000000008000000000000003400000082
:20014000000000000000000068010000000000000000000001000000000000000100000034
:200160000000000000000000080000000000000030000000000000000000000098010000AE
:20018000040000000000000001000000FFFFFFFFFF00000001000000080000000000000056
:2001A0002C0000000000000000000000C4010000040000000000000001000000FFFFFFFF4D
:2001C000FFFFFFFF080000000000000034050000E401000099A1011095A70110A5C20110ED
:2001E00009B2011045B8011000000000000000002E000000280000000000000000000000CF
:20020000140200000000000000000000FFFFFFFF000000000800000000000000300500008F
:200220003002000069C201106DC101101FC2011095BA01100000000000000000300000008F
:20024000300500005402000075C20110A9B601109DBF011049B601100000000000000000DE
:200260003100000024000000000000000000000080020000000000000000000000000000A7
:200280000800000000000000240000000000000000000000A402000000000000000000008C
:2002A000000000000800000000000000240000000000000000000000C80200000000000048
:2002C00001000000000000000800000000000000000000001C0300200400000000000000D2
:2002E000000000002000000070010000300000001C020000240300200400000000000000D4
:20030000000000000C0000003004000018000000400200002C0300200400000000000000F0
:200320000000000024000000480400001800000000000000340300200400000000000000DA
:200340000000000010000000A00100002C000000CC0100003C030020040000000000000090
:2003600000000000200000006402000024000000FFFFFFFF4403002004000000000000006C
:2003800000000000280000008802000024000000FFFFFFFF54030020040000000000000010
:2003A00000000000580000003C01000034000000FFFFFFFF5C0300200400000000000000F5
:2003C00000000000100000006004000018000000FFFFFFFF6403002004000000000000000A
:2003E000000000001C000000AC02000024000000FFFFFFFF6C030020040000000000000080
:200400000000000038000000F401000028000000FFFFFFFF740300200400000000000000F0
:200420000000000054000000000100003C00000018000000000000000000000040040000CF
:20044000080000000000000018000000000000000000000058040000080000000000000018
:2004600018000000000000000000000070040000080000000000000001000000388500002A
:20048000FFFFFFFF0100000000000C0000000D003200000002000000E00B00200002000005
:2004A0000000000001CA011000000000000000000800000000002000740B00200100000098
:2004C000E4020020080000000000000000000000000000000000000000000000010000000D
:2004E000100C00200600000001000000640A00200000000000000000000200000000000029
:20050000FFFF2A0001002500300031002E00010001FFFFFF04000000F08400000000000087
:2005200000000000000001000000030087C401103805000038050000000000008000000061
:200540008000000000000000E40200201B1E000020000000DC840000308200000DC30110C9
:200560009D1500009F15000099C801109BC80110000000003E1B0000C0800000D88000003E
:20058000A8800000080009000100000001FFFFFF0000000000000000000000000000000023
:2005A0002F1400009514000011130000BF140000751300002D130000BD13000001150000AA
:2005C000991D00009B1F00009F1F0000080000002400000018000000280000002000000061
:2005E0003C0000000C00000034000000DFF800F0F5C00110DFF800F049BA0110DFF800F050
:20060000E5C10110DFF800F025C20110DFF800F0C1C20110DFF800F0E3BF0110DFF800F0C8
:2006200013C10110DFF800F0B5C10110DFF800F0D5C20110DFF800F0F5B80110DFF800F0CC
:20064000D5C00110DFF800F0F1C50110DFF800F095C00110DFF800F00DA80110DFF800F0E5
:20066000BDBE0110DFF800F021C10110DFF800F0A5B90110DFF800F021BA0110DFF800F084
:20068000BDC20110DFF800F015B60110DFF800F019A70110DFF800F02DBF0110DFF800F004
:2006A000E1B50110DFF800F0D9C20110DFF88402007D704738B5DFF88402DFF87C52006838
:2006C000EFF3118480F31188A8680021FFF7BEFF6969081AA969814238BF002084F31188C3
:2006E00032BD00002DE9F041DFF85002DFF848420768EFF3118887F31188A0680121FFF71D
:20070000A5FF0121A1830021E183656921682268461B801A691A884204D20020A08388F3AD
:2007200011882AE088F31188002005E04519361A29460120FFF78EFF8642F7D2EFF3118830
:2007400087F31188E18B012903D129460020FFF781FFA16910F1010F08BF084603D0801B79
:20076000814238BF08464119FFF778FF012020840020A083256088F31188BDE8F081808AE9
:2007800070470021DFF8BC21016012681018FFF751BF000038B500F0D7F8EFF3118580F32D
:2007A0001188207C022808D12046FFF75BFF002020742946A068FFF759FF85F3118831BDD3
:2007C00003681A4003680B408B4208BF0A4312B10168914301601046704700002DE9F04702
:2007E0001F4692B017F1010F18BF002F04460D4616460AD06B463A46DFF8441108A8FFF75E
:2008000039FF08A80390022002E00020039003208DF8100006950796DFF8280100F086F848
:20082000FFF7ECFE02903246DFF81001D0F80090EFF3118A89F3118829462046FFF7C0FF72
:20084000040007D0039808B1FFF718FF8AF31188204630E01FB98AF3118800202BE0FFF7C1
:20086000C5FE02990446C1F818D069464046FFF7D9FE0298FFF706FF9DF81000022804BF06
:200880000398FFF703FF8AF311882046FFF7B2FEEFF3118489F31188039818B1FFF7EEFED1
:2008A0000020039000200299886184F311889DF8100000B1059812B0BDE8F087F8B5044609
:2008C000DFF880000068061900F03FF8EFF3118580F311882068084320603046FFF79EFE34
:2008E00010B185F31188F1BDFFF780FE07463046FFF79CFE0646F269B1692046FFF760FF35
:20090000706160B13046FFF7ADFE01203074F06808B1FFF777FEB0682946FFF7A7FE85F303
:2009200011883846BDE8F240FFF764BE006800EB04087047A4010020780100202C8500008C
:2009400095070000348500000446DFF808000068704700002C850000DFF804100968704736
:200960002C85000000F01CBE80B5002301223421DFF8EC0901F0D2F800B10120C0B202BDA2
:20098000DFF8E41A0A68002812BF42F00100500840000860704700007047FEE710B582B09A
:2009A000042001F0EFF8022818BF03280DD1032000901C234FF040520021DFF8A40901F0D8
:2009C0008AF8BDE8164004206AE0DFF89C19DFF89C0A09680C18DFF89419DFF8A00A096818
:2009E000B0FBF1F12046FFF711FE2046BDE81640FFF710BE80B5DFF878090078DFF8AC0949
:200A000001688908890041F00101016001F0C7F801F051F9DFF89819002008600220DFF8CB
:200A200094190968C9688847DFF8540A016849084900016000F01BFA042000F013F900F0EA
:200A4000B2BCDFF82C1A405C70470022012904D1012807D1DFF8600903E0012802D1DFF8A0
:200A60002C0A026810467047DFF8000A00797047000001F0A9B8000010B5DFF83C16096807
:200A8000EFF3118481F31188DFF8E019C9880120012908BFFFF768FF84F3118810BD000065
:200AA00030B5DFF81416DFF89C390A68EFF3118182F31188B0FA80F2C2F11F02D25CB0FAE8
:200AC00080F4C4F11F04551EE55405D1DFF89C29136823EA0000106081F3118830BD0000BA
:200AE0002DE9F041FFF738FFEFF3118481F31188DFF87C19425C531E435444D1DFF8741973
:200B0000DFF8748901EB80052E786F88300618D5D8F80010096A38468847D8F80010896A5D
:200B200038468847D8F80010096B38468847DFF8541901200860DFF8500900688007FAD50C
:200B400014E0700606D5DFF8B01951F82710002088470BE0D8F80010896938468847D8F867
:200B60000010496B384688470228F8D106F03F003F2818BFFFF7B4FF687800F03F003F28DF
:200B800018BFFFF7ADFF84F31188BDE8F08110B508B1140001D1032010BD8160C2600361FB
:200BA0000146DFF8EC28DFF84C0912681018FFF771FD002010BD0000F8B50446DFF8F8041A
:200BC000DFF8AC180068EFF3118580F31188625C531C6354002A3ED1DFF8981801EB840773
:200BE000387800F03F003F2818BFFFF7E5FF787800F03F003F2818BFFFF7DEFF7E88387818
:200C0000DFF87478010613D53968C969304688473968496A304688473968C96A3046884758
:200C200000F038F8DFF8600800688007FAD512E0400606D5DFF8C01851F826100120884766
:200C400009E039684969304688473968496B304688470128F9D185F311882046BDE8F24038
:200C600001F088B9DFF850140A68EFF3118182F31188DFF8F827136803431360B0FA80F0CF
:200C8000C0F11F00DFF8BC27835C5B1C835481F311887047DFF8EC170120086070470000BF
:200CA0002DE9F04F83B04FF0000800210128C1468A4618BF022412D1DFF8FC03DFF834780B
:200CC0000268EFF3118082F311883A79012A06BF02223A71012180F3118809B10624BDE008
:200CE000FFF784FC0090012000F0E6F8040002D001203871AFE0FFF7A1FCDFF82818019095
:200D0000C1F80090012000F03DFF012804D1002001F010F94FF00108DFF8E047DFF8505761
:200D2000216889680020884700F0A1F8687C08B14FF00109287C08B149F00209E87B08B11E
:200D400049F00409E87ADFF82C6718B1A16AF08D096B8847A87A18B1A16A708D096B8847B7
:200D6000FFF798FF49F02000A16A896988470120FFF706FE3878C00748BF4FF0010A12D4F8
:200D8000DFF8980701F03CF98346BBF1040FF7D000F067F88008800008600321A26CDFF8A0
:200DA0007C0752689047002001F032F900F05FF8A06A806B8047BAF1000F0AD1A26CDFF866
:200DC0005C0752685946904700F04BF840F0030008600120216889688847DFF844070068BE
:200DE0008006FAD5B8F1000F1CBF012001F0A2F8A16A496948468847A16A496B4846884729
:200E00000128F9D1E87A18B1A16AF08DC96A8847A87A18B1A16A708DC96A8847FFF73AFF06
:200E20000020FFF7ADFD03203871042000F044F8DFF8F0160120086000F019F801F0F6F98F
:200E4000082000F039F80446012038710198FFF725FC01F076F90098FFF7CCFB2046BDE8C5
:200E6000FE8FDFF8D006DFF8CC1600687047DFF8C80600687047000038B58F48DFF8745637
:200E80000068EFF3118480F31188E888012803D100F0EEFE0020E88084F3118831BD000098
:200EA00010B5FFF759FDEFF3118481F31188FFF7D9FB84F3118810BD38B500F02AF80818D7
:200EC000FFF7ACFB002540B9204600F008F820B1DFF86806006880470225284632BD70B513
:200EE00000F017F80D182846FFF7A0FB0646B068204206D03169F26820469047C0B2012867
:200F000006D03046FFF7CEFB0646AE42EFD1002070BDDFF87C1509680446DFF8D8057047EF
:200F200030BF704770B501F07DF9DFF840552E6806F00C000C284BD0700727D4FFF7BAFB0F
:200F4000044600210120FFF780FDA0421ED2DFF8140400684519DFF814040668DFF8E005F2
:200F60000068B0FBF6F0211A2846FFF74FFB2846FFF750FB4FF47A70B0FBF6F200210120DE
:200F8000FFF78EFE2846FFF73DFB23E030071FD4DFF8EC04DFF8E044DFF87C55F10601683C
:200FA0005ABF4908490041F001010160DFF88405016841F003010160202021688969884701
:200FC00028682068806B804701202860286801E0FFF7A6FF01F02AF9BDE8704001F0DCB8A4
:200FE00010B50C1801F01EF9401E8041C00FDFF860150A68002AFCD0246801220A6008B18C
:2010000001F014F9204610BD80B50420FFF72AFE0820FFF727FE0E20FFF7CEFDDFF82405F6
:20102000DFF824150068C0F3815003280CBF012000200880DFF8140502680AB1012002BD00
:20104000DFF8103540221A600122C2610020486002BD10B5DFF85C13DFF8FC4482B0096806
:201060000968202088470F202060072341F61D5060604FF4C0720220009000F0C9F8DFF804
:20108000DC040121016001688907FCD501212161DFF8B4442188012907D100210161022060
:2010A000202100F091F8012004E00121002000F08BF80220606013BD2C8500002DE9F04112
:2010C000DFF89C04DFF8804482B0016842688A43426001616068002804BFBDE8F341FFF766
:2010E000B8BF0128DFF87C141AD10220606008684BF2F52148436188000A11B10021618017
:2011000006E0DFF864140968090210EB11204008DFF858140860000C4860012088600CE056
:2011200002280FD10868B0F5C06F02D10020606045E00321616000F06FF80121BDE8FC4149
:20114000002041E003283DD1002060600868A0F5C065A06800F0B2F80646284600F0AEF819
:2011600086422CDAA669284600F0ACF88019A061E56860697A4E85420ED0A769A7F11000BB
:2011800000F09CF880462069103800F097F8804502DABFB200970BE0ADB2009508234FF4BF
:2011A0007F423021304600F096FC206980B2009012234FF4F8020421304600F08CFCBDE8B0
:2011C000F3418AE0BDE8F38170B50D46DFF8A04382B0032121600021DFF898633160316832
:2011E0008907FCD480B200900523602200F010F80120306030688007FCD5A56100202060E4
:201200000821DFF85003C16001600120206073BD0021534800F05FBC70B50646504C82B022
:2012200030212046FFF7DCFEDFF81C53C0F30720E86004212046FFF7D3FEC0F3844028616D
:20124000A6F5C060A8602E6900F03CF88019A861A969E868022909DA401E6FF03F03984225
:20126000B8BF184610310BD5002109E01E2908DB401C4028A8BF3F2010392029A8BF1F2181
:20128000A9616861082380B200904FF47F42302100F011F80120009011234FF4003200F0F6
:2012A00009F8A86980B2009012234FF4F80200F001F873BD0421204600F00DBC002848BF5C
:2012C0004042704700284CBF6FF00101022101EB4000032190FBF1F0704780B5DFF87C0221
:2012E0000021016001688907FCD40021016041600120DFF8581208600E20FFF7F1FB08207E
:20130000FFF7CEFBBDE802400420FFF7C9BB000010B504460020D4E90A2347F6906100F052
:201320008DFF012928BF4FF0FF3010BD10B50C4600F0FCFF011D201AB0F1004F05D8081B8B
:20134000B0F1004F38BF8C4200D20C46DFF82C221268526A2146BDE8104001201047000085
:2013600000A00C40108500001485000030850000C83D00202DE9F04180460A46D8E90A0150
:20138000D8E90C45A0FB026701FB0277A6196F41340C002244EA07414046FFF7C7FFC8E988
:2013A0000E67BDE8F0814FF0FF3002BD0440034040100940A001001020850000F8B5054607
:2013C000DFF8BC01DFF8BC610068DFF8BC71EFF3118480F31188306840F08000306001209D
:2013E000B96849688847F96A096A142088472869B0F5802F34BF0421010CBA68526A01206A
:2014000090473A681268232100209047B968C96901208847306820F4E02040F4803030603B
:20142000306840F00100306084F31188F1BDDFF8600103684068002200211018594170478E
:20144000000000009C3D0020DFF83011DFF8280110B5096844684968012088476069A16925
:20146000BDE81040084700000C200840F40900202C3D0020F0800000B8010010A0860100AE
:201480008C21084028200860282008402485000018850000F8B504460D46FFF7C8FFD4E90D
:2014A0000A6732463B4600F0C9FE3DB1A6FB002306FB013307FB0033C4E90C23F2BD38B577
:2014C000DFF8C040DFF8C4502068400840002060206840F0800020600120E062E06A2968C4
:2014E000496801208847696A096A14208847E06A31BD0000F40900200803002090010010E1
:2015000080B500F004F8000C40EA014002BDDFF8840000688BE700002C2009400040034027
:20152000141009400C40094009B9DFF86C10FFF789B80000242208402C2009401C85000099
:2015400028850000B43F00508002002004800C4000800C402C500C400C400C4034600C401D
:2015600028500C4008400C40102009403C600C4000400C4038600C40E40100208C010010A0
:201580002C85000000200940840100108C01001008200940EC010020A0010000FEE7704744
:2015A00010B5DFF86404046814F1010F08BF002400F030FFDFF85414002008600120DFF8DD
:2015C00050140860DFF84C140860DFF84C04006828B1DFF848040068204600F023F8DFF865
:2015E0004004DFF8402401688908890041F0005141F005010160DFF8300401686FF31B419D
:2016000011430160DFF824040168C1F30131012907D10168DFF81824114041F4003202602F
:20162000016010BD2DE9F84F0446DFF8081401200860DFF8040401680029FCD0DFF8FC53F6
:20164000DFF8FC83C0202860D8F80CA0D8F80810DFF8F00389075DBFD8F80410090C41F0C8
:20166000F00172210170DFF8E0130968D8F80C20C1F304611629A8BF203901EB2271491C42
:201680006FF009029142B8BF114601F01F0141F4F8510183CAF3C061DFF8B00381F0010151
:2016A0000160CAF3806181F00101816014B9DFF8A0732DE0DFF89C030068C0F383615FEA55
:2016C0008A32C0F38F2021D44FEA0A4212160AD54FF6FF73400804D11846490804BF012103
:2016E0000120521CF6D4012A10DB400040F00100B0F5803F21BF0120490041F001011029F0
:2017000024BF0F214FF6FF70521EECE740EA014700F088FD401E8041C00FCF4E316800290B
:20172000FCD0DFF83893C9F810700121316008B100F07CFD0CB9D82008E0C64A106811687F
:20174000C0F3870001F0030140EA0120009040F2FF3700233A462C21C14800F0BCF91CB1AC
:20176000BC48C06A8704BF0C00F05CFD401E8041C00F31680029FCD0C9F814700121316028
:2017800008B100F053FD002C0FBFB64FB148406A20F0033700F046FD401E8041C00F3168AA
:2017A0000029FCD0C9F80C700121316008B100F03DFD0CB9AC4F04E0A648AC49006A01EA85
:2017C000000700F02FFD401E8041C00F31680029FCD0C9F808700121316008B100F026FDB2
:2017E0000CB9A34F20E09B48806AD8F80830DB07C0F30352C0F303410BD4D8F804301F0575
:2018000002EB27721B0482F3040201EB237181F30401090441EA025182B242EA0107222C6E
:2018200024BF00F08040074300F0FCFC401E8041C00F31680029FCD0C9F80470012131607F
:2018400008B100F0F3FC2220222C824F06D3F86B000F00F00100400040F02000854908727B
:201860001120222C05D3F86B400F00F0010040F01000202C08724FF0000B07D3B86CC10C53
:2018800001F44071C0F3845040EA010B00F0CAFC401E8041C00F31680029FCD0C9F820B022
:2018A0000121316008B100F0C1FC6020202C06D3B86C000D00F00300400040F060006D49C0
:2018C000C8728020222C06D3F86BC00E00F00100C00040F080000870222C4FF47C4006D3D7
:2018E000F86B400D00F03F00800040F47C406249DFF888B10880202C0AD3B86C0203810A79
:2019000002F47C1242EA815100F00F0041EA003B00F088FC401E8041C00F31680029FCD0F0
:20192000C9F800B00121316008B100F07FFC544844210170882181700CB9302105E0F96BF4
:20194000C90C01F0030141F03001C1704FEA9A5010F0030003D002283CD012D33CE00121D8
:20196000042000F0EDF843F2BD70E8638620286401206864434801680029FCD000206864CD
:201980002EE0012000F0FEF804462146042000F0D7F8042000F0F6F8A042FAD1D8F80030EF
:2019A0001802000A81B2E963000C286401206864344801680029FCD0002068644FF0602278
:2019C000180E314B1B681B68072198474FF48060C9F83800032100E00221042000F0B0F859
:2019E000F8692A4900F03F00087047F61800284908801049274800680020286008600120BD
:201A000025490860BDE8F18F1C130050840460425C600C4008220443800128430001204359
:201A200004400340000039014820034004000940FFFFFCFC101009409402224300600C40E7
:201A4000A83F005056620840B812005000002043FF0F0F005013005000800C4008A00C4042
:201A600000A00C40000088688A766800FFFFFC00273F710041A10C40DCA10C4000803F405B
:201A800005A10C4084088C43B40100100BB00C4070B00C402C2009409404604238B50446BB
:201AA0000D4600F0BFFB401E8041C00F1A490A68002AFCD0012D02D0022D02D003E02478F0
:201AC00002E0248800E0246801220A6008B100F0ADFB204632BD38B500EB4100102B00F590
:201AE000007402D3103B241D120C0498984040EA024500F097FB401E8041C00F06490A68DD
:201B0000002AFCD0256001220A6000281CBFBDE8314000F08BBB31BD00800C4038B51D4664
:201B20000818102D144602D3103D801C240C0221FFF7B4FF04EA000188B2E84032BD0000F4
:201B400038B50446E0070D4607D5A8B200900023012200216B48FFF7BEFFA00707D5A8B2A4
:201B600000900123022200216648FFF7B4FF600707D5ADB2009502230C2200216148FFF7CB
:201B8000AAFF31BD0146042907BF1D234FF0C0421C234FF080525B483421FFF7BFBF10B572
:201BA000594C2168896801208847584801688906FCD52169096840208847216989684020A8
:201BC00088471128F9D110BD70B5054600F0AEFB4F4C6168401A4FF47A714843060C00F0E4
:201BE00023FC2169401A48BF4042711940F6B932914207D2062805DAA068E168814201D30D
:201C0000226852B943494A68D2074FF4FA6016D40868C0B27D21484308E0081A3E4948436A
:201C2000000C00EB9000904238BF1046C82801D2C82070BDB0F57A6F88BF4FF47A6070BD07
:201C400010B582B00120009000232E4C012219462046FFF740FF01200090034602220021E3
:201C60002046FFF738FF00F061FB2949886013BD80B50120FFF786FF01281AD00023012231
:201C800034212048FFF74AFFA0B124480068804700F04CFB1E498B680A68C860A2EB920210
:201CA000C01A1D4B5843000C0860904238BF10460860012002BD10B582B00020009001467E
:201CC000104C002301222046FFF705FF002000900146012302222046FFF7FDFE1C234FF0EE
:201CE000805234212046FFF719FF10B10B4800688047074C00F01AFB606000F095FB2061ED
:201D000013BD000000A00C409001001014100940403D0020AC3F005040420F008000001000
:201D2000DFF800F049C10110DFF800F019C20110DFF800F00DC30110DFF800F081C6011047
:201D4000DFF800F095B70110DFF800F08DC20110DFF800F03DC20110DFF800F009C30110BD
:201D6000DFF800F045C00110DFF800F0D1C70110DFF800F067BE0110DFF800F021B301106D
:201D8000DFF800F011C80110DFF800F021C80110DFF800F039C601100C2811D0192814D0C0
:201DA0001D2817D020281AD021281DD0252820D02A2823D02B2826D02C2829D000207047A0
:201DC000DFF80C02016808687047DFF80422106840687047DFF8F811086880687047DFF8F4
:201DE000F0110868C0687047DFF8E411086800697047DFF8DC11086840697047DFF8D011EB
:201E00000868C0697047DFF8C8110868006A7047DFF8BC110868406A704700B58BB00A21A1
:201E20006846FFF785FF0BB000BD00B581B0FEF799FDDFF8A001DFF8A0210168914218BF6E
:201E400000F032F8DFF89401B0F5B26F03D001B05DF804EB29E001B000BD00B581B00FF210
:201E60001D00FFF769FFFFF76BFFFFF76DFFFFF76FFF01B05DF804EBFFF76EBF00B581B0C3
:201E8000FEF7DCFBFEF7B2FB01B05DF804EB0320FFF766BF10B504460320FFF761FF2046B3
:201EA000BDE81040FFF760BFFEE7FEE700B581B0FFF75EFFDFF82801C06801B05DF804EBF8
:201EC000FFF75ABFDFF81C11DFF81C0188617047DFF8181101280CBF40F2FF70002008603E
:201EE0000020704730B581B0FFF71AFFDFF800510446E88820B1FFF7BBFE60B10020E880EB
:201F0000FFF782F805461020FEF7D6FF012D0BD1FFF79FF808E0052105F13000FEF776FBDB
:201F200005F13000FEF776FB204601B0BDE83040FFF7FABE10B5012818D1FFF723FE012824
:201F400016D0FFF77DFEDFF8A8400120E08004F13000FEF757FB052104F13000FEF756FBED
:201F600004F13000FEF756FB002010BDFFF7A3FE002010BD10B501240E2805D10120FFF778
:201F800001FE012805D003E0DFF86810085C00B90024204610BD00207047FFF7F1BEFFF72C
:201FA000F3BE01B91449FEF74DBB10B588B004460B46002118200191009002AA21460F48DF
:201FC000FFF7E6FE02A92046FEF7DBFB08B010BDF001002098CA01107047282090050000AE
:201FE00078010020440100200004000000000460F40900202C3D002094840000F483000046
:202000000068010701D50420704700F003007047F8B505467748784C0068800705D5082089
:20202000A071764976480860F1BD00F0FDF9754A1268002112F0030F18BF0121520748BF4F
:2020400041F002010DB141F0040194F90720821A052A02DAA279914259D0A0F10F0200251F
:202060000023002A1FD402EB02121312082B28BF07231D46072D28BF0625634E06EB8507DF
:2020800056F825507F687E1BF5B24F0744BFC6F307277D198F0744BFC6F307477D19CF0774
:2020A00048BF05EB1665584E56F82370FEB25FEA417C44BFC7F3072C66445FEA817C44BF8E
:2020C000C7F3074C66445FEAC17C48BF06EB1766A2EB03226A434D4B1D681B68A17180328B
:2020E000092A92412D17C5F108053427D243DBB27D436B4306EBD272B3FBF2F2B2F5803F3B
:2021000028BF4FF6FF7200F30700A280E07140480068A188206000201F2904D21F21A1807D
:2021200004E04908401CB1F5007FFAD20F39090940EAC100314A3749084310600020506052
:20214000F1BD10B53448006884B224B300F06CF9294991F90720904205DA6FF07F02904240
:20216000B8BF1046C8718888844201D28C8010BD274A12680B68D21A921C202A28BF1F226D
:20218000231A520823FA02F42018B0F5803F28BF4FF6FF70888010BD2048006800B9704749
:2021A00010B41F498A6802F04063B3F1406F1ED04B689B071BD40F4B1C680968C1F3035190
:2021C0001C31090114F0050F06D088420FD224F00500186010BC7047814208D2100158BF36
:2021E00044F00104500158BF44F004041C6010BC7047000000000940A43D00203010094030
:20220000FDFDA400242208409C130050B43F00500820094000FFA48034100940285009406E
:20222000AC3F0050EFF3108072B67047EFF3108062B670470138FDD1704770471B4213D11B
:20224000094236D12AB18446B0FBF2F002FB10C2704700F0FDB8FCD30022002370470B00F9
:202260000200002100207047904271EB030CF6D370B5B1FA81F4B3FA83F52C1BA340C4F115
:20228000200532FA05F63343A2405FF00046E64002E05B085FEA3202841A71EB030524BF38
:2022A000204629467641F4D302000B003000002170BD012ACFD970B5140C20D0B1FA81F418
:2022C000B2FA82F5C4F120046419B4F12006D6D3B2405FF00044F440002502E052085FEAAE
:2022E0003303C61A71EB020E24BF3046714664416D41F3D302000B002000290070BD0C465E
:20230000B1FBF2F102FB11452D0445EA1045B5FBF2F402FB145580B240EA0545B5FBF2F0F2
:2023200002FB105240EA044070BD000038B5FFF779FF06490C684D68401E8041C00F18BF0B
:20234000FFF774FF280C40EA044032BD082009402D480068000C00F00700032828BF4FF0E1
:20236000FF30704729490968C1F30F314BF69A1291424FF0FF3001D1002070474BF6BE12B8
:20238000914201D1012070474BF62032914208BF0220704710B41D491D4B0A681B680968C2
:2023A000120FDBB2802B28BF0023C1F30F314BF69A14A1424FF0FF300CD1012A08D0032A79
:2023C0001DD0072A1DD0082A08BF03F1160013E00A2011E04BF6BE14A14206D1002AF7D023
:2023E000022A09D103F1140006E04BF62034A14204BF002A03F10A0010BC40B270471420DD
:20240000FAE71520F8E700009412005018130050A010005080B5FFF7A5FF18B9FFF7BAFF07
:20242000162800DAFEE701BD0748084A816812780068C90352B2A0F54070C9135043A1EB55
:202440002010803000127047285009400C13005070470000DFF800F0D9C10110DFF800F0B3
:20246000ADB50110DFF800F019AE0110DFF800F041AC0110DFF800F0CDA00110DFF800F079
:2024800085C20110DFF800F081C20110DFF800F055C10110DFF800F043C20110DFF800F037
:2024A00079AB0110DFF800F0D9B60110DFF800F085C10110DFF800F0EDB30110DFF800F023
:2024C000C1C1011020B108232C220021FFF72CB8704720B108233C220021FFF7BBBF7047CB
:2024E00080B5FEF783F8ADF80000FFF719FCADF80200009802BD01B5BDF80200FFF714FC16
:20250000BDF80000BDE80240FEF774B838B5DFF88848DFF888580020A4F8FC0FE820208044
:2025200040F61470A4F8E80004F1E8006860002000F003F8A8606C6031BDF8B500250026F3
:20254000071D17F003001CBF391D0F1AFFF7C8FF0146DFF84808BFB20160112FB4BF446897
:2025600084682088030403D580F40040002616E0330010D02B88228813442B809BB2BB425C
:202580000DD32C461846A4B1C01B80B20428ACBFE053278809E0B842F5DA01262546044424
:2025A00020880028DED1002403E047F4004724F8047B00F09BFB2046F2BD10B50446FFF7D8
:2025C0008FFFDFF8D817086034F8042CC2F30E0224F8042C221F4B689A4238BF4A60BDE8BC
:2025E000104088E738B50446FFF77AFF00220C23DFF8AC175343CD18A96C21B18C4203D088
:20260000521C032AF3D3F4E0FFF775FF05F1480032BD70B50546FFF763FF044600210C228D
:20262000DFF87C074A438618B06C48B1854211D0491C0329F3D32046FFF75DFF002070BDFC
:202640003065B56400220021FFF708FFF06408B900F070FC2046FFF74EFF06F1480070BD06
:2026600038B50446FFF73CFF0025DFF834270C216943515A21B18C4206D06D1C062DF6D31C
:20268000FFF739FFFF2032BDFFF735FFA8B232BD10B504462088FFF7E3FFFF2800D16FE1B4
:2026A0000C21DFF8FC2648431044816811B96FF0010010BD2046BDE81040084702460FF242
:2026C000C470104710B500200C21DFF8D426002401FB00F31344401C03289C641C65F7D350
:2026E0000020002301FB00F4401C13530628F9D3082010800FF275709060BDE8104005E77C
:2027000070B590B0FDF772FF05466846FFF7E1FE05204FF44871069008914FF20100DFF8B8
:2027200084160490059100226946DFF87C06FFF799FE040006D0FFF7D3FE06462046FFF7D5
:2027400068FF08B900F0F6FB3046FFF7D4FE2846FDF750FF10B070BDF8B50446FDF74EFF5C
:20276000FFF757FF0546FFF7BBFEA388DFF83066014600220C27574306EB070CBCF800008D
:2027800030B183420FD0521C062AF3D300F0D2FB301DACF80030C551A068CCF80800A28165
:2027A00068682061C7E200F0A1FA6FF00200F2BD38B500F047F9FFF72CFF04000DD0FFF76F
:2027C0008FFE014600220C23DFF8D40553430344188820B1521C062AF5D300F0ABFB4FF695
:2027E000F87018805C6000209860AA806068A8600846FFF780FE002032BD10B50446606863
:202800000C3080B2FFF799FE00B91AE06168018100210160FF2181720C30A060002010BD01
:2028200080B540680C3811E080B286E610B50446606880B2FFF781FEA06000B901E00020B0
:2028400010BD6FF0030010BD80B54068FFF7B5FE002002BD38B504460D46FFF741FE002137
:2028600045F80C1C226812B9256006E00A4652F80C1C0029FAD142F80C5CBDE832403AE6A4
:202880002DE9F04104466FF00208E068A0F10C05E0880628BCBFA18806290BDAFFF720FEF2
:2028A000E288DFF8FC740C26391D7243895819B9FFF721FE404617E0FFF71DFEA088287113
:2028C000E0886871207AA871381DE288E168724380580830FFF7BEFFE088391D464388595C
:2028E0004068FFF7C3FD0020BDE8F08170B500F0A9F8FFF777FE040002D16FF0040070BDBC
:20290000FFF7EEFD0146A068002640B10646A6F10C000268A26000220260FF22827200F08C
:20292000E5F9AE60A6F10C010EB9022070BD0879A8804879E880002070BD06280ADA0C2292
:202940005043DFF85C24105A00281CBF4FF6F872904202D14FF0FF30704708800020704748
:20296000811D8088E9E710B50446E088FFF778FEFF2800D104E0E0802046BDE810407FE701
:202980004FF0FF3010BD3EB50546FFF7AFFF040017D1A8886946FFF7D0FF78B1A8680290BF
:2029A0000821ADF804100322ADF8062001A8DFF8FC138A6890476FF005003EBDBDF80000D9
:2029C000A88020463EBD30B5DFF8E4532A680C464FF47A71A1FB00010023FFF72FFC002365
:2029E00099424FF0004201D8904202D36FF0020030BD2060002030BD38B500F023F8FFF732
:202A0000F1FD0446FDF752FE002818BF012800D014B96FF0040032BD686840B90090009931
:202A20006068FFF727FD401E8041C00F32BD10F1010F08BF4FF0FF30F0D000F055F900286B
:202A4000EDD032BD0546FDF7D9BD80B54068FFF70DFD002002BD00F06DFA00BF80B5406846
:202A6000FFF70CFD002002BD80B54068FFF70AFD002002BD80B5FFF709FDFFF70BFD002070
:202A800002BD80B5FDF7B2FDFFF74AF9002002BD10B58CB004466846FFF714FDE02100F096
:202AA00013F808B900F046FA0BE010B58CB004466846FFF707FDE16800F006F808B900F054
:202AC00039FA00200CB010BD08910023A16860686A46FFF7E3BC10B50446FFF7E3FC6060A4
:202AE000002010BD0146886849680847F0B507468BB0BC68AD4D6CBB0C20FFF71EFD0400FF
:202B00006FF003061ED008232422002101A8FFF7CDFC0020ADF81400069007940023796857
:202B2000A44801AAFFF7C6FC206068B90C210820ADF80210ADF800006846A9688847204600
:202B4000FFF73BFD304618E0F86860603869A060BC600AE02868804706462068FDF752FDA4
:202B60003869A06030466968884779682068FDF74DFD2068FDF74EFD00200BB0F0BD10B5E3
:202B8000044682B0606800F0AFF820B9009860602046FFF7ABFF16BD80B5406810B96FF04B
:202BA000020002BD0068FDF72DFD002002BD80490A6842600020704750B504467C480268BE
:202BC0006FF00046A6FB020100234FF47A72FFF735FB002399424FF0004201D8904200D337
:202BE00030466060002050BD2DE9F04186B00746FDF704FDFFF7F6FC0646002001900025A9
:202C0000FDF754FD002818BF012800D016B96FF0040066E0786808B900900AE010F1010FD3
:202C200003D14FF0FF31009103E000F05DF8040056D1FFF737FC804600980124804414E009
:202C4000059901A8FFF706FE009901246D1C11F1010F0AD0080008D0FFF724FCB8EB000067
:202C600025D00099814222D3009000997068FFF701FCE0B103A8FFF739FE0400E4D1BDF843
:202C8000100002A9FFF759FE0028D9D1059ABDF81210BDF80800BB6898470028D0D0BDF8A8
:202CA0000800B881BDF81200F88105983861019FFFF716FC014657B13A4600E0024652F874
:202CC0000C0C0028FAD1B06842F80C0CB76000F00DF8002D03E07068FFF7C8FB6D1EFAD17C
:202CE000204606B0BDE8F08169466CE60846FFF702BCF8B5FFF7A6FE0446FDF7D7FC00281F
:202D000018BF01286FF0040612D0FFF7E9FB01460022234B0C275743D85B38B1D81947682E
:202D20003868A04206D0521C062AF3D3FFF7DEFF3046F2BDAA800846FFF7DDFB0020F2BDCA
:202D4000F8B50446FDF7B2FC002818BF012802D16FF00400F2BDFDF751FC0546FFF7C0FB90
:202D6000A7880F4B014600220C265643985B20B1B84207D0521C062AF6D3FFF7B7FF4FF0AF
:202D8000FF30F2BD981940680268AA420CBF01200020A060CFE70000500C0020843D002087
:202DA0003C36002064020020BD260000FC02002030850000E52A000070B504463C20FFF775
:202DC000BCFB05006FF0030611D0FFF782FB207AA8610022608928622946E068286160683B
:202DE000FFF740FB04462846FFF7E7FB0CB9304670BD002070BD70B505462420FFF79DFB1B
:202E000004006FF0030614D0082324220021FFF755FB2879012804BF01212176A868002212
:202E20002146FFF71BFBE8602046FFF7C6FBE86808B9304670BD002070BD10B5044682B078
:202E4000A06840B9009000996068FFF713FB401E8041C00F16BD10F1010F08BF4FF0FF3075
:202E6000F0D0FFF741FF0028EDD016BD4188292902D36FF0010070470FF2140252F821100B
:202E80000847000091260000E1240000F724000059270000B1270000FB2700002128000049
:202EA0002D2800004928000081280000ED2800006729000087290000F92900004B2A0000B7
:202EC000572A00005D2A0000692A0000752A0000832A0000912A0000D72A00007F2B0000A5
:202EE000AF2B0000B92B000061290000BD7E0000857F0000E92B0000F32C0000ED2A000001
:202F0000992B00001F7F0000577F00006B7F0000412D0000BD7F0000D97F0000B92D0000A7
:202F2000F72D00003B2E0000CF7F0000E77F0000AB2A0000012000F001B800002021090364
:202F400026311820ABBEF9E7DFF800F025B101102DE9F04DDFF840590F469046002440F2A7
:202F6000013B95F801C0B5F810A02979EA78B0EB0B0640F67B4332D0761E37D0761E3DD088
:202F8000B61E41D0761E00F08380761E00F08680761E00F09280761E00F0A280761E00F07B
:202FA000A780761E00F0AC80761E00F0B280761E00F0B780F61E00F0BC80761E00F0C180C4
:202FC000761E00F0C680761E00F0CB80761E00F0D080761F00F0D880B61E2FD0ECE0102FC9
:202FE00005D11022414605F1A4008FE0102F40F0E1801022414605F1B40087E0042F70D12B
:20300000D8F80000E862E2E0012F6AD101293DD098F80000E87042B10028F4D1BCF1020FAC
:203020001ED0BCF1050FEED11AE00028EBD0BCF1010F27D0BCF1040F21D123E0012F50D18B
:20304000012A23D098F80000287171B100280BD1BCF1030F1CBFBCF1070FBCF1050F03D111
:203060005FFA8AF000F083FEB1E00028FCD0BCF1010F1CBFBCF1040FBCF1060F02D0BCF1EE
:20308000050F02D1012000F0FFFBA0E012249EE0022F26D1B8F80000A88298E0202F0DDA5A
:2030A00005F1CC041F21204601F096F800F092F86F7123463A4601210DE0202F7ADA05F13A
:2030C000EC041F21204601F087F800F083F8AF7123463A4600215FFA8AF000F02BFE73E016
:2030E000012F67D198F80000042863DCE8716EE0012F5FD198F8000004285BDA287266E095
:20310000062F57D10622414605F5867001F068F85DE0012F4ED198F8000007284ADC687217
:2031200055E0012F46D198F80000042842DAA8724DE0012F3ED198F8000001283ADCE8728C
:2031400045E000F04CF835D1811F994232D228833DE000F044F82DD1811F99422AD268833D
:2031600035E000F03CF825D1B0F5FA7F22DAA8832DE000F034F81DD1A0F10A0140F6774239
:20318000914217D2E88322E0012F04BF98F8000001280FD105F1800001F0C5F840B900F06D
:2031A00018FB040013D105F15C0001F0C3F80EE016240CE018240AE0272807DA022F05D1A5
:2031C000B8F8001000F0E6FD044600E002242046BDE8F08D3A464146204601F001B8B8F8BD
:2031E0000000022F704738B500244FF440730D46C21ADFF8A41636D0521E36D0521E37D02D
:20320000521E38D0521E39D0521E3AD0521E3CD0521E3CD0521E3DD0521E3ED0521E3ED0D2
:20322000521E3ED0521E40D0521E40D0521E40D0921E40D0521E40D0521E40D0521E40D050
:20324000521E40D0521E40D0521E45D0521E45D0521E45D0921E47D0521E14D0521E41D043
:20326000521E43D045E0887841E01022A4312FE01022B4312CE0C86A286041E00622C43154
:2032800026E0C87833E0087931E0888A35E04A79CC311DE08A79EC311AE0C87927E0087A7B
:2032A00025E0062201F5867112E0487A1FE0887A1DE0C88A21E0C87A1FE0088B1DE0488B4B
:2032C0001BE0888B19E0C88B17E0062201F58A71284600F085FF13E0088C0EE0488C0CE06D
:2032E000888C0AE0087B02E0487800E0487B287006E0272803DA00F069FD288000E002245A
:20330000204632BD1CB5DFF89045617889B900B1206304F12C00019004F1B400009004F1AC
:20332000A403208AA1780022C0B200F0C1FC002016BD112016BDDFF860054178062918BFF0
:20334000072905D1C18A008A1322C0B200F0D6BC1220704700B58FB008233C220021684634
:20336000FFF778F8DFF8340500F1500107914FF4DC7203210892069100236A460FF2C90179
:20338000FFF7E2FD0FB000BD70B5012184B000F010F9DFF80C15DFF800450A680FF2055587
:2033A0009047BDF80400208200260298A062002060704FF6FF70E08200F028FD207000214D
:2033C00001200190009100230022294604F1380000F072FF022000F02FF804F15C0000F0EE
:2033E0006BFF042000F028F804F1800000F064FF0420A07004F1A40200200021002300250F
:2034000082E82B0004F1B405E06285E84B00E0712072A172072060721021022000F092FEAD
:203420002A461021032000F08DFE04F12C020421042000F087FE7FBD0021019000910023CA
:203440000022294670470000FEB5FFF79DFFDFF84864DFF84C5406F180070820ADF800009A
:203460000A21ADF802104FF0FF300190684629688847002849D1092100F09BF8296888470E
:20348000BDF80610029C00283FD1BDF80400102804BF328A91422DD120884FF6FF71884223
:2034A00009D16188480425D506F12C020421042000F05DFE1EE02078A22805D0D02804BF5A
:2034C000204600F07DF815E06079132812D12089012804BFB17B022905D1384600F02AFFDC
:2034E000FFF729FF06E0052000F070FC0146384600F009FF4CB103210820ADF80210ADF8E5
:2035000000000194684629688847708AC1072FD54FF6FE7108407082F1783079014327D007
:2035200018B103208DF800000CE0F179307A8DF800108DF80100062206F586710DF10200E5
:2035400000F04EFE707A8DF808006946B07A8DF80900308AC0B200F0E9FB00281FBF082023
:203560007070306B002803D0016809B108208847708A810706D54FF6FD7108407082002051
:2035800000F027F9708A41070AD54FF6FB7108407082B07B012804D0022808BFFFF7CBFE37
:2035A0005BE70090F38BB28B718B308B00F045F953E70820ADF80210ADF800006846704776
:2035C000F8B50546B44CA97862782379080004F58A7604F1800711D002293CD0032918BFC4
:2035E00004295BD005297DD0062900F0A880072900F0CA800F2900F0E680F1BD687801002A
:203600001BD104F1A4021021022000F0B0FD04F1B4021021032000F0AAFD0622E91C04F17B
:20362000C40000F0DDFD0120607004F1CC03208A62790121C0B200F07DFB08B10820607015
:20364000206B00281CBF0168002903D06078BDE8F4400847F1BD6978D1B9E87840B1208A63
:20366000A27904F1EC03C0B200F064FB68700FE0022A18BF072A0BD0062A01D1012B07D1AE
:2036800004F1380000F04FFE10B9012000F0FCF868780028DED008216170D1E7687800BBEF
:2036A000E078032908D1062A08BF0720C7D000280CBF03200220C2E7A18A31B103430AD0EA
:2036C00004F1380000F01FFE05E0012807BF0020E070002020716078072814BF0420062097
:2036E000ADE7ABE7687820BB0622291D304600F077FD6889E08206206070E8892084288A91
:203700006084688AA084E8782073E07A012809D11F2000F05BFB4FF47A71414304F15C00D7
:2037200000F0F1FD6A89E8780423291D00F0D1F986E7312882D10020E07004207FE7A888EE
:2037400000F0DEF90621304600F046FD002020846084A084A879607304F15C0000F0EAFDEA
:20376000384600F0E7FD4FF6FF70E082207908B1032191E7A87908280CBF052004206070BE
:20378000012000F081F85BE7384600F0D3FD687800280AD1E9882184288960846889A0847C
:2037A00004F15C0000F0BFFD00287FF453AF636B002B3FF44FAF1B68A28C618C208C01B04A
:2037C000BDE8F0401847A888BDE8F440052100F0D3BAFEB5304D298B0446288C884224BF7A
:2037E000698B814207D3688CA98B884202BFA88CE98B88421ED0052000F0E8FA0646288B2F
:20380000E98AADF80200ADF80010688BADF80400A88BADF80600E88BADF80800684600F0A1
:2038200068FA070007D1AC73314605F1800000F06AFD00E018273846FEBD70B5164C657828
:20384000062D01D0142070BD40F67A45861FAE423CBF8E1FAE4215D2B2F5FA7F12DAA3F15A
:203860000A0540F67646B5420CD220836183A283E3830498FFF7ADFF04F15C0000F05AFD8A
:20388000002070BD182070BD03494A8A10434882886AFEF7EBBD00005006002034320020AE
:2038A00004030020F0E70000E0B50821ADF80010022200F00EF808B100200EBD02980EBD74
:2038C00000B583B00821ADF80010032200F001F807BDADF8022001906846DFF868130A6886
:2038E00010471FB5ADF806108DF80820ADF804000824DFF850130A680393ADF80040ADF894
:2039000002406846904704B010BD30B585B01446029108221D46ADF800201923DFF82413BC
:203920000A680190ADF802306846904714B1BDF80C10218015B1BDF80E1029800899049A70
:203940000A6005B030BD00B51A2183B00820ADF80210ADF80000FFF7BFFF10B9BDF804007E
:203960000EBDFF200EBDE0B5ADF80000ADF806100020DFF8D0120A68ADF802006846904726
:2039800010B99DF808000EBDFF200EBD50B110F1040F01D10420704710F1030F01D1022043
:2039A0007047012070478123037042EAC112002342F47C42C3708280704782230370818046
:2039C0000023C370827170473EB50D462021ADF80210044610220820ADF80420ADF8000097
:2039E000FFF77AFF20B9029810B16FF004003EBD00950023002221464FF0FF30FFF785FF9D
:203A00003EBD38B50B461446D978012903D19D88DFF8DC140D8000F030F858B900906946E3
:203A20002046FFF7D1FF28B900984478FFF748FF204632BD1EE038B51C4615460B4600F0AA
:203A40001CF8B8B9009069462846FFF7BDFF88B900984578280002BF0098C179A14204D179
:203A600081680498224600F0BBFB0098FFF728FF284632BDFFF78AFF32BD0222102130E7C7
:203A8000F8B500F054FA00F0BBF904000ED03A463146FFF792FF294600F072FA2072FFF7E4
:203AA00052FF234601B0BDE8F0403AE0F1BD10220121E5E738B500F0DEF9040004D004222C
:203AC00000F032F8A56026E031BD2581A672E76039E72DE9F04100F056F904000FD014220F
:203AE00000F022F82572E660278284F81280FFF72AFF2146BDE8F041DFF8F82381E72FE063
:203B000038B500F033F8040001D0152200E031BD00F00AF82581FFF716FF234601B0BDE861
:203B2000304002221021DCE6012146E70022042175E02DE9F04100F026F9040010D00222B5
:203B40000421FFF73AFFA560A681A773C4F81080FFF7F9FE2146BDE8F041DFF89C2350E788
:203B60000420BDE8F0811022022189E705460A209AE6022121E7F8B500F077F904000AD03B
:203B80001522FFF7F6FFFFF7A0FF2146BDE8F840DFF8682335E70420F2BD002203213EE075
:203BA0001CB50FF24903019306240094032300F04BF816BD1078802802BF518840F27F608E
:203BC000814208D19088984202BF91790098814201D1012070470020704710B582B006248F
:203BE000FFE70094FFF7E6FF16BD00000323F4E71078802802BF518840F27F6081420CD121
:203C00009088032818BF042807D1907900281CBF1028112801D10120704700207047F8B5DB
:203C200000F01BFA04000BD03A463146FFF7C5FE00F025F92146BDE8F840DFF8C422E0E61B
:203C40000420F2BD040300202DE9F04100F029F804000AD0069A4146FFF7AFFE25816681DD
:203C6000FFF735FF079A00F031BA79E74246032199E670B582B004460D461646FFF763FE6C
:203C800003461B200090DBB232462946204600F0FFF876BD10B582B01D24009400F0F8F870
:203CA00016BD05460E46174698461020FFF7FCBD2DE9F04180460E4617461D461820FFF729
:203CC000F3FD040014D0002200F05AF800F057F920726672A772E560069820610798606121
:203CE000FFF731FE2146BDE8F0410FF2C92288E636E70FF2C523112200211CE1F8B500F014
:203D0000C1F8040010D00A2200F03AF8294600F037F9207266812773FFF715FE2146BDE801
:203D2000F8400FF299226CE60420F2BD0FF29123062211E12DE9F04180460E4617461D467A
:203D40001020FFF7B1FD040010D0072200F018F800F015F920726672A772E560FFF7F3FDD6
:203D60002146BDE8F0410FF25D224AE6F8E60FF2592308220021EFE00FF251231022C5E095
:203D80000421FFF710BE05460E46174698461420FFF78ABD70B500F014F804000BD030229D
:203DA000FFF7EEFF00F009F82146BDE870400FF22122FFF726BE042070BD25816681FFF781
:203DC000C2BD05460E460C20FFF76EBD30B583B000210546ADF8041000F012F804000CD061
:203DE0003122FFF7CDFF2581FFF7ADFD01A9009102230FF2E11200F006F8BDF804003EBD72
:203E00000A20FFF751BD2146FFF715BE1CB500218DF8041000F011F804000BD01222FFF7B7
:203E200083FEFFF790FD01A9009101230FF2A912FFF7E9FF9DF8040016BD0820FFF734BD0A
:203E4000F8B500F012F804000DD03622FFF798FF25816681FFF73BFE2146BDE8F8400FF2F4
:203E60008912FFF7CEBD0420F2BD05460E4617461020FFF719BD05460C20FFF715BDA56017
:203E8000FFF761BD05460E4617460E20FFF70CBD2DE9F041FFF777FF040011D0069AFFF7F7
:203EA000E6FE25812774E66000F069F86074FFF74AFD2146BDE8F0410FF26112FFF7A1BD30
:203EC000FFF74EBE38B515460E4A146834B1009302460B4629460120A04732BD002032BD3E
:203EE0000A4609490B6813B10146012018477047400C002041400000514000004740000066
:203F0000F13B0000AC3D0020B03D00202DE9F04100F00DF898460C20FFF7C6FC040004D089
:203F200000F016F82581A672CDE0FFF719BE05460E46174670472DE9F041FFF7B2FE0400A7
:203F400004D000F005F8A560E660BCE0FFF708BE3A460421FFF727BD2DE9F041FFF7A1FEA2
:203F6000040007D0FFF7F4FF294600F009F82072E660A8E0FFF7F4BD25816681A7814146DA
:203F80005020FFF7F0BC1078802802BF518840F27F6081420CD190884FF680710140B1F55F
:203FA0007E4F04BF00F07F00984201D101207047002070470023E6E71123E4E70A23E2E7C2
:203FC0000623E0E70723DEE70823DCE71023DAE73023D8E73123D6E780B5122300930123DC
:203FE000FFF7E8FD02BD00003623CCE71078802802BF518840F27F6081420DD190884FF642
:20400000807101404FF68052914204BF00F07F00984201D1012070470020704770B5044688
:204020000D4616461D23FFF7E1FF18B91B2300F003F800B1012070BD324629462046D5E7B9
:2040400080B51423CAE780B5152300930223C7E780B5022300930423C2E705460E461746B7
:204060000C20FFF721BC2DE9F041FFF760FF98460E20FFF719FC040009D000F01CF8268106
:204080006781A4F80C80FFF75EFC069A1EE0FFF767BD2DE9F041FFF776FE040009D000F08A
:2040A0000AF8A660E760C4F81080FFF74CFC069A0CE0FFF755BD812121700120E070A580CA
:2040C00070472681E760FFF73EFC42462146BDE8F041FFF796BC1078802802BF518840F202
:2040E0007F60814204BF9088984201D101207047002070470090002300227047FFF7C9FF9E
:2041000002BD80B501460FF22D00FFF7F3FF4FF60C40F3E738B504461546FFF731FF0FF22A
:204120001D010091C2B22B4621464FF61840FFF79AFF32BD4FF60C43CDE700004FF6184381
:20414000C9E70000F8B5FFF790FE04000DD0012200F022F825726672FFF7B9FC2146BDE84A
:20416000F8400FF26D02FFF74CBC0420F2BDF8B5FFF77BFE04000DD0022200F00DF8257219
:204180006672FFF7A4FC2146BDE8F8400FF24502FFF737BC0420F2BD0521FFF704BC107805
:2041A000802802BF518840F27F6081420DD190884FF6807101404FF68062914204BF00F0CF
:2041C0007F00984201D1012070470020704700000123E4E70223E2E7002200F025B9000038
:2041E00062B38B0708D0521E11F8013B00F8013B00F024808B07F6D1830740F0208000BF51
:20420000103A07D330B4B1E83810103AA0E83810F9D230BC530724BFB1E80810A0E8081056
:2042200044BF51F8043B40F8043BD20724BF31F8022B20F8022B44BF0B7803707047121F44
:2042400017D35B0009D151F8043B20F8023B1B0C121F20F8023BF6D20BE051F8043B00F882
:20426000013B1B0A20F8023B1B0C121F00F8013BF3D238BF121D521E24BF11F8013B00F881
:20428000013BF8D870470000DFF800F0A9C10110DFF800F079B5011000B583B00821ADF85D
:2042A00000100522ADF80220019000F001F807BD684655490A6810472DE9F04389B0804665
:2042C000894617461D46109C119E0823242200216846FEF7EBF84D4906964FF47A700A680B
:2042E000B0FBF2F0454305954743ADF810406B463A4649464046FFF7CBFF404609B0BDE8A6
:20430000F083FCF787B938B504460D46FCF737FA10B12046FCF776F900F00EF82046BDE8BF
:204320003240FCF777B980B5FCF729FA00B10120C0B202BDFCF766B9344A10684FF47A7164
:20434000B1FBF0F0454329462046FCF75FB910B504460021FCF76EF9204610BD70B50C4635
:204360000421164684B00546ADF802100C2208200192ADF80000FFF79BFF58B9029949B1C2
:204380008E602846FCF74EF914B12046FEF76EF8012003E03046FFF77FFF002004B070BD12
:2043A00010B50446FCF73AF938B92046FFF76CFF8468FFF771FF204610BD002010BD70B579
:2043C00086B0044668460FF24C011422FFF718FF0F4830250570831C78254570A21D062126
:2043E00012F8015D2D09491E1DF8056003F8016B167806F00F061DF8065003F8015BEFD1BC
:2044000006B070BD000000000403002030850000543D00203031323334353637383941429C
:204420004344454600000000401810F0030308D0C91A1FD3DB0748BF00F8012D28BF20F851
:20444000022D130030B414461546103928BF20E93C00FAD8490728BF20E90C0048BF40F8AF
:20446000042D890028BF20F8022D48BF00F8012D30BC7047C91818BF00F8012DCB0728BFED
:2044800000F8012D7047000000B583B00821ADF80010032211E0E0B50821ADF800100422CA
:2044A00000F00EF808B100200EBD02980EBD00B583B00821ADF80010052200F001F807BD63
:2044C000ADF8022001906846DFF850170A68104700B58FB008233C2200216846FDF7BAFFD6
:2044E000DFF83C0700F1500107914FF4217201210892069100236A460FF2C121FEF724FDD3
:204500000FB000BD2DE9F04104460D460026DFF81487DFF8147710E0B8680122214600F0B7
:204520004BFE4046FDF786FEB8680022214600F043FE4046FDF77EFE761CF0B2A842EBD388
:20454000BDE8F08138B500250329044604D100F046FE10B9012500E00D462A462146BDE816
:204560003840DFF8C406806800F026BE30B501218DB000F03DFADFF8A416DFF8AC460A682F
:204580000FF21D659047BDF804000FF2A46160800298E060D1E9002303A8C0E90023FFF7FE
:2045A000B0FD04F1C80104F11C0000F048FDA06004F17000FFF7CBFE206104F17C00FFF73E
:2045C000C6FE60610021042001900091002341F28832294604F12800FFF76EFE10200021A0
:2045E0000190009100234FF47A72294604F14C00FFF762FE00F080FE06211F20FFF7CAFBB2
:204600000021ADF80A10012010218DF801008DF80000ADF80810ADF80610C8200021ADF837
:204620000410ADF802000DF10102012140F20530FEF78EFC0DF10A02022140F20630FEF72C
:2046400087FC04F188021E214FF44270FEF780FC04F1A802072140F20730FEF779FC6A4669
:2046600001214FF44470FEF773FC02AA022140F21130FEF76DFC0DF10602022140F2123080
:20468000FEF766FC01AA022140F21330FEF760FC0DF1020202214FF44570FEF759FC04F1D3
:2046A000B00215210020FFF77BFA20210620FFF771FB20210720FFF76DFB20210820FFF799
:2046C00069FB20210920FFF765FB01218DF803100020019000218DF8011001208DF80200EC
:2046E0008DF8000001AA04214FF48160FFF7A8FB0DF1030201214FF48060FFF7A1FB0DF1D0
:204700000202012140F20240FFF79AFB0DF10102012140F20340FFF793FB6A46012140F254
:204720000640FFF78DFB4FF0FF30FFF736FA4FF0FF30FFF7FBF900F025FE4FF0FF3000F058
:204740005AFF04F1E00000F084FF04F1D400FEF7D9FD04F1D800FFF7ADF9DFF8D0044FF4CD
:20476000E13181610021417781776088C0B2FFF79EF960880FF23944C0B2FFF7F4F920466C
:2047800001F04EFA204601F0ABFA00210FF2A84000F0CFFD05A80FF2B0411D22FFF720FD2D
:2047A00005A801F087FB81B205A801F03CFA01211920FFF7A7FE0DB030BD00002DE9F04FDD
:2047C00085B0FFF7D3FEDFF864840FF2E0590FF2E84ADFF85454DFF8446402E0404600F05B
:2047E000B3FF0820ADF800000A21ADF802104FF0FF300190684631688847002840F0D88093
:20480000092100F0F5F831688847BDF80620029C00285DD1BDF804000127102804BF69888D
:204820008A424FD120884FF6FF72904225D1A178080747D5A869002844D06978491C6970B6
:2048400000F1080201794088FFF795F9162818BF042883460AD0A869698840880022C9B24C
:20486000FFF758FC584600F0CAF82BE0697805230A22504600F076FD24E02078B02821D1FF
:204880006278162A0BD160880822C9B2FFF742FC98B9012000F0B3F8AC61002712E0207995
:2048A0007E2803D1217A0FF2F43004E07F2804D121890FF2F83000F0BCF8217904F1080050
:2048C000FFF70EFB002C1EBF002F2046FFF7DCFD6869FBF7A3FE002845D16869FBF7A6FE63
:2048E0008468002C3FD02878062818BF07283AD12078102809D0202835D1601CC0B200F0DD
:20490000FDFE6869FFF74CFD2AE0617D621C002000F0A7FE80B1014604230A220FF248302D
:2049200000F020FD617D0FF24C3000F082F80621601C00F0FEFC16E0607D00F0D0FE6869B6
:20494000FFF72EFD032100F021F96869FBF766FE30B9E868FDF78AFD02E0A07800F070F8DB
:204960002046FFF7A4FD2869FBF758FE00BB2869FFF716FD0400F6D020880128EDD002288A
:20498000EED1A778684649461422FFF739FC57B1022FE5D16946022000F06AFF05F14C0040
:2049A000FFF7AFFCDCE76946002000F061FFD7E7A988480707D54FF6FB700140A98005F14A
:2049C0002800FFF79EFCA988C80610D54FF6EF700140A980404601F098F900283FF4FEAE1E
:2049E000014605230A220FF29C2000F0BBFCF8E60820ADF80210ADF800006846704710B52C
:204A0000894C0146A06998B119B961780FF2B82006E001790830FFF763FA61780FF2BC2003
:204A200000F007F8A069FFF72FFD0020A061607010BD05230A2200F095BC01460120D7E0EA
:204A40002DE9FF410446401E0728774D71A672A700F29480DFE800F00431925D7340598EBA
:204A600002A94FF44170FEF7BEFB9DF808108DF80010002002A94A788DF801208A788DF8ED
:204A8000022000228DF804208DF803204A798DF807200A79C9788DF806208DF805106A4659
:204AA000082100F077FC02A8FFF789FC012100F040FC02210FF2382062E001211920FFF7E8
:204AC00041FD27210FF2342001F0ADF800F060F802210FF2502053E0694640F21530FEF73B
:204AE00082FB012100F052F814210FF2442001F09AF800F04DF802210FF24C2000F019FCF6
:204B00006846FFF75CFC03213AE002210FF2442036E005F12800FFF70DFC1420FFF76FFF08
:204B200000F033F800F034F80FF240280C21404601F079F800F02CF8022140460EE01420E1
:204B4000FFF75DFF00F021F818210FF2302001F06AF800F01DF802210FF23C2000F0E9FBC4
:204B60000321304600F0E5FB0421304600F0E1FB052104E002210FF22C2001E00221304670
:204B800000F0D7FB2C70BDE8FF8100211B20D9E40221384601F047B80146022028E0000077
:204BA00021498A8810438880C868FDF75FBC00002DE9F0411C4E05463078062818BF072807
:204BC0008846174612D11620FFF765FC04000DD025703A464146601CFFF702FB6775F16819
:204BE00070692246BDE8F041FFF7B8BBBDE8F08138B504460D460420FFF74DFC48B10480B5
:204C000085700246084BD9681869BDE83840FFF7A5BB31BD000000000A0D000004030020A3
:204C2000E82A002000127A0058080020A43C0020000102030405000053505020424C452021
:204C4000536572766572000048656C6C6F2066726F6D2053505020424C45205365727665EA
:204C600072210A0D000000004E6F74694641494C3A00000044617461206C656E6774683A44
:204C8000000000004641494C555245205541525420436F6E6669673A000000004643205601
:204CA000696F6C617465643A000000004D54552053697A653A0000005273702073656E64EE
:204CC0002072657472793A005273702073656E742C2072657472793A000000005273702024
:204CE0007265747279206661696C65643A000000496E697469616C697A65640041647665C9
:204D000072746973696E672E2E2E57616974696E6720666F7220636F6E6E656374696F6E7F
:204D20002E2E2E004164766572746973696E6700436F6E6E656374656420746F20636C697B
:204D4000656E742100000000436F6E6E6563746564000000436F6E6E656374656420416400
:204D6000766572746973696E67000000446973636F6E6E6563746564000000004469736302
:204D80006F6E6E65637465642E2E2E54696D6564204F75740000000054696D6564204F7517
:204DA000740000004572726F72000000000000000000000000000000000000000000000075
:204DC000DFF800F03DC10110DFF800F029AF0110DFF800F009B7011090FAA0F0B0FA80F081
:204DE0007047DFF8CC14C4E180B5DFF8C8040068FFF7F2FF0121DFF8C02481401160012148
:204E0000DFF8B8241160DFF8B8140A6890420BD201EB80014A683AB11368190004D0C1B2C5
:204E20001046BDE80440184701BDF8B50D00ECB244BF85F0204585F4C045A10001F180410F
:204E400001F5012100EA05060A68DFF878743E4085EA020382433243034000F4E0261B0E7E
:204E6000B6F5E02F03F0010302D1D30105D411E010F4E02F08BF002B0CD002F4E023B3F58E
:204E8000A02F04D0B3F5C02F04D1052300E0062363F312420A60410205D5A90DDFF82824C8
:204EA00001F00101115500020ED5FCF739FF00F07EF92C024CBF1C4600249A4322430A60B7
:204EC000BDE8F240FCF730BFF1BD002948BF0021800000F1804000F5012001F03F01026838
:204EE000920941EA8211016070472DE9F04F97B08146FDF737FA0025012804D1FDF728FA80
:204F0000022808BF0125DFF8C403C168C1F3815101294FF0010A04D10068000E0AFA00F07A
:204F20000543DFF8AC03DFF898630078DFF8A4030068C0F346003060FDF714FA012802D1EC
:204F40003068401C30603168DFF88C7319B1FF22384600F0CBFF4FF00008002405E0CC55CA
:204F60000AFA00F040EA0808641C59F82400C1B2FF2908D03268914203D225FA00F2D2076F
:204F8000EDD5022058E00920FBF716FEC6F880900823242200210DA8FDF790FA8DF84CA0C2
:204FA0000DAA012106F1A000FFF712FF0024DFF82CA30BE05046FFF738FF4FF0FF31E0B201
:204FC000FFF783FF0020CBF80400641C3068844212D225FA04F0C00706EB840B48BF04202B
:204FE000F1D428FA04F0C00747BFE05D59F82010E0B240F4C041DDE708233022002101A879
:20500000FFF7DEFE0020009001ABDFF8D422102106F18400FFF7D8FEDFF8C802016821F4FE
:205020007C5141F4005101600120DFF8BC120860DFF8B8120860002017B0BDE8F08F2DE964
:20504000F041DFF87C6204460D4606F1A00800F05AF800273DB9002020606060A060002748
:205060001DB31EE07F1C15F82700FF28F3D03168884204D206EB800040680028F2D0002449
:2050800013E006EB800101224C6002FA00F0616808436060204655F82720904900F0C4F89D
:2050A0007F1C15F82700FF28EBD14046FDF7DEF92046BDE8F0812DE9F04105000E46F7B228
:2050C00003D07F4C2068874201D3022019E004F1A00800F018F804EB8700416809B1012556
:2050E0000BE0456001216868B9400843686032467A49284600F098F800254046FDF7B6F9AB
:205100002846BDE8F0814FF0FF314046FDF7B2B910B50C46F0B1416821FA04F2D20719D57E
:205120000122A240914341600020654901EB840250606948225C6948FF2A0EBF44F020419A
:20514000D1F8801051F82210FFF76FFE4FF0FF312046A5E0022010BD10B5044605E0FFF7E5
:205160003BFEC1B22046FFF7D3FF60680028F6D110BD096821FA00F202F00100704738B5BC
:205180000C464F4915460A68944204D201EB84014968814201D0022032BDFCF7C1FD00F044
:2051A00006F89A4305FA04F31A430A607CE050490A680123A340704710B5414B1C68A1427A
:2051C00004D203EB81035B68834201D0022010BD10003D4A18BF01205054002010BD00E639
:2051E00010B5374B1C68CAB2A24204D203EB82025268824201D0022010BD0A464FF4E0216A
:2052000000F012F8002010BD10B10160002070470220704780B500F01BF880F0005080F469
:20522000C04040F0004002BD38B5254C25680B461146CAB2AA4204D204EB8202526882427D
:2052400001D0022032BD1846FFF7EFFD002032BD38B5044627481B4950F82400084044EA31
:2052600000052046FFF7BDFD08B145F480052048006820FA04F1C80748BF45F4000528463B
:2052800032BD0B4610B511460D4A1468A34204D202EB83025268824201D0022010BD184616
:2052A000FFF713FE002010BDFCF73EFD002032BD80200240E0200240E020026080E200E0F5
:2052C000903B0020007F077F00200240A83F0050C83D0020801208400C3D0020007FC76730
:2052E000E94D0000003009400C40094008000940D02002400010084010B5214C84B004F134
:20530000080104F11000FFF79AFE6060684600F014FE6A46012104F11C0000F017FE206019
:2053200030B1002100F01AFF2068002100F00DFF1FBD70B5124E0446306882B00D4680B1C4
:205340002A46002100F02AFF3068009500232246002100F02CFF3068BDE87C40002100F0A5
:20536000F4BE73BD1CB5064C24683CB1019300920B4602460021204600F06BFE13BD000040
:20538000F80A00200FF21423814810221321FEF7D0BB00002DE9FE45002508280F4690462B
:2053A0007C4E00F28B80DFE800F0050C1824303C48547E00082F77D13A46414606F1080017
:2053C00077E0152F78DA152106F1100001F018F93A46414606F110006BE0152F6CDA152188
:2053E00006F1280001F00CF93A46414606F128005FE0152F60DA152106F1400001F000F95E
:205400003A46414606F1400053E0152F54DA152106F1580001F0F4F83A46414606F15800F1
:2054200047E0152F48DA152106F1700001F0E8F83A46414606F170003BE0152F3CDA06F197
:2054400088041521204601F0DBF83A46414620462FE008200421ADF80000ADF802100197A3
:205460006846DFF834A1DAF800108847C8B9029CBCB1706806F1A00188420AD00821ADF8B3
:20548000001005220190ADF802206846DAF8001088473A4641462046FEF7A2FE74603770A1
:2054A0000DE013250BE0072F06D13A46414606F1B000FEF795FE02E0182500E00225284605
:2054C000BDE8FE852DE9FC4B91464A68107852780A9CDDF82C80DFF8BCC000EB02200026BF
:2054E00080B242F623221D462746801A0CEB070307D0401E052811D9801F20D026382ED05B
:2055000040E0082F2DD8C7F10807B84534BF4446C4F108042C8003F108012EE0D1F80CB0F1
:20552000584600F0C7FC80B2B8421ADBC11B8845B4BF4446041B2C800BEB07011DE09CF8F9
:2055400000000146A1420CD3C01B8045B4BF44460C1B2C80DCF804002A88C1190EE0082F49
:2055600001D3072610E0C7F10707B84534BF4446C4F107042C8003F1B0012A884846FEF7B4
:205580002FFE01E02E800A263046BDE8F68B0000200500203C09002004030020C554000099
:2055A000000000000000000030B50146DFF854040029024652BF0023012349420A2491FB82
:2055C000F4F40A2505FB1411303102F8011B2100F4D113B12D2102F8011B002102F80119D5
:2055E000014605E013780C7802F8014901F8013B9142F7D330BD3EB504460820ADF8000063
:205600000421ADF80210DFF80004DFF800540178890001916846DFF8F8130A689047002813
:2056200014BF002002980100286101D113203EBD4FF6FF7000F0E8FFE00708D50FF2684358
:2056400010220B2105F13C00FEF773FA3EBD00203EBD20B1DFF8BC1308600020704711205B
:205660007047FEB50D4616460027DFF8A04318B1022826D01FD32FE015292BDA142104F1D9
:20568000280000F0BDFF2A46314604F12800FEF7A7FD0FF20D200290FF210B220191009268
:2056A000257304F13C032069002204F1280100F0C5FF074611E007290CD107223146204650
:2056C00005E0032906D10322314604F12800FEF787FD02E0182700E002273846FEBD014606
:2056E00000200A0008D0DFF824235369C91851619171090A51717047182070470128DFF8BE
:205700000C130DD0022806D0082801BFC869401CC861887008E0486A401C4862487003E0B4
:20572000086A401C0862087000207047014600200A0007D0B54A9369C91891611171090A37
:20574000D170704718207047F8B5B34C0178AF4E2170ABA541786170416861608168A16081
:20576000C168E16001692161017D2175417D6175817DA1758169A161017F2177417F61777B
:20578000817FA177C17DE1751721006A20620FF28C2000F048FA00F067F8A0690A21B0FB2C
:2057A000F1F0707210210004000E30720FF2842000F039FAA069FFF7F7FE00F07BFB0746D2
:2057C000A069FFF7F1FEB9B200F02DFA00F04CF8B07A00F0FE0040F00200B0720B210FF28C
:2057E000682000F020FA617FB07A012906D140F00400B0720A210FF25C2005E000F0FB003E
:20580000B0720A210FF2582000F00DFA00F02CF808210FF2582000F006FAB07AA17F19B111
:2058200002290FD007D317E000F0F700B0720D210FF244200EE040F01800B0720D210FF26A
:20584000482007E000F0EF0040F00800B0720C210FF2442000F0E7F900F006F8B07A00F056
:20586000DF00B0720020F2BD0221284600F0DBB910B50B460024654918B1022806D003D3BC
:205880000AE01422283103E0072201E0032208311846FEF7A5FC00E00224204610BD000017
:2058A000F8B50C461046217A0025CA0601D50820F2BD069909B10B20F2BD217810292AD156
:2058C0006168524E0A7B497B02EB012292B24CF2E107D21B04D0521E05D0521E12D018E04C
:2058E000327B1A8011E0072119800722E168FEF777FC7561B571B561B580F570F56135623C
:2059000075620EE0032119800322E168FEF768FC07E01D8002E002291D8001D10A2500E02F
:2059200001252846F2BDF0B583B015460A7A1E460024930601D50820FEBD0A78102A47D1BF
:205940004A68107B527B00EB022080B24CF2E102801A02D0801E25D038E0089840BB152EE8
:2059600024DACF6814213846FEF736FC324629463846FEF735FC3146384600F054F9032137
:205980001920FEF7DFFD300018BFFFF7CFFE00222048006800281FBF016800291046884784
:2059A0002046FEBD089818B9032E03D00D24F7E70B24F5E7CE6803213046FEF70DFC032244
:2059C00029463046FEF70CFC0222E1E70A24E7E7022A18BF0124E3D14A681378527803EB2C
:2059E00002239BB242F60214A342EFD1089A0092012301932A46334600F084FE0446CFE7FB
:205A00000A0D0000903D0020500600206C07002004030020B83D0020C83C00202A2A2A2A71
:205A20002A554152542053455454494E47532A2A2A2A2A00554152542042617564205261F2
:205A400074653A200000000053746F7020626974733A2000322073746F70206269740000CA
:205A6000312073746F702062697400005061726974793A2000000000554152545F5041525F
:205A80005F4E4F4E45000000554152545F5041525F4556454E000000554152545F504152EE
:205AA0005F4F444400000000A15800002759000000000000DFF800F021B90110E0B50821C7
:205AC000ADF80010042200F00EF808B100200EBD02980EBD00B583B00821ADF800100522FF
:205AE00000F001F807BDADF802200190684678490A68104770B5774D05E06868FAF78EFD4F
:205B000008B900F047F8E8684FF0FF330F220021FAF764FE064670071DD56868FAF77EFD3E
:205B200098B900F09CFE80B96868FEF7ADFB04000BD0A1684868A860497800F0C7FEA068C6
:205B4000FFF7C8FF2046FFF7C5FF6868FAF766FD08B900F01FF8F00719D500F026FF68809A
:205B60001428C8BF1420287005F11400297800F02AFF2B6923B12A7805F1140110209847AE
:205B80006888142803DDE8680121FAF797FEB007B9D5B2E7E8680421FAF790BE30B54D4CF1
:205BA0000020A06087B00021FFF784FF60600823182200216846FCF7F4F904F505756946FE
:205BC0002846FCF7F2F9E5600FF2F9020FF2DD010FF2B50000F02AFEFFF78CFF07B030BD66
:205BE000DCE730B53C4C4FF400758FB0DD22294604F1500000F07AF908233C220021684610
:205C0000FCF728FC04F15000079008950220069000236A4631492046FDF796F90FB030BD5A
:205C20002C4908617047FEB505460E460820FFF745FF04001DD00021217008200221ADF888
:205C40000210ADF800000196684621490A689047002814BF0020029860606670606818B1B9
:205C600032462946FEF7BCFA0C20FFF727FF0746BC60207838B9174C60683946FAF7D2FCEF
:205C8000E068FFF788FFF7BD1CB5124CA06838B10821ADF800100322FFF725FF0022A2602A
:205CA0000221E068FAF70AFE13BD000080B580B200F054FE0748C068BDE804400121FAF794
:205CC000FDBD00000348C0680821FAF7F7BD0000040300200C300020BC2D0020E15B000001
:205CE00070494862704738B56F486E4D016888470446686900F09CFE686900F081FE6B495A
:205D00000A682046BDE83240104738B5FFF7EBFF00F056F804466649002000F077FE61490A
:205D200048610022202100F06EFE60490A6805462046904700F08DF8E8B232BD38B5594CC8
:205D40005B4DE0612162A261284600F069FE4FF4E130A861294600206875A8750320287767
:205D6000002068770120287068700020E8750FF25900E8600FF219002861002000F046FE7D
:205D800060610022BDE83840202100F03CBE000038B5044600F014F86168424C00F04FF817
:205DA0001CBF636A002B03D00122694620209847A26912B1618A0020904700F046F831BD80
:205DC0003948016808470000F8B5064636480168144688477168334E00F031F81CBF736A56
:205DE000002B03D00122694620209847C4B1318A002089B2B1F5007F09DAF769335C7B5463
:205E000000223254401C491CC0B2A042F1D38442318205D0B26942B1718A4FF40070904720
:205E2000B26912B10021A0B290470020308210227069314600F0F9FD00F007F8F1BD054618
:205E4000C87F8DF800000028704718490A682846104710B5FFF7B4FF1249002204460A823E
:205E60001022486900F0E1FD204610490A68BDE81040104770B504460B480A4E01688847A2
:205E80000546316A70697482224600F0D4FD074910F1010F04BF002070820A682846904737
:205EA000708A70BD7C3C0020FC02002000030020A43C002000F10103810704D010F8011B2D
:205EC00089B18107FAD10268B2F10131914311F0803F04BF50F8042FF6E710F8011B11B161
:205EE00010F8011BFBE7C01A7047000062F30F2262F31F4200B500BF130096469446103949
:205F000028BFA0E80C50FAD85FEA417C28BF0CC048BF40F8042BC90728BF20F8022B48BFBA
:205F200000F8012B00BD0000DFF800F06DA90110C068000900F0010070474FF0FF310160E9
:205F4000DFF80C1341600021017270472DE9F043DFF8F892D9F80050D9F8047099B00446BC
:205F600088461646FBF7DCFE2988012902D1FBF7DBFE0DE001212980FBF7D6FE1EB904A8B1
:205F8000FFF7DBFF04AE002C18BFB8F1000F01D100205BE010A800F06DFD7068149010A950
:205FA000307A8DF85800F87900F05AFD00284DD0686008233068A860AC6285F82C8024224D
:205FC000002107A8FCF77AFA002608E0242000FB064007AA01210830FEF7FAFE761CF6B2C5
:205FE0004645F3D301208DF8340007AA012105F10C00FEF7EDFE3979DFF85802DFF848427D
:206000000143009100A9BA7910434860DFF84822787910438860FF20C860201DFFF70FF8E6
:20602000206098B1DFF83412DFF834020968B0FBF1F0FFF779FF797920680122FFF7BCF8BB
:2060400039681122484600F0CAF8484619B0BDE8F0832DE9F84F90B081461B9800F00700AF
:206060008DF808008B46D9F8008098F82C008345174659D208F1080508F10C002968FCF7D6
:20608000F9F9002850D0286A1A9C242101FB0B00002C00F1080A2FD032220021384600F021
:2060A00001FD00280EBF3226C61BF6B22022322103A8FFF71BFF3246394603A8FEF790F89D
:2060C0001098214600F023FD8019801C162827DA03A83018811C1098224600F028FD00F088
:2060E0009DF9E8B100F023F800F028F803AA5946484600F043F90BE000F090F980B100F0CB
:2061000016F800F01BF83A465946484600F036F900225946484600F0E0F85046FCF7A6F963
:2061200008F10C00FCF7A2F911B0BDE8F08F9DF8082000235946484600F002B9002001907E
:2061400000239DF8080000907047026892F82C2091423CBF012200F0C0B87047006890F8F8
:206160002C20914200D3704770B508302423026A59438B188D5801685C6803F1080630469D
:20618000FCF778F948B11CB121462846FEF724F83046BDE87040FCF769B970BD036893F8EC
:2061A0002C3099423CBF012300F0CAB870471CB500F00BF803D200F003F800F0DFF813BD45
:2061C00001240194049C00947047046894F82C40A14270474846BDE8F243FCF747B92DE9AB
:2061E000F84300F027F800F03FF800F03BF800F01DF8074600F03BF80028FBD107B13BE0CF
:20620000BDE8F1832DE9F84300F014F80122FEF7D3FF00F027F800F009F8074600F027F8D2
:206220000028FBD107B127E0BDE8F1834A464146384642E00746044E7D683C68306888464D
:206240009146297970470000743D0020A080000040420F000000C080000080803085000097
:20626000A0860100A97930680022FEF7A5BF606880680068FFF75CBEA9793068BDE8F84300
:206280000122FEF799BF38B50FF29814256800AB01F00F041D609DF80030D2188DF80020E7
:2062A00000AA9378E3189370537803EB11115170032200A9FFF793FF31BD00B585B000233E
:2062C000039300920293019100A90068406800F0D6FB00B1012005B000BD2DE9F843814699
:2062E0001500D9F800600F4605D0B16806F10C00FCF7C0F810B3B06A242179430F58081802
:2063000000F1080825B1B1684046FCF7B3F890B10024224600214846FFF7B5FF802207EBAF
:20632000C4114846FFF76EFF641C082CF1DB2DB14046FCF79BF806F10C004CE7BDE8F183DE
:20634000F8B51446006824225143826A8E5889181D4601F1080725B181683846FCF78AF86B
:2063600030B1802106EBC410FDF736FF05B100E0F1BD3846BDE8F240FCF778B82DE9F84F94
:20638000064615460C461F46284600F0B7FB80460A9807EBC0101FFA80FA3068826A242109
:2063A00061438E580B9C891801F108091CB1816800F02DF830B300270FF26C0B12E0213A6E
:2063C00002EB820292B2002303EB020C03EB010E1CF80BC00EF806C05B1C052BF4DB0021AA
:2063E00041717F1C47450ADA062000FB07A17A5D8819202AE3D10621FDF7EEFEF1E70CB105
:20640000484607E0BDE8F18F01F1080901684846FCF730B8BDE8F24FFCF728B8296850462D
:20642000FCF728B8B010000000005F00000007000700147F147F14242A7F2A122313086477
:206440006236495522500005030000001C2241000041221C00082A1C2A0808083E080800B0
:20646000503000000808080808006060000020100804023E5149453E00427F400042615126
:2064800049462141454B311814127F1027454545393C4A494930017109050336494949363C
:2064A000064949291E003636000000563600000008142241141414141441221408000201A0
:2064C000510906324979413E7E1111117E7F494949363E414141227F4141221C7F4949496E
:2064E000417F090901013E414151327F0808087F00417F41002040413F017F081422417F10
:20650000404040407F0204027F7F0408107F3E4141413E7F090909063E4151215E7F09198C
:206520002946464949493101017F01013F4040403F1F2040201F7F2018207F6314081463CF
:206540000304780403615149454300007F4141020408102041417F00000402010204404065
:20656000404040000102040020545454787F484444383844444420384444487F385454545A
:2065800018087E090102081454543C7F0804047800447D40002040443D00007F102844006D
:2065A000417F40007C041804787C0804047838444444387C14141408081414187C7C08047B
:2065C00004084854545420043F4440203C4040207C1C2040201C3C4030403C442810284444
:2065E0000C5050503C4464544C44000836410000007F00000041360800003E1C08000000F8
:206600000022FFF777BC000038B54FF6FF74A0420DD10020654A137898420EDA21F8204035
:2066200001EB80050023401CAB70C0B2F3E700F0AAF810B104800021817031BD2DE9F24FD5
:2066400082B0054693469946002735B1080018BFB9F1000F01D00E9808B9022036E00D984B
:206660000C99ADF8301000268DF8340028E0F6B2B24635F82A004FF6FF7188421EBF05EB66
:206680008A04A07800281AD0029A0C99484600F028F85FEA000812D0A078C10705D500F086
:2066A00017F8012100F084F80743A078810706D500F00EF8022100F07BF80743FFB2761C6F
:2066C0003A490A78F0B29042D1D3F8B2BDE8FE8F0D980E9900900191434635F82A005A46D3
:2066E000704730B50346002400E0641CA0B2884206D2A4B203EB0410C5689542F5D130BD2E
:20670000002030BDF8B5044606980D460026F0B9022B1AD117785178079807EB0127C04389
:20672000B9B201420FD1EA681168204600F012F8B9B288420CD0E8680168BAB2204600F014
:206740000FF8064604E0802602E00D2600E00B263046F2BD80B500F016F800B1807802BD76
:2067600070B504460D46164600F00DF840B929464FF6FF7000F007F808B9112070BD048058
:206780008670002070BD30B5002200E0521C074C2578D3B2AB4207D2D2B231F82230834262
:2067A000F4D101EB820030BD002030BD500600202DE9F04186B00D4690461F46044603AB33
:2067C0004FF6FF721B21FDF77DFB059040B3BDF80C200192FF210023029100930246DDF8D9
:2067E00034C00DF1120339462046E047064688B97889ADF81000E90705D5424604A92046DE
:20680000FDF737FA05E00C9B424604A92046FDF741FA06462EB11B2104A8FDF761FB00E0BA
:206820001526304606B0BDE8F081000070B5044647480D4601688847064646480FF2250250
:20684000C460056100F506711830FFF777FAFFF700FB3046BDE870403F490A6810473D4801
:206860000078704738B50D463A4C0021A180608001001EBF21690029884728001FBF00207B
:206880002070E168002903D0E08808B928468847E18819B16069BDE8344017E031BDF8B516
:2068A00004460D4600F044F8A84202D200F040F80546284EB788F01900F118012A46204640
:2068C000FDF78EFCEF19B7802846F2BD2DE9F04104461F481F4E204F0D46016888478046B9
:2068E000307820B139684046884700201EE0B5F5007FC3BF04F50070A5F500714FF4007534
:206900000021F18070612A46214606F50670FDF767FC01203070B068401CB0602846FFF7CC
:20692000A9FA05463968404688472846BDE8F081084841888088081A00F50070011200EB49
