:020000040020DA
:100000001C4500208D022000B3A52000B1A52000D2
:10001000B1A52000B1A52000B1A52000000000007E
:10002000000000000000000000000000B1A520005A
:10003000B1A5200000000000B1A5200051A62000BD
:1000400073A6200079A620007FA6200085A62000A8
:100050000000000057A620005DA62000B1A52000EA
:10006000B1A520000000000000000000000000001A
:100070000000000000000000B1A52000000000000A
:100080000000000000000000B1A52000B1A5200084
:10009000B1A52000B1A52000B1A52000B1A5200088
:1000A000B1A52000B1A52000B1A52000B1A5200078
:1000B000B1A52000B1A52000B1A52000B1A5200068
:1000C000B1A52000B1A52000B1A52000B1A5200058
:1000D000B1A52000000000000000000000000000AA
:1000E0000000000000000000000000000000000010
:1000F0000000000000000000E1152000F1152000C4
:1001000000000000000000000000000000000000EF
:1001100000000000000000000000000000000000DF
:1001200000000000000000000000000000000000CF
:1001300000000000000000000000000000000000BF
:1001400000000000000000000000000000000000AF
:10015000000000000000000000000000000000009F
:10016000000000000000000000000000000000008F
:10017000000000000000000000000000000000007F
:10018000000000000000000000000000000000006F
:10019000000000000000000000000000000000005F
:1001A000000000000000000000000000000000004F
:1001B000000000000000000000000000000000003F
:1001C000000000000000000000000000000000002F
:1001D000000000000000000000000000000000001F
:1001E000000000000000000000000000000000000F
:1001F00000000000000000000000000000000000FF
:1002000000000000000000000000000000000000EE
:1002100000000000000000000000000000000000DE
:1002200000000000000000000000000000000000CE
:1002300000000000000000000000000000000000BE
:1002400000000000000000000000000000000000AE
:10025000000000000000000000000000000000009E
:10026000000000000000000000000000000000008E
:10027000B1A52000D5142000ED142000290E200087
:10028000B1A520005D092000B1A5200008B5094BEB
:10029000FF221A600848094A4824E3690849121AEB
:1002A00098470848084AA3690021121A984700F0A5
:1002B0002DF8FEE7B4200D4040000020320200205F
:1002C00038C6200038020020193D002010B50388F0
:1002D000044613B1282B08D00EE004F033FF084B7E
:1002E0001B68984707480AF0F1F907480AF0EEF949
:1002F00028232380012010BD00230380032010BD8C
:10030000E4BD2000F4BD20000FBE20002DE9F04127
:1003100086B000F07DFC00F021FD00F0BBFC00F099
:100320007BFA01F003FA0AF054FA00F00FFD08F02E
:100330008DF801200AF040F901F0C6FF00F054FCEE
:1003400000F002FA08F0DCF8002000F061FB012068
:1003500000F05EFB4F49002000F030FC02F012F983
:100360000AF07FF902200AF027F94B480AF0AEF9AB
:100370004A480AF0ABF94A4801F024FA494B4A4D81
:1003800018680AF0A3F9494801F01CFA484B494C97
:1003900018680AF09BF9484801F014FA28680AF036
:1003A00095F9002002F010F901F0B4F8434800215B
:1003B00002F030F801F0F2FD01A8082101F0C8F9BF
:1003C0009DF80B309DF80A80002643EA082801AB0F
:1003D00003CB206061603A4801F0F4F9A15D39482F
:1003E000013601F0EFF9072E324FF7D1364EF97989
:1003F000364801F0E7F9F46A4AF6CD310220A04709
:1004000041460320A0471A210120A04701A9736B90
:1004100008220920984705F05DF82D4A3B681360D3
:100420007B68536004F0A6FE2A48002101F0F2FF29
:1004300000F0B6FC2848002101F0ECFF0AF09FF91B
:10044000AB6901209847254B01AA03F1100514461A
:1004500018685968083303C4AB422246F7D11B78A9
:100460001F4823700AF032F901A806F01FFD1D484D
:100470000AF07BF900F0BEFB01200AF09DF800F0C5
:10048000BFFB01F039FF10F0FF0FF8D101F0E6F8E3
:10049000F5E700BF412520002ABE200036BE20001F
:1004A0004EBE20006CBD200088BD200055BE20003F
:1004B000A8BD20000B3D00205CBE2000AC00002049
:1004C00063BE200081BE2000A4BC2000DBC520004C
:1004D0009C2C0020E40000205000002097BE20004B
:1004E00087BE2000E4BB200070B505880446772D48
:1004F00030D07E2D3FD0002D4DD101F0DDFE294BB7
:100500001870294B1D601D462B68284A264E52F84C
:1005100023204AB126480021C1549368802098477F
:10052000336801333360EFE7224A1370772320E00A
:100530001F4AD256002A12DB1B4A1368013313608C
:10054000194B1C4A1B6812789342F1DB1A4B1B684B
:10055000002BEBD0184A00231360134AEFE7114A2F
:1005600000201178114A52F8232001F027FF30B9FA
:100570007E23238013E00B4B1B788B420FD10A4B59
:100580000B491A688B5C03F07F038B540A4A13688B
:1005900001331360D0E700230380032070BD0120E6
:1005A00070BD00BFF63C0020480200206000002023
:1005B000F73C0020E82900204C020020094B1A7863
:1005C0000023934204DA084951F82310814207D1ED
:1005D00006490748CA5C62F07F02CA5401F032BF84
:1005E0000133EEE7E829002060000020F73C0020FE
:1005F0005000002008B5094808210AF007F8032137
:100600000422002000F0B8FB002000F01FFB04488B
:100610000021032200F052FB012008BD00900D4094
:10062000E506200008B50948102109F0EFFF042174
:100630000A46022000F0A0FB022000F007FB04485D
:100640000221042200F03AFB012008BD00B00D4059
:10065000E506200008B50948022109F0D7FF01216D
:100660000422022000F088FB022000F0EFFA044888
:100670000221012200F022FB012008BD00B00D4044
:10068000E506200008B50948402109F0BFFF062112
:100690000422022000F070FB012000F0D7FA044889
:1006A0000221062200F00AFB012008BD00B00D4027
:1006B000E506200008B50948802109F0A7FF0721B9
:1006C0000422022000F058FB012000F0BFFA044889
:1006D0000221072200F0F2FA012008BD00B00D400F
:1006E000E506200038B5054611480C460AF085F8A5
:1006F000E8B10F4810210AF06EF81DB9032C16D18D
:100700000C4810E0022D12D1042C01D10A480AE055
:10071000012C01D1094806E0062C01D1084802E06D
:10072000072C04D10748BDE83840FFF747BF38BD64
:1007300050020020ECBB20000CBC20001CBC2000A0
:10074000FCBB20002CBC2000014800210AF043B86B
:100750005002002010B5074CFF2323604FF4FA60CD
:1007600000F096F800213022062000F021FB002343
:10077000236010BD00920D40802870B51ED1104E30
:10078000104D3368002423F0800333602B6820462B
:1007900043F080032B600C4B07211C60224600F0C5
:1007A000EBFA3368204623F0400333602B680621C0
:1007B00023F040032B60012200F0DEFA002070BD20
:1007C00020940D4000940D4000920D40F8B500F0CB
:1007D00083F80F4B0024D3E900673A46B04238BF94
:1007E0007A1C15460443C3E90045DFF828E0DEE93A
:1007F0000001821B61EB070312196B41CEE9002354
:1008000001F0C4FC18B1BDE8F84001F04FBCF8BDE0
:1008100038020020400200200F4B104A1A6053F8A3
:10082000042C42F0050243F8042C53F8042C42F047
:10083000020243F8042C0A4A136843F001031360D0
:10084000084B00221A60042243F80C2C012243F8C2
:10085000082C0F22DA62704714E000E047E801003C
:1008600008200D400C000340034BD3E90023100A7D
:1008700040EA0360704700BF38020020034BD3E911
:100880000023D00B40EA4340704700BF40020020E5
:10089000054B18601C3B1A6842F001021A601A6886
:1008A000D207FCD4704700BF2800034010B5064CA7
:1008B000236823F001032360FFF788FF236843F0D8
:1008C0000103236010BD00BF10E000E0014B186879
:1008D000704700BF58020020074B084A19680433CC
:1008E0001B681268120442EA0323054A0B4310688E
:1008F00043EA0060704700BF40500D4048500D4033
:100900004C500D4010B50446114B1B68DB07FBD55E
:1009100009F0ABFEFFF7E0FF231A062BD8BFC41D7A
:100920000C4B220E1A60C4F3074243F8042CC4F3A4
:10093000072243F8082CE2B243F80C2C09F091FE90
:10094000054B91201C60BDE8104000F07FB900BF4E
:1009500050500D404C500D405802002008B500F09A
:1009600063FE064B002291201A6000F087F9912067
:1009700000F078F9BDE8084001F082BD580200207F
:100980000023084A1068084A9958084205D01A44BA
:10099000D268906910F0800003D02C33582BF0D12E
:1009A0000120704728200D404CBC2000164A38B565
:1009B0002C2303FB00234FF6BF72DC680546236C33
:1009C00062649BB213F050020DD0A369DB0609D418
:1009D0000E4B53F825301BB12068C0B29847F4E79E
:1009E0002368F2E738BD13F4D06F0BD04FF4407397
:1009F0002363FF236360E36AE262E362236B43F0F5
:100A00000103236338BD00BF4CBC20005C02002002
:100A10002DE9F04F012885B0064600F2BF802C2456
:100A20004443604B1D1995F920A005F12007BAF148
:100A3000000F9946C0F2B28095F92230002BC0F227
:100A4000AD80594800F062FE584A59F804301168E8
:100A5000EC680B43136051686B6895F921B00B4348
:100A600053609168AB6895F822800B439360002334
:100A7000C4F8C83F2B690BEBCA021A6095F8233003
:100A80005FFA88FC01939DF80430604619462A7D80
:100A9000CDF80CC0029300F079F9029BDDF80CC090
:100AA00019466046082200F067F94FFA88F8404975
:100AB0004FEA08389DF9042058F80100012303FA91
:100AC00002F2024348F801204FEA0A3A5AF80100BC
:100AD00003FA0BF202434AF801205022A263A26BF0
:100AE00095F8240042F4D062A263022262634FF4BC
:100AF00040722263AA696262EA69A2627022E262BB
:100B000042B2002A0C4614DB95F92510294D41EA22
:100B1000C20129607979120315594FB2BB402B43AA
:100B20001351002200F028F9234A136843F40043CC
:100B300013602C2303FB069393F8265020336FB2E7
:100B4000002F1CDB93F807A0EDB25FFA8AF8284665
:100B5000414601223F0300F019F94FFA8AFA3A5947
:100B6000012303FA0AF313433B5108222846414666
:100B700000F002F9104A136843F4804313602C23F9
:100B800003FB0696F26896F82800136B43F0010306
:100B9000136305B0BDE8F04F00F058B805B0BDE8EC
:100BA000F08F00BF4CBC20008109200028200D40A0
:100BB00020940D4004410D4030D0004001289CBFDE
:100BC000014B43F8201070475C020020012808D830
:100BD000044B2C2202FB0030C3689A699206FCD4B5
:100BE000196070474CBC2000014B00221A6070470E
:100BF00000500D40014B08221A60704700500D4014
:100C0000024BA0221A6050221A60704700500D401B
:100C1000084A094B1A60094B80321A60084B80322F
:100C20001A60084B80321A60074B4FF400121A60AA
:100C3000704700BF00E100E0700200206402002065
:100C4000680200206C02002008ED00E0044B41091E
:100C50001A6800F01F000123834042F821307047DA
:100C600070020020044B41091A6800F01F000123A4
:100C7000834042F82130704764020020044B410950
:100C80001A6800F01F000123834042F821307047AA
:100C90006C020020054A064B1A60064B1A68064B88
:100CA0001340B3F1807FF8D1704700BF010102010A
:100CB00000200D4004200D4000000101024B02EB1A
:100CC000C10243F82200704774020020F8B50746BD
:100CD0000E46094D002405EB411547FA04F3DB07E6
:100CE000E1B204D555F824300BB1304698470134B1
:100CF000082CF2D1F8BD00BF740200202DE9F047A6
:100D000080464FEA0837DFF8409007F1804505F547
:100D1000592500F089FCD5F8186457F809404FEAC6
:100D2000C80A24FA0AF446EA0400E4B2C0B2414612
:100D3000F6B204FA0AF4FFF7C9FFC5F81C6447F8D5
:100D40000940BDE8F08700BF18970D400248002118
:100D5000802209F0DFBB00BF74020020034A044B6D
:100D60001A60044B803A1A60704700BF80400D4003
:100D7000F8020020F4020020034B01EBC0011B68C5
:100D800043F82120704700BFF8020020034B01EB1D
:100D9000C0011B6843F82120704700BFF402002007
:100DA000024A136843F030031360704700700D402F
:100DB0000E2870B50BD1164B164E1C6844F0020578
:100DC0001D60356825F03F0343F001033360124E88
:100DD000336823F0FF031A431143014331600F4B83
:100DE0001B681B06FBD50E4B0E4A1B6812680E28AB
:100DF00003F0FC0343EA022308BF064A9BB204BF88
:100E00001560034A9BB208BF146018B270BD00BFE2
:100E100034000144F486084008700D4000700D4015
:100E20000C700D4010700D4010B58F20064CFFF770
:100E300025FF8F20FFF716FF206818B101F002FB95
:100E40000023236010BD00BFFC020020084B93F973
:100E50000020002A09DB074AED2111601160E3211F
:100E600011601A7862F07F021A700120704700BF8B
:100E7000E929002038880840094B1B689B07FBD4F0
:100E8000084BED221A601A60074A12680AB1EF2275
:100E90001A60064A0120137803F07F03137070472D
:100EA0004C860840388808402C860840E9290020F4
:100EB00038B5A0F10B04E3B20F2B054613D80B4B4A
:100EC0001B6813F03F0302D0FFF7D6FF012304EBAA
:100ED0008404074A0B3414600BB1FFF7B7FF054BCE
:100EE000E8B21D7000E0FF2040B238BD48860840DF
:100EF0003C8608403002002010B50B4B1B68990659
:100F000003D1FFF7A3FF012300E00023074A126883
:100F1000D207FBD5064A1468C4F300140BB1FFF7DF
:100F2000ABFF204610BD00BF4886084064860840DD
:100F30004C860840044B186800F02200A0F1200302
:100F400058425841704700BF4C860840024B186811
:100F500000F04000704700BF4C86084038B50C4692
:100F600000296CD00D286CD8DFE800F0070D181AA6
:100F7000216B3142476B5E606267334B1B68003305
:100F800018BF012356E0314B05221B6803F07F0395
:100F90000B3B93FBF2F30B33DBB24BE02C4B00E04B
:100FA0002C4B1A68043B1B6843EA022342E02A4B9D
:100FB000002008601A68243302F001020A601B68EE
:100FC00013F0200337D042F002020A6038BD234BF1
:100FD0001A680023D2B2224901EBC3000079904283
:100FE00002D851F8333025E001330E2BF3D11FE046
:100FF0001C4B1B685BB2493B1CE01B4B1B689906F2
:1010000003D1FFF723FF012300E00023174A1268F2
:10101000D207FBD5164A1568493DEDB20BB1FFF773
:101020002BFF6DB2256006E00B2303E01A2301E0DD
:101030006FF017032360002038BD0723FAE7022072
:1010400038BD012038BD00BF2C8608403C860840D2
:10105000CC850840D485084000860840408608407A
:10106000DCBC20005886084048860840648608405A
:101070006086084038B505460C46134B1B689B0735
:10108000FBD4124B93F90030002B01DBFFF7DEFE9F
:101090000F4BEE221A60691E1A60A21C43F8102C36
:1010A0002144022000F04EFA013C0A492401214368
:1010B000022000F059FA022000F060FA022000F04D
:1010C00075FA002038BD00BF4C860840E929002091
:1010D0003888084002C001C0F8B51F4B93F90030B2
:1010E000002B0DDBFFF7F8FB0446FFF7AFFEFFF721
:1010F000F3FB6FF009031B1BC342F8D4012600E089
:101100000026FFF7F9FE18B3144C236899061FD484
:10111000134DE9232B60042723689A0707D4013F66
:1011200017F0FF0703D00620FFF7B2FBF4E72368B0
:101130009B0704D4EE232B6001242B6004E020687D
:1011400010F00200FBD1044626B1FFF795FE01E046
:101150000220F8BD2046F8BDE92900204C86084051
:1011600038880840044B1A6810B142F0010201E0CF
:1011700022F001021A6070470086084038B50C461C
:10118000072855D8DFE800F0040F1B1F26543B4FFB
:10119000012903D1FFF75AFE002038BD002949D1AB
:1011A000FFF76AFEF8E7A1F10B030F2B42D8C8B294
:1011B000FFF77EFE431C0CBF0320002038BD8CB21D
:1011C000E2B21D4B02E08CB21C4BE2B2240A1A6060
:1011D0005C60E1E731F003052CD101F00100FFF77D
:1011E000C1FF174B14F002001A681BBF284642F0DB
:1011F000200222F020021A6008BF1A6038BD01F1F7
:1012000018031F2B16D80D230E49DA0051F83300AE
:10121000844204DC8B181A790B4B1A60BCE713F17B
:10122000FF33F1D2B8E7CCB2084B49341C60B3E7C6
:10123000012038BD022038BDC8850840D08508404F
:1012400024860840DCBC20004086084058860840C0
:1012500009280DD1082A0DD161B1074B013953F886
:10126000042D01F8012F054A9342F8D10020704760
:101270000120704702207047C8850840A8850840B3
:1012800009280DD1082A0DD161B1074B083111F899
:10129000012D43F8042F054A9342F8D100207047EE
:1012A0000120704702207047A4850840C48508408B
:1012B00070B52B4E336813F0400308D0294D2B68CE
:1012C000DCB21B0605D5284BED221A601A600020FF
:1012D00070BD042CF7D9023C8C42F4DCE4B2032C40
:1012E0001BD001190139032000F034F9631E1F4996
:1012F0001B010320194300F037F9032000F03EF9E9
:10130000032000F053F9032000F05CF90028FAD123
:1013100029682D682806D6D506E02B6803702B684F
:1013200043702B688370F3E7493949B289B20420CE
:1013300004F0A6F8032005F07F0104F0A1F833685B
:101340005A060BD5064B1B681B0603D5084801F04F
:1013500079F803E0044BED221A601A60204670BD54
:101360004C860840288808403888084002C0010C94
:1013700084000020F8B5304E357815F0010559D1BC
:101380002E4B01241C605C609C60A3F5932311220A
:10139000FC3B1A602A4B80221A602A4B10221A60EA
:1013A000294B81221A60294BF8221A600922C3F8BE
:1013B0009021152270331A6003F59B230B2203F54D
:1013C0009E731A60A3F59B23A3F5F07340221A6065
:1013D0001A687F2742F020021A60D52243F81C5C6D
:1013E000DF62DA611A4B1878FFF762FD194A8D2027
:1013F000136843F004031360FFF728FC164B8E209C
:101400001F60FFF723FC022000F0C4F813490220FC
:1014100000F0A0F8032000F0BDF803200F4900F011
:1014200091F80F48294600F0F5FF33782046234312
:101430003370F8BD0020F8BDE9290020A8200D4038
:101440001C000144B0870840200001445886084031
:10145000300200208C860840948608402888084086
:101460008400002038B503880446DBB1B3F5707FF3
:1014700003D000230380032038BD822915D103F057
:101480009DFF03F039FF8021FFF712FF002805DDE3
:1014900080B203F02BFF0C4B1B6998470B4B1A785B
:1014A000520604D44FF470732380012038BD00220B
:1014B0001A70074B1D68FFF7DFFCFFF75BFFAB06F9
:1014C000F0D0FFF7C3FCEDE788BD2000E92900203C
:1014D0004886084008B5034800F0B4FF024B0022DC
:1014E0001A6008BD8400002034880840064B074875
:1014F0001A68042A1FBF06490A7842F040020A709F
:1015000000221A6000F09EBF2C8808408400002052
:10151000E929002010B5094C00212046402208F09E
:10152000F9FF074B01221A602E205C60FFF78EFB4B
:10153000BDE810402F20FFF789BB00BF000000204E
:1015400004F00F4003289EBF014B00011950704763
:101550000000002003289EBF024B03EB00104160F7
:10156000704700BF0000002003289EBF024B03EB22
:1015700000108160704700BF0000002003289FBF5B
:10158000034901230A6883409CBF13430B607047E3
:1015900028F00F4003289FBF034901230A688340B6
:1015A0009CBF13430B60704720F00F4003289FBF80
:1015B000034901230A6883409CBF13430B607047B3
:1015C00014F00F4003289FBF044B03EB001080680A
:1015D00000F0070088BF0020704700BF0000002017
:1015E000024B4FF0FF321A60704700BF04F50F4006
:1015F000014B01221A6070474CF00F40094B1A68EA
:1016000012F4801F1A46F9D1043B196821F4803185
:1016100019601168C903FCD41A6842F400321A60D8
:10162000704700BF04200D4010B50A4B1A681C46D5
:1016300012F0030F0CD0084B1A685101FBD41A6842
:101640005201FCD5FFF732F9FFF7D8FF00232360E2
:1016500010BD00BF58200D4004200D4038B5254B6B
:101660001C6814F03F0413D1234B53F8243023B1EA
:10167000984768B10134032CF6D1204D2B783BB14B
:10168000FFF724F90446FFF727F9201A092801D8A3
:1016900030BF38BD002CFBD0194B1A6822F4003241
:1016A0001A60184A1168C902FBD4196841F48031E4
:1016B00019601368DB03FCD5FFF70EF9201A09281F
:1016C00003D8BDE83840FFF799BF63280E4C02D914
:1016D0002B78022B00D00123236000F065FE20B19F
:1016E000FFF78CFF0023236038BDFFF7EFF80028D9
:1016F000CED1F5E74886084000030020EA29002003
:1017000000200D4004200D4058200D400023064AC3
:1017100052F82310814206D011B942F823007047D5
:101720000133032BF3D1704700030020054B002247
:101730001A60054A136843F004031360034B012247
:101740001A70704758200D4010ED00E0EA29002083
:1017500030B5184B1A78431E3AB9174A1278122A34
:1017600003D1164A12784B2A03D001F520112731F4
:1017700017E04A0802F12814B4F1281F04D014F825
:10178000015D03F8015FF7E701F520112731002320
:10179000934205DA11F801598418E5540133F7E74B
:1017A00030BD074A914204D011F8012903F8012FF6
:1017B000F7E730BD2B0028002A0028002900280068
:1017C000270028000FB407B504AA52F8041B0448E8
:1017D000019200F021F803B05DF804EB04B070470B
:1017E0009400002070B505460C460A4E102C07D810
:1017F00074B12B68224668680649BDE870401847F6
:101800002B68102231466868984710B9103CEDE704
:10181000204670BDE5BE20002DE9F04F80461546FC
:1018200000268FB00791079B1B78BBB1079F00E094
:1018300027463C4614F8013B0BB1252BF8D1079BFA
:101840009F4210D0A7EB03094A46D8F80030079909
:10185000D8F80400984728B14FF0FF3630460FB053
:10186000BDE8F08F4E443B78002BF7D07B78002BFF
:10187000F4D021460024084610F8012B0B462B2AF1
:1018800039D02DD8202A39D0232A3AD0A2F13107D5
:10189000082F3FD84FF0000A0B4611F8012BA2F198
:1018A0003000092830D91A782E2A4FD159785A1C7D
:1018B000A1F13000092842D8002711781346A1F180
:1018C0003000092802F1010234D91A786C2A40F05C
:1018D000AA805A786C2A3CD144F0800402333BE061
:1018E0002D2A04D0302AD1D144F0100401E044F074
:1018F00001040146BFE744F00604FAE744F002049D
:10190000F7E744F00804F4E70A2303FB0A2AAAF1E4
:10191000300AC1E72A2A0AD1D5F800A00346BAF155
:10192000000F05F10405B8BF44F00104BBE74FF018
:10193000000AB8E70A2303FB0717303FBDE72A294F
:1019400003D12F6802330435BFE713464FF0FF374A
:10195000BBE7013344F060041A78642A00F09080F9
:1019600000F28380462A00F0AD806FD8252A00F06F
:10197000BE8064D8002A3FF471AF0133079304F4AA
:10198000E063B3F5806F00F0698200F2B380B3F5D5
:10199000807F00F0F380B3F5407F7FF444AF8B4B42
:1019A00014F4804F8A4A18BF1A460DF13303002100
:1019B0001F462868043550EA010E40F08982FF1A5C
:1019C00004BF302203F8012C4FF0780208BF03F166
:1019D000FF3303F8012C4FF0300208BF012703F852
:1019E000022C23220337BA458CBFAAEB070A4FF01B
:1019F000000A14F00104A3F1030903F8032C06D133
:101A000051464046FFF7EEFE00287FF425AFD8F898
:101A100000303A464946D8F80400984700287FF439
:101A20001BAF3E4448E2682A96D15A78682A02D110
:101A300044F0200452E7013344F040048CE7412A8B
:101A40004CD0452A99D144F4424496E7582A33D0E1
:101A500004D8472A91D144F4A1348EE7612A3AD0C0
:101A6000632A8AD144F4A06487E76E2A3CD00AD85E
:101A7000662A24D029D3672A2AD0692A7FF47DAF29
:101A800044F4245479E7732A2BD007D86F2A10D056
:101A9000702A7FF472AF44F440746EE7752A05D063
:101AA000782A7FF46AAF44F4C85466E744F41064BB
:101AB00063E744F4885460E744F4B2445DE744F4D7
:101AC00000745AE744F4844457E744F4024454E76A
:101AD00044F4813451E744F4C1344EE744F4E13432
:101AE0004BE744F4806448E744F4E06445E744F499
:101AF000C06442E7B3F5C06F34D0B3F5E06F00F0D7
:101B0000F681B3F5A06F7FF48EAEBAF1010F2B68AA
:101B10008CBF0AF1FF3A4FF0000A14F0010405F1FE
:101B200004058DF8203007D151464046FFF75AFE94
:101B300000287FF491AE5644D8F80030012208A95D
:101B4000D8F80400984700287FF486AE0AF1010710
:101B500034B151464046FFF745FE00287FF47CAE85
:101B60003E4460E6D8F8003001221A49D8F8040053
:101B7000984700287FF470AE013654E6002FACBFC2
:101B800024F01004012714F40053069304F0E0033A
:101B900000F0D480402B00F0CA800AD8002B00F05F
:101BA000C980202B18D000220023CDE90023002378
:101BB00020E0602B00F0BE80802BF4D1073525F0AB
:101BC000070303F10805D3E9002309E005BF20005E
:101BD00016BF200038BF200095F90020D317043528
:101BE000002A73F10001E0DA524263EB4303CDE9CE
:101BF00000230123059304F4C053B3F5805F00F084
:101C0000C880B3F5C05F00F0EA80B3F5006F40F024
:101C10000181DDE90023CDE902230DF1360BDDE979
:101C20000223134340F0C9800DF13603A3EB0B03ED
:101C30000293029B41F60802BB4238BFFF1A41F2F1
:101C4000080304EA020228BF00279A4202D1002FAB
:101C500008BF012741F60801029B8A4203EB0700F7
:101C600040F0DC80DDE90023134300F0D780A24977
:101C700014F4804FA14B4FF0020908BF0B46069A9F
:101C800072B1059A002A40F0CD8004F00602022AC3
:101C900000F0CC80062A9A4A04BF4FF0010913468F
:101CA00009EB000292458CBFAAEB020A4FF0000A32
:101CB00014F00102009204D1E10640F1BB805744C8
:101CC0009246B9F1000F09D0D8F800404A461946AB
:101CD000D8F80400A04700287FF4BEAD3C46029B24
:101CE0001E44102CD8F8003000F2AE803CB12246E1
:101CF0008449D8F80400984700287FF4ADADD8F89F
:101D00000030029A5946D8F804004E4498470028FB
:101D10007FF4A2AD009B3E44002B00F0D0805146E2
:101D20004046FFF75FFD002800F0C98094E5B5F953
:101D3000002053E72A680435D31751E7402B1FD002
:101D400009D8FBB1202B14D00023002205930023D7
:101D5000CDE900234FE7602B14D0802BF4D1073559
:101D600025F0070303F10805D3E90023CDE900239B
:101D700004E02A780023CDE900230435069B39E7E7
:101D80002A88F7E72B68002219460435CDE90012AE
:101D9000F4E70DF1360BDDE9002352EA03013FF4CD
:101DA00043AF02F0070130310BF8011DD10841EAC1
:101DB0004371D8080A460346EFE7DDE902010A222B
:101DC000002307F0C3FFDDE9020130320BF8012DDB
:101DD00000230A2207F0BAFFCDE902011FE74A4BB0
:101DE00014F4804F0DF1360B484918BF1946DDE950
:101DF000002352EA03003FF417AF02F00F00085C23
:101E00004FEA131E0BF8010D100940EA0370024659
:101E10007346EEE70DF1360B002309E74FF000099A
:101E20004B462CE74FF00109394B39E74FF00109D8
:101E3000384B35E7514640460593FFF7D3FC059BE9
:101E400000283FF43EAF07E510222E49D8F80400E1
:101E5000984700287FF400AD103C42E7D5F800B069
:101E60000435BBF1000F2ED0D94699F8003009F1A6
:101E7000010233BBA9EB0B09002F02DBB94528BFD8
:101E8000B946CA458CBFAAEB090A4FF0000A14F004
:101E9000010406D151464046FFF7A4FC00287FF418
:101EA000DBACD8F800304A465946D8F804009847C9
:101EB00000287FF4D1AC4E44002C7FF430AF564460
:101EC000B1E49146D1E7DFF850B04FF00609D3E70F
:101ED00000F00F0E12F80EE04FEA111C03F801EDAE
:101EE0004FEA101E4EEA017E7046614663E52B689C
:101EF00004351E6097E400BF27BF20002ABF2000E2
:101F00002FBF2000F5BE200005BF200016BF200017
:101F10002DBF20005ABE200031BF2000F8B5038835
:101F2000064615462BB14A2B15D00023038003200B
:101F3000F8BD174808F07AFC04462CB1201DA168B2
:101F400008F01EFC2468F8E7124B01221A704A239D
:101F500033800120F8BD8829FBD10D4808F066FCCC
:101F60000446002CF3D0231D9D420ED10848214683
:101F700008F065FC084B62691F681A60A2691D467B
:101F80000AB1E06990472F60E1E72468E9E700BF04
:101F90000C030020EB2900201C03002010B5064B89
:101FA000002406481C7008F03EFC2146BDE81040A5
:101FB000034800F02FBA00BFEB2900200C030020DB
:101FC0009C00002070B504460A4DE3610A4B2E6860
:101FD0001B786661A26133B1084B201D2B6008F0AD
:101FE000CFFB2E6000E0A1602146BDE870400448B0
:101FF00008F03ABC1C030020EB2900209C000020C4
:102000000C03002070B5094B05461B783BB1084C0A
:10201000084B26680430236008F0BBFB2660294685
:10202000BDE87040044808F01FBC00BFEB29002049
:102030001C0300209C0000200C03002010B5084B5E
:1020400004461B781BB1043000F0A8F801E0C3601F
:1020500003612146BDE81040024808F0F0BB00BF14
:10206000EB2900200C03002010B50E4C236813B997
:102070000D4A136010BDFEF7F7FB216891E80C00D4
:102080001A44131A8A6842B192E812002144091ACC
:102090008B4228BF0B469268F5E71844024B186044
:1020A00010BD00BF1003002014030020014800F001
:1020B000C9B900BFAC000020F8B5038805462BB1B4
:1020C000592B09D0002303800320F8BD1E4A13605A
:1020D00059232B800120F8BD872920D08229F7D1F0
:1020E000194F00263C68002CF2D0204608F085FBF2
:1020F00090B1E0688821224600F060F950B9E060B4
:10210000A3680EB1B36000E03B600023A360FFF75B
:10211000ABFFE5E7FFF7CAFF2646A468E3E70A49F5
:102120000B680BB90B60D3E7D868904201D19B686C
:10213000F7E70B6099680029CAD0C86890420ABFC7
:1021400089680B469960F5E71003002010B5044636
:10215000FFF7ACFFE3680B4A4BB113683BB1A342F6
:1021600003D1094A1268DA6007E09B68F6E7064B7C
:102170001B68E36013681460A360BDE81040FFF7BC
:1021800073BF00BF100300201C030020024B18681F
:10219000003018BF012070471003002010B50B4A13
:1021A00004461368984206D18368136008E09A6871
:1021B000A24203D01346002BF9D103E0A2689A6033
:1021C000FFF752FF0023A360E36010BD100300205F
:1021D00038B5836804460D469BB10A480460022066
:1021E000A07304F10C0098470238012801D9832D0F
:1021F00005D120462146BDE8384000F005B801234E
:10220000A37338BD1C0300202DE9F8431C4A044683
:10221000156889462B4690461A4E3768A34204D06B
:102220000BB11B68FAE7BDE8F88334B3A37BABB10D
:102230000023A37345B1AC4204D02846872122462F
:1022400008F0C1FA2D68F5E7A3683BB14C4505D00D
:10225000346004F10C0083212A469847D8F80030F6
:102260009C4203D12268064B05E0134623B11A684D
:10227000A242FAD122681A603760BDE8F88300BF35
:10228000240300201C03002010B5094B00221A7003
:10229000084B1C685CB1E37B3BB101230022A373B4
:1022A000E27320468221FFF793FF2468F2E710BD16
:1022B000F029002024030020024B1878421C1A70D9
:1022C000704700BFF1290020064B8A221A70064A87
:1022D00000231370054A1370054A1360054A136002
:1022E000704700BFF1290020ED290020EF290020D0
:1022F000240300201C0300202DE9F041214E3378F7
:102300000BB1FFF7C1FF204D2C78002C34D0DFF843
:102310008CE00C229EF800301C495A4388181C4F50
:10232000895CDFF87C804268DFF878C08068013320
:1023300003F01F03013C3970C8F80020CCF80000FE
:102340008EF800302C7088B9124C134B1B68236038
:1023500023688BB133780BB1FFF796FF206839788B
:10236000D8F8002008F02FFA2368EFE7812904BF8E
:102370000123837308F027FA337828781844BDE8DE
:10238000F08100BFF0290020EF2900202803002061
:10239000EE2900202003002024030020ED29002046
:1023A00018030020A8040020024A034B10781B7871
:1023B00018447047EF290020F0290020F0B50C4E9A
:1023C0003478202C11D00B4B0B4D1B780B4F234432
:1023D00003F01F032B700C256B430134FD18A8601C
:1023E000F9546A6034700020F0BD0120F0BD00BFD8
:1023F000EF290020ED290020EC29002028030020EF
:1024000038B5034C256808F0DEF9256038BD00BFFB
:102410001C03002010B50A4609490C682346834274
:102420000DD00BB11B68FAE748B1046008600121C8
:10243000817383818121BDE81040FFF7E1BF10BDAA
:102440002403002038B1837B013B012B9FBF024A4C
:102450000123C37313707047F0290020024610B5A2
:10246000064853600468029B11609360026014B9CF
:102470000846FEF747FA002010BD00BFAC0400205C
:1024800010B5084C206858B1002323608168436868
:102490009847236823B1BDE810401868FEF732BAA8
:1024A00010BD00BFAC04002038B505880446672D78
:1024B00009D0792D2ED0002D32D1FFF7FDFE1B4B18
:1024C00018701B4B1D601B4808F008FA431C01D113
:1024D00067231DE00A28164B07D01A687E2AF2DC13
:1024E000511C1960144B9854EDE7196800254A1CDB
:1024F0001A60114A0D4B555428461978FFF75EFFB4
:102500000E4B852118682A46FFF758FF20B979231A
:10251000238009E0852907D1054B00221A60D2E704
:1025200000230380032038BD012038BD003D00207A
:10253000B8040020B0040020732A00201C030020EF
:102540000D2810B5014615D00B4C23782BB90B483C
:1025500008F0B0F948B9012306E00A2805D1074878
:1025600008F0A8F908B1002323700548FFF76AFFB7
:10257000012010BD002010BD722A0020B0040020F0
:10258000BC00002008B505480549802208F08BF9F9
:10259000BDE8084003480021FFF73CBFB00400201D
:1025A000F2290020BC000020054A136843F0040310
:1025B0001360044B1B68906943EA002080B27047A7
:1025C00000700D4014700D40174A136823F00C037F
:1025D0001360164B01221A601A68012AFCD1144BB1
:1025E00008221A60E322C3F8142203F50573194682
:1025F000104B1B68DB07FBD5102000230E4A013867
:10260000126802F0010243EA02034FEA43039BB25D
:10261000F4D1002BF0D0094A180A03F0FE03106031
:102620001360EF230B60704700700D40A8200D4031
:1026300024860840648608409C86084014700D403B
:1026400037B5124B124D1C782B796A79C4EB0323F2
:1026500013449BB2ADF80630BDF8063005F1080111
:102660001844202280B208F049F9BDF8062004F190
:102670002801294492B208F041F910B140BA80B261
:1026800001E04FF6FF7003B030BD00BFF32A002019
:10269000A42C002028492DE9F04188460D78274ECA
:1026A0002835AB195C782648E400073402239C42A5
:1026B0003DDBE9187218715C204F012932D002D33A
:1026C000632902D013E001332FE0037018461C4C3D
:1026D00005F04AFDD8B998F8003022782833134421
:1026E0003B445B78134402332370BDE8F08101F072
:1026F000C001802905D0C02905D0402912D103701E
:1027000005E0037006E03A7E0370FF2A02D1012043
:10271000BDE8F08104200221EA1806F0DBF802206F
:10272000BDE8F081527802321344DBB2BFE7037098
:102730000020BDE8F08100BFF32A0020A42C002077
:10274000F92A0020F0B5C578124A0D44EDB2D570D3
:1027500083780F0A3B44DBB293704478BB425470D9
:102760000678167005D2601CC0B2507008B90136E8
:102770001670C9B28D420CDA0133DBB20549937091
:102780003BB94B780133DBB24B7013B90B78013393
:102790000B70F0BD982C002010B5084C0146206845
:1027A0001430FFF7CFFF064A236811781975517866
:1027B00059759178D2789975DA7510BDC8310020B5
:1027C000982C002008B506F031FB06F06BF901F0FB
:1027D00017FA00231149002221F813200133DBB23C
:1027E000082BF7D10E49302303FB02110132D2B27C
:1027F00000230A2A81F82530F4D10A4A4FF4806177
:102800001180094A002102EB43120133DBB20A2B8B
:102810001182F6D1054A137008BD00BFB433002001
:10282000CC310020A2230020C8330020FA2A002047
:102830002DE9F041134F3D7815B3DFF8508005F1D5
:102840002703B8F80040A34205DB00233B70A8F83B
:102850000030BDE8F0810C4EA4F1280205F12801FA
:10286000641BA4B206F128003144521B07F0EEFDB0
:10287000A8F80040283C23123371002374713B7088
:10288000BDE8F081F32A0020A42C0020902C002029
:1028900030B50A490023082B0DD0094C5A1C34F8D6
:1028A0001350D2B2854204D100220B7024F81320B9
:1028B00030BD1346EFE70B7030BD00BFFA2A002091
:1028C000B43300202DE9F74FA44E04283468B246F3
:1028D000A34F00F06182A349A34DA44A03280D60D1
:1028E0001560894615D194F8253003F00F03032BAA
:1028F00008D1A38B002B40F0A9869D4B08221A70AB
:1029000000F096BD022B40F0A186002305F8073C9D
:10291000C8E3022878D1974A00231380964A3B8067
:10292000D3780133DBB2D37063B993780133DBB270
:1029300093703BB953780133DBB2537013B91378FA
:102940000133137094F8253003F0FD02052A0DD1F0
:1029500094F826300133DBB2782B84F8263040F02F
:102960007586002384F8253000F070BE002B00F03F
:102970006D86A28B7E48002A3DD094F82620511EF9
:1029800084F82610002A40F0618694F82720082A4F
:1029900004D0591E01290AD8052A08D1002384F839
:1029A00025308023037002F077FA00F04FBD042A2F
:1029B0009CBF0321914003F00F0394BFC9B23021A3
:1029C0000132013B84F8261084F82720072B00F2FF
:1029D0003D86DFE813F0630308000A00F4043B06B9
:1029E000F4043B06F404002259E30423037002F0CC
:1029F00053FA00F05BBD03F00F03032B40F0268673
:102A00000823037000F014BD052811D15B4B1B682F
:102A10001B8A002B00F01A860C3D1560554A0023D6
:102A2000138033603B80524B08220D601A70B1E175
:102A300015F83C3C3C3D03F0F003602B40F006866B
:102A40002B796A791B0239889818884200F3FE8531
:102A5000283213443B802B7AFF2B00F0F785484B3C
:102A6000AA1D484C484E1A60002222703270AA7982
:102A70009846B2B901233370FFF70CFE012800F02D
:102A8000E58503D3022800F0DD850AE0237803F111
:102A900028022A44C8F800205278083303EBC20306
:102AA00023703A4806F05EF8002840F0B5803748B9
:102AB00006F0FEF8002840F0AF802A7E334BFF2A54
:102AC000A3F1180366D048F2FE00198B814261D051
:102AD000198981425ED079B9598969B9998959B9F9
:102AE000D98949B91B8A3BB9698A294B21B9998A85
:102AF00011B9DB8A002B4DD0298B254B79B9598B25
:102B000069B9998B59B9D98B49B9198C39B9598C8B
:102B100029B9998C19B9DB8CB3F5807F3AD03B8801
:102B2000B3F5A06F04D9022000214FF4A06206E0A3
:102B3000EB79174C012B06D800210A46032005F03B
:102B4000C9FE00F07FBD05F05DFB002840F07E85EA
:102B5000E379013BE37100F075BD00BFC83100208F
:102B6000902C0020C4310020E02C0020942C002068
:102B7000B8310020C4330020F52A0020C0310020E5
:102B8000BC310020F32A0020F42A0020BC2C0020B5
:102B9000A42C002048F2FE032989994240F0568572
:102BA000298B9A4B81B9598B71B9998B61B9D98BA2
:102BB00051B9198C41B9598C31B9998C21B9DB8C37
:102BC000B3F5807F00F04285FF2A00F03F859048F2
:102BD00005F0A8FF0246002840F0388501200221B8
:102BE000ADE721D93A2B6ED026D93B2B00F02E85AC
:102BF0003C2B64D133788749980735D558065ED485
:102C000043F040030B70FFF745FD012800F01E85DF
:102C10002DD3022800F01685D8F80020DFF820B266
:102C200013782B2BDDD12EE0062B00F00B81112B1E
:102C300066D0002B43D103E02C2B00F007853EE04B
:102C40003378D9073BD4734A43F001031370FFF77D
:102C500021FD012800F0FA84DBD2237803F1280259
:102C60002A44CBF8002008E043F00203CAE72378A7
:102C700003F128022A44C8F800205278083303EBF5
:102C8000C2032370C8E7337803F0040000F0FF01AB
:102C9000A8B9604A43F004031370227802F12803B4
:102CA0002B44D87810B104202A3248E7CBF8003002
:102CB0005B78083202EBC302574B1A70ACE7042072
:102CC0000121521B3BE707F035FE4FF6FF73984298
:102CD00040F0BC8423782833E85C01F01FFF2378A0
:102CE0002833EA18E85C517805F0D2FD012804BFCA
:102CF00000233B803B88002B00F0A88400F0A2BC9E
:102D0000FFF796FD3B88454E303B3B80EB8DC9F885
:102D1000006063B9B5F82A80B8F1000F00F096841E
:102D20003F4B404D2B60394BB3F828B00BE007F018
:102D300007FE4FF6FF73984240F08884EAE7238A43
:102D40003BB920342C602C68374B9C42F7D300F001
:102D50007DBC9845F5D1638A0BB19B45F1D12368C1
:102D60002BB963681BB9A3680BB9E36833B12F486B
:102D70002146102207F0C2FA0028E2D12C4A022193
:102D800011702C4A002316602B4ACAF80030C9F88B
:102D90000060138002F080F8274B1A88002A00F0A8
:102DA000558402F13003194C9BB23B80283B191229
:102DB00063711C4B08321B6852BA2171197DA285C0
:102DC0000022E2851A8AE17122855A8A11216285E0
:102DD000A17104F118050FCB85E80F0004F108007C
:102DE000294605F0C5FF154B04F13C021A6007F0B7
:102DF000A7FDC04380B208B1E08502E04FF6FF7343
:102E0000E38505F015FB00F017BC00BFA42C0020E3
:102E1000BC2C0020F42A0020F32A0020D42C00200F
:102E2000C8330020C031002008350020AC2C002021
:102E3000B8310020942C0020C4330020C43100207D
:102E4000BC310020FFF7F4FC07F077FD4FF6FF736D
:102E5000984240F0FB83B5F82AB0BBF1000F00F0B8
:102E6000F583BF4B1B8D002B00F0F083BD4E344625
:102E700096F82580B8F1000F0FD0328A5A450CD150
:102E8000728A9A4209D1B84831461022019307F05C
:102E900035FA019B002800F01B81B44A3036964277
:102EA000E6D195F8352002F03F02022A13D1B0494D
:102EB000B04E8846A1F800B00022082A0AD0AE49D8
:102EC00031F8121001328B45D2B2F6D100223270A5
:102ED000944657E0327095F83520A14B510700F128
:102EE000B583142283F835203C223A80502283F89F
:102EF000342093F8332093F8314093F82F0083F86F
:102F00002F2093F8322093F82E109A4E83F82E201B
:102F100093F82D2083F82D4093F82C400130347025
:102F200093F83060C0B283F8321083F8312083F810
:102F30002C6083F8304083F8330060B90131C9B2A6
:102F400083F8321039B90132D2B283F8312012B984
:102F5000621C83F830202B8D854A834C13806A8D48
:102F60006B852A8504F1100594E80F0085E80F00B1
:102F70002046294605F0FCFE49E3BEF1070F10D0BC
:102F80000132D2B20A2A19D0302101FB024101F1EB
:102F9000200090F805E0BEF1000FEED132700C4633
:102FA00011E0BCF1000F04D080799CF82610884213
:102FB000E6D94FF0300C0CFB024CE1E7644632706E
:102FC000002C00F0438303226382674B84F82620A1
:102FD00084F82420042284F823200FCB84E80F00F7
:102FE000664B01201A784FF0000922765A7884F84F
:102FF000250062769A78DB78A276E37695F82F3012
:10300000A083E37595F82E30CAF80040A37595F8B3
:103010002D3084F82290637595F82C3084F8279031
:10302000A4F810B02375FFF7B7FB95F8343003F020
:10303000F002502A32D9524A1B09053B98009646A5
:103040004B461178834226DAEA1892F83C1011B305
:10305000012901D101331CE0022915D192F83DC0AC
:10306000BCF1040F10D18EF80010337092F83E10AE
:1030700092F83F3043EA0123402BA8F8003028BFE4
:103080004023E383238409E0EA1892F83D2012B13B
:103090001344DBB2D6E78EF8001033701022304BA9
:1030A00083F835202E4B93F8352042F0020283F846
:1030B0003520022283F83C20042283F83D200022A0
:1030C00083F83E20402283F83F203A80602262E26B
:1030D00095F835302B4A03F004013446CAF80060F5
:1030E000107001F0FF0B21B1202386F8250013702A
:1030F00000E21B4A08F00F0892F83420B8F1020FE2
:103100004FEA12124FEA82011A4A11703A88A2F16C
:103110002802A2EB010292B23A8003D103F03F01F0
:10312000122905E0B8F1010F03D103F03F01022994
:103130002AD00AB99A0727D0A98DB28A914204D120
:10314000074AD18DF28A91421ED0980740F11C8225
:10315000B8F1010FA2D0B8F1020F40F01582A1E73B
:10316000A42C0020CC310020AC2C0020AC3300205B
:10317000A0230020FA2A0020B4330020F52A0020E2
:10318000FB2A0020B8310020D90652D5B18B002986
:103190004FD006F11800FFF7D5FAB44B95F8301070
:1031A0001878B34A884244D192F8311093F801C09C
:1031B0008C453ED192F832E09978714539D192F838
:1031C0003320DB78934234D1F37696F8273030768B
:1031D00086F819C0B1761BBB96F8243096F82610F5
:1031E00096F82200591AA1EBD001C9B25FFA81FE0C
:1031F0001EF0800F96F82330084418BF4942A3EB15
:10320000930318BF5FFA81FE03EB0E02C0B2D3B284
:1032100086F8233003EBD00386F8220086F82430AA
:10322000944B01221A7096F8243086F82630002339
:10323000B38396F82510DFF83C8201F00F03013BC1
:10324000072B00F20382DFE813F008002500950049
:1032500058017A0194019F014A0198F80020854B9A
:10326000D2070FD5032286F82520388840221A700D
:103270000022B283002800F0D88042221A70FFF7A3
:103280008BFAD2E095F8353003F03F03022B40F083
:10329000DD8103E798F80030DB0760D595F835301D
:1032A00003F03F03122B5AD1714B93F8343003F0E3
:1032B000F002502A38D9704A1B099646053B11780E
:1032C0006E489B009B452BDA05EB0B0292F83C10F5
:1032D00031B3012902D10BF1010B1EE0022916D1F5
:1032E00092F83DC0BCF1040F11D192F83F308EF836
:1032F000001092F83E10624A43EA0123402B1380EB
:1033000028BF402380F800B0F38333840CE005EB42
:103310000B0292F83D201AB193445FFA8BFBD1E780
:103320008EF8001080F800B0032386F8253095F859
:103330002C300120337595F82D30737595F82E30AB
:10334000B37595F82F30F375FFF726FA494A4223F3
:1033500013704C4A0023B3833B80138068E0202322
:1033600088F8003001F098FDDAF80030002283F888
:103370002520B0E595F83530D80725D5CA0623D4E1
:10338000B38B002B40F062813888013080B2FFF7A8
:1033900003FA98F8003043F0100288F800203A88C9
:1033A0001AB1344A43F01203137001F075FD012382
:1033B000B383082386F82530002386F827301122AE
:1033C0002B4B83F83520E2E098060DD595F83A208E
:1033D00095F83B3043EA0223D9F800201A44C9F893
:1033E00000203A88D31A3B80388848B1CA0607D4EF
:1033F00098F8003043F0020388F80030FFF7CCF96A
:1034000095F8362095F83730318C03EB02239BB2C8
:103410001B4A8B42138000D803B911801388F383B1
:1034200098F800309B0700F01181164B00221A809B
:1034300001F032FD0F4B1A78124B02F0200000F021
:10344000FF0128B100221A8084F825201422B7E752
:1034500002F0100000F0FF05B0B119800123A38332
:10346000042384F8253084F82710A8E7982C00203E
:10347000A42C0020B8310020FB2A0020FA2A0020CA
:10348000A0230020C4330020198861B1D60748BFAB
:10349000A583A28B32B9E28B914288BF1A801B8828
:1034A000A38300E01A80002384F827306D4B1B684B
:1034B000C9F800306C4B1B882BB1A38B1BB13C337C
:1034C0003B80182207E0694B1B789D0740F1BE80C6
:1034D0003C233B801022664B83F8352059E098F856
:1034E0000030DC0740F1B280002386F825305F4BC6
:1034F00010221A7001F0D0FCA8E0388808B1FFF75C
:103500004BF995F8353013F001030FD098F80030DF
:10351000D80745BF072386F825300623002346BF7A
:1035200086F82630B38386F8253016E098F8002018
:10353000D1071BD5052286F82520B38386E038887D
:1035400008B1FFF729F995F83530DA070ED50723CA
:1035500086F82530002386F826300120FFF71CF975
:10356000102388F8003001F097FC0DE03B885BB930
:103570006CE098F80030DB0768D5072386F8253023
:10358000002386F8263061E0102385F835303C238F
:103590003B80374B502283F83420237D344D85F80F
:1035A0003030637D05F1180685F83130A37D85F84C
:1035B0003230E37D85F83330237E85F82C30637E0E
:1035C00085F82D30A37E85F82E30E37E85F82F30E8
:1035D000238A2B85638A6B8594E80F0086E80F00A9
:1035E00005F10800314605F0C3FB94F8253003F0DF
:1035F000100303F0FF022BB1002385F8373085F864
:10360000363004E0402385F8362085F83730184CF2
:103610000623A371174B1B79E3713B88283B1A12D1
:1036200063710023227184F83B3084F83A30238799
:1036300007F083F9C04320870D4B60221A700022E7
:103640005A705A80094B00221A7007E00A4A002378
:1036500013700A4A3B801370044A137003B0BDE82C
:10366000F08F00BF942C0020C4330020B83100201C
:10367000A42C00204C3B0020F32A0020F42A002038
:103680002DE9F74F664C674AE1791378FF2903F17A
:103690002C0C0CEB04091CF804700192DFF8A481D7
:1036A00040F0B580234493F82930002B40F0AF80E0
:1036B00099F80430FF2B00F0AA8007F0400303F0D4
:1036C000FF061BB1237EFF2B00F0A1805649574D0A
:1036D00014230022B8F800B00B702A600CEB030E24
:1036E000DE4511DA04EB0E0A9AF8010010B92A60DF
:1036F0000B708CE014F80EE003EBC003DBB2BEF1FC
:10370000020F08BF5246E9E709F104000B702A6076
:1037100005F028FA464B1860002878D1019B1878EC
:103720002044303005F05AFE424C206005F04EFE39
:1037300025688346A146002D69D03C4B1C6834B1F6
:10374000A01C5946082206F0D9FDC0B200E0204670
:1037500095F8223027F07F0A5FFA8AFAEBB9002C3D
:1037600055D054F8022FCBF800206268CBF8042023
:103770007EB185F82030304B0122D9684FF47A733E
:1037800085F8222005F11000B1FBF3F107F0EBFF03
:1037900039E0022385F8223035E0BA0606D428B194
:1037A000012B34D1022385F8223030E0ACB322461D
:1037B00052F8023FCBF800305368CBF804306EB1BA
:1037C000012385F822301C4B05F11000D9684FF415
:1037D0007A73B1FBF3F107F0C6FF04E01CB110B13E
:1037E000022385F82230D9F8003093F8213053B104
:1037F000BAF1000F07D1114805F026FD104A1060FC
:1038000008B105F0FFFCD9F8003083F821A00023AF
:10381000A8F8003003B0BDE8F08F002EE3D0CFE76A
:10382000A42C0020F32A0020FC2A0020C40400203D
:10383000C8040020C00400204C3B0020AC2C002019
:10384000BC040020902C00202DE9F84F874CDFF8B5
:103850004482E379FF2B40F00381854E3378E218F0
:1038600092F83020FF2A00F0FB80234493F829309F
:10387000002B40F0F5807F4F7F4D3B6014232B7071
:1038800030782A782C30B8F8003002449A4254DA62
:10389000A1184878754B002800F0E280A25C012A4C
:1038A00041D11A8939607AB95A896AB99A895AB95B
:1038B000DA894AB91A8A3AB95A8A2AB99B8A1BB94B
:1038C000E38A002B00F0CC806C4805F087FDDFF820
:1038D000C8A10246CAF8000030B939680223023193
:1038E000664805F043FD1EE005F070FD83463B6829
:1038F000594603F102094846082206F0FFFC50B180
:10390000D9F80030CBF80030D9F80430CBF80430C7
:10391000DAF8003004E0DAF8003093F8222012B927
:10392000022283F8222033782A782C33134423444C
:103930005B7802EBC3022A70A2E72044043005F052
:1039400011F94F4B494D18609946002800F08880C6
:103950002B8973B96B8963B9AB8953B9EB8943B9C7
:103960002B8A33B96B8A23B9AB8A13B9EB8A002B44
:1039700076D0424D284605F0F5F82F4600286FD145
:1039800040F2FF23228BA5F1080E9A4205F1100C9C
:1039900019D16B8ABBB9AB8AABB9EB8A9BB92B8BBC
:1039A0008BB96B8BB3F5807F0DD12B7FFF2B0AD1A9
:1039B00095E80F008CE80F003378734430330FCB59
:1039C00085E80F0011E02F4D284605F0CBF8D9F817
:1039D0000030834244D197E80F0085E80F00337828
:1039E000234430330FCB87E80F0060222270282257
:1039F00062713A22A271FF22E2718822002384F8C8
:103A00002820D9F80020337063706380237184F814
:103A100029301D4EE02384F82C30931C1232354699
:103A200018685968083303C593422E46F7D1174AE0
:103A3000022384F8403084F8413013681448C4F8F5
:103A400042305368002143600622083006F062FDD0
:103A50000023638506F06EFFC0435023608500E0BD
:103A60000023A8F80030BDE8F88F00BFA42C002088
:103A7000F32A0020C4040020FC2A0020AC2C0020E3
:103A8000C8040020BC2C0020D42C00209C2C00203A
:103A9000E62C0020902C0020C00400202DE9F041ED
:103AA000524C534F00233B70637063803A2380462F
:103AB000A3716020FF232070E37199B96183A18312
:103AC000E183218484F8221002200121237660768C
:103AD00084F8231084F82430537B84F82530D3896C
:103AE000E3840CE00B4604F1180601F1100E354694
:103AF00018685968083303C573452E46F7D18723E4
:103B000084F82830002384F82930E3621346394EC4
:103B100002F1100E354618685968083303C573451D
:103B20002E46F7D1002626711046304D05F01AF8C2
:103B3000002842D1B8F1000F0CD04346083508F1F7
:103B400010062A4618685968083303C2B34215465E
:103B5000F7D105E005F1080005F1180105F008F9B5
:103B60002289224B244D82B95A8972B99A8962B945
:103B7000DA8952B91A8A42B95A8A32B99A8A22B96A
:103B8000DB8A13B92B80BDE8F081282363713B7871
:103B900001224033E254194AE018022343701368AB
:103BA0000A3040F8083C5368002140F8043C0622E3
:103BB00006F0B0FC50232B800CE018236B710E4BE9
:103BC00040222E816E81AE81EE812E826E82AE8287
:103BD000EE821A803B7828331C440023638006F071
:103BE000A9FEC0436080BDE8F08100BFA42C002086
:103BF000F32A0020D42C0020902C00209C2C0020A4
:103C000008B5044804F060FEBDE80840024804F02E
:103C10005BBE00BFCC000020D800002008B50648DD
:103C200000F076FF054B01221A7000225A70AA227A
:103C30009A70DA7008BD00BF2D3E2000FE2A0020D9
:103C400010B50F4C0220A17901F01AFCA379112BB9
:103C500001D0062B05D1238D618D9942A8BF19464D
:103C600008E03A2B05BF94F8281094F82930002179
:103C700043EA01210120BDE8104001F001BC00BF72
:103C8000A42C002010B513780446087A83F00203B0
:103C900098421DD1487A5378984219D1887A9378FE
:103CA000984215D1C87AD378984211D1087B1379FC
:103CB00098420DD1487B5379984209D1887B9379FA
:103CC000984205D1C87BD379984201D103201BE0EB
:103CD0000B890F4A6BB94B89B3F57F4F09D18B899B
:103CE000FE2B06D11368C989022023F8021B13603A
:103CF0000AE0136851F8080F083343F8080C4868C5
:103D000043F8040C13600120A040C0B210BD00BFF6
:103D1000D404002010B5084C01462378012B08D1AB
:103D2000A01C082206F0EAFA00280CBF204600205A
:103D300010BD002010BD00BFFE2A002008B50146BE
:103D4000102001F0ABFB044B04489B68002198470E
:103D5000BDE80840FCF754BFC4BD2000613D200011
:103D600010B508460C46114605F05CFB044B1B6879
:103D700013B19B6820469847024B1C6010BD00BFE2
:103D8000000A0020E80400202DE9F8434FEA121948
:103D9000B9F10F0F80461D4602F00F040BD00F2C17
:103DA00005D1B9F1000F0AD11024274619E0B9F165
:103DB000000F09D004E00F2C4FF0100900D110249F
:103DC00040464A4606F0CCFA09EB04020F2A274681
:103DD00006DC08EB09000021C2F1100206F09AFB94
:103DE000BCB1114DC7F110002E6840443146224647
:103DF00006F0B6FA022C08D1B9F10A0F9FBFFF23D3
:103E000088F80B30FE2388F80C3034442C60BDE871
:103E1000F883B9F1000F05D040462946BDE8F843C4
:103E200007F026BDBDE8F883D40400202DE9F04F4B
:103E3000944E954D002387B033702B70044601F0EB
:103E4000BDFA01F059FA914F04213860092001F0C0
:103E500017FB8F4B8DE860001B680BB1FFF7F0FE7E
:103E600004A80CB98B4900E0214606F093FD8A4B6B
:103E70008A4E1A8803933E2A40F20B82D7F800A09C
:103E8000874D0AF102032B60009B06F1180093F89E
:103E90000090002309F102090AF80930FFF73AFF00
:103EA00020B906F10800FFF735FF20B10AF103033E
:103EB0002B60802400E0044672783078130943EACE
:103EC0000013DBB2990841EA8313DBB212F00F0F43
:103ED000D9B2DFF8CC8100F00F000ED16F4E76889A
:103EE0005EB910B912F0F00F21D0D8F8003070266A
:103EF00003F8011BC8F800301AE078B912F0F00F8F
:103F00000CD1296823F03F031A43664B0A701B88C3
:103F1000033121F8023C6826296009E05F4A2B68DA
:103F200010686026186003F8041B2B6000E07826F8
:103F30005A4B9A790293112A08BF46F00406730778
:103F40005EBFD8F8003003F8012BC8F80030029BA0
:103F5000DB79402B06D0FF2B07D0012B08D146F090
:103F600001060BE046F0020608E046F0030605E015
:103F7000D8F8002002F8013BC8F80020029A474B0D
:103F8000128982B95A8972B99A8962B9DA8952B9A1
:103F90001A8A42B95A8A32B99A8A22B9DB8A13B983
:103FA00044F0400013E04048FFF7B4FE3F4B186078
:103FB00078B142781AF80930042043EA02130AF86B
:103FC000093039493A4AFFF75DFE60F03F00C4B25C
:103FD00028E0029B31491A8948F2FE039A420CD12B
:103FE0004B8B53B98B8B43B9CB8B33B9042008313E
:103FF0002F4AFFF747FE2043E9E7D8F80020DFF813
:10400000A8C096460CF1100B634603CB5B45CEF877
:104010000000CEF804109C460EF1080EF4D1204B9F
:1040200010321A60DFF874B09BF81830FF2B40F0A4
:104030008D809BF8192044F0080C022A5FFA8CFC52
:1040400038D1BBF81A30ABBBBBF81C3093BBBBF804
:104050001E307BBBBBF8203063BBBBF822304BBBB0
:10406000BBF8243033BB9BF826301BBBD8F800309C
:104070009BF8272044F00B0003F8012BC4B2C8F8CA
:104080000030A2E0FD2A0020082B0020E0040020E0
:10409000000A0020A0BF2000902C0020A42C0020AB
:1040A000D4040020A62C0020AC2C0020CC0400203E
:1040B0009C2C00209C4B588B194688BB988B78BB56
:1040C000D88BA8B9188C98B9588C88B993F8240063
:1040D00070B9296844F00A00C4B2084600F8012B00
:1040E00033F8252F043121F8032C9B78837015E0D9
:1040F000C98B8D4BA1B9198C91B993F8221079B95C
:10410000296844F00900C4B2084600F8012B53F8AE
:10411000232F063141F8052C1B790371296054E0E7
:10412000824ADFF81C82146808F11009A64643464B
:1041300003CB4B45CEF80000CEF8041098460EF1A4
:10414000080EF4D11034146064463EE00BF1180000
:10415000FFF7E0FD764B186050B143781AF809106C
:1041600044F004040B43E4B20AF8093000200EE0E6
:1041700048F2FE03BBF818209A4210D1BBF81A305F
:104180006BB9BBF81C3053B9BBF81E303BB90BF10F
:10419000180104AAFFF776FD2043C4B215E0634A74
:1041A000DFF89C81D2F800E008F11009F44643469C
:1041B00003CB4B45CCF80000CCF8041098460CF12A
:1041C000080CF4D10EF110031360019A564928230C
:1041D00013708B79112B51D14FF2B0030A8D52BA63
:1041E00092B222F00F0080B2984215D14B8D5BBA8B
:1041F00023F00F031B041B0C83420DD12868F3230B
:1042000003704B8D1A0A0B8D1B0A02EB031303F587
:10421000AA634370831C27E0029B43495B8D5BBA12
:1042200003F47F43B3F5704F09D12B68F1221A7064
:104230000A8DA3F801204A8D120ADA700CE002F40C
:104240007F42B2F5704F2B6808D1F2221A700A8DA6
:10425000120A5A704A8D5A80043305E0F0221A700F
:10426000886A053343F8040C2B60324B1A882B689C
:1042700023F8022B019A2B6030231370009B3A68BD
:104280001B78D65413445C70284B1B689B1A009A09
:1042900019E03A6841231370009B06F128051C7849
:1042A000631CDBB21344324603CAAA421860596049
:1042B000164603F10803F6D1009B29341C70019BBC
:1042C000019A1B782833102013700DEB000101F0C8
:1042D000E5F8194BDFF86C901B689847174B30EAEC
:1042E000200428BF15245B699847039BC4F17D0413
:1042F0001D88019B241A1E78009BAA1B93F800803E
:10430000DFF844B0C8EB04039A42DFF840A040F362
:10431000CC8000F03DFF7823B5FBF3F50135A842D2
:1043200016DC0020D2E000BFA42C0020D404002022
:10433000CC040020D22C002078BD2000C4BD200079
:10434000BC2C0020902C0020FD2A0020082B0020EF
:10435000D7F800809AF8005041462A4608F1040038
:1043600006F074F8B9F800305A4A6FEA83436FEAEE
:104370009343C3F3072388F80030B9F800300435BD
:1043800088F801301388EDB2190A88F80330013338
:10439000DFF854C188F8021013809BF80010631BEB
:1043A00023F007034C4E61441A4608EB0500CDF894
:1043B00008C08AF800503360019305F0D1FF019BDB
:1043C000581980B200F092FF00F0E8FEDDF808C056
:1043D000804665460028A4D004A8FFF7AFFC4046FD
:1043E00000F014FF404600F0FBFE3C4A1368904684
:1043F000012B96D0043B012B93D99BF800B0336876
:10440000053C5B441FFA83FB05238AF80030344BDC
:1044100024F007041A68B9F8003034606FEAC34327
:104420006FEAD343C3F307231370B9F80030537016
:104430002C4B1B889B4548D23A684FEADB0111712F
:104440003268CBEB03039342B8BF234A3868B8BF46
:104450001360009B346893F80090224605EB0B0133
:10446000484405F07DFF09EB040080B200F03EFFF8
:1044700000F094FE044600283FF453AF04A8FFF771
:104480005DFC204600F0C2FE204600F0A9FE124B63
:104490001B689B44D8F800301FFA8BFB012B3FF4BC
:1044A00040AF043B012BC3D83BE738680E4940447A
:1044B000314405F055FFB9F800004044801B80B23C
:1044C00000F014FF04A8FFF739FC012007B0BDE895
:1044D000F08F00BFA8230020E4040020E80400209F
:1044E000E0040020902C0020A42C00202DE9F04FA7
:1044F000A04FA14E87B000243C70347000F0FCFE49
:104500009E4DB8462860042000F0C2FF9C4B00B2CC
:1045100018609C4806F071F9DFF894B2009518B164
:10452000994BABF800401C80009B1B6819785D78A4
:1045300045EA012501F0F801C0291AD0E02926D169
:104540009F7893F804A0DB78BBF8004043EA072784
:104550003378C5F30A050533337000F0E1FE2044DB
:1045600034784FF00009041BAC42B4BF002401248E
:1045700094E29F78DB78002443EA07273378C5F379
:104580000A05043333704FF00109A24686E27E4BE0
:1045900000241C80A14627462346A2462546ABF8A8
:1045A0000040BBF80020AAB1002D00F09182764BAC
:1045B0001B88AB4240F08C82744B1B88BB4240F09E
:1045C00087820F2000F076FF0146714806F0E7F978
:1045D000D8B97DE240F213516A1E92B28A4214D8D1
:1045E0001BB1B9F1000F00F07382674B4FF480618B
:1045F0001D80664B63481F8006F0EDF80F2000F029
:1046000059FF0146624806F0C5F93778052F00F0DA
:10461000CD81009B1968CA5D02F0E003602B40F079
:10462000AC81B81C0F4497F801B00844594B5FFAAD
:104630008BF10E06186044BF0130186012F0100FA5
:104640000091554E02F008012FD1D1B9196831F807
:10465000010FA6F801008978F170196811F8040BB0
:104660001960830803F00F0141F060013170717827
:1046700003F0300343EA801301F00F010B43737022
:104680002EE0186860210746317017F8011B0330CF
:104690004FEA910E0EF0300E01F00F014EEA0101CB
:1046A00071703988186071801AE001F0FF0791B9C4
:1046B00019680878C0F3830040F06000307011F88A
:1046C00001EB77804FEA9E0000F0300040EA8E1048
:1046D0007070196004E0602333700023737073807E
:1046E00002F0040303F0FF0101912B4F2BB929497C
:1046F0000B6813F8010BB8710B6012F003020BBFCB
:10470000244A264B13689B5C09BF13F8011BFB71FD
:104710001360F9711BF0400FCBF301124AD0009BDC
:10472000190641BF1549144B09681B7851BF002178
:104730005B189978090982B1194B1878012805D1BD
:10474000587888420CBF1946002100E00021154B23
:104750001960002940F0BA8128E11146124B0F2060
:104760009A5C0391029200F0A5FE039903460F485C
:1047700029E000BFFD2A0020082B0020E0040020D3
:10478000D0040020D8040020A6230020A423002069
:10479000013D0020D4040020EC04002065BF20006F
:1047A000FE2A0020CC0400207EBF2000F40400205C
:1047B000AA230020A64B0F209A5C029200F07AFEFA
:1047C000A4490346A448029AFFF7DEFA0BF008005A
:1047D0000BF0030200F0FF010BF00403B0B1002B5B
:1047E0004AD19E4B1B88ADF81430531E012B9FBF3E
:1047F0009B490B6813F8010B0B609A4B98BF8DF81F
:1048000015009A5C984805A9002333E0002B27D0B7
:10481000009B1B0641BF9549954B09681B7851BF0A
:104820000B465B18997801F00F039249087801282C
:1048300004D14878984218BF002100E000218E4B37
:1048400000911960002900F0B1808C4B102013F802
:1048500002B000F02FFE009903460231824808E0C2
:104860007B4B102013F802B000F024FE7949034678
:104870007D485A46FFF788FA98F80000784900F119
:10488000280388F80030019B002B56D00B681A785B
:1048900002F0F802F02A50D11122BA711A7802F00F
:1048A000040E02F0F302F03A5FFA8EFE032A7DD87E
:1048B000DFE802F0020A1622B3F8012005333A8538
:1048C00033F8022C7A852CE0B3F801203A85DA78A7
:1048D000A2F5805292B2120242F0F0027A8509E00B
:1048E0005A78A2F5805292B2120242F0F0023A8552
:1048F0005A887A85043314E05A7802331209A2F5F3
:10490000756292B2120242F0F002328513F8012C65
:1049100002F00F02A2F5756292B2120242F0F002AA
:1049200072850B60BEF1000F04D10B6833F8022BC7
:10493000FA850B60303088F800004C4A0B6812682A
:104940009B1A4B4A137065B900F0EAFC484B1B7880
:10495000C01A98F800301844283803123B71787157
:1049600004E0A5F128031A123A717B71BA79444B1D
:10497000112A1BD19A889A8518E0412A40F0A88014
:104980007A1CD2B28B18DFF8F8E003F1280C7246DB
:1049900018685968083303C263459646F7D198F8FA
:1049A000003029372833377088F8003000F0B8FC21
:1049B0002F4E3378834200F28B8000F0B1FC3378C5
:1049C000304AC71A176040F2145298F800B00BEB47
:1049D000CA0A0AEB070191427AD8244A284811688A
:1049E000504419443A4605F0BBFCDFF8AC80264E33
:1049F00065B1B9F1000F02D032885A4432800CB14F
:104A0000358007E032883A44328003E007EB0B023E
:104A1000A8F8002033881BB1B8F800209A4257D17B
:104A2000B8F8004019482246154905F099FC184B82
:104A30001C80184C0023A8F800303380236823B171
:104A4000FFF7FEF823685B68984700F07BF83FE0CB
:104A500069BF20006DBF2000F404002063BF200068
:104A6000D40400206FBF200004050020E0040020D3
:104A7000082B0020FE2A0020CC0400207EBF20004E
:104A8000EC040020E4040020AA230020A42C002031
:104A9000902C0020000A0020A6230020BBF8003044
:104AA00093B1B9F1000F0FD00F2000F003FD0146C4
:104AB000094805F074FF18B9084B1880084B188096
:104AC0004FF001094B466CE501236AE5023145E6EA
:104AD00007B0BDE8F08F00BF013D0020A6230020F5
:104AE000AA23002008B5054805F065FE20B1BDE801
:104AF0000840024805F056BE08BD00BF480A002025
:104B0000024B1B6803B1184718467047580A00202B
:104B1000014B1860704700BF580A002007B5074BCB
:104B20008DF80700186828B1054B0DF107021978B8
:104B3000FDF766FC03B05DF804FB00BFAC3300205A
:104B40000A3D002008B5002204480221FDF758FC68
:104B5000034A00231380034A137008BDE4000020B9
:104B6000902C0020F32A0020F8B54A4D2B88002B0A
:104B700000F08F80B3F5A06F2ED8474B1A8B6AB91F
:104B80005A8B5AB99A8B4AB9DA8B3AB91A8C2AB924
:104B90005A8C1AB99A8C0AB9DA8CEAB11B7E3E4C4F
:104BA000FF2B6FD004F1180003F0BCFF38BB04F1F9
:104BB000180004F013FA074688B904F08DFB064686
:104BC000F8B9364B1B7823B194F82860FDF730FE16
:104BD000A671334B5B68984700232B80F8BD04F027
:104BE000E9F9064668B9FB6923B11B6A93F88C00A2
:104BF00006F0AEFA3846BDE8F84004F021BA04F1F8
:104C00001806304603F09CFB07460028E4D13046E6
:104C100004F0E4FB044600BB30462146224623460E
:104C200004F0A4FB06460028D6D01E4803F09AFFE5
:104C3000014608B121461B483246FEF72FFF1A4BAA
:104C400006F1180019694FF47A73B1FBF3F106F01D
:104C50008AFD012386F82030F8BD90F82230002B21
:104C6000BAD0022B08D1032380F82230052110305E
:104C700006F079FD84F82070204604F0A7FBFFF7CA
:104C80003FFFA9E70020FFF73BFF044A00232B80EA
:104C90001370F8BD902C0020A42C0020F32A0020D3
:104CA000DCBD2000AC2C00204C3B00202DE9F04165
:104CB00003880646144643B140F23A3293422AD062
:104CC000002303800320BDE8F081614A002122F81F
:104CD00033100133DBB2082BF7D15E490B705E4B0A
:104CE0001B681364FDF7E8FA5C4B1870FDF7E4FAF3
:104CF0005B4B402118705B4805F042FDFDF762FDFB
:104D0000594B1B68984702F067F940F23A333380F9
:104D10000120BDE8F081022917D1544B1A881C46A6
:104D2000002AF2D0524B9A79062A05D193F83530F1
:104D30009B0701D5FFF7D6FE0120FDF7C3FD2388B1
:104D4000002BE2D0FFF710FFDFE716D859B9002C8F
:104D5000DBD0484B03201C60FDF7B4FDFFF704FFD8
:104D6000FFF7C0FED1E70129CFD1002CCDD0424BB7
:104D700005201C60FDF7A6FDE4E7872931D13F4DF2
:104D800000233F4F2B702B78072B11D857F8043C8A
:104D9000A34208D137F8080CFDF77AFD002327F865
:104DA000083C47F8043C2B78083701332B70EAE7BE
:104DB000344B9A6A3033A24202BF002243F8082CD7
:104DC00003F80B2C304A9342F3D1304B9A692033CD
:104DD000A24204BF002223F8102C2D4A9342F5D1A1
:104DE00093E7882991D11F4B9C4203D0294B9C42C9
:104DF0008BD123E0204605F0DEFC0028F6D01F4DC5
:104E000000232B702B78072BF0D81E4F4FF0300863
:104E100008FB037393F825306BB1124805F0C2FC10
:104E2000164B02201A7808FB0273124A1360FDF732
:104E300049FDFFF799FE2B780133E2E7204605F0A4
:104E4000BAFC00283FF461AF03F06AFF7AE700BFC5
:104E5000040A00200A2B00201C030020093D00202A
:104E60000A3D0020480A0020DCBD2000902C0020D4
:104E7000A42C0020C8310020C0310020092B0020C4
:104E80000C0A0020CC3100204C330020C833002015
:104E900008350020A83C002070B5184B186810B1E8
:104EA00000F1280402E0164B1C681834154B1B78DF
:104EB0005B0619D5144A002314491370082B10D02F
:104EC00031F8086C058AAE4207D151F8045C25B16F
:104ED000137000232560636004E001330831DBB206
:104EE000ECE71370FFF7FEFD206830B1084B6268F5
:104EF0001978BDE87040FDF783BA70BDC831002055
:104F0000C0310020B83100200B2B00200C0A0020FB
:104F1000093D002050BB49B342B30B886BB94B88A5
:104F20005BB98B884BB9CB883BB90B892BB94B89C3
:104F30001BB98B890BB9CB89C3B113886BB9538863
:104F40005BB993884BB9D3883BB913892BB9538983
:104F50001BB993890BB9D38943B1054B1B782BB18E
:104F600000210448044A0B46FDF72CB8704700BFE7
:104F70000C2B0020640A0020B950200070B51B4B98
:104F80001C781E46002C30D1194B1A4D1C704AF665
:104F9000AA23284618492B806C80AC80EC802C8199
:104FA0006C81AC81EC8106F063FC2146284601222D
:104FB00003F034FE1148FCF705FC114C04F16005C8
:104FC00014F8022C237C3AB1012B05D8204604F0BA
:104FD000C5FA0A2005F062FB2034AC42F0D1094842
:104FE000094903F0B7FF0123337070BD0D2B00207A
:104FF0000C2B0020AC2300209C2C00208FBF200015
:10500000663B00205C0A0020154F200030B585B0BB
:10501000FFF7B4FF274B002403F1600213F8020CE2
:10502000197C50B1012908D11978FE2904D1597889
:10503000802918BF1C4600E01C4620339342EDD166
:105040008CB3204603F08EFD80B321461E2002F073
:105050000BF902F0EDF8054605F080FE2B6A43B12E
:10506000D3F8880028B104F0CDF82B6A0022C3F8E9
:1050700088204AF6AA230024284669464022ADF833
:105080000030ADF80240ADF80440ADF80640ADF890
:105090000840ADF80A40ADF80C40ADF80E4005F000
:1050A000E1FE204604E06FF0010001E04FF0FF3028
:1050B00005B030BD663B002070B502F0B9F81D4B5D
:1050C000002103F1600213F8025C1C7C55B1012C35
:1050D00008D11C78FE2C04D15C78802C18BF1946AE
:1050E00000E0194620339342EDD118B1102205F0AB
:1050F00005F938B9104C2378DBB1FFF787FF00239F
:10510000237070BD02F094F84FF6FF73828B9A42C1
:1051100006D1094C23781BB1FFF778FF00232370D9
:1051200006484FF42061064A0023BDE87040FCF7B2
:1051300049BF70BD663B00200C2B0020640A002094
:10514000B950200008B5FFF719FF0748074A0023A8
:105150004FF42061FCF736FF054B01221A70002046
:10516000BDE8084002F038BB640A0020B9502000B6
:105170000C2B002008B5044806F0FCFABDE80840F6
:10518000024806F0F7BA00BF00010020F40000203A
:10519000014806F037BB00BFF400002038B50E48C8
:1051A00006F0F8FA0446A8B10C4806F0F3FA0546F2
:1051B000206028B92146084806F000FB284638BD83
:1051C00000F056F805F1A001A5F8800005F1820075
:1051D00000F022F9204638BDF40000200001002034
:1051E00010B504460748214606F0FEFA48B121688A
:1051F000054806F0E3FA2146BDE81040014806F0F4
:10520000DDBA10BDF40000200001002010B50446F6
:105210000948214606F0E8FA68B12468B4F880101D
:10522000204600F0E3F804F1820004F1A001BDE89B
:10523000104000F00BB910BDF400002030B5094B50
:1052400018881A4668B1084B1988302330318B42D0
:1052500005DA064C2518ED5C1D550133F7E70023F0
:10526000138030BD3E2900203C290020A80A0020E0
:10527000F8B50E4B0E4A1B781688C3F13005AC19F1
:10528000802C07460EDC0B492A46194405F068F8C5
:10529000094A0A4B11681B8878191944324605F0EF
:1052A0005FF800E000242046F8BD00BF1E2B002060
:1052B0003C290020A80A0020A40A00203E29002042
:1052C00010B508490B888342A1BF074C80B22288E1
:1052D0001218A1BF181A088022800120B8BF002030
:1052E00010BD00BF3C2900203E290020014B188042
:1052F000704700BF3C290020024B1888024B18441D
:10530000704700BF3E290020D80A0020024B034806
:105310001B781844704700BF1E2B0020A80A0020ED
:10532000014B1888704700BF3C290020044B1878B7
:10533000C0F1300010F0FF0004BF024B1878704736
:105340001E2B00203E29002008B5FFF7EFFF024B7F
:105350001B88184480B208BD3C29002070B5084E57
:1053600005463478844208DBFFF7EEFF28448028A6
:1053700003DC641B3470012070BD002070BD00BFD1
:105380001E2B002008B50023084A002122F8131024
:1053900001330F2BF8D10648064905F0FBFABDE8AA
:1053A00008400548034905F0F5BA00BFC83C002095
:1053B000B83C0020A0BF2000C03C0020064A0023CB
:1053C0001380064A1380064B30221A70054A064B9A
:1053D0001A60FFF7D7BF00BF3E2900203C290020FC
:1053E0001E2B0020D80A0020A40A002038B50C4645
:1053F0000546FFF7E3FF802C054B28BF8024186883
:105400002946224604F0ACFF024B20461C8038BDE2
:10541000A40A00203C29002010B50A4B03F11C020D
:1054200053F8044B934240F8044BF9D11B88038096
:10543000054B03F1100253F8040B934241F8040B9F
:10544000F9D110BDC83C0020B83C002010B50A4B73
:1054500000F11C0250F8044B904243F8044BF9D180
:1054600002881A80054B01F1100251F8040B914299
:1054700043F8040BF9D110BDC83C0020B83C002013
:10548000024B23F810100120704700BFC83C0020D9
:10549000014B33F810007047C83C002008B5044B9E
:1054A0000F3803EBC00005F075FA012008BD00BFFE
:1054B000B83C0020024B0F3803EBC000704700BF20
:1054C000B83C00200148024905F069BAC03C002000
:1054D000A0BF2000074B10B51B689847064B5B68C0
:1054E0009847064B5B689847BDE81040044B5B68E3
:1054F000184700BFA4BC200088BD2000A8BD200024
:105500006CBD200030B591B03C220546002101A8B9
:1055100005F000F83C4B1A782AB901221A70FDF701
:1055200043F83A4B18700E20FFF7B2FF8DF81400C5
:105530000D20FFF7ADFF8DF81600FFF7C3FF18B180
:1055400000238DF8173004E00B20FFF7A1FF8DF842
:105550001700002301248DF818308DF81A40ADB1E2
:105560000A20FFF795FF28B10A20FFF791FF8DF879
:105570001C000BE0254B1A7802B91C7019780A2020
:105580004A1C1A708DF81C10FFF77AFF4AF6CD33CB
:1055900003248DF81B40ADF81E30FFF793FF40B198
:1055A00002238DF81930FF238DF804308DF8053073
:1055B00008E01020FFF77EFF014601A805F0EAF998
:1055C0008DF819404AF6CD33114903A8ADF82030C3
:1055D00005F0E0F9FFF790FE0E90FFF7A1FE0F90A7
:1055E00001A805F069FA044645B1FFF7B7FE38B1E6
:1055F000FFF78CFE014601A805F074FA204601E091
:105600004FF0FF3011B030BD202B00201F2B0020A9
:105610000B3D002002292DE9F04705468846144637
:1056200040F382800378427803F007012174C3F3CA
:10563000C001C3F38019C2F3810A97096174C2F3F0
:105640000112C3F30011C3F34013A174E37484F88F
:10565000149084F815A0A275E77583782376BAF1C3
:10566000000F22D00279C378BAF1020F03EB0223B4
:10567000638300F1050609D120462D4905F08AF91A
:10568000AB79EE1D23706B79637015E0BAF1030FEF
:1056900012D100F10D031946621E13F8010DB34239
:1056A00002F8010FF9D10E4606E0C61C204920463B
:1056B00005F070F9A4F81AA02FB3B9F1000F05D1C5
:1056C000727816F8023B03EB022300E0638B022F93
:1056D000A3830AD104F10800154905F05BF973783A
:1056E000237216F8023B637213E0032F11D10836C0
:1056F0003246E31D04F10F0112F8010D03F8010F0A
:105700008B42F9D105E004F10800094905F042F99E
:10571000A783751BC5EB0803A36366634545D4BF28
:1057200028460020BDE8F0870020BDE8F08700BFD4
:10573000A0BF2000094B10B55B689847041E0ADB28
:10574000FFF77CFD064BDB689847002814BF204616
:105750004FF0FF3010BD204610BD00BF78BD2000C7
:10576000C4BD20000A4B13B500241C70094B1C80DB
:10577000FBF7B2F8009400F580510122064B074870
:10578000FCF76CFE064B01221A7002B010BD00BF80
:10579000212B002040290020495C2000600B0020C4
:1057A000272B0020074B82B01B784BB1064B1A7891
:1057B00032B901221A70054B1B6A019302B01847D7
:1057C00002B07047272B0020212B0020A4BC200012
:1057D000094B82B01B786BB1084B1A7852B1084A5A
:1057E000127802F0FF012AB91970064B5B6A019327
:1057F00002B0184702B07047272B0020212B002051
:10580000232B0020A4BC200008B5FFF7E1FF024BCA
:1058100000221A6008BD00BF5C0B0020044B1B78FF
:1058200023B9044B1B680BB9FFF7D2BF704700BF09
:10583000222B00205C0B0020094B00221A70094B20
:10584000C2B21A7082B0084A084B18B10121117017
:105850001B6A01E05B6A1070019302B0184700BF39
:10586000272B0020232B0020212B0020A4BC20006C
:1058700037B50B4B1A7802F0FF056AB901241C708A
:10588000084B1D70FBF728F8009500F58051224663
:105890000548064BFCF7E2FD012003B030BD00BF18
:1058A000272B0020232B0020600B0020495C2000C8
:1058B00037B50B4B05461B780C467BB1FBF70CF854
:1058C000C043E04202D5FBF707F8441C00230093D5
:1058D000284621460122034BFCF7C0FD03B030BD32
:1058E000272B0020495C200013B5234B1A681C4667
:1058F0000AB9FFF76DFFFFF713FD032839D0FFF753
:1059000023FD002835D01D4BDB689847002830DB8D
:10591000FFF706FD68B3FFF717FD50B31020FFF740
:10592000C9FD174905F03BF868B10D20FFF7B0FD40
:10593000206068B1FFF736FF12480421124A0023A5
:10594000FCF740FB09E0FFF7BDFD0028EDD110E0BA
:10595000FFF73EFF0B48FCF771FB03F075FF40B902
:1059600003F08EFF094BDB68019302B0BDE81040E5
:10597000184702B010BD00BF5C0B002078BD2000AE
:105980000B3D0020700B002009582000A8BD20000E
:105990002DE9F04F744E89B03378049023B9734BDE
:1059A0001B780BB90525DBE0FFF7CEFC0028F9D00A
:1059B0006F490F20FFF772FDFFF784FD07460C20AB
:1059C000FFF766FD98B1FFF7BFFC8246694C4FF0C8
:1059D00001096568FFF79AFC5146A847664DA3691F
:1059E00085F8009001939847A84678B909E001210D
:1059F0000B20FFF745FD614B9B6898470028E2DAD2
:105A0000D0E7E36902939847054618B1002388F868
:105A1000003085E0FFF7DCFE337886F80090DBB2DB
:105A20000393049B63BB4FF00609FAF755FF8346C7
:105A3000FFF7B8FEFAF750FF6FF00303CBEB030359
:105A4000C342F7D463699847834648B9FFF7C0FE5D
:105A500088F800B0FFF7BCFE9DF80C3033705FE0B3
:105A6000FFF7B6FEFAF738FF8346FAF735FF6FF017
:105A70000F03CBEB0303C342F7D4B9F10109D4D12F
:105A8000003718BF01270FB9FFF78CFEFBF7B8F8F6
:105A9000FAF722FF81460A20FFF7FAFC5FFA80FB43
:105AA000FAF71AFF364BC9EB0303C34244D5FBF7A1
:105AB000A7F8002F36D0A36850469847FAF70CFF96
:105AC00002460592FAF708FF059A6FF00C039B1A3D
:105AD000C342F6D4002FE3D1019B984770B3FAF785
