:020000040020DA
:10000000883200208D0220006B922000699220002F
:10001000699220006992200069922000000000008F
:1000200000000000000000000000000069922000B5
:10003000699220000000000069922000799C200055
:100040009B9C2000A19C2000A79C2000AD9C200030
:10005000000000007F9C2000859C20006992200009
:100060006992200000000000000000000000000075
:100070000000000000000000699220000000000065
:10008000000000000000000069922000699220003A
:1000900069922000699220006992200069922000F4
:1000A00069922000699220006992200069922000E4
:1000B00069922000699220006992200069922000D4
:1000C00069922000699220006992200069922000C4
:1000D0006992200000000000000000000000000005
:1000E0000000000000000000000000000000000010
:1000F0000000000000000000F52820000529200075
:1001000000000000000000000000000000000000EF
:1001100000000000000000000000000000000000DF
:1001200000000000000000000000000000000000CF
:1001300000000000000000000000000000000000BF
:1001400000000000000000000000000000000000AF
:10015000000000000000000000000000000000009F
:10016000000000000000000000000000000000008F
:10017000000000000000000000000000000000007F
:10018000000000000000000000000000000000006F
:10019000000000000000000000000000000000005F
:1001A000000000000000000000000000000000004F
:1001B000000000000000000000000000000000003F
:1001C000000000000000000000000000000000002F
:1001D000000000000000000000000000000000001F
:1001E000000000000000000000000000000000000F
:1001F00000000000000000000000000000000000FF
:1002000000000000000000000000000000000000EE
:1002100000000000000000000000000000000000DE
:1002200000000000000000000000000000000000CE
:1002300000000000000000000000000000000000BE
:1002400000000000000000000000000000000000AE
:10025000000000000000000000000000000000009E
:10026000000000000000000000000000000000008E
:1002700069922000E9272000012820000D2120009C
:1002800069922000411C20006992200008B5094BAA
:10029000FF221A600848094A4824E3690849121AEB
:1002A00098470848084AA3690021121A984701F0A4
:1002B000A1F9FEE7B4200D4040000020FE0100201F
:1002C0008CA9200000020020872A0020F0B50388B6
:1002D00085B06A2B054625D0A62B00F09880EBB997
:1002E000614A852110681A4603F0E4F96A2313E095
:1002F00042F6166303825D4802F0EEFB306806F0BA
:100300002DFF33685A48198A5A8A49BA52BA89B2B3
:1003100092B202F0E1FBA6232B8005E000230380CC
:1003200003209FE0852901D001209BE04AF6AA2600
:10033000504B01219B68812098474F4809F0DAFC17
:100340004FF47F430024ADF80A30FE23ADF80C30A3
:1003500068464FF4807321460322ADF80060ADF883
:100360000240ADF80440ADF80640ADF80840ADF8E5
:100370000E3005F07BFB684605F01CFBC8B16946F2
:100380001E2000F0B7F969464022ADF80060ADF8D4
:100390000240ADF80440ADF80640ADF80840ADF8B5
:1003A0000A40ADF80C40ADF80E4008F0A7FF334806
:1003B00000E0334809F09EFC324802F08DFB324CDD
:1003C00004F16007267C012E08D8204606F0C6FE00
:1003D0000A2009F077FC0EB9012323742034BC42B3
:1003E000F0D12A4B01205B699847002043F6225147
:1003F000024606F0C3FC264E0446306000287FF417
:1004000077AF244809F076FC2C8002202AE0224BAA
:100410001B788B4216D1214B1B789B077FF57BAF56
:100420001F4B002219681F4B1F481B88CA5402F03B
:1004300053FB1E4B1E48D97D02F04EFB0A2009F0EB
:1004400041FC68E71B4B1B788B427FF464AF094B80
:100450009A427FF460AF184809F04CFC1E2009F066
:10046000C3F858E705B0F0BD980400204AA7200063
:100470007BA72000C8A42000B8A62000CBA620009F
:10048000E1A6200000A72000EA28002074A6200092
:100490001002002018A720007D2A002078250020C7
:1004A000842500205020002095A7200064200020F3
:1004B000AAA720006A2A0020ADA7200070B50D462B
:1004C000044658B18169A94208D0054E306806F04B
:1004D000B1FF3068294606F0A3FFA56170BD00BFDB
:1004E0005000002038B50D4604460021102208F0C7
:1004F0006DFE2A7D294607322046D21008F08CFD79
:100500002046BDE83840014909F065BD5C20002067
:1005100008B505F075FC05F06BFC034B0146186847
:10052000BDE8084009F0DFBD5000002008B5074BCA
:100530000146186809F0F0FD014628B1044B18681F
:10054000BDE8084009F0CFBD08BD00BF5000002045
:100550002C010020024B0349186806F08FBE00BF33
:10056000500000206F952000024B0146186809F0EA
:10057000BABD00BF5000002008B5044B0146186802
:1005800009F0CAFDBDE8084009F04BBD500000204D
:1005900038B50B4C054694F88D1071B94FF4927232
:1005A000204608F013FE0123204684F88C5084F87E
:1005B0008D3000F09DFF204638BD002038BD00BFC3
:1005C0002C1F002070B5064610460D4609F02BFD85
:1005D000014608B9002413E00A4B186806F07CFEB7
:1005E00004460028F6D0FFF7A1FF66606B8A2381DE
:1005F0006B7E237420B1838C13B94FF40073838412
:10060000204670BD50000020F8B5194F06463868E6
:1006100006F048FE04460025BCB16368B3420ED123
:100620004FF6FF7322899A4209D03DB1336A2846BA
:100630009B6821469B689847054600E02546214671
:10064000386809F039FD0446E6E75DB130462946D1
:10065000FFF734FF336AB0699B6821461B699847EE
:10066000B08302E04FF6FF73B3832846F8BD00BFA6
:100670005000002010B5044608F055FF034B2146FA
:10068000BDE81040186806F0B5BE00BF500000205D
:1006900070B5094D0646286806F004FE044650B1C0
:1006A00063689E4202D12046FFF7E4FF2868214696
:1006B00009F002FDF2E770BD50000020044B93F8F2
:1006C0008D0020B1D868837D002B08BF00207047C3
:1006D0002C1F0020064A92F88D3033B192F88C30EE
:1006E00083420CBF1046002070471846704700BF79
:1006F0002C1F00202DE9F04180460F46FFF7EAFF4E
:1007000010B300F1100400F18805F026637DBBB141
:1007100020463946102208F04DFC40B9A67C16F060
:10072000800F06F1010614BFF6B206F07F06236AB9
:100730002046DA68944204BF0022DA6008F019FF0C
:100740003C34AC42E2D100E0F0264046394608F0A5
:100750006FFF0546002849D0046A012383750021F4
:100760000223C1740175867484F88F30214BA36015
:10077000FFF7A4FE39462B4607F1100251F8040B8F
:10078000914243F8040BF9D1FF2284F893204FF6ED
:10079000FF72082384F890300C2384F891301423DE
:1007A00084F894300A2384F892304FF4E063A4F87C
:1007B00098304FF48073A4F89A30A4F89C20AB834F
:1007C000E068A84205D020B109F036FDE3680022B8
:1007D0009A75F02384F88E30A368E5605B69204643
:1007E0009847054B20461C6009F064F92846BDE88F
:1007F000F08100BF94000020281F0020034B1A8BBB
:1008000082420CBF18460020704700BF94000020B1
:100810002DE9F8438046087E0C4608F009FF06469D
:10082000002800F0828021464246056AFFF7CAFE92
:10083000074618B985F88D00BDE8F883637E037418
:10084000208AFFF7DBFF814630B93846FFF712FFF9
:1008500085F88D90BDE8F88394F851305B0604D597
:10086000002004F13C0108F01DFD0123B375A37DB8
:1008700004F110013375237DF374E37DB374C5F87F
:100880000890637DEE6085F88F30F02385F88E3018
:10089000238CA5F89830638CA5F89A30A37E85F850
:1008A0009030E27E134485F8912085F89430237FC0
:1008B000324685F89230637F85F89330E38BA5F854
:1008C0009C30234653F8040B8B4242F8040BF9D1B9
:1008D00004F13C0306F12402543453F8041BA342F0
:1008E00042F8041BF9D139463046FFF7E7FDAB6803
:1008F00028465B699847AB6838461B6900219847D2
:100900000B4BB0831A68308202B91D60284609F08B
:10091000D1F82846414608F027FD95F88F3023B1DD
:100920002846BDE8F84309F0D3B8BDE8F88300BF16
:10093000281F00202DE9F041064610B300F11004F5
:1009400000F18808637D3BB93C344445FAD1304618
:10095000BDE8F04109F0AEB84FF6FF730A4FA3832C
:10096000386806F09FFC05460028EDD06B689C4275
:1009700002D1284608F0D7FD3868294609F09CFBCB
:10098000F1E7BDE8F08100BF5000002038B50D4D03
:10099000286806F087FC044690B162685AB1136A71
:1009A0004BB1637CD90706D523F001036374106A49
:1009B000214608F061FE2868214609F07DFBEAE740
:1009C00038BD00BF50000020024B0146186806F0F9
:1009D00027BD00BF50000020014B00221A80704745
:1009E000502000202DE9F04F9DB000215C2205A889
:1009F00008F0ECFB08238DF82E300C238DF82F30F7
:100A00000A238DF830304FF48073ADF836304FF450
:100A1000E063ADF834308E4B01AF1B8BADF8243062
:100A2000FF238DF831304FF6FF73ADF83230894B2C
:100A30000FCB87E80F00384605F0E2F9044680B98D
:100A40000F2006F055FE224601460123384605F0E8
:100A50009FF9002800F0F98010304FF4167109F06A
:100A6000CEF97D4C7D4B26781B787D4AF61A2C33C7
:100A700003EB020AD35C50468DF82C309AF8013013
:100A800002218DF82B3009F00AF8A0469AF80430BC
:100A90002C3E23F07F028DF82820C3F3C20203F01E
:100AA00007038DF82A309AF80530F6B28DF82D300C
:100AB000ADF826008DF829200AF1080305AD0AF1EA
:100AC000180E2A4618685968083303C2734515463C
:100AD000F7D11824B44280F2B1801AF8043023B15F
:100AE0000AEB04025578023500E0012505EB040904
:100AF000B14500F3AA80023B062B00F29D80DFE89F
:100B000003F00432529B9B9B7E00052D40F39D8099
:100B10000AEB0403D9781A79490041EAD2118DF819
:100B20006910C2F3011102F00F0298788DF86B2062
:100B30005A798DF868008DF86A108DF86C200028BD
:100B40007AD0072806D15046A11D08F0A8FFADF8BD
:100B50006E0071E0022878D19A79DB798DF86E20E9
:100B60008DF86F3068E0082D6FDD0AEB040393F811
:100B700002B0DB785046211D8DF84D308DF84CB019
:100B800008F078FF0BF10702D210D31DAB42129090
:100B90005BDABBF1800F58D804F108010EA851446C
:100BA00008F03AFA48E0102D4FD10AEB0405EB7833
:100BB000A11D8DF82E302B7950468DF82F306B7992
:100BC0008DF8303008F06BFF04F10801ADF8340007
:100BD000504608F064FF04F10A01ADF836005046B3
:100BE00008F05DFF6B7BADF8240004F10E01504668
:100BF0008DF8313008F053FFADF832001CE0202DA5
:100C000023D10AEB04039A78DB7804F108015046FB
:100C10008DF864208DF8653008F02CFF10345444B2
:100C2000189014AA04F1100513462068616808346E
:100C300003C3AC421A46F7D14C464BE7384605A9E8
:100C400008F0CAFD0023A8F800301DB0BDE8F08F01
:100C5000940000206C20002050200020E21D002085
:100C6000642000201FB5124B124A1B7800212C3340
:100C70009C186170D154A0B940F2FF23ADF8020076
:100C8000ADF80400ADF80600ADF80800ADF80A00B4
:100C9000ADF80C006846ADF800304FF4D053ADF815
:100CA0000E309B210022022305F02AFD04B010BD66
:100CB000E21D0020642000202DE9F04F0546894602
:100CC0007E4B90F88C101B787D4AC6682C33D1542B
:100CD0009C18B37C85B06370B28B2046022108F06B
:100CE000E4FE00232371F37C002B18BF80232371C3
:100CF00095F88F2043EAC203DBB22371327D02F004
:100D000007021343237195F88E306371B9F1000F18
:100D10000AD195F88E3013F0800F03F1010308BF5C
:100D200003F07F0385F88E300023A371E37133460F
:100D300004F1080206F1100153F8040B8B4242F84B
:100D4000040BF9D12B784BB3AB6828465B69984705
:100D500006230221217663762B78A3766B785B08D5
:100D6000E3766B78DB012377AA7843EA0213EA780B
:100D7000134323772B78072B06D1617720461E215A
:100D8000EA8808F092FE07E0022B40F09380637738
:100D9000AB79A377EB79E377202700E0182704EB02
:100DA00007080E234FF0000A4FF0040B04F807B0B9
:100DB00088F8013088F802A095F89030204688F82D
:100DC000033095F89130B91D88F8043095F89230C9
:100DD00088F80530B5F8982008F067FE204607F13E
:100DE0000801B5F89A2008F060FEAB6820461A8B1F
:100DF00007F10A0108F059FE88F80CA095F8933025
:100E0000204688F80D30B5F89C2007F10E0108F057
:100E10004CFE96F8382007F110036AB30822E2541A
:100E20001E2388F8113096F83830204688F81230A2
:100E300096F8393007F1140188F81330726B08F016
:100E400025FE2046726B07F1180108F01FFE07F11E
:100E50001C0020445A46514608F0B8F907F1200317
:100E600006F124021C44343652F8043BB24244F8E2
:100E7000043BF9D107F13003B9F1000F15D140F26D
:100E8000FF22ADF800204FF4D052ADF80290ADF83B
:100E90000490ADF80690ADF80890ADF80A90ADF862
:100EA0000C90ADF80E20684600E048469B210122D8
:100EB00005F026FC05B0BDE8F08F00BFE21D002064
:100EC0006420002008B5094890F88D30012B09D125
:100ED00007490B7EFF2B03D00831FFF7EDFE01E041
:100EE00008F0E8FD034B00221A8008BD2C1F0020EB
:100EF00064200020502000202DE9F04106460C46D9
:100F0000904607F0A3FA01285ED0002E5CD07068EE
:100F1000002859D0026A002A56D0002C54D02B4DFC
:100F20002B4B297893F800E092F88C20294F0EF192
:100F30002C0E11F0800F01F101010EEB070307F8F1
:100F40000E2008BF01F07F01402229705A70002254
:100F50009A702A7800F11001DA701A1D50F8045BBB
:100F6000884242F8045BF9D1214605221A75122203
:100F70005A7500229A758022DA7504F1100003F187
:100F8000180251F8044B814242F8044BF9D1062271
:100F900083F82820042283F82920002283F82A20BD
:100FA00083F82B2083F82C2083F82D803046FFF720
:100FB000E3FA48B13046FFF7DFFABDE8F0419B2184
:100FC00002222E2305F09CBBBDE8F081FC0100202D
:100FD000E21D002064200020F0B50A4615490646AF
:100FE00085B000200C7E91F82A30DCB1012B19D895
:100FF0008B7EFE2B13D06C466F460F4B03EB4013DA
:1010000003F1100E254618685968083303C5734567
:101010002C46F7D130463946FFF76EFF07E0CB7E0E
:10102000802BE8D10130032801F12001DAD105B08D
:10103000F0BD00BFD0280020EA28002030B50A4BC0
:1010400090F88C001B78094D2C33E8545C19002370
:101050006370A270E3700846BDE830409B21032214
:10106000042305F04DBB00BFE21D002064200020DA
:101070002DE9F04F844C8FB006AE04F108030FCB7E
:1010800086E80F00814B824A1B78128803932C3329
:10109000E05C1F190592FFF71DFB0546002800F0D4
:1010A000F08090F89330C46801937B780293FB78CA
:1010B0000493029B59060AD52046391D102207F0D9
:1010C00079FF002840F0DD804FF0140A01E04FF076
:1010D000040A9DF81820FF2A04D14FF002084FF0AF
:1010E000000B17E02046314608F05AF9834678B1E4
:1010F000B5F89A00BBF80810A28BB1FBF0F1B2FB77
:10110000F0F29142C0F0B380A269934500F0AF8045
:101110004FF001084FF00009059B039A9E1A2C3EE0
:10112000F6B2B24522DA17F80A10E1B107EB0A026B
:101130005678052906F1020604D0062914D1537900
:10114000019311E092F803900AA80021102208F000
:101150003DF809F107020AF104010AA83944D21046
:1011600007F05AFF00E00126B244D5E70AA804F0D0
:1011700063FF019B0746002B32D1002800F08180DD
:1011800090F82130002B7CD190F824304B4578D159
:1011900004F03EFF002874D0384604F039FF06A959
:1011A000102207F007FF00286BD1012387F82130B8
:1011B0003C23BB61A06950B1FFF7DEF938B1A069EB
:1011C000FFF7DAF99B210222334605F099FA029BD8
:1011D0001A0656D5284606A9049AFFF72FFF50E0B5
:1011E00006A804F00DFE074678B90F2006F080FA35
:1011F0003A460146012306A804F0CAFD002840D063
:1012000010304FF4167108F0FAFD5846FFF7DCFB7A
:1012100020460AA94A4606AB09F038F888B3B5F863
:101220009C30019AB8F1010F03FB02F383614FF088
:10123000000380F8208080F8213014D1A06950B1DB
:10124000FFF79AF938B1A069FFF796F99B210222BE
:10125000334605F055FA029B1B0604D5284606A91D
:10126000049AFFF7EBFE0A4B00221A8009E04FF6C2
:10127000FF73ABF808309BF8113043F001038BF893
:1012800011300FB0BDE8F08F64200020E21D002077
:101290005020002008B5074805F08AF9064805F0F7
:1012A00087F9064805F084F9BDE80840044805F0D0
:1012B0007FB900BF70000020880000207C00002063
:1012C0006400002070B590F89430012606FA03F40B
:1012D0004FF47A71E401B4FBF1F4C0F8A040054684
:1012E00002F0EEFA4FF6FF71F4406043B0FBF1F10B
:1012F000D5F8A03021445B1AC5F8A030002385F84A
:10130000963085F8956005F1C4002B46BDE8704025
:10131000014A01F0D3BF00BF9113200010B50B4C60
:1013200007F09AF8FFF732FB238801332380FFF799
:10133000C5F928B922883B2A02D92080FFF792FC00
:10134000BDE81040024801F0D9BF00BF14170020CB
:10135000A403002010B5044607F078F8012813D044
:101360004FF6FF72B4F89C3093420DD094F893106E
:10137000FF2909D0594304F582702346BDE8104087
:101380008901024A01F09ABF10BD00BF6514200018
:1013900070B51D4D04462B7853B9012004F020FB95
:1013A00010B101232B7003E004F1C400802114E08C
:1013B00094F89530BBB194F892303BB194F89620F4
:1013C0009A4203D220460021FFF776FC0023D4F88E
:1013D000A01084F8953004F1C4002346BDE87040A5
:1013E0000A4A01F06BBF94F8911094F8902094F899
:1013F00094300A449342BCBF013384F894302046B1
:10140000BDE87040FFF75EBFCA1C002091132000AA
:1014100070B505460C4607F019F801281ED005F1F5
:10142000E806304608F0E0FC304608F0D8FCA8B1E9
:1014300044B102F045FAB0FBF4F101FB140000EBFB
:10144000540100E0214605F1E4002B46044A01F076
:1014500035FF2846BDE87040FFF77CBF70BD00BF78
:101460006514200070B5134B04461B7800F1E405A9
:101470005BB9012004F0B4FA38B928462346BDE828
:10148000704080210C4A01F019BFE368986918B1D7
:1014900094F89310FFF7A0FD284601F04BFF04F5E8
:1014A000847008F09CFC20B12046BDE87040FFF736
:1014B00051BF70BDCA1C00206514200010B502F099
:1014C000FFF93C2358434FF6FF73B0FBF3F0054B95
:1014D0001930188080210448044A0023BDE81040D8
:1014E00001F0ECBE14170020A40300201D132000FF
:1014F00010B5044602F0E4F94FF47052B0FBF2F17B
:1015000001FB120081B2234604F1A40001F5F05161
:10151000024ABDE8104001F0D1BE00BF21152000F5
:101520002DE9F0470646C56800F010FBB0F5163F00
:101530008CBFA0F596384FF001080DB32B6AFBB1B4
:10154000AC69ECB1E36843450FD302F0B9F910F090
:101550000104274F32D1386805F0A4FE4FF6FF7A18
:101560008146B9F1000F10D144B32046FFF704F8CB
:1015700030B12046FFF700F801463046FFF79CFBEC
:101580003046BDE8F047FFF7B3BFD9F80430AB42AF
:101590000ED1D9F80C3043450AD22B6A48469B68D5
:1015A00000211B6998470CB1504501D282464C4638
:1015B0004946386808F080FD8146D2E7386805F072
:1015C00071FE0146002479B14B68AB4207D12CB1C2
:1015D000CA68E3689A4238BF0C4600E00C46386897
:1015E00008F06AFD0146EEE7002CC9D0BDE700BF58
:1015F000500000202DE9F04186B000F07BFC00F0A7
:101600001FFD00F0B9FC00F079FA01F019FA08F0BA
:10161000F4FB00F00DFD07F03BF9022008F0E0FAC2
:1016200001F0CEFF00F052FC00F000FA002000F0C4
:1016300061FB012000F05EFB4F49002000F030FC10
:1016400002F02CF908F021FB042008F0C9FA4B48FD
:1016500008F050FB4A4808F04DFB4A4801F03CFABC
:10166000494B4A4D186808F045FB494801F034FAE7
:10167000484B494C186808F03DFB484801F02CFAEB
:10168000286808F037FB002002F02AF901F0CCF8B6
:101690004348002102F03AF801F0FCFD01A80821BE
:1016A00001F0E0F99DF80B309DF80A80002643EA2E
:1016B000082801AB03CB206061603A4801F00CFAC6
:1016C000A15D3948013601F007FA072E324FF7D1F4
:1016D000364EF979364801F0FFF9F46A4AF6CD3111
:1016E0000220A04741460320A0471A210120A0471D
:1016F00001A9736B08220920984705F0A5FE2D4A21
:101700003B6813607B68536006F002F82A480021AA
:1017100001F0FCFF00F0B6FC2848002101F0F6FFC4
:1017200008F041FBAB6901209847254B01AA03F162
:101730001005144618685968083303C4AB422246A2
:10174000F7D11B781F48237008F0D4FA01A806F0DF
:101750006BFE1D4808F01DFB00F0BEFB082008F0E2
:101760003FFA00F0BFFB01F043FF10F0FF0FF8D18C
:1017700001F0FEF8F5E700BF59382000D8A7200097
:10178000E4A72000FCA7200048A6200054A62000C3
:1017900003A8200074A620007F2A00200AA82000A9
:1017A0000C01002011A820002FA8200080A52000F7
:1017B00035A820005C200020A4010020B0000020FB
:1017C0004BA820003BA82000C0A4200070B50588CD
:1017D0000446772D30D07E2D3FD0002D4DD101F025
:1017E000E7FE294B1870294B1D601D462B68284ABF
:1017F000264E52F823204AB126480021C15493684E
:1018000080209847336801333360EFE7224A137032
:10181000772320E01F4AD256002A12DB1B4A1368A6
:1018200001331360194B1C4A1B6812789342F1DB99
:101830001A4B1B68002BEBD0184A00231360134A85
:10184000EFE7114A00201178114A52F8232001F0E5
:1018500031FF30B97E23238013E00B4B1B788B4282
:101860000FD10A4B0B491A688B5C03F07F038B5432
:101870000A4A136801331360D0E700230380032072
:1018800070BD012070BD00BF6A2A0020C403002083
:10189000C00000206B2A0020CB1C0020C8030020C1
:1018A000094B1A780023934204DA084951F82310AF
:1018B000814207D106490748CA5C62F07F02CA54D8
:1018C00001F03CBF0133EEE7CB1C0020C00000203C
:1018D0006B2A0020B000002008B50948082108F054
:1018E000A9F903210422002000F0B8FB002000F039
:1018F0001FFB04480021032200F052FB012008BD19
:1019000000900D40C919200008B50948102108F0C1
:1019100091F904210A46022000F0A0FB022000F009
:1019200007FB04480221042200F03AFB012008BD15
:1019300000B00D40C919200008B50948202108F061
:1019400079F905210422022000F088FB022000F032
:10195000EFFA04480221052200F022FB012008BD15
:1019600000B00D40C919200008B50948402108F011
:1019700061F906210422022000F070FB022000F031
:10198000D7FA04480221062200F00AFB012008BD14
:1019900000B00D40C919200008B50948802108F0A1
:1019A00049F907210422022000F058FB022000F030
:1019B000BFFA04480221072200F0F2FA012008BD14
:1019C00000B00D40C919200038B5054611480C4635
:1019D00008F02EFAE8B10F48102108F017FA1DB9E7
:1019E000032C16D10C4810E0022D12D1042C01D189
:1019F0000A480AE0052C01D1094806E0062C01D16D
:101A0000084802E0072C04D10748BDE83840FFF73A
:101A100047BF38BDCC030020C8A42000E8A42000A4
:101A2000F8A42000D8A4200008A520000148002127
:101A300008F0ECB9CC03002010B5074CFF2323605D
:101A40004FF4FA6000F096F800213022062000F0F2
:101A500021FB0023236010BD00920D40802870B54B
:101A60001ED1104E104D3368002423F080033360E4
:101A70002B68204643F080032B600C4B07211C6031
:101A8000224600F0EBFA3368204623F0400333602F
:101A90002B68062123F040032B60012200F0DEFAC0
:101AA000002070BD20940D4000940D4000920D4028
:101AB000F8B500F083F80F4B0024D3E900673A46ED
:101AC000B04238BF7A1C15460443C3E90045DFF82D
:101AD00028E0DEE90001821B61EB070312196B416C
:101AE000CEE9002301F0CEFC18B1BDE8F84001F0CA
:101AF00059BCF8BD00020020080200200F4B104A1C
:101B00001A6053F8042C42F0050243F8042C53F8F1
:101B1000042C42F0020243F8042C0A4A136843F0F2
:101B200001031360084B00221A60042243F80C2CB6
:101B3000012243F8082C0F22DA62704714E000E01B
:101B400047E8010008200D400C000340034BD3E997
:101B50000023100A40EA0360704700BF0002002023
:101B6000034BD3E90023D00B40EA4340704700BF4A
:101B700008020020054B18601C3B1A6842F0010265
:101B80001A601A68D207FCD4704700BF28000340CF
:101B900010B5064C236823F001032360FFF788FF8C
:101BA000236843F00103236010BD00BF10E000E094
:101BB000014B1868704700BFD4030020074B084A48
:101BC000196804331B681268120442EA0323054AA9
:101BD0000B43106843EA0060704700BF40500D405F
:101BE00048500D404C500D4010B50446114B1B6839
:101BF000DB07FBD508F04DF8FFF7E0FF231A062BB3
:101C0000D8BFC41D0C4B220E1A60C4F3074243F820
:101C1000042CC4F3072243F8082CE2B243F80C2C3E
:101C200008F033F8054B91201C60BDE8104000F02F
:101C30007FB900BF50500D404C500D40D4030020E0
:101C400008B500F07BFE064B002291201A6000F0E0
:101C500087F9912000F078F9BDE8084001F08CBDCB
:101C6000D40300200023084A1068084A9958084203
:101C700005D01A44D268906910F0800003D02C334C
:101C8000582BF0D10120704728200D4028A52000B6
:101C9000164A38B52C2303FB00234FF6BF72DC68CD
:101CA0000546236C62649BB213F050020DD0A36909
:101CB000DB0609D40E4B53F825301BB12068C0B2A7
:101CC0009847F4E72368F2E738BD13F4D06F0BD0E0
:101CD0004FF440732363FF236360E36AE262E362CD
:101CE000236B43F00103236338BD00BF28A5200008
:101CF000D80300202DE9F04F012885B0064600F2F8
:101D0000BF802C244443604B1D1995F920A005F198
:101D10002007BAF1000F9946C0F2B28095F922303F
:101D2000002BC0F2AD80594800F07AFE584A59F8AD
:101D300004301168EC680B43136051686B6895F9C7
:101D400021B00B4353609168AB6895F822800B4338
:101D500093600023C4F8C83F2B690BEBCA021A60DA
:101D600095F823305FFA88FC01939DF804306046B3
:101D700019462A7DCDF80CC0029300F079F9029B38
:101D8000DDF80CC019466046082200F067F94FFAEA
:101D900088F840494FEA08389DF9042058F80100B6
:101DA000012303FA02F2024348F801204FEA0A3AFB
:101DB0005AF8010003FA0BF202434AF801205022BC
:101DC000A263A26B95F8240042F4D062A2630222BF
:101DD00062634FF440722263AA696262EA69A26296
:101DE0007022E26242B2002A0C4614DB95F92510FB
:101DF000294D41EAC20129607979120315594FB280
:101E0000BB402B431351002200F028F9234A1368EA
:101E100043F4004313602C2303FB069393F82650EE
:101E200020336FB2002F1CDB93F807A0EDB25FFAEE
:101E30008AF82846414601223F0300F019F94FFA7B
:101E40008AFA3A59012303FA0AF313433B51082251
:101E50002846414600F002F9104A136843F48043D3
:101E600013602C2303FB0696F26896F82800136B88
:101E700043F00103136305B0BDE8F04F00F058B81C
:101E800005B0BDE8F08F00BF28A52000651C20002C
:101E900028200D4020940D4004410D4030D00040DA
:101EA00001289CBF014B43F820107047D803002045
:101EB000012808D8044B2C2202FB0030C3689A6921
:101EC0009206FCD41960704728A52000014B00221F
:101ED0001A60704700500D40014B08221A6070478D
:101EE00000500D40024BA0221A6050221A60704729
:101EF00000500D40084A094B1A60094B80321A60A5
:101F0000084B80321A60084B80321A60074B4FF43E
:101F100000121A60704700BF00E100E0EC030020EF
:101F2000E0030020E4030020E803002008ED00E0C7
:101F3000044B41091A6800F01F000123834042F856
:101F400021307047EC030020044B41091A6800F06F
:101F50001F000123834042F821307047E003002036
:101F6000044B41091A6800F01F000123834042F826
:101F700021307047E8030020054A064B1A60064BE3
:101F80001A68064B1340B3F1807FF8D1704700BF49
:101F90000101020100200D4004200D40000001015C
:101FA000024B02EBC10243F822007047F00300200D
:101FB000F8B507460E46094D002405EB411547FAD2
:101FC00004F3DB07E1B204D555F824300BB13046F9
:101FD00098470134082CF2D1F8BD00BFF00300206F
:101FE0002DE9F04780464FEA0837DFF8409007F1C7
:101FF000804505F5592500F0A1FCD5F8186457F87F
:1020000009404FEAC80A24FA0AF446EA0400E4B296
:10201000C0B24146F6B204FA0AF4FFF7C9FFC5F8A8
:102020001C6447F80940BDE8F08700BF18970D40D1
:1020300002480021802207F0C9B800BFF003002049
:10204000034A044B1A60044B803A1A60704700BF81
:1020500080400D407404002070040020034B01EB0D
:10206000C0011B6843F82120704700BF74040020A2
:10207000034B01EBC0011B6843F82120704700BFF0
:1020800070040020024A136843F030031360704765
:1020900000700D400E2870B50BD1164B164E1C6803
:1020A00044F002051D60356825F03F0343F001034D
:1020B0003360124E336823F0FF031A431143014388
:1020C00031600F4B1B681B06FBD50E4B0E4A1B687D
:1020D00012680E2803F0FC0343EA022308BF064AF5
:1020E0009BB204BF1560034A9BB208BF146018B2CC
:1020F00070BD00BF34000144F486084008700D40F4
:1021000000700D400C700D4010700D4010B58F2008
:10211000064CFFF725FF8F20FFF716FF206818B148
:1021200001F00CFB0023236010BD00BF78040020E9
:10213000174B93F90020002A09DB164AED211160A4
:102140001160E32111601A7862F07F021A70124B5D
:1021500001201A68A3F57C7342F00802C3F8F0234B
:102160000E4A1060D3F8F02342F00402C3F8F023C3
:102170001860A3F5A5236A22643B1A60084B8122EC
:102180001A60084B68221A60074B80221A60704759
:10219000CC1C00203888084000B40D4020B00D4011
:1021A00020000144B08708401C000144094B1B6813
:1021B0009B07FBD4084BED221A601A60074A12688D
:1021C0000AB1EF221A60064A0120137803F07F0358
:1021D000137070474C860840388808402C860840A9
:1021E000CC1C002038B5A0F10B04E3B20F2B054640
:1021F00013D80B4B1B6813F03F0302D0FFF7D6FF39
:10220000012304EB8404074A0B3414600BB1FFF77D
:102210008FFF054BE8B21D7000E0FF2040B238BDD3
:10222000488608403C860840FD01002010B50B4B55
:102230001B68990603D1FFF77BFF012300E0002311
:10224000074A1268D207FBD5064A1468C4F3001483
:102250000BB1FFF7ABFF204610BD00BF488608401A
:10226000648608404C860840044B186800F0220041
:10227000A0F1200358425841704700BF4C860840E7
:10228000024B186800F04000704700BF4C860840C1
:1022900038B50C4600296CD00D286CD8DFE800F06A
:1022A000070D181A216B3142476B5E606267334B32
:1022B0001B68003318BF012356E0314B05221B6811
:1022C00003F07F030B3B93FBF2F30B33DBB24BE0EA
:1022D0002C4B00E02C4B1A68043B1B6843EA02239A
:1022E00042E02A4B002008601A68243302F0010201
:1022F0000A601B6813F0200337D042F002020A6024
:1023000038BD234B1A680023D2B2224901EBC30027
:102310000079904202D851F8333025E001330E2B7A
:10232000F3D11FE01C4B1B685BB2493B1CE01B4B0D
:102330001B68990603D1FFF7FBFE012300E0002391
:10234000174A1268D207FBD5164A1568493DEDB207
:102350000BB1FFF72BFF6DB2256006E00B2303E006
:102360001A2301E06FF017032360002038BD072314
:10237000FAE7022038BD012038BD00BF2C86084096
:102380003C860840CC850840D4850840008608403B
:1023900040860840B8A52000588608404886084076
:1023A000648608406086084038B505460C46134BE5
:1023B0001B689B07FBD4124B93F90030002B01DB09
:1023C000FFF7B6FE0F4BEE221A60691E1A60A21CC0
:1023D00043F8102C2144022000F03EFA013C0A4947
:1023E00024012143022000F049FA022000F050FAB3
:1023F000022000F065FA002038BD00BF4C8608407E
:10240000CC1C00203888084002C001C0F8B51F4B22
:1024100093F90030002B0DDBFFF7D0FB0446FFF7EC
:1024200087FEFFF7CBFB6FF009031B1BC342F8D4F9
:10243000012600E00026FFF7F9FE18B3144C2368CC
:1024400099061FD4134DE9232B60042723689A07AC
:1024500007D4013F17F0FF0703D00620FFF78AFBE0
:10246000F4E723689B0704D4EE232B6001242B6040
:1024700004E0206810F00200FBD1044626B1FFF70B
:1024800095FE01E00220F8BD2046F8BDCC1C0020DE
:102490004C86084038880840044B1A6810B142F056
:1024A000010201E022F001021A6070470086084034
:1024B00038B50C46072855D8DFE800F0040F1B1F7D
:1024C00026543B4F012903D1FFF732FE002038BDCF
:1024D000002949D1FFF76AFEF8E7A1F10B030F2BA2
:1024E00042D8C8B2FFF77EFE431C0CBF0320002079
:1024F00038BD8CB2E2B21D4B02E08CB21C4BE2B292
:10250000240A1A605C60E1E731F003052CD101F088
:102510000100FFF7C1FF174B14F002001A681BBF40
:10252000284642F0200222F020021A6008BF1A60FA
:1025300038BD01F118031F2B16D80D230E49DA0000
:1025400051F83300844204DC8B181A790B4B1A6063
:10255000BCE713F1FF33F1D2B8E7CCB2084B4934F2
:102560001C60B3E7012038BD022038BDC885084093
:10257000D085084024860840B8A520004086084041
:102580005886084009280DD1082A0DD161B1074BA2
:10259000013953F8042D01F8012F054A9342F8D16F
:1025A000002070470120704702207047C88508400E
:1025B000A885084009280DD1082A0DD161B1074B23
:1025C000083111F8012D43F8042F054A9342F8D140
:1025D000002070470120704702207047A485084002
:1025E000C485084070B52B4E336813F0400308D003
:1025F000294D2B68DCB21B0605D5284BED221A604D
:102600001A60002070BD042CF7D9023C8C42F4DC27
:10261000E4B2032C1BD001190139032000F024F986
:10262000631E1F491B010320194300F027F90320F3
:1026300000F02EF9032000F043F9032000F04CF9DC
:102640000028FAD129682D682806D6D506E02B681F
:1026500003702B6843702B688370F3E7493949B2E4
:1026600089B2042005F02AF8032005F07F0105F067
:1026700025F833685A060BD5064B1B681B0603D595
:10268000084801F05BF803E0044BED221A601A6081
:10269000204670BD4C86084028880840388808408D
:1026A00002C0010CE4000020F8B52B4E357815F07F
:1026B00001054ED1294B01241C605C609C60A3F590
:1026C0009323A3F51473F8221A600922C3F890210A
:1026D000152270331A6003F59B230B2203F59E73BA
:1026E0001A60A3F59B23A3F5F07340221A601A68C1
:1026F0007F2742F020021A60D52243F81C5CDF627B
:10270000DA61174B1878FFF76DFD164A8D201368B4
:1027100043F004031360FFF70BFC134B8E201F6084
:10272000FFF706FC022000F0BFF81049022000F07D
:102730009BF8032000F0B8F803200C4900F08CF857
:102740000B48294600F0E2FF3378204623433370DC
:10275000F8BD0020F8BD00BFCC1C0020A8200D4013
:10276000FD0100208C860840948608402888084097
:10277000E400002038B503880446E3B140F2EF32AC
:10278000934203D000230380032038BD822915D152
:1027900004F032FF04F0CEFE8021FFF723FF002873
:1027A00005DD80B204F0C0FE0C4B1B6998470C4B52
:1027B0001A78520604D440F2EF332380012038BD4A
:1027C00000221A70074B1D68FFF7F0FCFFF76CFF43
:1027D000AB06F0D0FFF7ACFCEDE700BF54A620003D
:1027E000CC1C00204886084008B5034800F0A6FF2E
:1027F000024B00221A6008BDE40000203488084023
:10280000064B07481A68042A1FBF06490A7842F097
:1028100040020A7000221A6000F090BF2C88084025
:10282000E4000020CC1C002010B5094C00212046FB
:10283000402206F0CBFC074B01221A602E205C6080
:10284000FFF776FBBDE810402F20FFF771BB00BFFC
:102850000000002004F00F4003289EBF014B000140
:10286000195070470000002003289EBF024B03EB65
:1028700000104160704700BF0000002003289EBF89
:10288000024B03EB00108160704700BF0000002086
:1028900003289FBF034901230A6883409CBF134359
:1028A0000B60704728F00F4003289FBF03490123A6
:1028B0000A6883409CBF13430B60704720F00F40B1
:1028C00003289FBF034901230A6883409CBF134329
:1028D0000B60704714F00F4003289FBF044B03EBBD
:1028E0000010806800F0070088BF0020704700BF1C
:1028F00000000020024B4FF0FF321A60704700BF0B
:1029000004F50F40014B01221A6070474CF00F4054
:10291000094B1A6812F4801F1A46F9D1043B196852
:1029200021F4803119601168C903FCD41A6842F49B
:1029300000321A60704700BF04200D4010B50A4BEA
:102940001A681C4612F0030F0CD0084B1A6851018C
:10295000FBD41A685201FCD5FFF71AF9FFF7D8FF2C
:102960000023236010BD00BF58200D4004200D40FF
:1029700038B5254B1C6814F03F0413D1234B53F892
:10298000243023B1984768B10134032CF6D1204D8F
:102990002B783BB1FFF70CF90446FFF70FF9201A2B
:1029A000092801D830BF38BD002CFBD0194B1A685C
:1029B00022F400321A60184A1168C902FBD419685F
:1029C00041F4803119601368DB03FCD5FFF7F6F89A
:1029D000201A092803D8BDE83840FFF799BF6328BB
:1029E0000E4C02D92B78022B00D00123236000F07B
:1029F00057FE20B1FFF78CFF0023236038BDFFF79F
:102A0000D7F80028CED1F5E7488608407C0400209E
:102A1000CD1C002000200D4004200D4058200D400A
:102A20000023064A52F82310814206D011B942F819
:102A3000230070470133032BF3D170477C0400203F
:102A4000054B00221A60054A136843F00403136023
:102A5000034B01221A70704758200D4010ED00E022
:102A6000CD1C002030B5184B1A78431E3AB9174ACE
:102A70001278122A03D1164A12784B2A03D001F594
:102A80002011273117E04A0802F12814B4F1281F59
:102A900004D014F8015D03F8015FF7E701F5201198
:102AA00027310023934205DA11F801598418E554BF
:102AB0000133F7E730BD074A914204D011F80129EC
:102AC00003F8012FF7E730BD2B0028002A0028006B
:102AD00029002800270028000FB407B504AA52F8DF
:102AE000041B0448019200F021F803B05DF804EBE8
:102AF00004B07047F400002070B505460C46102C59
:102B000007D92B68686808491022984750B9103CCB
:102B1000F5E734B12B6868682246BDE87040024989
:102B20001847204670BD00BFDEA820002DE9F04FF9
:102B300080468FB0069107920026069B1B78002BDB
:102B400000F05F83069B1C4613F8012B1AB9069B05
:102B50009C4203D10FE0252AF5D1F8E7069BD8F86F
:102B60000400E51A0699D8F800302A46984700284C
:102B700040F02A832E442378002B00F042836378B0
:102B8000611C002B00F03D8300240A4611F8013B34
:102B90002B2B11D006D8202B11D0232B12D144F08F
:102BA0000804F2E72D2B04D0302B0BD144F0100495
:102BB000EBE744F00104E8E744F00604E5E744F0FD
:102BC0000204E2E7A3F1310108290DD813460025DC
:102BD0001A4613F8011BA1F13000092811D80A2266
:102BE00002FB0515303DF3E72A2B09D1079B013283
:102BF0001D68191D002D0791B8BF44F0010400E0C5
:102C0000002513782E2B1CD15178531CA1F13000D4
:102C100009280ED8194600270A780B46A2F1300081
:102C2000092801F101010FD80A2303FB0727303FD0
:102C3000F2E72A2906D1931C079A111D07911768FC
:102C400002E013464FF0FF371A786C2A09D15A7800
:102C50006C2A02D144F080040AE0013344F060049D
:102C60000BE0682A09D15A78682A03D144F020047D
:102C7000023302E0013344F040041A78642A3CD065
:102C80001FD8462A48D00DD8252A5AD003D8002A62
:102C900000F0B78257E0412A4AD0452A53D144F484
:102CA000424450E0582A31D004D8472A4BD144F44A
:102CB000A13448E0612A38D0632A44D144F4A064A6
:102CC00041E06E2A3AD007D8662A22D027D3672A55
:102CD00028D0692A11D036E0732A2CD006D86F2A62
:102CE00011D0702A2FD144F440742CE0752A07D0FB
:102CF000782A28D144F4C85425E044F4245422E02E
:102D000044F410641FE044F488541CE044F4B244DA
:102D100019E044F4007416E044F4844413E044F4ED
:102D2000024410E044F481340DE044F4C1340AE07C
:102D300044F4E13407E044F4806404E044F4E064E3
:102D400001E044F4C0640133069304F4E063B3F596
:102D5000806F00F0AA8116D8B3F5807F2BD0B3F531
:102D6000407F7FF4EAAE079BA04914F4804F03F143
:102D700004029F4818BF08460DF1330107920F4621
:102D80001A680023C5E1B3F5C06F08D0B3F5E06F52
:102D900000F03182B3F5A06F7FF4CFAE00E2D8F837
:102DA0000030D8F80400934901229847002840F0E9
:102DB0000B820136C1E6002FACBF24F010040127BE
:102DC00014F40053039304F0E00337D0402B17D0E2
:102DD00008D8DBB1202B2AD1079B1A1D079293F943
:102DE000002017E0602B11D0802B20D1079B0733E8
:102DF00023F0070303F108020792D3E900230AE056
:102E0000079B1A1D0792B3F9002003E0079B1A1DC8
:102E100007921A68D317002A73F1000109DA5242A7
:102E200063EB4303CDE900234FF0010933E00022B7
:102E30000023CDE900234FF000092CE0402B16D0F1
:102E400007D8CBB1202B20D1079B1A1D07921A78E7
:102E5000EEE7602B10D0802B17D1079B073323F0B0
:102E6000070303F108020792D3E90023E1E7079B78
:102E70001A1D07921A88DBE7079B00211A1D07928B
:102E80001B681846CDE90001D5E700220023CDE9F3
:102E900000234FF0000904F4C053B3F5805F0CD059
:102EA000B3F5C05F33D0B3F5006F4FD1DDE9002338
:102EB0000DF1360ACDE9042304E0DDE900230DF12C
:102EC000360A15E0DDE9042313433AD0DDE90401B5
:102ED0000A22002305F096FDDDE9040130320AF8EC
:102EE000012D00230A2205F08DFDCDE90401E9E75B
:102EF00052EA030125D002F0070130310AF8011D22
:102F0000D10841EA4371D8080A460346F0E7384B36
:102F100014F4804F0DF1360A344908BF1946DDE933
:102F2000002352EA03000CD002F00F00085C4FEAC5
:102F3000131E0AF8010D100940EA03700246734699
:102F4000EFE70DF1360BCAEB0B0B03E00DF1360A80
:102F50004FF0000B41F6080241F208035F4502EA18
:102F600004028CBFCBEB070700279A4202D1002F47
:102F700008BF012741F608018A4207EB0B030DD178
:102F8000DDE9000150EA010208D01B4914F4804F2A
:102F90001A4A4FF0020C18BF0A4602E04FF0000C2C
:102FA00062460399A1B1B9F1000F0AD104F00601FC
:102FB00002290AD00629124904BF4FF0010C0A4623
:102FC00006E04FF0010C0F4A02E00F4A4FF0010CEF
:102FD00063449D428CBFED1A002514F0010922D1F3
:102FE000E30613D52F444D461DE000BFA9A82000DD
:102FF000BAA82000DCA82000CEA82000CBA8200082
:10300000D3A82000D1A8200008A8200040462946C7
:10301000CDF80CC00092FFF76FFD009ADDF80CC0F0
:10302000002840F0D180BCF1000F0DD01146D8F837
:1030300000306246D8F80400CDF800C09847DDF8AB
:1030400000C0002840F0C0803C465E44102CD8F8F8
:1030500000300DD9D8F804006C491022CDF800C01A
:103060009847002840F0B080103CDDF800C0EDE744
:103070005CB1D8F8040065492246CDF800C09847F5
:10308000DDF800C0002840F09F80D8F80030D8F864
:10309000040051465A4666449847002840F0948000
:1030A0003E44B9F1000F79D073E0079BD3F800A03C
:1030B0001A1D0792BAF1000F09D05346994699F8A4
:1030C00000200133002AF9D1CAEB090903E0DFF837
:1030D00040A14FF00609002F02DBB94528BFB946D1
:1030E0004D458CBFC9EB0505002514F0010405D141
:1030F00040462946FFF700FD002865D1D8F800308A
:10310000D8F8040051464A46984700285CD14E44FE
:103110003EE052EA030E0ED002F00F0E10F80EE061
:103120004FEA131C01F801ED4FEA121E4EEA037E2E
:1031300072466346EDE70B467F1A01BF3022012736
:1031400001F1FF3301F8012C03377822BD4203F867
:10315000012C4FF0300203F8022C88BFED1B4FF01A
:10316000230298BF002514F00104A3F1030903F81A
:10317000032C04D140462946FFF7BEFC20BBD8F8FB
:103180000030D8F8040049463A469847E0B93E4432
:1031900024B140462946FFF7AFFCA8B92E44CCE441
:1031A000079B012D03F104021B688CBF05F1FF355D
:1031B000002514F0010407928DF8203008D1404614
:1031C0002946FFF799FC10B14FF0FF301AE02E446A
:1031D000D8F80030D8F8040008A901229847002840
:1031E000F2D16F1C2CB140462946FFF785FC002820
:1031F000EAD13E44A1E4079B1A1D1B6807921E609A
:103200009BE430460FB0BDE8F08F00BF99A82000C6
:10321000D5A82000F8B50388064615462BB14A2BE1
:1032200015D0002303800320F8BD174806F011FED7
:1032300004462CB1201DA16806F0B6FD2468F8E70D
:10324000124B01221A704A2333800120F8BD8829CD
:10325000FBD10D4806F0FDFD0446002CF3D0231DE4
:103260009D420ED10848214606F0FDFD084B6269DB
:103270001F681A60A2691D460AB1E06990472F6075
:10328000E1E72468E9E700BF88040020CE1C0020A5
:103290009804002010B5064B002406481C7006F068
:1032A000D5FD2146BDE81040034800F02FBA00BF0D
:1032B000CE1C002088040020FC00002070B50446CD
:1032C0000A4DE3610A4B2E681B786661A26133B137
:1032D000084B201D2B6006F067FD2E6000E0A1600A
:1032E0002146BDE87040044806F0D1BD9804002096
:1032F000CE1C0020FC0000208804002070B5094B83
:1033000005461B783BB1084C084B26680430236007
:1033100006F053FD26602946BDE87040044806F0DB
:10332000B6BD00BFCE1C002098040020FC00002089
:103330008804002010B5084B04461B781BB10430EC
:1033400000F0A8F801E0C36003612146BDE8104029
:10335000024806F088BD00BFCE1C00208804002073
:1033600010B50E4C236813B90D4A136010BDFEF75B
:10337000EDFB216891E80C001A44131A8A6842B1E7
:1033800092E812002144091A8B4228BF0B4692682A
:10339000F5E71844024B186010BD00BF8C040020F4
:1033A00090040020014800F0C9B900BF0C010020C2
:1033B000F8B5038805462BB1592B09D000230380AB
:1033C0000320F8BD1E4A136059232B800120F8BD4D
:1033D000872920D08229F7D1194F00263C68002C7C
:1033E000F2D0204606F024FD90B1E0688821224604
:1033F00000F060F950B9E060A3680EB1B36000E07E
:103400003B600023A360FFF7ABFFE5E7FFF7CAFFD0
:103410002646A468E3E70A490B680BB90B60D3E7BB
:10342000D868904201D19B68F7E70B609968002942
:10343000CAD0C86890420ABF89680B469960F5E710
:103440008C04002010B50446FFF7ACFFE3680B4A7C
:103450004BB113683BB1A34203D1094A1268DA6049
:1034600007E09B68F6E7064B1B68E360136814608F
:10347000A360BDE81040FFF773BF00BF8C040020BD
:1034800098040020024B1868003018BF01207047D4
:103490008C04002010B50B4A04461368984206D1EC
:1034A0008368136008E09A68A24203D01346002B99
:1034B000F9D103E0A2689A60FFF752FF0023A360EE
:1034C000E36010BD8C04002038B5836804460D46C7
:1034D0009BB10A4804600220A07304F10C009847D5
:1034E0000238012801D9832D05D120462146BDE8A7
:1034F000384000F005B80123A37338BD98040020BC
:103500002DE9F8431C4A0446156889462B46904627
:103510001A4E3768A34204D00BB11B68FAE7BDE826
:10352000F88334B3A37BABB10023A37345B1AC42A2
:1035300004D028468721224606F059FC2D68F5E77D
:10354000A3683BB14C4505D0346004F10C008321E5
:103550002A469847D8F800309C4203D12268064B8F
:1035600005E0134623B11A68A242FAD122681A6014
:103570003760BDE8F88300BFA00400209804002055
:1035800010B5094B00221A70084B1C685CB1E37B34
:103590003BB101230022A373E27320468221FFF78F
:1035A00093FF2468F2E710BDD31C0020A004002084
:1035B000024B1878421C1A70704700BFD41C0020C0
:1035C000064B8A221A70064A00231370054A1370AC
:1035D000054A1360054A1360704700BFD41C0020E1
:1035E000D01C0020D21C0020A00400209804002041
:1035F0002DE9F041214E33780BB1FFF7C1FF204D8B
:103600002C78002C34D0DFF88CE00C229EF80030AF
:103610001C495A4388181C4F895CDFF87C8042683B
:10362000DFF878C08068013303F01F03013C397074
:10363000C8F80020CCF800008EF800302C7088B953
:10364000124C134B1B68236023688BB133780BB18A
:10365000FFF796FF20683978D8F8002006F0C7FBFE
:103660002368EFE7812904BF0123837306F0BFFBC2
:10367000337828781844BDE8F08100BFD31C0020BF
:10368000D21C0020A4040020D11C00209C04002097
:10369000A0040020D01C0020940400202406002058
:1036A000024A034B10781B7818447047D21C002044
:1036B000D31C0020F0B50C4E3478202C11D00B4BCD
:1036C0000B4D1B780B4F234403F01F032B700C256D
:1036D0006B430134FD18A860F9546A60347000200F
:1036E000F0BD0120F0BD00BFD21C0020D01C002086
:1036F000CF1C0020A404002038B5034C256806F038
:1037000076FB256038BD00BF9804002010B50A463E
:1037100009490C68234683420DD00BB11B68FAE7B8
:1037200048B1046008600121817383818121BDE873
:103730001040FFF7E1BF10BDA004002038B1837B2B
:10374000013B012B9FBF024A0123C37313707047D3
:10375000D31C0020024610B5064853600468029B43
:1037600011609360026014B90846FEF73DFA00202C
:1037700010BD00BF2806002010B5084C206858B1C5
:1037800000232360816843689847236823B1BDE81C
:1037900010401868FEF728BA10BD00BF28060020A8
:1037A00010B50446FEF7DCF994E80C001344C01A87
:1037B000024B98428CBF0020012010BDFEFFFF7F0E
:1037C00038B505880446672D09D0792D2ED0002DF7
:1037D00032D1FFF7EDFE1B4B18701B4B1D601B48D1
:1037E00006F092FB431C01D167231DE00A28164B0B
:1037F00007D01A687E2AF2DC511C1960144B9854C9
:10380000EDE7196800254A1C1A60114A0D4B555402
:1038100028461978FFF74EFF0E4B852118682A4677
:10382000FFF748FF20B97923238009E0852907D1D4
:10383000054B00221A60D2E700230380032038BD25
:10384000012038BD742A0020340600202C060020F8
:10385000561D0020980400200D2810B5014615D0F3
:103860000B4C23782BB90B4806F03AFB48B90123DF
:1038700006E00A2805D1074806F032FB08B100230C
:1038800023700548FFF75AFF012010BD002010BD2E
:10389000551D00202C0600201C01002008B50548FD
:1038A0000549802206F015FBBDE8084003480021C9
:1038B000FFF72CBF2C060020D51C00201C01002087
:1038C000054A136843F004031360044B1B689069B6
:1038D00043EA002080B2704700700D4014700D4024
:1038E000174A136823F00C031360164B01221A6069
:1038F0001A68012AFCD1144B08221A60E322C3F88B
:10390000142203F505731946104B1B68DB07FBD522
:10391000102000230E4A0138126802F0010243EA27
:1039200002034FEA43039BB2F4D1002BF0D0094AC3
:10393000180A03F0FE0310601360EF230B6070475A
:1039400000700D40A8200D40248608406486084081
:103950009C86084014700D4008B5064803F008FA2C
:10396000054B01221A7000225A70AA229A70DA704E
:1039700008BD00BF693B2000D71D002010B50F4CCB
:103980000220A17903F09AFEA379112B01D0062B16
:1039900005D1238D618D9942A8BF194608E03A2BC5
:1039A00005BF94F8281094F82930002143EA01213A
:1039B0000120BDE8104003F081BE00BF642000205C
:1039C00010B513780446087A83F0020398421DD19B
:1039D000487A5378984219D1887A9378984215D1C9
:1039E000C87AD378984211D1087B137998420DD1C7
:1039F000487B5379984209D1887B9379984205D1C5
:103A0000C87BD379984201D103201BE00B890F4A70
:103A10006BB94B89B3F57F4F09D18B89FE2B06D14A
:103A20001368C989022023F8021B13600AE0136897
:103A300051F8080F083343F8080C486843F8040CA1
:103A400013600120A040C0B210BD00BF400600209E
:103A500010B5084C01462378012B08D1A01C082280
:103A600005F0A8FA00280CBF2046002010BD002059
:103A700010BD00BFD71D002008B50146102003F07F
:103A80002BFE044B04489B6800219847BDE8084082
:103A9000FEF728BAA0A620009D3A200010B50846DF
:103AA0000C46114602F0D0F9044B1B6813B19B6819
:103AB00020469847024B1C6010BD00BF6C0B0020D5
:103AC000540600202DE9F8434FEA1219B9F10F0FFF
:103AD00080461D4602F00F040BD00F2C05D1B9F122
:103AE000000F0AD11024274619E0B9F1000F09D0C0
:103AF00004E00F2C4FF0100900D1102440464A4634
:103B000005F08AFA09EB04020F2A274606DC08EBC7
:103B100009000021C2F1100205F058FBBCB1114DA3
:103B2000C7F110002E6840443146224605F074FA71
:103B3000022C08D1B9F10A0F9FBFFF2388F80B3080
:103B4000FE2388F80C3034442C60BDE8F883B9F1CA
:103B5000000F05D040462946BDE8F84306F03BBAC1
:103B6000BDE8F883400600202DE9F04F944E954DB6
:103B7000002387B033702B70044603F03DFD03F043
:103B8000D9FC914F04213860092003F097FD8F4B39
:103B90008DE860001B680BB1FFF7F0FE04A80CB9BC
:103BA0008B4900E0214606F04DFA8A4B8A4E1A886E
:103BB00003933E2A40F20B82D7F800A0874D0AF10A
:103BC00002032B60009B06F1180093F8009000237D
:103BD00009F102090AF80930FFF73AFF20B906F1A6
:103BE0000800FFF735FF20B10AF103032B608024A2
:103BF00000E0044672783078130943EA0013DBB220
:103C0000990841EA8313DBB212F00F0FD9B2DFF843
:103C1000CC8100F00F000ED16F4E76885EB910B9DE
:103C200012F0F00F21D0D8F80030702603F8011BF5
:103C3000C8F800301AE078B912F0F00F0CD12968FA
:103C400023F03F031A43664B0A701B88033121F8A7
:103C5000023C6826296009E05F4A2B6810686026EC
:103C6000186003F8041B2B6000E078265A4B9A7901
:103C70000293112A08BF46F0040673075EBFD8F806
:103C8000003003F8012BC8F80030029BDB79402B91
:103C900006D0FF2B07D0012B08D146F001060BE020
:103CA00046F0020608E046F0030605E0D8F80020DA
:103CB00002F8013BC8F80020029A474B128982B9EA
:103CC0005A8972B99A8962B9DA8952B91A8A42B99B
:103CD0005A8A32B99A8A22B9DB8A13B944F0400071
:103CE00013E04048FFF7B4FE3F4B186078B14278CC
:103CF0001AF80930042043EA02130AF80930394956
:103D00003A4AFFF75DFE60F03F00C4B228E0029B34
:103D100031491A8948F2FE039A420CD14B8B53B9B0
:103D20008B8B43B9CB8B33B9042008312F4AFFF773
:103D300047FE2043E9E7D8F80020DFF8A8C0964600
:103D40000CF1100B634603CB5B45CEF80000CEF8B8
:103D500004109C460EF1080EF4D1204B10321A606C
:103D6000DFF874B09BF81830FF2B40F08D809BF883
:103D7000192044F0080C022A5FFA8CFC38D1BBF8F9
:103D80001A30ABBBBBF81C3093BBBBF81E307BBBFF
:103D9000BBF8203063BBBBF822304BBBBBF82430F0
:103DA00033BB9BF826301BBBD8F800309BF827208C
:103DB00044F00B0003F8012BC4B2C8F80030A2E0B5
:103DC000D61D0020E11D00204C0600206C0B0020B9
:103DD0006CA9200050200020642000204006002014
:103DE000662000206C200020380600205C20002087
:103DF0009C4B588B194688BB988B78BBD88BA8B93D
:103E0000188C98B9588C88B993F8240070B929682F
:103E100044F00A00C4B2084600F8012B33F8252FFD
:103E2000043121F8032C9B78837015E0C98B8D4BEE
:103E3000A1B9198C91B993F8221079B9296844F085
:103E40000900C4B2084600F8012B53F8232F0631AD
:103E500041F8052C1B790371296054E0824ADFF890
:103E60001C82146808F11009A646434603CB4B4553
:103E7000CEF80000CEF8041098460EF1080EF4D1EA
:103E80001034146064463EE00BF11800FFF7E0FDCB
:103E9000764B186050B143781AF8091044F00404C6
:103EA0000B43E4B20AF8093000200EE048F2FE03AA
:103EB000BBF818209A4210D1BBF81A306BB9BBF886
:103EC0001C3053B9BBF81E303BB90BF1180104AAE2
:103ED000FFF776FD2043C4B215E0634ADFF89C810A
:103EE000D2F800E008F11009F446434603CB4B45F5
:103EF000CCF80000CCF8041098460CF1080CF4D172
:103F00000EF110031360019A5649282313708B7920
:103F1000112B51D14FF2B0030A8D52BA92B222F056
:103F20000F0080B2984215D14B8D5BBA23F00F037E
:103F30001B041B0C83420DD12868F32303704B8DA7
:103F40001A0A0B8D1B0A02EB031303F5AA634370D5
:103F5000831C27E0029B43495B8D5BBA03F47F43DC
:103F6000B3F5704F09D12B68F1221A700A8DA3F8AE
:103F700001204A8D120ADA700CE002F47F42B2F599
:103F8000704F2B6808D1F2221A700A8D120A5A70EB
:103F90004A8D5A80043305E0F0221A70886A05338E
:103FA00043F8040C2B60324B1A882B6823F8022B41
:103FB000019A2B6030231370009B3A681B78D6540B
:103FC00013445C70284B1B689B1A009A19E03A68EE
:103FD00041231370009B06F128051C78631CDBB29B
:103FE0001344324603CAAA4218605960164603F1C8
:103FF0000803F6D1009B29341C70019B019A1B78A1
:104000002833102013700DEB000103F065FB194BF2
:10401000DFF86C901B689847174B30EA200428BFE4
:1040200015245B699847039BC4F17D041D88019B9F
:10403000241A1E78009BAA1B93F80080DFF844B076
:10404000C8EB04039A42DFF840A040F3CC8003F0B1
:104050006DFB7823B5FBF3F50135A84216DC002093
:10406000D2E000BF64200020400600203806002077
:104070009220002090A62000A0A620007C200020F6
:1040800050200020D61D0020E11D0020D7F8008020
:104090009AF8005041462A4608F1040005F032F82B
:1040A000B9F800305A4A6FEA83436FEA9343C3F387
:1040B000072388F80030B9F80030043588F801305B
:1040C0001388EDB2190A88F803300133DFF854C1C0
:1040D00088F8021013809BF80010631B23F007037D
:1040E0004C4E61441A4608EB0500CDF808C08AF82A
:1040F00000503360019304F08FFF019B581980B288
:1041000003F012FA03F018FBDDF808C0804665469C
:104110000028A4D004A8FFF7AFFC404603F044FBFE
:10412000404603F02BFB3C4A13689046012B96D087
:10413000043B012B93D99BF800B03368053C5B44EA
:104140001FFA83FB05238AF80030344B24F0070460
:104150001A68B9F8003034606FEAC3436FEAD3439A
:10416000C3F307231370B9F8003053702C4B1B882E
:104170009B4548D23A684FEADB0111713268CBEBBC
:1041800003039342B8BF234A3868B8BF1360009B4B
:10419000346893F80090224605EB0B01484404F084
:1041A0003BFF09EB040080B203F0BEF903F0C4FA50
:1041B000044600283FF453AF04A8FFF75DFC2046F7
:1041C00003F0F2FA204603F0D9FA124B1B689B4425
:1041D000D8F800301FFA8BFB012B3FF440AF043BB3
:1041E000012BC3D83BE738680E494044314404F002
:1041F00013FFB9F800004044801B80B203F094F92B
:1042000004A8FFF739FC012007B0BDE8F08F00BF1C
:104210001A17002050060020540600204C060020EB
:1042200050200020642000202DE9F04FA04FA14E27
:1042300087B000243C70347003F07CF99E4DB84682
:104240002860042003F042FA9C4B00B218609C489E
:1042500005F0EEFDDFF894B2009518B1994BABF87C
:1042600000401C80009B1B6819785D7845EA012599
:1042700001F0F801C0291AD0E02926D19F7893F8DF
:1042800004A0DB78BBF8004043EA07273378C5F386
:104290000A050533337003F061F9204434784FF098
:1042A0000009041BAC42B4BF0024012494E29F78AF
:1042B000DB78002443EA07273378C5F30A05043383
:1042C00033704FF00109A24686E27E4B00241C8029
:1042D000A14627462346A2462546ABF80040BBF838
:1042E0000020AAB1002D00F09182764B1B88AB42D2
:1042F00040F08C82744B1B88BB4240F087820F20B9
:1043000003F0F6F90146714805F0A1FED8B97DE247
:1043100040F213516A1E92B28A4214D81BB1B9F10D
:10432000000F00F07382674B4FF480611D80664B75
:1043300063481F8005F06AFD0F2003F0D9F901469C
:10434000624805F07FFE3778052F00F0CD81009B95
:104350001968CA5D02F0E003602B40F0AC81B81C24
:104360000F4497F801B00844594B5FFA8BF10E06E1
:10437000186044BF0130186012F0100F0091554EC4
:1043800002F008012FD1D1B9196831F8010FA6F850
:1043900001008978F170196811F8040B196083081D
:1043A00003F00F0141F060013170717803F03003C8
:1043B00043EA801301F00F010B4373702EE018687D
:1043C00060210746317017F8011B03304FEA910E48
:1043D0000EF0300E01F00F014EEA010171703988C4
:1043E000186071801AE001F0FF0791B91968087828
:1043F000C0F3830040F06000307011F801EB77806B
:104400004FEA9E0000F0300040EA8E107070196094
:1044100004E06023337000237370738002F00403A0
:1044200003F0FF0101912B4F2BB929490B6813F8B9
:10443000010BB8710B6012F003020BBF244A264B2C
:1044400013689B5C09BF13F8011BFB711360F971C2
:104450001BF0400FCBF301124AD0009B190641BF5D
:104460001549144B09681B7851BF00215B189978D6
:10447000090982B1194B1878012805D1587888426A
:104480000CBF1946002100E00021154B19600029DE
:1044900040F0BA8128E11146124B0F209A5C03913B
:1044A000029203F025F9039903460F4829E000BF63
:1044B000D61D0020E11D00204C0600203C060020F7
:1044C000440600201817002016170020752A002027
:1044D000400600205806002019A92000D71D002002
:1044E0003806002032A92000600600201C1700209A
:1044F000A64B0F209A5C029203F0FAF8A4490346F7
:10450000A448029AFFF7DEFA0BF008000BF0030252
:1045100000F0FF010BF00403B0B1002B4AD19E4B19
:104520001B88ADF81430531E012B9FBF9B490B68AD
:1045300013F8010B0B609A4B98BF8DF815009A5C2D
:10454000984805A9002333E0002B27D0009B1B06C9
:1045500041BF9549954B09681B7851BF0B465B18C5
:10456000997801F00F0392490878012804D148781E
:10457000984218BF002100E000218E4B0091196085
:10458000002900F0B1808C4B102013F802B003F02A
:10459000AFF8009903460231824808E07B4B1020B7
:1045A00013F802B003F0A4F8794903467D485A464F
:1045B000FFF788FA98F80000784900F1280388F896
:1045C0000030019B002B56D00B681A7802F0F802DD
:1045D000F02A50D11122BA711A7802F0040E02F0BA
:1045E000F302F03A5FFA8EFE032A7DD8DFE802F08C
:1045F000020A1622B3F8012005333A8533F8022C5B
:104600007A852CE0B3F801203A85DA78A2F5805259
:1046100092B2120242F0F0027A8509E05A78A2F5CD
:10462000805292B2120242F0F0023A855A887A859C
:10463000043314E05A7802331209A2F5756292B27B
:10464000120242F0F002328513F8012C02F00F0240
:10465000A2F5756292B2120242F0F00272850B600E
:10466000BEF1000F04D10B6833F8022BFA850B6002
:10467000303088F800004C4A0B6812689B1A4B4A8D
:10468000137065B902F06AFF484B1B78C01A98F89E
:1046900000301844283803123B71787104E0A5F10A
:1046A00028031A123A717B71BA79444B112A1BD133
:1046B0009A889A8518E0412A40F0A8807A1CD2B2E4
:1046C0008B18DFF8F8E003F1280C72461868596877
:1046D000083303C263459646F7D198F8003029376E
:1046E0002833377088F8003002F038FF2F4E3378C7
:1046F000834200F28B8002F031FF3378304AC71AD0
:10470000176040F2145298F800B00BEBCA0A0AEB9B
:10471000070191427AD8244A284811685044194424
:104720003A4604F079FCDFF8AC80264E65B1B9F169
:10473000000F02D032885A4432800CB1358007E035
:1047400032883A44328003E007EB0B02A8F80020DD
:1047500033881BB1B8F800209A4257D1B8F800400E
:1047600019482246154904F057FC184B1C80184C78
:104770000023A8F800303380236823B1FFF7FEF848
:1047800023685B68984702F019FB3FE01DA92000F1
:1047900021A920006006002017A920004006002063
:1047A00023A92000700600204C060020E11D0020F7
:1047B000D71D00203806002032A92000580600200E
:1047C000500600201C1700206420002050200020EC
:1047D0006C0B002018170020BBF8003093B1B9F122
:1047E000000F0FD00F2002F083FF0146094805F0AB
:1047F0002EFC18B9084B1880084B18804FF001099F
:104800004B466CE501236AE5023145E607B0BDE899
:10481000F08F00BF752A0020181700201C170020F9
:1048200037B5124B124D1C782B796A79C4EB0323F0
:1048300013449BB2ADF80630BDF8063005F108010F
:104840001844202280B205F06FFBBDF8062004F169
:104850002801294492B205F067FB10B140BA80B23A
:1048600001E04FF6FF7003B030BD00BFE21D002035
:104870006420002028492DE9F04188460D78274E14
:104880002835AB195C782648E400073402239C42A3
:104890003DDBE9187218715C204F012932D002D338
:1048A000632902D013E001332FE0037018461C4C3B
:1048B00003F07CFED8B998F80030227828331344EE
:1048C0003B445B78134402332370BDE8F08101F070
:1048D000C001802905D0C02905D0402912D103701C
:1048E00005E0037006E03A7E0370FF2A02D1012042
:1048F000BDE8F08104200221EA1801F05FFE0220E9
:10490000BDE8F081527802321344DBB2BFE7037096
:104910000020BDE8F08100BFE21D002064200020DF
:10492000E81D0020F0B5C578124A0D44EDB2D570EF
:1049300083780F0A3B44DBB293704478BB425470D7
:104940000678167005D2601CC0B2507008B90136E6
:104950001670C9B28D420CDA0133DBB2054993708F
:104960003BB94B780133DBB24B7013B90B78013391
:104970000B70F0BD5820002010B5084C014620688F
:104980001430FFF7CFFF064A236811781975517864
:1049900059759178D2789975DA7510BD88250020FF
:1049A0005820002008B501F069F901F0EFFE02F08F
:1049B000BBF900231149002221F813200133DBB297
:1049C000082BF7D10E49302303FB02110132D2B27A
:1049D00000230A2A81F82530F4D10A4A4FF4806175
:1049E0001180094A002102EB43120133DBB20A2B8A
:1049F0001182F6D1054A137008BD00BF742700204C
:104A00008C2500202017002088270020E91D002089
:104A10002DE9F041134F3D7815B3DFF8508005F1D3
:104A20002703B8F80040A34205DB00233B70A8F839
:104A30000030BDE8F0810C4EA4F1280205F12801F8
:104A4000641BA4B206F128003144521B04F05AFB47
:104A5000A8F80040283C23123371002374713B7086
:104A6000BDE8F081E21D00206420002050200020DD
:104A70002DE9F041034626480288013292B2B2F590
:104A8000FA4F28BF4FF4805200240A2C0AD0214D3F
:104A900005EB44152E8A55BAADB2AE4204F10104BD
:104AA000F3D1EAE7DFF874E0028000220A2A18D086
:104AB000184E55017419B4F81080571CFFB2B8F1A4
:104AC000000F0CD18EF800200288618252BA228237
:104AD00063B920461946102204F078FB11E03A46EB
:104AE000E4E78EF800200020BDE8F081274603F1BE
:104AF000100E3A4618685968083303C273451746C2
:104B0000F7D1054B35441B7920462B75BDE8F08164
:104B10002017002088270020D0280020E91D002031
:104B200030B50A490023082B0DD0094C5A1C34F823
:104B30001350D2B2854204D100220B7024F8132006
:104B400030BD1346EFE70B7030BD00BFE91D0020FC
:104B5000742700202DE9F74FA44E04283468B2468C
:104B6000A34F00F06182A349A34DA44A03280D601E
:104B70001560894615D194F8253003F00F03032BF7
:104B800008D1A38B002B40F0A9869D4B08221A70F8
:104B900000F096BD022B40F0A186002305F8073CEB
:104BA000C8E3022878D1974A00231380964A3B80B5
:104BB000D3780133DBB2D37063B993780133DBB2BE
:104BC00093703BB953780133DBB2537013B9137848
:104BD0000133137094F8253003F0FD02052A0DD13E
:104BE00094F826300133DBB2782B84F8263040F07D
:104BF0007586002384F8253000F070BE002B00F08D
:104C00006D86A28B7E48002A3DD094F82620511E46
:104C100084F82610002A40F0618694F82720082A9C
:104C200004D0591E01290AD8052A08D1002384F886
:104C300025308023037002F053FA00F04FBD042AA0
:104C40009CBF0321914003F00F0394BFC9B23021F0
:104C50000132013B84F8261084F82720072B00F24C
:104C60003D86DFE813F0630308000A00F4043B0606
:104C7000F4043B06F404002259E30423037002F019
:104C80002FFA00F05BBD03F00F03032B40F02686E4
:104C90000823037000F014BD052811D15B4B1B687D
:104CA0001B8A002B00F01A860C3D1560554A002324
:104CB000138033603B80524B08220D601A70B1E1C3
:104CC00015F83C3C3C3D03F0F003602B40F00686B9
:104CD0002B796A791B0239889818884200F3FE857F
:104CE000283213443B802B7AFF2B00F0F785484B8A
:104CF000AA1D484C484E1A60002222703270AA79D0
:104D00009846B2B901233370FFF7B4FD012800F0D3
:104D1000E58503D3022800F0DD850AE0237803F15E
:104D200028022A44C8F800205278083303EBC20353
:104D300023703A4800F03EFE002840F0B580374826
:104D400000F0DEFE002840F0AF802A7E334BFF2AC1
:104D5000A3F1180366D048F2FE00198B814261D09E
:104D6000198981425ED079B9598969B9998959B946
:104D7000D98949B91B8A3BB9698A294B21B9998AD2
:104D800011B9DB8A002B4DD0298B254B79B9598B72
:104D900069B9998B59B9D98B49B9198C39B9598CD9
:104DA00029B9998C19B9DB8CB3F5807F3AD03B884F
:104DB000B3F5A06F04D9022000214FF4A06206E0F1
:104DC000EB79174C012B06D800210A46032001F08D
:104DD000F5FB00F07FBD03F037FC002840F07E8536
:104DE000E379013BE37100F075BD00BF8825002029
:104DF0005020002084250020A020002054200020E6
:104E00007825002084270020E41D00208025002034
:104E10007C250020E21D0020E31D00207C200020D6
:104E20006420002048F2FE032989994240F056850B
:104E3000298B9A4B81B9598B71B9998B61B9D98BEF
:104E400051B9198C41B9598C31B9998C21B9DB8C84
:104E5000B3F5807F00F04285FF2A00F03F8590483F
:104E600000F088FD0246002840F03885012002212C
:104E7000ADE721D93A2B6ED026D93B2B00F02E85F9
:104E80003C2B64D133788749980735D558065ED4D2
:104E900043F040030B70FFF7EDFC012800F01E8586
:104EA0002DD3022800F01685D8F80020DFF820B2B4
:104EB00013782B2BDDD12EE0062B00F00B81112B6C
:104EC00066D0002B43D103E02C2B00F007853EE099
:104ED0003378D9073BD4734A43F001031370FFF7CB
:104EE000C9FC012800F0FA84DBD2237803F1280200
:104EF0002A44CBF8002008E043F00203CAE72378F5
:104F000003F128022A44C8F800205278083303EB42
:104F1000C2032370C8E7337803F0040000F0FF01F8
:104F2000A8B9604A43F004031370227802F1280301
:104F30002B44D87810B104202A3248E7CBF800304F
:104F40005B78083202EBC302574B1A70ACE70420BF
:104F50000121521B3BE705F003F84FF6FF7398421F
:104F600040F0BC8423782833E85C01F013FF2378F9
:104F70002833EA18E85C517801F0FEFA012804BFF2
:104F800000233B803B88002B00F0A88400F0A2BCEB
:104F9000FFF73EFD3B88454E303B3B80EB8DC9F82B
:104FA000006063B9B5F82A80B8F1000F00F096846C
:104FB0003F4B404D2B60394BB3F828B00BE004F069
:104FC000D5FF4FF6FF73984240F08884EAE7238AC2
:104FD0003BB920342C602C68374B9C42F7D300F04F
:104FE0007DBC9845F5D1638A0BB19B45F1D123680F
:104FF0002BB963681BB9A3680BB9E36833B12F48B9
:105000002146102203F0D6FF0028E2D12C4A0221CB
:1050100011702C4A002316602B4ACAF80030C9F8D8
:105020000060138002F05CF8274B1A88002A00F019
:10503000558402F13003194C9BB23B80283B191276
:1050400063711C4B08321B6852BA2171197DA2850D
:105050000022E2851A8AE17122855A8A112162852D
:10506000A17104F118050FCB85E80F0004F10800C9
:10507000294600F0A5FD154B04F13C021A6004F02E
:1050800075FFC04380B208B1E08502E04FF6FF73C0
:10509000E38503F0EFFB00F017BC00BF64200020A5
:1050A0007C200020E31D0020E21D00209420002031
:1050B0008827002080250020C82800206C200020A0
:1050C00078250020542000208427002084250020FB
:1050D0007C250020FFF79CFC04F045FF4FF6FF7392
:1050E000984240F0FB83B5F82AB0BBF1000F00F006
:1050F000F583BF4B1B8D002B00F0F083BD4E344673
:1051000096F82580B8F1000F0FD0328A5A450CD19D
:10511000728A9A4209D1B84831461022019303F0AD
:1051200049FF019B002800F01B81B44A30369642AB
:10513000E6D195F8352002F03F02022A13D1B0499A
:10514000B04E8846A1F800B00022082A0AD0AE4925
:1051500031F8121001328B45D2B2F6D100223270F2
:10516000944657E0327095F83520A14B510700F175
:10517000B583142283F835203C223A80502283F8EC
:10518000342093F8332093F8314093F82F0083F8BC
:105190002F2093F8322093F82E109A4E83F82E2069
:1051A00093F82D2083F82D4093F82C400130347073
:1051B00093F83060C0B283F8321083F8312083F85E
:1051C0002C6083F8304083F8330060B90131C9B2F4
:1051D00083F8321039B90132D2B283F8312012B9D2
:1051E000621C83F830202B8D854A834C13806A8D96
:1051F0006B852A8504F1100594E80F0085E80F00FF
:105200002046294600F0DCFC49E3BEF1070F10D030
:105210000132D2B20A2A19D0302101FB024101F138
:10522000200090F805E0BEF1000FEED132700C4680
:1052300011E0BCF1000F04D080799CF82610884260
:10524000E6D94FF0300C0CFB024CE1E764463270BB
:10525000002C00F0438303226382674B84F82620EE
:1052600084F82420042284F823200FCB84E80F0044
:10527000664B01201A784FF0000922765A7884F89C
:10528000250062769A78DB78A276E37695F82F305F
:10529000A083E37595F82E30CAF80040A37595F801
:1052A0002D3084F82290637595F82C3084F827907F
:1052B000A4F810B02375FFF75FFB95F8343003F0C6
:1052C000F002502A32D9524A1B09053B98009646F3
:1052D0004B461178834226DAEA1892F83C1011B353
:1052E000012901D101331CE0022915D192F83DC0FA
:1052F000BCF1040F10D18EF80010337092F83E10FC
:1053000092F83F3043EA0123402BA8F8003028BF31
:105310004023E383238409E0EA1892F83D2012B188
:105320001344DBB2D6E78EF8001033701022304BF6
:1053300083F835202E4B93F8352042F0020283F893
:105340003520022283F83C20042283F83D200022ED
:1053500083F83E20402283F83F203A80602262E2B8
:1053600095F835302B4A03F004013446CAF8006042
:10537000107001F0FF0B21B1202386F82500137077
:1053800000E21B4A08F00F0892F83420B8F1020F2F
:105390004FEA12124FEA82011A4A11703A88A2F1BA
:1053A0002802A2EB010292B23A8003D103F03F013E
:1053B000122905E0B8F1010F03D103F03F010229E2
:1053C0002AD00AB99A0727D0A98DB28A914204D16E
:1053D000074AD18DF28A91421ED0980740F11C8273
:1053E000B8F1010FA2D0B8F1020F40F01582A1E789
:1053F000642000208C2500206C2000206C270020D9
:105400001E170020E91D002074270020E41D002045
:10541000EA1D002078250020D90652D5B18B00293D
:105420004FD006F11800FFF77DFAB44B95F8301015
:105430001878B34A884244D192F8311093F801C0E9
:105440008C453ED192F832E09978714539D192F885
:105450003320DB78934234D1F37696F827303076D8
:1054600086F819C0B1761BBB96F8243096F8261042
:1054700096F82200591AA1EBD001C9B25FFA81FE59
:105480001EF0800F96F82330084418BF4942A3EB62
:10549000930318BF5FFA81FE03EB0E02C0B2D3B2D2
:1054A00086F8233003EBD00386F8220086F82430F8
:1054B000944B01221A7096F8243086F82630002387
:1054C000B38396F82510DFF83C8201F00F03013B0F
:1054D000072B00F20382DFE813F008002500950097
:1054E00058017A0194019F014A0198F80020854BE8
:1054F000D2070FD5032286F82520388840221A705B
:105500000022B283002800F0D88042221A70FFF7F0
:1055100033FAD2E095F8353003F03F03022B40F028
:10552000DD8103E798F80030DB0760D595F835306A
:1055300003F03F03122B5AD1714B93F8343003F030
:10554000F002502A38D9704A1B099646053B11785B
:105550006E489B009B452BDA05EB0B0292F83C1042
:1055600031B3012902D10BF1010B1EE0022916D142
:1055700092F83DC0BCF1040F11D192F83F308EF883
:10558000001092F83E10624A43EA0123402B138038
:1055900028BF402380F800B0F38333840CE005EB90
:1055A0000B0292F83D201AB193445FFA8BFBD1E7CE
:1055B0008EF8001080F800B0032386F8253095F8A7
:1055C0002C300120337595F82D30737595F82E30F9
:1055D000B37595F82F30F375FFF7CEF9494A42239A
:1055E00013704C4A0023B3833B80138068E0202370
:1055F00088F8003001F074FDDAF80030002283F8FA
:105600002520B0E595F83530D80725D5CA0623D42E
:10561000B38B002B40F062813888013080B2FFF7F5
:10562000ABF998F8003043F0100288F800203A886F
:105630001AB1344A43F01203137001F051FD0123F3
:10564000B383082386F82530002386F827301122FB
:105650002B4B83F83520E2E098060DD595F83A20DB
:1056600095F83B3043EA0223D9F800201A44C9F8E0
:1056700000203A88D31A3B80388848B1CA0607D43C
:1056800098F8003043F0020388F80030FFF774F90F
:1056900095F8362095F83730318C03EB02239BB216
:1056A0001B4A8B42138000D803B911801388F383FF
:1056B00098F800309B0700F01181164B00221A80E9
:1056C00001F00EFD0F4B1A78124B02F0200000F093
:1056D000FF0128B100221A8084F825201422B7E7A0
:1056E00002F0100000F0FF05B0B119800123A38380
:1056F000042384F8253084F82710A8E758200020D8
:105700006420002078250020EA1D0020E91D0020EB
:105710001E17002084270020198861B1D60748BFD2
:10572000A583A28B32B9E28B914288BF1A801B8875
:10573000A38300E01A80002384F827306D4B1B6898
:10574000C9F800306C4B1B882BB1A38B1BB13C33C9
:105750003B80182207E0694B1B789D0740F1BE8013
:105760003C233B801022664B83F8352059E098F8A3
:105770000030DC0740F1B280002386F825305F4B13
:1057800010221A7001F0ACFCA8E0388808B1FFF7CD
:10579000F3F895F8353013F001030FD098F8003086
:1057A000D80745BF072386F825300623002346BFC8
:1057B00086F82630B38386F8253016E098F8002066
:1057C000D1071BD5052286F82520B38386E03888CB
:1057D00008B1FFF7D1F895F83530DA070ED5072371
:1057E00086F82530002386F826300120FFF7C4F81C
:1057F000102388F8003001F073FC0DE03B885BB9A2
:105800006CE098F80030DB0768D5072386F8253070
:10581000002386F8263061E0102385F835303C23DC
:105820003B80374B502283F83420237D344D85F85C
:105830003030637D05F1180685F83130A37D85F899
:105840003230E37D85F83330237E85F82C30637E5B
:1058500085F82D30A37E85F82E30E37E85F82F3035
:10586000238A2B85638A6B8594E80F0086E80F00F6
:1058700005F10800314600F0A3F994F8253003F053
:10588000100303F0FF022BB1002385F8373085F8B1
:10589000363004E0402385F8362085F83730184C40
:1058A0000623A371174B1B79E3713B88283B1A121F
:1058B00063710023227184F83B3084F83A302387E7
:1058C00004F051FBC04320870D4B60221A70002268
:1058D0005A705A80094B00221A7007E00A4A0023C6
:1058E00013700A4A3B801370044A137003B0BDE87A
:1058F000F08F00BF5420002084270020782500204E
:1059000064200020D0280020E21D0020E31D00209C
:105910002DE9F3410446154D00910E4690461F4671
:105920000195234612480321202204F02CFB012874
:105930002B4616D12A6804F11001107020462A68FF
:10594000023250F8044B884242F8044BF9D11868EF
:10595000089B86744361099B80F8138007778361F5
:1059600000E0002002B0BDE8F08100BF740B002011
:10597000CC29002070B506460B4D0C4B2B602C68D3
:105980000B4B9C420BD2237833B1A27CA01C314636
:10599000D20803F00FFB20B120342C60EFE7002089
:1059A00070BD012070BD00BF740B0020CC29002009
:1059B0002C2A002013B5084C802203460092019443
:1059C00006480321202204F0DEFA08B9206800E02E
:1059D000002002B010BD00BF780B0020E828002096
:1059E00010B50C4A0C4B136013680C498B420DD256
:1059F000197849B1411C02D0997C814204D148F206
:105A0000FE015C888C4202D02033ECE7002318466C
:105A100010BD00BF780B0020E82800204829002096
:105A200037B504460F4D80230093019523460E4859
:105A30000521122204F0A7FA01282B460ED12A686C
:105A400004F11001107020462A68023250F8044B0D
:105A5000884242F8044BF9D1186800E0002003B0F6
:105A600030BD00BF700B00206C290020F7B5054643
:105A7000204C802300930E46174601941E480321B4
:105A800020222B4604F07FFA012830D12A462368D1
:105A900005F1100118702368023352F8040B8A4292
:105AA00043F8040BF9D12068C77416B901230375B4
:105AB00005E0002303753146183004F0A0F923688F
:105AC0000E480121997402234370FF2200230270C3
:105AD00043808380C38003818372C17202736B7BB6
