:020000040020DA
:10000000843200208D022000D38F2000D18F200069
:10001000D18F2000D18F2000D18F20000000000060
:10002000000000000000000000000000D18F200050
:10003000D18F200000000000D18F2000719020009F
:1000400093902000999020009F902000A590200080
:1000500000000000779020007D902000D18F2000CC
:10006000D18F200000000000000000000000000010
:100070000000000000000000D18F20000000000000
:100080000000000000000000D18F2000D18F200070
:10009000D18F2000D18F2000D18F2000D18F200060
:1000A000D18F2000D18F2000D18F2000D18F200050
:1000B000D18F2000D18F2000D18F2000D18F200040
:1000C000D18F2000D18F2000D18F2000D18F200030
:1000D000D18F2000000000000000000000000000A0
:1000E0000000000000000000000000000000000010
:1000F0000000000000000000BD152000CD1520000C
:1001000000000000000000000000000000000000EF
:1001100000000000000000000000000000000000DF
:1001200000000000000000000000000000000000CF
:1001300000000000000000000000000000000000BF
:1001400000000000000000000000000000000000AF
:10015000000000000000000000000000000000009F
:10016000000000000000000000000000000000008F
:10017000000000000000000000000000000000007F
:10018000000000000000000000000000000000006F
:10019000000000000000000000000000000000005F
:1001A000000000000000000000000000000000004F
:1001B000000000000000000000000000000000003F
:1001C000000000000000000000000000000000002F
:1001D000000000000000000000000000000000001F
:1001E000000000000000000000000000000000000F
:1001F00000000000000000000000000000000000FF
:1002000000000000000000000000000000000000EE
:1002100000000000000000000000000000000000DE
:1002200000000000000000000000000000000000CE
:1002300000000000000000000000000000000000BE
:1002400000000000000000000000000000000000AE
:10025000000000000000000000000000000000009E
:10026000000000000000000000000000000000008E
:10027000D18F2000B1142000C9142000050E2000E9
:10028000D18F200039092000D18F200008B5094BFB
:10029000FF221A600848094A4824E3690849121AEB
:1002A00098470848084AA3690021121A984700F0A5
:1002B0001BF8FEE7B4200D4040000020FE010020A6
:1002C000DCA5200000020020832A002010B503884E
:1002D000044613B9034808F009FF002323800320D4
:1002E00010BD00BF0CA420002DE9F04186B000F045
:1002F0007DFC00F021FD00F0BBFC00F07BFA01F07A
:1003000003FA08F076FF00F00FFD08F0C9F80120AD
:1003100008F062FE01F0B8FF00F054FC00F002FAB1
:1003200008F018F9002000F061FB012000F05EFBEE
:100330004F49002000F030FC02F004F908F0A1FE63
:10034000022008F049FE4B4808F0D0FE4A4808F069
:10035000CDFE4A4801F024FA494B4A4D186808F08E
:10036000C5FE494801F01CFA484B494C186808F092
:10037000BDFE484801F014FA286808F0B7FE0020D6
:1003800002F002F901F0B4F84348002102F022F82B
:1003900001F0E4FD01A8082101F0C8F99DF80B3037
:1003A0009DF80A80002643EA082801AB03CB2060B1
:1003B00061603A4801F0F4F9A15D3948013601F075
:1003C000EFF9072E324FF7D1364EF979364801F062
:1003D000E7F9F46A4AF6CD310220A04741460320EE
:1003E000A0471A210120A04701A9736B0822092008
:1003F000984705F019FE2D4A3B6813607B685360EF
:1004000005F076FF2A48002101F0E4FF00F0B6FC79
:100410002848002101F0DEFF08F0C1FEAB69012091
:100420009847254B01AA03F110051446186859682E
:10043000083303C4AB422246F7D11B781F48237010
:1004400008F054FE01A806F0DFFD1D4808F09DFEEF
:1004500000F0BEFB012008F0BFFD00F0BFFB01F083
:100460002BFF10F0FF0FF8D101F0E6F8F5E700BF21
:100470000125200026A4200032A420004AA4200048
:100480009CA32000A8A3200051A42000C8A3200002
:100490007B2A002058A42000AC0000205FA420008C
:1004A0007DA42000D4A2200083A42000301F0020BF
:1004B000440100205000002099A4200089A42000BD
:1004C00014A2200070B505880446772D30D07E2D0B
:1004D0003FD0002D4DD101F0CFFE294B1870294B94
:1004E0001D601D462B68284A264E52F823204AB12B
:1004F00026480021C154936880209847336801330F
:100500003360EFE7224A1370772320E01F4AD25668
:10051000002A12DB1B4A136801331360194B1C4A73
:100520001B6812789342F1DB1A4B1B68002BEBD04F
:10053000184A00231360134AEFE7114A002011788C
:10054000114A52F8232001F019FF30B97E2323808D
:1005500013E00B4B1B788B420FD10A4B0B491A68E7
:100560008B5C03F07F038B540A4A136801331360DA
:10057000D0E700230380032070BD012070BD00BFC1
:10058000662A00201002002060000020672A002058
:10059000C61C002014020020094B1A780023934245
:1005A00004DA084951F82310814207D10649074867
:1005B000CA5C62F07F02CA5401F024BF0133EEE747
:1005C000C61C002060000020672A00205000002088
:1005D00008B50948082108F029FD0321042200205C
:1005E00000F0B8FB002000F01FFB044800210322AC
:1005F00000F052FB012008BD00900D40C106200014
:1006000008B50948102108F011FD04210A4602200E
:1006100000F0A0FB022000F007FB044802210422A6
:1006200000F03AFB012008BD00B00D40C1062000DB
:1006300008B50948022108F0F9FC01210422022032
:1006400000F088FB022000F0EFFA044802210122AA
:1006500000F022FB012008BD00B00D40C1062000C3
:1006600008B50948402108F0E1FC062104220220D7
:1006700000F070FB012000F0D7FA044802210622A6
:1006800000F00AFB012008BD00B00D40C1062000AB
:1006900008B50948802108F0C9FC0721042202207E
:1006A00000F058FB012000F0BFFA044802210722A5
:1006B00000F0F2FA012008BD00B00D40C106200094
:1006C00038B5054611480C4608F0A7FDE8B10F48BB
:1006D000102108F090FD1DB9032C16D10C4810E034
:1006E000022D12D1042C01D10A480AE0012C01D1BB
:1006F000094806E0062C01D1084802E0072C04D185
:100700000748BDE83840FFF747BF38BD1802002052
:100710001CA220003CA220004CA220002CA2200001
:100720005CA220000148002108F065BD18020020ED
:1007300010B5074CFF2323604FF4FA6000F096F8E1
:1007400000213022062000F021FB0023236010BD91
:1007500000920D40802870B51ED1104E104D3368A8
:10076000002423F0800333602B68204643F080038D
:100770002B600C4B07211C60224600F0EBFA33681B
:10078000204623F0400333602B68062123F040030A
:100790002B60012200F0DEFA002070BD20940D4095
:1007A00000940D4000920D40F8B500F083F80F4B17
:1007B0000024D3E900673A46B04238BF7A1C154698
:1007C0000443C3E90045DFF828E0DEE90001821BAD
:1007D00061EB070312196B41CEE9002301F0B6FC6F
:1007E00018B1BDE8F84001F041BCF8BD000200209E
:1007F000080200200F4B104A1A6053F8042C42F0F4
:10080000050243F8042C53F8042C42F0020243F88A
:10081000042C0A4A136843F001031360084B0022BA
:100820001A60042243F80C2C012243F8082C0F22F2
:10083000DA62704714E000E047E8010008200D404C
:100840000C000340034BD3E90023100A40EA036085
:10085000704700BF00020020034BD3E90023D00BF8
:1008600040EA4340704700BF08020020054B186073
:100870001C3B1A6842F001021A601A68D207FCD4C5
:10088000704700BF2800034010B5064C236823F0D2
:1008900001032360FFF788FF236843F0010323600F
:1008A00010BD00BF10E000E0014B1868704700BFAA
:1008B00020020020074B084A196804331B6812689D
:1008C000120442EA0323054A0B43106843EA00601E
:1008D000704700BF40500D4048500D404C500D40F7
:1008E00010B50446114B1B68DB07FBD508F0CDFBA8
:1008F000FFF7E0FF231A062BD8BFC41D0C4B220EB6
:100900001A60C4F3074243F8042CC4F3072243F8E7
:10091000082CE2B243F80C2C08F0B3FB054B9120F5
:100920001C60BDE8104000F07FB900BF50500D4082
:100930004C500D402002002008B500F063FE064B2D
:10094000002291201A6000F087F9912000F078F9D8
:10095000BDE8084001F074BD200200200023084AD1
:100960001068084A9958084205D01A44D26890691C
:1009700010F0800003D02C33582BF0D101207047A9
:1009800028200D407CA22000164A38B52C2303FBFA
:1009900000234FF6BF72DC680546236C62649BB28D
:1009A00013F050020DD0A369DB0609D40E4B53F8A7
:1009B00025301BB12068C0B29847F4E72368F2E7FE
:1009C00038BD13F4D06F0BD04FF440732363FF2373
:1009D0006360E36AE262E362236B43F00103236333
:1009E00038BD00BF7CA22000240200202DE9F04F7A
:1009F000012885B0064600F2BF802C244443604B9A
:100A00001D1995F920A005F12007BAF1000F9946AC
:100A1000C0F2B28095F92230002BC0F2AD80594867
:100A200000F062FE584A59F804301168EC680B4334
:100A3000136051686B6895F921B00B43536091685E
:100A4000AB6895F822800B4393600023C4F8C83F3D
:100A50002B690BEBCA021A6095F823305FFA88FC09
:100A600001939DF80430604619462A7DCDF80CC0EC
:100A7000029300F079F9029BDDF80CC0194660463C
:100A8000082200F067F94FFA88F840494FEA083821
:100A90009DF9042058F80100012303FA02F20243F1
:100AA00048F801204FEA0A3A5AF8010003FA0BF21B
:100AB00002434AF801205022A263A26B95F8240059
:100AC00042F4D062A263022262634FF44072226356
:100AD000AA696262EA69A2627022E26242B2002AF4
:100AE0000C4614DB95F92510294D41EAC201296015
:100AF0007979120315594FB2BB402B431351002291
:100B000000F028F9234A136843F4004313602C23B0
:100B100003FB069393F8265020336FB2002F1CDBA3
:100B200093F807A0EDB25FFA8AF828464146012201
:100B30003F0300F019F94FFA8AFA3A59012303FAF0
:100B40000AF313433B5108222846414600F002F9BC
:100B5000104A136843F4804313602C2303FB06966A
:100B6000F26896F82800136B43F00103136305B095
:100B7000BDE8F04F00F058B805B0BDE8F08F00BFF9
:100B80007CA220005D09200028200D4020940D400B
:100B900004410D4030D0004001289CBF014B43F878
:100BA0002010704724020020012808D8044B2C2272
:100BB00002FB0030C3689A699206FCD41960704742
:100BC0007CA22000014B00221A60704700500D40AB
:100BD000014B08221A60704700500D40024BA022C2
:100BE0001A6050221A60704700500D40084A094BA5
:100BF0001A60094B80321A60084B80321A60084B29
:100C000080321A60074B4FF400121A60704700BF21
:100C100000E100E0380200202C0200203002002019
:100C20003402002008ED00E0044B41091A6800F08E
:100C30001F000123834042F8213070473802002012
:100C4000044B41091A6800F01F000123834042F859
:100C5000213070472C020020044B41091A6800F033
:100C60001F000123834042F82130704734020020E6
:100C7000054A064B1A60064B1A68064B1340B3F13F
:100C8000807FF8D1704700BF0101020100200D40B4
:100C900004200D4000000101024B02EBC10243F8A9
:100CA000220070473C020020F8B507460E46094D69
:100CB000002405EB411547FA04F3DB07E1B204D544
:100CC00055F824300BB1304698470134082CF2D146
:100CD000F8BD00BF3C0200202DE9F04780464FEAF6
:100CE0000837DFF8409007F1804505F5592500F0F9
:100CF00089FCD5F8186457F809404FEAC80A24FA65
:100D00000AF446EA0400E4B2C0B24146F6B204FA7C
:100D10000AF4FFF7C9FFC5F81C6447F80940BDE8AD
:100D2000F08700BF18970D4002480021802208F08C
:100D300001B900BF3C020020034A044B1A60044B77
:100D4000803A1A60704700BF80400D40C00200200A
:100D5000BC020020034B01EBC0011B6843F82120BB
:100D6000704700BFC0020020034B01EBC0011B68AD
:100D700043F82120704700BFBC020020024A1368DC
:100D800043F030031360704700700D400E2870B5BB
:100D90000BD1164B164E1C6844F002051D603568D9
:100DA00025F03F0343F001033360124E336823F014
:100DB000FF031A431143014331600F4B1B681B06AD
:100DC000FBD50E4B0E4A1B6812680E2803F0FC037D
:100DD00043EA022308BF064A9BB204BF1560034AD8
:100DE0009BB208BF146018B270BD00BF340001444C
:100DF000F486084008700D4000700D400C700D40E6
:100E000010700D4010B58F20064CFFF725FF8F2086
:100E1000FFF716FF206818B101F0F4FA00232360F1
:100E200010BD00BFC4020020084B93F90020002A27
:100E300009DB074AED2111601160E32111601A7886
:100E400062F07F021A700120704700BFC71C0020AB
:100E500038880840094B1B689B07FBD4084BED22E0
:100E60001A601A60074A12680AB1EF221A60064A2D
:100E70000120137803F07F03137070474C860840FD
:100E8000388808402C860840C71C002038B5A0F1DF
:100E90000B04E3B20F2B054613D80B4B1B6813F062
:100EA0003F0302D0FFF7D6FF012304EB8404074A77
:100EB0000B3414600BB1FFF7B7FF054BE8B21D70A0
:100EC00000E0FF2040B238BD488608403C8608401C
:100ED000FC01002010B50B4B1B68990603D1FFF7EE
:100EE000A3FF012300E00023074A1268D207FBD5C5
:100EF000064A1468C4F300140BB1FFF7ABFF204699
:100F000010BD00BF48860840648608404C860840F3
:100F1000044B186800F02200A0F120035842584109
:100F2000704700BF4C860840024B186800F0400034
:100F3000704700BF4C86084038B50C4600296CD07D
:100F40000D286CD8DFE800F0070D181A216B31422C
:100F5000476B5E606267334B1B68003318BF012329
:100F600056E0314B05221B6803F07F030B3B93FBDC
:100F7000F2F30B33DBB24BE02C4B00E02C4B1A6846
:100F8000043B1B6843EA022342E02A4B002008602E
:100F90001A68243302F001020A601B6813F0200370
:100FA00037D042F002020A6038BD234B1A68002392
:100FB000D2B2224901EBC3000079904202D851F825
:100FC000333025E001330E2BF3D11FE01C4B1B689F
:100FD0005BB2493B1CE01B4B1B68990603D1FFF732
:100FE00023FF012300E00023174A1268D207FBD534
:100FF000164A1568493DEDB20BB1FFF72BFF6DB2F4
:10100000256006E00B2303E01A2301E06FF01703CD
:101010002360002038BD0723FAE7022038BD0120F5
:1010200038BD00BF2C8608403C860840CC8508406F
:10103000D485084000860840408608400CA3200064
:101040005886084048860840648608406086084004
:1010500038B505460C46134B1B689B07FBD4124B57
:1010600093F90030002B01DBFFF7DEFE0F4BEE2281
:101070001A60691E1A60A21C43F8102C2144022039
:1010800000F04EFA013C0A4924012143022000F0FD
:1010900059FA022000F060FA022000F075FA0020F0
:1010A00038BD00BF4C860840C71C00203888084067
:1010B00002C001C0F8B51F4B93F90030002B0DDBC7
:1010C000FFF7F8FB0446FFF7AFFEFFF7F3FB6FF007
:1010D00009031B1BC342F8D4012600E00026FFF7DA
:1010E000F9FE18B3144C236899061FD4134DE92355
:1010F0002B60042723689A0707D4013F17F0FF07E6
:1011000003D00620FFF7B2FBF4E723689B0704D463
:10111000EE232B6001242B6004E0206810F0020015
:10112000FBD1044626B1FFF795FE01E00220F8BD91
:101130002046F8BDC71C00204C860840388808406F
:10114000044B1A6810B142F0010201E022F00102E2
:101150001A6070470086084038B50C46072855D8F5
:10116000DFE800F0040F1B1F26543B4F012903D179
:10117000FFF75AFE002038BD002949D1FFF76AFE6B
:10118000F8E7A1F10B030F2B42D8C8B2FFF77EFEA0
:10119000431C0CBF0320002038BD8CB2E2B21D4BB3
:1011A00002E08CB21C4BE2B2240A1A605C60E1E7F8
:1011B00031F003052CD101F00100FFF7C1FF174BFF
:1011C00014F002001A681BBF284642F0200222F0E9
:1011D00020021A6008BF1A6038BD01F118031F2BE6
:1011E00016D80D230E49DA0051F83300844204DC8E
:1011F0008B181A790B4B1A60BCE713F1FF33F1D24D
:10120000B8E7CCB2084B49341C60B3E7012038BDC5
:10121000022038BDC8850840D08508402486084093
:101220000CA32000408608405886084009280DD1AC
:10123000082A0DD161B1074B013953F8042D01F88B
:10124000012F054A9342F8D10020704701207047D2
:1012500002207047C8850840A885084009280DD19C
:10126000082A0DD161B1074B083111F8012D43F85F
:10127000042F054A9342F8D100207047012070479F
:1012800002207047A4850840C485084070B52B4EE5
:10129000336813F0400308D0294D2B68DCB21B06DD
:1012A00005D5284BED221A601A60002070BD042C71
:1012B000F7D9023C8C42F4DCE4B2032C1BD00119B8
:1012C0000139032000F034F9631E1F491B0103207C
:1012D000194300F037F9032000F03EF9032000F035
:1012E00053F9032000F05CF90028FAD129682D6831
:1012F0002806D6D506E02B6803702B6843702B6850
:101300008370F3E7493949B289B2042004F0C6FF7B
:10131000032005F07F0104F0C1FF33685A060BD5A6
:10132000064B1B681B0603D5084801F06BF803E069
:10133000044BED221A601A60204670BD4C860840AE
:10134000288808403888084002C0010C840000202A
:10135000F8B5304E357815F0010559D12E4B0124E2
:101360001C605C609C60A3F593231122FC3B1A6017
:101370002A4B80221A602A4B10221A60294B8122A4
:101380001A60294BF8221A600922C3F8902115220D
:1013900070331A6003F59B230B2203F59E731A60CA
:1013A000A3F59B23A3F5F07340221A601A687F27E8
:1013B00042F020021A60D52243F81C5CDF62DA6139
:1013C0001A4B1878FFF762FD194A8D20136843F015
:1013D00004031360FFF728FC164B8E201F60FFF7F5
:1013E00023FC022000F0C4F81349022000F0A0F80A
:1013F000032000F0BDF803200F4900F091F80F48DA
:10140000294600F0E7FF3378204623433370F8BDC8
:101410000020F8BDC71C0020A8200D401C0001447E
:10142000B08708402000014458860840FC01002095
:101430008C86084094860840288808408400002054
:1014400038B503880446DBB1B3F5707F03D00023C1
:101450000380032038BD822915D104F0BDFE04F0BD
:1014600059FE8021FFF712FF002805DD80B204F04D
:101470004BFE0C4B1B6998470B4B1A78520604D451
:101480004FF470732380012038BD00221A70074B7F
:101490001D68FFF7DFFCFFF75BFFAB06F0D0FFF73F
:1014A000C3FCEDE7A8A32000C71C00204886084025
:1014B00008B5034800F0A6FF024B00221A6008BDE1
:1014C0008400002034880840064B07481A68042A24
:1014D0001FBF06490A7842F040020A7000221A60D3
:1014E00000F090BF2C88084084000020C71C00201A
:1014F00010B5094C00212046402207F01BFD074B88
:1015000001221A602E205C60FFF78EFBBDE81040C0
:101510002F20FFF789BB00BF0000002004F00F4020
:1015200003289EBF014B00011950704700000020A6
:1015300003289EBF024B03EB00104160704700BFC1
:101540000000002003289EBF024B03EB00108160C7
:10155000704700BF0000002003289FBF03490123FC
:101560000A6883409CBF13430B60704728F00F400C
:1015700003289FBF034901230A6883409CBF13438C
:101580000B60704720F00F4003289FBF03490123E1
:101590000A6883409CBF13430B60704714F00F40F0
:1015A00003289FBF044B03EB0010806800F0070086
:1015B00088BF0020704700BF00000020024B4FF0A2
:1015C000FF321A60704700BF04F50F40014B012243
:1015D0001A6070474CF00F40094B1A6812F4801FD4
:1015E0001A46F9D1043B196821F480311960116859
:1015F000C903FCD41A6842F400321A60704700BF75
:1016000004200D4010B50A4B1A681C4612F0030F57
:101610000CD0084B1A685101FBD41A685201FCD552
:10162000FFF732F9FFF7D8FF0023236010BD00BF9A
:1016300058200D4004200D4038B5254B1C6814F08F
:101640003F0413D1234B53F8243023B1984768B19A
:101650000134032CF6D1204D2B783BB1FFF724F950
:101660000446FFF727F9201A092801D830BF38BDF2
:10167000002CFBD0194B1A6822F400321A60184A69
:101680001168C902FBD4196841F4803119601368EC
:10169000DB03FCD5FFF70EF9201A092803D8BDE8B3
:1016A0003840FFF799BF63280E4C02D92B78022BE4
:1016B00000D00123236000F057FE20B1FFF78CFF1C
:1016C0000023236038BDFFF7EFF80028CED1F5E7FF
:1016D00048860840C8020020C81C002000200D4099
:1016E00004200D4058200D400023064A52F82310D4
:1016F000814206D011B942F8230070470133032B11
:10170000F3D17047C8020020054B00221A60054A39
:10171000136843F004031360034B01221A707047EF
:1017200058200D4010ED00E0C81C002030B5184BCB
:101730001A78431E3AB9174A1278122A03D1164A68
:1017400012784B2A03D001F52011273117E04A08FF
:1017500002F12814B4F1281F04D014F8015D03F835
:10176000015FF7E701F5201127310023934205DAE5
:1017700011F801598418E5540133F7E730BD074AE1
:10178000914204D011F8012903F8012FF7E730BD89
:101790002B0028002A002800290028002700280004
:1017A0000FB407B504AA52F8041B0448019200F0D4
:1017B00021F803B05DF804EB04B0704794000020FA
:1017C00070B505460C46102C07D92B686868084987
:1017D0001022984750B9103CF5E734B12B6868687F
:1017E0002246BDE8704002491847204670BD00BF40
:1017F0002CA520002DE9F04F80468FB0069107926E
:101800000026069B1B78002B00F05F83069B1C467E
:1018100013F8012B1AB9069B9C4203D10FE0252A2D
:10182000F5D1F8E7069BD8F80400E51A0699D8F830
:1018300000302A469847002840F02A832E44237817
:10184000002B00F042836378611C002B00F03D8385
:1018500000240A4611F8013B2B2B11D006D8202B6F
:1018600011D0232B12D144F00804F2E72D2B04D021
:10187000302B0BD144F01004EBE744F00104E8E70F
:1018800044F00604E5E744F00204E2E7A3F1310185
:1018900008290DD8134600251A4613F8011BA1F19B
:1018A0003000092811D80A2202FB0515303DF3E764
:1018B0002A2B09D1079B01321D68191D002D0791A4
:1018C000B8BF44F0010400E0002513782E2B1CD192
:1018D0005178531CA1F1300009280ED81946002771
:1018E0000A780B46A2F13000092801F101010FD856
:1018F0000A2303FB0727303FF2E72A2906D1931C6E
:10190000079A111D0791176802E013464FF0FF3741
:101910001A786C2A09D15A786C2A02D144F08004D2
:101920000AE0013344F060040BE0682A09D15A78D8
:10193000682A03D144F02004023302E0013344F06A
:1019400040041A78642A3CD01FD8462A48D00DD8C3
:10195000252A5AD003D8002A00F0B78257E0412A3E
:101960004AD0452A53D144F4424450E0582A31D059
:1019700004D8472A4BD144F4A13448E0612A38D036
:10198000632A44D144F4A06441E06E2A3AD007D8D7
:10199000662A22D027D3672A28D0692A11D036E0B8
:1019A000732A2CD006D86F2A11D0702A2FD144F474
:1019B00040742CE0752A07D0782A28D144F4C85402
:1019C00025E044F4245422E044F410641FE044F47D
:1019D00088541CE044F4B24419E044F4007416E066
:1019E00044F4844413E044F4024410E044F48134A9
:1019F0000DE044F4C1340AE044F4E13407E044F477
:101A0000806404E044F4E06401E044F4C064013321
:101A1000069304F4E063B3F5806F00F0AA8116D852
:101A2000B3F5807F2BD0B3F5407F7FF4EAAE079B00
:101A3000A04914F4804F03F104029F4818BF0846E0
:101A40000DF1330107920F461A680023C5E1B3F583
:101A5000C06F08D0B3F5E06F00F03182B3F5A06F2E
:101A60007FF4CFAE00E2D8F80030D8F804009349F4
:101A700001229847002840F00B820136C1E6002F72
:101A8000ACBF24F01004012714F40053039304F0B6
:101A9000E00337D0402B17D008D8DBB1202B2AD158
:101AA000079B1A1D079293F9002017E0602B11D0B5
:101AB000802B20D1079B073323F0070303F1080293
:101AC0000792D3E900230AE0079B1A1D0792B3F996
:101AD000002003E0079B1A1D07921A68D317002AFB
:101AE00073F1000109DA524263EB4303CDE90023AD
:101AF0004FF0010933E000220023CDE900234FF02D
:101B000000092CE0402B16D007D8CBB1202B20D1D8
:101B1000079B1A1D07921A78EEE7602B10D0802BD6
:101B200017D1079B073323F0070303F1080207923D
:101B3000D3E90023E1E7079B1A1D07921A88DBE728
:101B4000079B00211A1D07921B681846CDE900016A
:101B5000D5E700220023CDE900234FF0000904F46B
:101B6000C053B3F5805F0CD0B3F5C05F33D0B3F58D
:101B7000006F4FD1DDE900230DF1360ACDE90423D2
:101B800004E0DDE900230DF1360A15E0DDE9042368
:101B900013433AD0DDE904010A22002306F0E6FDF2
:101BA000DDE9040130320AF8012D00230A2206F093
:101BB000DDFDCDE90401E9E752EA030125D002F099
:101BC000070130310AF8011DD10841EA4371D808F4
:101BD0000A460346F0E7384B14F4804F0DF1360AFD
:101BE000344908BF1946DDE9002352EA03000CD04E
:101BF00002F00F00085C4FEA131E0AF8010D1009ED
:101C000040EA037002467346EFE70DF1360BCAEB6C
:101C10000B0B03E00DF1360A4FF0000B41F6080202
:101C200041F208035F4502EA04028CBFCBEB0707D1
:101C300000279A4202D1002F08BF012741F6080170
:101C40008A4207EB0B030DD1DDE9000150EA0102E6
:101C500008D01B4914F4804F1A4A4FF0020C18BFE9
:101C60000A4602E04FF0000C62460399A1B1B9F1B7
:101C7000000F0AD104F0060102290AD006291249F0
:101C800004BF4FF0010C0A4606E04FF0010C0F4A6A
:101C900002E00F4A4FF0010C63449D428CBFED1AE5
:101CA000002514F0010922D1E30613D52F444D4637
:101CB0001DE000BFF7A4200008A520002AA52000F1
:101CC0001CA5200019A5200021A520001FA520008B
:101CD00056A4200040462946CDF80CC00092FFF7DC
:101CE0006FFD009ADDF80CC0002840F0D180BCF1F7
:101CF000000F0DD01146D8F800306246D8F8040025
:101D0000CDF800C09847DDF800C0002840F0C08042
:101D10003C465E44102CD8F800300DD9D8F80400A9
:101D20006C491022CDF800C09847002840F0B080E0
:101D3000103CDDF800C0EDE75CB1D8F8040065495F
:101D40002246CDF800C09847DDF800C0002840F0DA
:101D50009F80D8F80030D8F8040051465A466644AF
:101D60009847002840F094803E44B9F1000F79D0A4
:101D700073E0079BD3F800A01A1D0792BAF1000F79
:101D800009D05346994699F800200133002AF9D129
:101D9000CAEB090903E0DFF840A14FF00609002F64
:101DA00002DBB94528BFB9464D458CBFC9EB0505D7
:101DB000002514F0010405D140462946FFF700FD37
:101DC000002865D1D8F80030D8F8040051464A46BA
:101DD000984700285CD14E443EE052EA030E0ED0F4
:101DE00002F00F0E10F80EE04FEA131C01F801ED9F
:101DF0004FEA121E4EEA037E72466346EDE70B463B
:101E00007F1A01BF3022012701F1FF3301F8012CB5
:101E100003377822BD4203F8012C4FF0300203F85B
:101E2000022C88BFED1B4FF0230298BF002514F051
:101E30000104A3F1030903F8032C04D14046294609
:101E4000FFF7BEFC20BBD8F80030D8F804004946A4
:101E50003A469847E0B93E4424B140462946FFF748
:101E6000AFFCA8B92E44CCE4079B012D03F104027A
:101E70001B688CBF05F1FF35002514F001040792A3
:101E80008DF8203008D140462946FFF799FC10B163
:101E90004FF0FF301AE02E44D8F80030D8F8040094
:101EA00008A9012298470028F2D16F1C2CB14046A6
:101EB0002946FFF785FC0028EAD13E44A1E4079BB0
:101EC0001A1D1B6807921E609BE430460FB0BDE8E8
:101ED000F08F00BFE7A4200023A52000F8B50388F9
:101EE000064615462BB14A2B15D00023038003204C
:101EF000F8BD174807F0A2F904462CB1201DA168CF
:101F000007F04EF92468F8E7124B01221A704A23B1
:101F100033800120F8BD8829FBD10D4807F08EF9E8
:101F20000446002CF3D0231D9D420ED108482146C3
:101F300007F08EF9084B62691F681A60A2691D4696
:101F40000AB1E06990472F60E1E72468E9E700BF44
:101F5000D4020020C91C0020E402002010B5064B6A
:101F6000002406481C7007F066F92146BDE81040C1
:101F7000034800F02FBA00BFC91C0020D402002083
:101F80009C00002070B504460A4DE3610A4B2E68A0
:101F90001B786661A26133B1084B201D2B6007F0EE
:101FA000FFF82E6000E0A1602146BDE870400448C3
:101FB00007F062B9E4020020C91C00209C00002048
:101FC000D402002070B5094B05461B783BB1084C84
:101FD000084B26680430236007F0EBF8266029469A
:101FE000BDE87040044807F047B900BFC91C002095
:101FF000E40200209C000020D402002010B5084B11
:1020000004461B781BB1043000F0A8F801E0C3605F
:1020100003612146BDE81040024807F019B900BF2E
:10202000C91C0020D402002010B50E4C236813B93F
:102030000D4A136010BDFEF705FC216891E80C0005
:102040001A44131A8A6842B192E812002144091A0C
:102050008B4228BF0B469268F5E71844024B186084
:1020600010BD00BFD8020020DC020020014800F0B3
:10207000C9B900BFAC000020F8B5038805462BB1F4
:10208000592B09D0002303800320F8BD1E4A13609A
:1020900059232B800120F8BD872920D08229F7D130
:1020A000194F00263C68002CF2D0204607F0B5F806
:1020B00090B1E0688821224600F060F950B9E060F4
:1020C000A3680EB1B36000E03B600023A360FFF79C
:1020D000ABFFE5E7FFF7CAFF2646A468E3E70A4936
:1020E0000B680BB90B60D3E7D868904201D19B68AD
:1020F000F7E70B6099680029CAD0C86890420ABF08
:1021000089680B469960F5E7D802002010B50446AF
:10211000FFF7ACFFE3680B4A4BB113683BB1A34236
:1021200003D1094A1268DA6007E09B68F6E7064BBC
:102130001B68E36013681460A360BDE81040FFF7FC
:1021400073BF00BFD8020020E4020020024B1868D1
:10215000003018BF01207047D802002010B50B4A8C
:1021600004461368984206D18368136008E09A68B1
:10217000A24203D01346002BF9D103E0A2689A6073
:10218000FFF752FF0023A360E36010BDD8020020D8
:1021900038B5836804460D469BB10A4804600220A6
:1021A000A07304F10C0098470238012801D9832D4F
:1021B00005D120462146BDE8384000F005B801238E
:1021C000A37338BDE40200202DE9F8431C4A0446FD
:1021D000156889462B4690461A4E3768A34204D0AC
:1021E0000BB11B68FAE7BDE8F88334B3A37BABB14E
:1021F0000023A37345B1AC4204D028468721224670
:1022000006F0F1FF2D68F5E7A3683BB14C4505D01A
:10221000346004F10C0083212A469847D8F8003036
:102220009C4203D12268064B05E0134623B11A688D
:10223000A242FAD122681A603760BDE8F88300BF75
:10224000EC020020E402002010B5094B00221A70B5
:10225000084B1C685CB1E37B3BB101230022A373F4
:10226000E27320468221FFF793FF2468F2E710BD56
:10227000CE1C0020EC020020024B1878421C1A7081
:10228000704700BFCF1C0020064B8A221A70064AF6
:1022900000231370054A1370054A1360054A136042
:1022A000704700BFCF1C0020CB1C0020CD1C00209D
:1022B000EC020020E40200202DE9F041214E3378A9
:1022C0000BB1FFF7C1FF204D2C78002C34D0DFF884
:1022D0008CE00C229EF800301C495A4388181C4F91
:1022E000895CDFF87C804268DFF878C08068013361
:1022F00003F01F03013C3970C8F80020CCF800003F
:102300008EF800302C7088B9124C134B1B68236078
:1023100023688BB133780BB1FFF796FF20683978CB
:10232000D8F8002006F05FFF2368EFE7812904BF9B
:102330000123837306F057FF337828781844BDE8EB
:10234000F08100BFCE1C0020CD1C0020F002002038
:10235000CC1C0020E8020020EC020020CB1C002056
:10236000E002002070040020024A034B10781B7822
:1023700018447047CD1C0020CE1C0020F0B50C4E38
:102380003478202C11D00B4B0B4D1B780B4F234472
:1023900003F01F032B700C256B430134FD18A8605C
:1023A000F9546A6034700020F0BD0120F0BD00BF18
:1023B000CD1C0020CB1C0020CA1C0020F0020020F5
:1023C00038B5034C256806F00EFF256038BD00BF08
:1023D000E402002010B50A4609490C6823468342EE
:1023E0000DD00BB11B68FAE748B104600860012109
:1023F000817383818121BDE81040FFF7E1BF10BDEB
:10240000EC02002038B1837B013B012B9FBF024AC5
:102410000123C37313707047CE1C0020024610B511
:10242000064853600468029B11609360026014B90F
:102430000846FEF755FA002010BD00BF74040020C6
:1024400010B5084C206858B10023236081684368A8
:102450009847236823B1BDE810401868FEF740BADA
:1024600010BD00BF7404002038B505880446672DF0
:1024700009D0792D2ED0002D32D1FFF7FDFE1B4B58
:1024800018701B4B1D601B4806F033FF431C01D125
:1024900067231DE00A28164B07D01A687E2AF2DC53
:1024A000511C1960144B9854EDE7196800254A1C1B
:1024B0001A60114A0D4B555428461978FFF75EFFF4
:1024C0000E4B852118682A46FFF758FF20B979235B
:1024D000238009E0852907D1054B00221A60D2E745
:1024E00000230380032038BD012038BD702A00205E
:1024F0008004002078040020511D0020E402002008
:102500000D2810B5014615D00B4C23782BB90B487C
:1025100006F0DBFE48B9012306E00A2805D107488A
:1025200006F0D3FE08B1002323700548FFF76AFFC9
:10253000012010BD002010BD501D00207804002097
:10254000BC00002008B505480549802206F0B6FE0B
:10255000BDE8084003480021FFF73CBF7804002095
:10256000D01C0020BC000020054A136843F004037F
:102570001360044B1B68906943EA002080B27047E7
:1025800000700D4014700D40174A136823F00C03BF
:102590001360164B01221A601A68012AFCD1144BF1
:1025A00008221A60E322C3F8142203F505731946C2
:1025B000104B1B68DB07FBD5102000230E4A0138A7
:1025C000126802F0010243EA02034FEA43039BB29E
:1025D000F4D1002BF0D0094A180A03F0FE03106072
:1025E0001360EF230B60704700700D40A8200D4072
:1025F00024860840648608409C86084014700D407C
:1026000008B5064803F0B0F9054B01221A70002204
:102610005A70AA229A70DA7008BD00BF11282000F3
:10262000D21D002010B50F4C0220A17903F036FE18
:10263000A379112B01D0062B05D1238D618D9942F1
:10264000A8BF194608E03A2B05BF94F8281094F863
:102650002930002143EA01210120BDE8104003F0A8
:102660001DBE00BF381F002010B513780446087A3D
:1026700083F0020398421DD1487A5378984219D1C9
:10268000887A9378984215D1C87AD378984211D134
:10269000087B137998420DD1487B5379984209D130
:1026A000887B9379984205D1C87BD379984201D130
:1026B00003201BE00B890F4A6BB94B89B3F57F4FA1
:1026C00009D18B89FE2B06D11368C989022023F812
:1026D000021B13600AE0136851F8080F083343F82F
:1026E000080C486843F8040C13600120A040C0B2F5
:1026F00010BD00BF8C04002010B5084C01462378A3
:10270000012B08D1A01C082206F008FB00280CBFF2
:102710002046002010BD002010BD00BFD21D0020AB
:1027200008B50146102003F0C7FD044B04489B6820
:1027300000219847BDE80840FEF750BAF4A32000F6
:102740004527200010B508460C46114602F078F9DE
:10275000044B1B6813B19B6820469847024B1C60D2
:1027600010BD00BFB8090020A00400202DE9F843E7
:102770004FEA1219B9F10F0F80461D4602F00F04FF
:102780000BD00F2C05D1B9F1000F0AD11024274628
:1027900019E0B9F1000F09D004E00F2C4FF0100937
:1027A00000D1102440464A4606F0EAFA09EB04023A
:1027B0000F2A274606DC08EB09000021C2F11002AF
:1027C00006F0B8FBBCB1114DC7F110002E684044B3
:1027D0003146224606F0D4FA022C08D1B9F10A0F8C
:1027E0009FBFFF2388F80B30FE2388F80C30344459
:1027F0002C60BDE8F883B9F1000F05D040462946AA
:10280000BDE8F84306F0DCBDBDE8F8838C04002089
:102810002DE9F04F944E954D002387B033702B7007
:10282000044603F0D9FC03F075FC914F0421386095
:10283000092003F033FD8F4B8DE860001B680BB15E
:10284000FFF7F0FE04A80CB98B4900E0214606F022
:10285000EEFD8A4B8A4E1A8803933E2A40F20B8281
:10286000D7F800A0874D0AF102032B60009B06F108
:10287000180093F80090002309F102090AF80930C2
:10288000FFF73AFF20B906F10800FFF735FF20B146
:102890000AF103032B60802400E00446727830784C
:1028A000130943EA0013DBB2990841EA8313DBB250
:1028B00012F00F0FD9B2DFF8CC8100F00F000ED16B
:1028C0006F4E76885EB910B912F0F00F21D0D8F8AB
:1028D0000030702603F8011BC8F800301AE078B900
:1028E00012F0F00F0CD1296823F03F031A43664B16
:1028F0000A701B88033121F8023C6826296009E030
:102900005F4A2B6810686026186003F8041B2B6070
:1029100000E078265A4B9A790293112A08BF46F0B4
:10292000040673075EBFD8F8003003F8012BC8F81F
:102930000030029BDB79402B06D0FF2B07D0012B08
:1029400008D146F001060BE046F0020608E046F02A
:10295000030605E0D8F8002002F8013BC8F8002083
:10296000029A474B128982B95A8972B99A8962B917
:10297000DA8952B91A8A42B95A8A32B99A8A22B97C
:10298000DB8A13B944F0400013E04048FFF7B4FE7F
:102990003F4B186078B142781AF80930042043EAB6
:1029A00002130AF8093039493A4AFFF75DFE60F030
:1029B0003F00C4B228E0029B31491A8948F2FE0365
:1029C0009A420CD14B8B53B98B8B43B9CB8B33B918
:1029D000042008312F4AFFF747FE2043E9E7D8F8E3
:1029E0000020DFF8A8C096460CF1100B634603CB1D
:1029F0005B45CEF80000CEF804109C460EF1080EA0
:102A0000F4D1204B10321A60DFF874B09BF8183004
:102A1000FF2B40F08D809BF8192044F0080C022A0F
:102A20005FFA8CFC38D1BBF81A30ABBBBBF81C305A
:102A300093BBBBF81E307BBBBBF8203063BBBBF83D
:102A400022304BBBBBF8243033BB9BF826301BBB7A
:102A5000D8F800309BF8272044F00B0003F8012B36
:102A6000C4B2C8F80030A2E0D11D0020DC1D002057
:102A700098040020B8090020BAA52000241F0020D7
:102A8000381F00208C0400203A1F0020401F002027
:102A900084040020301F00209C4B588B194688BBB3
:102AA000988B78BBD88BA8B9188C98B9588C88B9F2
:102AB00093F8240070B9296844F00A00C4B20846AB
:102AC00000F8012B33F8252F043121F8032C9B78D3
:102AD000837015E0C98B8D4BA1B9198C91B993F80E
:102AE000221079B9296844F00900C4B2084600F8F8
:102AF000012B53F8232F063141F8052C1B79037164
:102B0000296054E0824ADFF81C82146808F1100939
:102B1000A646434603CB4B45CEF80000CEF8041042
:102B200098460EF1080EF4D11034146064463EE06D
:102B30000BF11800FFF7E0FD764B186050B14378B9
:102B40001AF8091044F004040B43E4B20AF80930FF
:102B500000200EE048F2FE03BBF818209A4210D184
:102B6000BBF81A306BB9BBF81C3053B9BBF81E3038
:102B70003BB90BF1180104AAFFF776FD2043C4B25C
:102B800015E0634ADFF89C81D2F800E008F11009F3
:102B9000F446434603CB4B45CCF80000CCF8041078
:102BA00098460CF1080CF4D10EF110031360019A51
:102BB0005649282313708B79112B51D14FF2B00352
:102BC0000A8D52BA92B222F00F0080B2984215D10B
:102BD0004B8D5BBA23F00F031B041B0C83420DD1FA
:102BE0002868F32303704B8D1A0A0B8D1B0A02EB26
:102BF000031303F5AA634370831C27E0029B434938
:102C00005B8D5BBA03F47F43B3F5704F09D12B683A
:102C1000F1221A700A8DA3F801204A8D120ADA7087
:102C20000CE002F47F42B2F5704F2B6808D1F2221B
:102C30001A700A8D120A5A704A8D5A80043305E0C0
:102C4000F0221A70886A053343F8040C2B60324B6B
:102C50001A882B6823F8022B019A2B6030231370FB
:102C6000009B3A681B78D65413445C70284B1B6851
:102C70009B1A009A19E03A6841231370009B06F1F1
:102C800028051C78631CDBB21344324603CAAA42EF
:102C900018605960164603F10803F6D1009B2934E9
:102CA0001C70019B019A1B782833102013700DEBC8
:102CB000000103F001FB194BDFF86C901B6898478B
:102CC000174B30EA200428BF15245B699847039B03
:102CD000C4F17D041D88019B241A1E78009BAA1B49
:102CE00093F80080DFF844B0C8EB04039A42DFF8A1
:102CF00040A040F3CC8003F009FB7823B5FBF3F54B
:102D00000135A84216DC0020D2E000BF381F0020A9
:102D10008C04002084040020661F0020E4A320000F
:102D2000F4A32000501F0020241F0020D11D0020EC
:102D3000DC1D0020D7F800809AF8005041462A4652
:102D400008F1040006F092F8B9F800305A4A6FEA28
:102D500083436FEA9343C3F3072388F80030B9F83D
:102D60000030043588F801301388EDB2190A88F86C
:102D700003300133DFF854C188F8021013809BF848
:102D80000010631B23F007034C4E61441A4608EB06
:102D90000500CDF808C08AF800503360019305F0B3
:102DA000EFFF019B581980B203F0AEF903F0B4FABB
:102DB000DDF808C0804665460028A4D004A8FFF7C7
:102DC000AFFC404603F0E0FA404603F0C7FA3C4A45
:102DD00013689046012B96D0043B012B93D99BF8A6
:102DE00000B03368053C5B441FFA83FB05238AF877
:102DF0000030344B24F007041A68B9F8003034600E
:102E00006FEAC3436FEAD343C3F307231370B9F8E0
:102E1000003053702C4B1B889B4548D23A684FEAD0
:102E2000DB0111713268CBEB03039342B8BF234A35
:102E30003868B8BF1360009B346893F8009022464E
:102E400005EB0B01484405F09BFF09EB040080B241
:102E500003F05AF903F060FA044600283FF453AF38
:102E600004A8FFF75DFC204603F08EFA204603F02D
:102E700075FA124B1B689B44D8F800301FFA8BFB85
:102E8000012B3FF440AF043B012BC3D83BE738682C
:102E90000E494044314405F073FFB9F80000404446
:102EA000801B80B203F030F904A8FFF739FC012041
:102EB00007B0BDE8F08F00BF141700209C0400206D
:102EC000A004002098040020241F0020381F0020A8
:102ED0002DE9F04FA04FA14E87B000243C70347014
:102EE00003F018F99E4DB8462860042003F0DEF97F
:102EF0009C4B00B218609C4806F08FF9DFF894B242
:102F0000009518B1994BABF800401C80009B1B68E2
:102F100019785D7845EA012501F0F801C0291AD039
:102F2000E02926D19F7893F804A0DB78BBF8004015
:102F300043EA07273378C5F30A050533337003F0F6
:102F4000FDF8204434784FF00009041BAC42B4BFB4
:102F50000024012494E29F78DB78002443EA0727C9
:102F60003378C5F30A05043333704FF00109A246E4
:102F700086E27E4B00241C80A14627462346A246BB
:102F80002546ABF80040BBF80020AAB1002D00F0A8
:102F90009182764B1B88AB4240F08C82744B1B882D
:102FA000BB4240F087820F2003F092F9014671483E
:102FB00006F042FAD8B97DE240F213516A1E92B28D
:102FC0008A4214D81BB1B9F1000F00F07382674B2D
:102FD0004FF480611D80664B63481F8006F00BF93B
:102FE0000F2003F075F90146624806F020FA3778A1
:102FF000052F00F0CD81009B1968CA5D02F0E00347
:10300000602B40F0AC81B81C0F4497F801B0084425
:10301000594B5FFA8BF10E06186044BF01301860FF
:1030200012F0100F0091554E02F008012FD1D1B9C6
:10303000196831F8010FA6F801008978F170196854
:1030400011F8040B1960830803F00F0141F06001CF
:103050003170717803F0300343EA801301F00F01FF
:103060000B4373702EE0186860210746317017F823
:10307000011B03304FEA910E0EF0300E01F00F01EC
:103080004EEA010171703988186071801AE001F010
:10309000FF0791B919680878C0F3830040F0600019
:1030A000307011F801EB77804FEA9E0000F030009D
:1030B00040EA8E107070196004E0602333700023C2
:1030C0007370738002F0040303F0FF0101912B4F32
:1030D0002BB929490B6813F8010BB8710B6012F07A
:1030E00003020BBF244A264B13689B5C09BF13F8ED
:1030F000011BFB711360F9711BF0400FCBF3011240
:103100004AD0009B190641BF1549144B09681B782A
:1031100051BF00215B189978090982B1194B1878C1
:10312000012805D1587888420CBF1946002100E0DB
:103130000021154B1960002940F0BA8128E11146A1
:10314000124B0F209A5C0391029203F0C1F803998D
:1031500003460F4829E000BFD11D0020DC1D0020E0
:1031600098040020880400209004002012170020FA
:1031700010170020712A00208C040020A4040020D5
:1031800067A52000D21D00208404002080A5200017
:10319000AC04002016170020A64B0F209A5C029268
:1031A00003F096F8A4490346A448029AFFF7DEFA12
:1031B0000BF008000BF0030200F0FF010BF004031A
:1031C000B0B1002B4AD19E4B1B88ADF81430531E72
:1031D000012B9FBF9B490B6813F8010B0B609A4BA7
:1031E00098BF8DF815009A5C984805A9002333E034
:1031F000002B27D0009B1B0641BF9549954B0968C2
:103200001B7851BF0B465B18997801F00F03924968
:103210000878012804D14878984218BF002100E0BE
:1032200000218E4B00911960002900F0B1808C4B79
:10323000102013F802B003F04BF800990346023156
:10324000824808E07B4B102013F802B003F040F8EE
:10325000794903467D485A46FFF788FA98F80000F6
:10326000784900F1280388F80030019B002B56D0E4
:103270000B681A7802F0F802F02A50D11122BA71C4
:103280001A7802F0040E02F0F302F03A5FFA8EFEB2
:10329000032A7DD8DFE802F0020A1622B3F80120E3
:1032A00005333A8533F8022C7A852CE0B3F80120F7
:1032B0003A85DA78A2F5805292B2120242F0F00218
:1032C0007A8509E05A78A2F5805292B2120242F051
:1032D000F0023A855A887A85043314E05A7802332A
:1032E0001209A2F5756292B2120242F0F002328522
:1032F00013F8012C02F00F02A2F5756292B21202CD
:1033000042F0F00272850B60BEF1000F04D10B6831
:1033100033F8022BFA850B60303088F800004C4AF5
:103320000B6812689B1A4B4A137065B902F006FFCE
:10333000484B1B78C01A98F80030184428380312FC
:103340003B71787104E0A5F128031A123A717B7180
:10335000BA79444B112A1BD19A889A8518E0412AE0
:1033600040F0A8807A1CD2B28B18DFF8F8E003F1A5
:10337000280C724618685968083303C2634596469C
:10338000F7D198F8003029372833377088F80030A3
:1033900002F0D4FE2F4E3378834200F28B8002F08D
:1033A000CDFE3378304AC71A176040F2145298F8AD
:1033B00000B00BEBCA0A0AEB070191427AD8244A03
:1033C00028481168504419443A4605F0D9FCDFF802
:1033D000AC80264E65B1B9F1000F02D032885A4454
:1033E00032800CB1358007E032883A44328003E005
:1033F00007EB0B02A8F8002033881BB1B8F80020B7
:103400009A4257D1B8F8004019482246154905F0AC
:10341000B7FC184B1C80184C0023A8F800303380F0
:10342000236823B1FFF7FEF823685B68984702F032
:10343000B5FA3FE06BA520006FA52000AC0400208A
:1034400065A520008C04002071A52000BC0400208C
:1034500098040020DC1D0020D21D002084040020E0
:1034600080A52000A40400209C0400201617002042
:10347000381F0020241F0020B80900201217002048
:10348000BBF8003093B1B9F1000F0FD00F2002F05C
:103490001FFF0146094805F0CFFF18B9084B1880F7
:1034A000084B18804FF001094B466CE501236AE593
:1034B000023145E607B0BDE8F08F00BF712A002059
:1034C000121700201617002037B5124B124D1C782A
:1034D0002B796A79C4EB032313449BB2ADF8063011
:1034E000BDF8063005F108011844202280B205F02D
:1034F00010FFBDF8062004F12801294492B205F01E
:1035000008FF10B140BA80B201E04FF6FF7003B07F
:1035100030BD00BFDD1D0020381F002028492DE9E7
:10352000F04188460D78274E2835AB195C7826483F
:10353000E400073402239C423DDBE9187218715CF9
:10354000204F012932D002D3632902D013E0013386
:103550002FE0037018461C4C04F030FED8B998F8E0
:1035600000302278283313443B445B781344023301
:103570002370BDE8F08101F0C001802905D0C02989
:1035800005D0402912D1037005E0037006E03A7EB1
:103590000370FF2A02D10120BDE8F081042002213E
:1035A000EA1801F007FE0220BDE8F08152780232ED
:1035B0001344DBB2BFE703700020BDE8F08100BF19
:1035C000DD1D0020381F0020E31D0020F0B5C57868
:1035D000124A0D44EDB2D57083780F0A3B44DBB23A
:1035E00093704478BB4254700678167005D2601C04
:1035F000C0B2507008B901361670C9B28D420CDAEB
:103600000133DBB2054993703BB94B780133DBB230
:103610004B7013B90B7801330B70F0BD2C1F0020D9
:1036200010B5084C014620681430FFF7CFFF064A5A
:10363000236811781975517859759178D2789975F0
:10364000DA7510BD5C2400202C1F002008B501F0A5
:1036500011F901F097FE02F063F9002311490022ED
:1036600021F813200133DBB2082BF7D10E493023A8
:1036700003FB02110132D2B200230A2A81F825305D
:10368000F4D10A4A4FF480611180094A002102EB0B
:1036900043120133DBB20A2B1182F6D1054A1370B3
:1036A00008BD00BF48260020602400201A17002013
:1036B0005C260020E41D00202DE9F041134F3D78E9
:1036C00015B3DFF8508005F12703B8F80040A34296
:1036D00005DB00233B70A8F80030BDE8F0810C4EFC
:1036E000A4F1280205F12801641BA4B206F1280008
:1036F0003144521B05F0BAFBA8F80040283C2312C5
:103700003371002374713B70BDE8F081DD1D002032
:10371000381F0020241F002030B50A490023082B41
:103720000DD0094C5A1C34F81350D2B2854204D142
:1037300000220B7024F8132030BD1346EFE70B7006
:1037400030BD00BFE41D0020482600202DE9F74FC2
:10375000A44E04283468B246A34F00F06182A34906
:10376000A34DA44A03280D601560894615D194F82D
:10377000253003F00F03032B08D1A38B002B40F05F
:10378000A9869D4B08221A7000F096BD022B40F0CE
:10379000A186002305F8073CC8E3022878D1974AA0
:1037A00000231380964A3B80D3780133DBB2D37079
:1037B00063B993780133DBB293703BB9537801332B
:1037C000DBB2537013B913780133137094F82530BA
:1037D00003F0FD02052A0DD194F826300133DBB247
:1037E000782B84F8263040F07586002384F8253045
:1037F00000F070BE002B00F06D86A28B7E48002A80
:103800003DD094F82620511E84F82610002A40F05E
:10381000618694F82720082A04D0591E01290AD865
:10382000052A08D1002384F825308023037002F094
:1038300047FA00F04FBD042A9CBF0321914003F0DA
:103840000F0394BFC9B230210132013B84F8261026
:1038500084F82720072B00F23D86DFE813F063038E
:1038600008000A00F4043B06F4043B06F4040022BA
:1038700059E30423037002F023FA00F05BBD03F068
:103880000F03032B40F026860823037000F014BDBD
:10389000052811D15B4B1B681B8A002B00F01A8690
:1038A0000C3D1560554A0023138033603B80524B1A
:1038B00008220D601A70B1E115F83C3C3C3D03F064
:1038C000F003602B40F006862B796A791B02398859
:1038D0009818884200F3FE85283213443B802B7AE7
:1038E000FF2B00F0F785484BAA1D484C484E1A6044
:1038F000002222703270AA799846B2B9012333703F
:10390000FFF70CFE012800F0E58503D3022800F044
:10391000DD850AE0237803F128022A44C8F8002054
:103920005278083303EBC20323703A4800F03EFE9E
:10393000002840F0B580374800F0DEFE002840F057
:10394000AF802A7E334BFF2AA3F1180366D048F2DA
:10395000FE00198B814261D0198981425ED079B90C
:10396000598969B9998959B9D98949B91B8A3BB922
:10397000698A294B21B9998A11B9DB8A002B4DD06C
:10398000298B254B79B9598B69B9998B59B9D98B41
:1039900049B9198C39B9598C29B9998C19B9DB8C69
:1039A000B3F5807F3AD03B88B3F5A06F04D90220ED
:1039B00000214FF4A06206E0EB79174C012B06D8EA
:1039C00000210A46032001F0F5FB00F07FBD04F062
:1039D00043FC002840F07E85E379013BE37100F071
:1039E00075BD00BF5C240020241F00205824002047
:1039F000741F0020281F00204C240020582600207F
:103A0000DF1D00205424002050240020DD1D002054
:103A1000DE1D0020501F0020381F002048F2FE034A
:103A20002989994240F05685298B9A4B81B9598B47
:103A300071B9998B61B9D98B51B9198C41B9598C2C
:103A400031B9998C21B9DB8CB3F5807F00F04285C8
:103A5000FF2A00F03F85904800F088FD02460028CC
:103A600040F0388501200221ADE721D93A2B6ED0F4
:103A700026D93B2B00F02E853C2B64D13378874927
:103A8000980735D558065ED443F040030B70FFF716
:103A900045FD012800F01E852DD3022800F0168573
:103AA000D8F80020DFF820B213782B2BDDD12EE0E0
:103AB000062B00F00B81112B66D0002B43D103E0C5
:103AC0002C2B00F007853EE03378D9073BD4734AAE
:103AD00043F001031370FFF721FD012800F0FA8481
:103AE000DBD2237803F128022A44CBF8002008E037
:103AF00043F00203CAE7237803F128022A44C8F8F6
:103B000000205278083303EBC2032370C8E73378F0
:103B100003F0040000F0FF01A8B9604A43F0040379
:103B20001370227802F128032B44D87810B10420B6
:103B30002A3248E7CBF800305B78083202EBC30248
:103B4000574B1A70ACE704200121521B3BE705F0EC
:103B5000FCFB4FF6FF73984240F0BC842378283377
:103B6000E85C01F007FF23782833EA18E85C517815
:103B700001F0FEFA012804BF00233B803B88002BA4
:103B800000F0A88400F0A2BCFFF796FD3B88454EEC
:103B9000303B3B80EB8DC9F8006063B9B5F82A80F3
:103BA000B8F1000F00F096843F4B404D2B60394B2D
:103BB000B3F828B00BE005F0CEFB4FF6FF73984248
:103BC00040F08884EAE7238A3BB920342C602C68D3
:103BD000374B9C42F7D300F07DBC9845F5D1638A02
:103BE0000BB19B45F1D123682BB963681BB9A3685E
:103BF0000BB9E36833B12F482146102205F08EF847
:103C00000028E2D12C4A022111702C4A00231660B0
:103C10002B4ACAF80030C9F80060138002F050F84F
:103C2000274B1A88002A00F0558402F13003194C02
:103C30009BB23B80283B191263711C4B08321B68F6
:103C400052BA2171197DA2850022E2851A8AE1719A
:103C500022855A8A11216285A17104F118050FCBC2
:103C600085E80F0004F10800294600F0A5FD154B7A
:103C700004F13C021A6005F06EFBC04380B208B14B
:103C8000E08502E04FF6FF73E38504F0FBFB00F0F4
:103C900017BC00BF381F0020501F0020DE1D002071
:103CA000DD1D0020681F00205C2600205424002019
:103CB0009C270020401F00204C240020281F0020AB
:103CC000582600205824002050240020FFF7F4FC40
:103CD00005F03EFB4FF6FF73984240F0FB83B5F8CA
:103CE0002AB0BBF1000F00F0F583BF4B1B8D002BFA
:103CF00000F0F083BD4E344696F82580B8F1000FF1
:103D00000FD0328A5A450CD1728A9A4209D1B848EA
:103D100031461022019305F001F8019B002800F0C4
:103D20001B81B44A30369642E6D195F8352002F030
:103D30003F02022A13D1B049B04E8846A1F800B024
:103D40000022082A0AD0AE4931F8121001328B4500
:103D5000D2B2F6D100223270944657E0327095F814
:103D60003520A14B510700F1B583142283F835208B
:103D70003C223A80502283F8342093F8332093F881
:103D8000314093F82F0083F82F2093F8322093F8D6
:103D90002E109A4E83F82E2093F82D2083F82D4074
:103DA00093F82C400130347093F83060C0B283F83F
:103DB000321083F8312083F82C6083F8304083F888
:103DC000330060B90131C9B283F8321039B9013218
:103DD000D2B283F8312012B9621C83F830202B8DC7
:103DE000854A834C13806A8D6B852A8504F1100502
:103DF00094E80F0085E80F002046294600F0DCFC1F
:103E000049E3BEF1070F10D00132D2B20A2A19D00D
:103E1000302101FB024101F1200090F805E0BEF1E4
:103E2000000FEED132700C4611E0BCF1000F04D04F
:103E300080799CF826108842E6D94FF0300C0CFBB4
:103E4000024CE1E764463270002C00F04383032209
:103E50006382674B84F8262084F82420042284F8A7
:103E600023200FCB84E80F00664B01201A784FF017
:103E7000000922765A7884F8250062769A78DB78F1
:103E8000A276E37695F82F30A083E37595F82E306F
:103E9000CAF80040A37595F82D3084F82290637518
:103EA00095F82C3084F82790A4F810B02375FFF70C
:103EB000B7FB95F8343003F0F002502A32D9524A59
:103EC0001B09053B980096464B461178834226DA3B
:103ED000EA1892F83C1011B3012901D101331CE01A
:103EE000022915D192F83DC0BCF1040F10D18EF813
:103EF0000010337092F83E1092F83F3043EA0123ED
:103F0000402BA8F8003028BF4023E383238409E036
:103F1000EA1892F83D2012B11344DBB2D6E78EF8CE
:103F2000001033701022304B83F835202E4B93F85D
:103F3000352042F0020283F83520022283F83C202B
:103F4000042283F83D20002283F83E20402283F89B
:103F50003F203A80602262E295F835302B4A03F028
:103F600004013446CAF80060107001F0FF0B21B163
:103F7000202386F82500137000E21B4A08F00F0882
:103F800092F83420B8F1020F4FEA12124FEA820180
:103F90001A4A11703A88A2F12802A2EB010292B2E9
:103FA0003A8003D103F03F01122905E0B8F1010F77
:103FB00003D103F03F0102292AD00AB99A0727D07A
:103FC000A98DB28A914204D1074AD18DF28A9142D9
:103FD0001ED0980740F11C82B8F1010FA2D0B8F1B1
:103FE000020F40F01582A1E7381F00206024002056
:103FF000401F00204026002018170020E41D00204C
:1040000048260020DF1D0020E51D00204C24002054
:10401000D90652D5B18B00294FD006F11800FFF711
:10402000D5FAB44B95F830101878B34A884244D189
:1040300092F8311093F801C08C453ED192F832E0ED
:104040009978714539D192F83320DB78934234D195
:10405000F37696F82730307686F819C0B1761BBB18
:1040600096F8243096F8261096F82200591AA1EBFB
:10407000D001C9B25FFA81FE1EF0800F96F823309E
:10408000084418BF4942A3EB930318BF5FFA81FEAF
:1040900003EB0E02C0B2D3B286F8233003EBD00399
:1040A00086F8220086F82430944B01221A7096F884
:1040B000243086F826300023B38396F82510DFF8E5
:1040C0003C8201F00F03013B072B00F20382DFE883
:1040D00013F008002500950058017A0194019F0112
:1040E0004A0198F80020854BD2070FD5032286F8A5
:1040F0002520388840221A700022B283002800F060
:10410000D88042221A70FFF78BFAD2E095F835304A
:1041100003F03F03022B40F0DD8103E798F8003005
:10412000DB0760D595F8353003F03F03122B5AD1E9
:10413000714B93F8343003F0F002502A38D9704AAA
:104140001B099646053B11786E489B009B452BDA70
:1041500005EB0B0292F83C1031B3012902D10BF1AF
:10416000010B1EE0022916D192F83DC0BCF1040FEC
:1041700011D192F83F308EF8001092F83E10624A4A
:1041800043EA0123402B138028BF402380F800B06E
:10419000F38333840CE005EB0B0292F83D201AB157
:1041A00093445FFA8BFBD1E78EF8001080F800B0E3
:1041B000032386F8253095F82C300120337595F8C7
:1041C0002D30737595F82E30B37595F82F30F37543
:1041D000FFF726FA494A422313704C4A0023B3835F
:1041E0003B80138068E0202388F8003001F068FDF0
:1041F000DAF80030002283F82520B0E595F8353054
:10420000D80725D5CA0623D4B38B002B40F0628192
:104210003888013080B2FFF703FA98F8003043F095
:10422000100288F800203A881AB1344A43F0120389
:10423000137001F045FD0123B383082386F8253070
:10424000002386F8273011222B4B83F83520E2E03B
:1042500098060DD595F83A2095F83B3043EA0223AD
:10426000D9F800201A44C9F800203A88D31A3B80B4
:10427000388848B1CA0607D498F8003043F00203E2
:1042800088F80030FFF7CCF995F8362095F83730EC
:10429000318C03EB02239BB21B4A8B42138000D864
:1042A00003B911801388F38398F800309B0700F05E
:1042B0001181164B00221A8001F002FD0F4B1A7873
:1042C000124B02F0200000F0FF0128B100221A80FA
:1042D00084F825201422B7E702F0100000F0FF0553
:1042E000B0B119800123A383042384F8253084F816
:1042F0002710A8E72C1F0020381F00204C24002086
:10430000E51D0020E41D002018170020582600207D
:10431000198861B1D60748BFA583A28B32B9E28B59
:10432000914288BF1A801B88A38300E01A80002373
:1043300084F827306D4B1B68C9F800306C4B1B8824
:104340002BB1A38B1BB13C333B80182207E0694B98
:104350001B789D0740F1BE803C233B801022664BBA
:1043600083F8352059E098F80030DC0740F1B2803E
:10437000002386F825305F4B10221A7001F0A0FC54
:10438000A8E0388808B1FFF74BF995F8353013F0FD
:1043900001030FD098F80030D80745BF072386F8EF
:1043A00025300623002346BF86F82630B38386F8DF
:1043B000253016E098F80020D1071BD5052286F895
:1043C0002520B38386E0388808B1FFF729F995F8EE
:1043D0003530DA070ED5072386F82530002386F816
:1043E00026300120FFF71CF9102388F8003001F077
:1043F00067FC0DE03B885BB96CE098F80030DB07A8
:1044000068D5072386F82530002386F8263061E03A
:10441000102385F835303C233B80374B502283F8FE
:104420003420237D344D85F83030637D05F1180646
:1044300085F83130A37D85F83230E37D85F833305F
:10444000237E85F82C30637E85F82D30A37E85F899
:104450002E30E37E85F82F30238A2B85638A6B8587
:1044600094E80F0086E80F0005F10800314600F0DF
:10447000A3F994F8253003F0100303F0FF022BB1E9
:10448000002385F8373085F8363004E0402385F87E
:10449000362085F83730184C0623A371174B1B794B
:1044A000E3713B88283B1A1263710023227184F860
:1044B0003B3084F83A30238704F04AFFC04320871A
:1044C0000D4B60221A7000225A705A80094B00224C
:1044D0001A7007E00A4A002313700A4A3B801370DF
:1044E000044A137003B0BDE8F08F00BF281F0020FE
:1044F000582600204C240020381F0020A42700202C
:10450000DD1D0020DE1D00202DE9F3410446154D80
:1045100000910E4690461F460195234612480321FE
:10452000202204F025FF01282B4616D12A6804F129
:104530001001107020462A68023250F8044B88425D
:1045400042F8044BF9D11868089B86744361099BB3
:1045500080F813800777836100E0002002B0BDE897
:10456000F08100BFC0090020A028002070B50646D9
:104570000B4D0C4B2B602C680B4B9C420BD22378C1
:1045800033B1A27CA01C3146D20804F0C7FB20B195
:1045900020342C60EFE7002070BD012070BD00BF0B
:1045A000C0090020A02800200029002013B5084CD5
:1045B000802203460092019406480321202204F041
:1045C000D7FE08B9206800E0002002B010BD00BF8F
:1045D000C4090020BC27002010B50C4A0C4B136006
:1045E00013680C498B420DD2197849B1411C02D095
:1045F000997C814204D148F2FE015C888C4202D051
:104600002033ECE70023184610BD00BFC40900208A
:10461000BC2700201C28002037B504460F4D8023FE
:104620000093019523460E480521122204F0A0FEB6
:1046300001282B460ED12A6804F110011070204683
:104640002A68023250F8044B884242F8044BF9D1F0
:10465000186800E0002003B030BD00BFBC09002096
:1046600040280020F7B50546204C802300930E46D5
:10467000174601941E48032120222B4604F078FEA1
:10468000012830D12A46236805F1100118702368EB
:10469000023352F8040B8A4243F8040BF9D1206824
:1046A000C77416B90123037505E00023037531466D
:1046B000183005F0A1FC23680E48012199740223EB
:1046C0004370FF220023027043808380C3800381F4
:1046D0008372C17202736B7B4373EB89C381FFF7F3
:1046E0009BFF206800E0002003B0F0BDC40900205B
:1046F000BC2700201C17002013B5084C802203465D
:104700000092019406480521122204F031FE08B9F6
:10471000206800E0002002B010BD00BFBC090020EE
:104720004028002038B50546C8B10D4802220024B3
:104730004270FF230122C27244808480C4800481BD
:10474000847203730370EB7B43732B8AC381FFF77F
:10475000D3FF044A106008B104F02EFE2C7038BD5F
:104760001C170020BC09002010B50F4B0F4C236014
:1047700020680F4B98420ED203784BB1037D3BB9B2
:10478000183003F053FF18B1084B1868FFF7CAFF41
:1047900023682033EBE700F0E1FB00F067F9BDE8A8
:1047A0001040044804F005BDBC270020C4090020C7
:1047B0001C280020002900202DE9F84348F2FE03C0
:1047C0000A8805469A42884621D00B78FF2B1ED0D6
:1047D0001B4B0024A1461F461A4A1A603E681A4A1B
:1047E000964218D233787BB1B37C012B0CD148F2BE
:1047F000FE0372889A4207D04046B11C04F0E9FDDE
:10480000484524BF3446814620363E60E6E7012015
:10481000FFF7E2FE04464CB92C806C80AC80EC8043
:104820002C816C81AC81EC81BDE8F883A31C12342F
:1048300053F8042BA34245F8042BF9D1BDE8F883C3
:10484000C4090020BC2700201C28002010B5FDF75B
:104850008BFE0446FDF788FE054B24029A68A4B23D
:104860002044B0FBF2F302FB130000EB520010BD3A
:10487000A427002073B52F4C00F07CF800F0A0F9BD
:10488000002160222C4804F055FB00212046F8222C
:1048900004F050FB294B20221A70294B18221A7061
:1048A0004FF4A0632360274B40262671A360FFF7D7
:1048B000CDFF42F21073236148F2FE03314640F20D
:1048C000FF260025E06025751F4C2A462380658061
:1048D0002B46A580E580204600950195FFF714FE44
:1048E00020461A4904F06CFD294601222046FFF7B4
:1048F000B9FE4FF480732046E38126806580A58051
:10490000E58025816581A581FFF786FE4FF4007360
:10491000204626806580A580E58025816581A5816A
:10492000E381FFF779FE0A480C2102B0BDE8704030
:1049300004F036BCA4270020A02800209D280020D9
:104940009C280020C02709001C170020301F0020D1
:104950000029002010B5044640B102F0D7FB044BFB
:104960002146BDE81040186801F034BB10BD00BFFF
:10497000CC000020024B0349186801F06FBA00BF59
:10498000CC000020554920002DE9F8439846154BEE
:1049900005461868914601F08FFA0446F0B10746C3
:1049A00005F110033E4628686968083503C69D4234
:1049B0003746F7D104F11000002184F8219084F8E3
:1049C000228005F019FB04F11800002105F014FB0A
:1049D000002384F82030204602F098FB2046BDE8F2
:1049E000F88300BFCC000020024B0146186804F099
:1049F00088BD00BFCC00002070B50C4D064628686D
:104A000001F040FA044666B9002070BD20463146E8
:104A1000102204F083F938B12146286804F041FDE2
:104A20000446002CF2D1EFE7204670BDCC000020F8
:104A3000024B0146186804F04BBD00BFCC000020BB
:104A400070B5054610200C4601F042FC06490646AA
:104A500004F0F2FC30B9304629462246BDE87040E9
:104A600002F01CBB70BD00BFBAA5200070B53F4D61
:104A7000286801F007FA0446002876D094F822301E
:104A8000042B6DD8DFE803F01D036C33410004F103
:104A90001006304603F0CAFD002861D0204600F021
:104AA000FDF950B1032384F822303046052105F08A
:104AB000A3FA002384F8203052E0022384F8223045
:104AC0004EE094F82030022B2BD804F11806304623
:104AD00003F0ACFD002843D0254B188800283FD1B7
:104AE00094F820300146013384F820302CE004F1A2
:104AF000100003F09BFD98B30423002184F82230BA
:104B000084F8201004F1180028E094F82030022BDB
:104B10000BD9204600F0C2F918B1037F0BB900F0A1
:104B20009BF92046FFF716FF1AE004F118063046FD
:104B300003F07CFDA0B10E4B188888B9214694F88B
:104B40002030013384F82030224600F037FE094B34
:104B5000304619694FF47A73B1FBF3F105F04CFA62
:104B60002868214604F09DFC85E770BDCC0000203C
:104B7000241F0020A42700202DE9F04105460D4800
:104B80000F46904604F05AFB044688B1012D04D824
:104B9000094804F089FB034601E0084B1B682846DE
:104BA000666839464246B047204604F084FBEBE78E
:104BB000BDE8F081941100202C0D0020280D00206C
:104BC00008B50A4805F01FFA094804F034FB094902
:104BD000094801F043F9094805F015FA084804F0BE
:104BE0002AFBBDE80840074804F025BBFC00002074
:104BF000D00D00202B942000EC000020E0000020CD
:104C00002C0D00209411002008B5034638B15968D6
:104C1000034804F076FCBDE8084004F0F7BB08BD8B
:104C2000EC000020014804F009BB00BFD00D0020BB
:104C30002DE9F0418046FFF7F5FF00260446374690
:104C40009CB194F82450B5420AD3404604F10801BF
:104C5000EA0804F063F818B9802D08D02E462746DC
:104C6000204604F0DEFB0446EAE73C4667B108480C
:104C700004F0E4FA844207D00548214604F0E8FA3B
:104C80000348214604F007FB2046BDE8F08100BF41
:104C9000D00D002038B5044600283DD04368002BD5
:104CA0003AD01E48214604F0D3FA6368586804F0ED
:104CB000C5FA054630B14368A34207D0284604F040
:104CC000FAFAF6E704F1080001F038F863682946BB
:104CD000586804F0BDFA6368586804F0AFFA20B968
:104CE00063680F48596801F075F921460D4805F0D1
:104CF000AEF929460C4805F0AAF90C4A204613687B
:104D0000013B1360FFF780FF04F108010246BDE894
:104D100038400320FFF730BF38BD00BFD00D002062
:104D2000EC000020FC00002008010020280D0020DD
:104D300010B5044678B1406868B104F07FFA20B13C
:104D40004068FFF7A7FF6068F7E72146BDE810401D
:104D5000014801F03FB910BDEC0000202DE9F047FB
:104D6000074610468946904604F052FB824610B929
:104D70000020BDE8F0873846FFF75AFF044660B1CF
:104D8000FFF742FF014628B14046102203F0C6FF5C
:104D9000002854D02046FFF77DFF2A4E3368142B9D
:104DA00004D1294804F04CFAFFF774FF2748514614
:104DB00004F08EFB054658B92448514601F07CF8B2
:104DC00005460028D4D000236860036004F033FA5D
:104DD0001F4805F028F904460028C9D01A48214682
:104DE00004F059FA1B4805F01EF9824620B9214605
:104DF000174805F02CF9BBE744606868514604F099
:104E00003BFA33686560013333603B4604F10805C3
:104E100007F110062A4618685968083303C2B342DE
:104E20001546F7D100210C2284F8249004F11800D3
:104E300004F080F8022039464246FFF79DFE2046E6
:104E4000BDE8F087280D0020D00D0020EC000020E8
:104E5000FC0000200801002038B505460D4804F08C
:104E6000EDF90446A0B1AC420ED12146094804F048
:104E7000EFF92146084805F0EAF8211D01200A460D
:104E8000BDE83840FFF778BE204604F014FAE8E7A2
:104E900038BD00BF2C0D0020E000002038B50546CD
:104EA000084804F0CBF9044648B1201D29461022D9
:104EB00003F034FF18B1204604F0FDF9F3E7204673
:104EC00038BD00BF2C0D0020F8B505460F46FFF792
:104ED000E5FF044640B9134805F0A5F80446F0B1D3
:104EE0001148214604F0D7F92B46261D05F1100E76
:104EF000324618685968083303C273451646F7D11D
:104F000037B104F11400394605F076F8002300E0CB
:104F100001232377002029462A46FFF72DFE20464D
:104F2000F8BD00BFE00000202C0D002038B50A4875
:104F300004F084F90446002564B1251D2846FFF7D6
:104F40005BFD10B190F8223023B9204604F0B3F98C
:104F50000446F1E7284638BD2C0D002010B50A485C
:104F600004F06CF9044670B1237F43B904F11400D6
:104F700003F05CFB18B12046FFF76EFFEFE7204619
:104F800004F099F9EEE710BD2C0D00202DE9F04357
:104F9000334C344D85B004F108030FCB8DE80F007E
:104FA0002B786E46E779002B3DD003F037FADFF817
:104FB000BC90804629783A2300B3814284F8283097
:104FC00013D0B9F80020521A024492B2A9F8002076
:104FD000283A131262712C312C30C8EB02022044A3
:104FE0002144043A237103F041FFB9F8003085F8F9
:104FF0000080C8EB0308A9F8008014E0B9F800208D
:10500000A371521A92B2A2F1280318122C31A9F8F6
:1050100000202071214404F12C002C3A637103F02C
:1050200025FF85F80080104804F008F9804690B10B
:10503000D8F804C0BCF1000F09D00C4B2A781B88AB
:1050400038322C3B3046394622449BB2E04740463A
:1050500004F031F9EAE7054B188005B0BDE8F083AC
:10506000381F0020DD1D002098110020241F002083
:10507000F8B5384B384C1B7904F11806E371237EE0
:1050800004F10805FF2B08D195E80F0086E80F0012
:1050900028463146FFF790FB1BE02F46B6462F4AC5
:1050A0003B4603CB7345106051601F4602F1080276
:1050B000F6D196E80F0085E80F00284B284D03F144
:1050C00010062A4618685968083303C2B3421546C9
:1050D000F7D1244D2B787BB303F0A0F92B7806464B
:1050E0003A22B0B183421C4F84F8282023D01E49B5
:1050F0000A88D21A024492B20A80283A11123971EF
:105100007A7103F12C012C30921B38443944043A53
:105110000FE01549A2710A88D21A92B20A80A2F150
:105120002801081220716171104803F12C012144FB
:105130002C3A03F09BFE2E702B7881222833E51841
:10514000E25400236B706B8004F0FFF8C04368806A
:10515000F8BD00BFA4270020381F00202C17002016
:10516000501F0020DD1D0020241F0020641F002090
:1051700038B504460B480D4604F060F878B1037961
:10518000A34209D14379AB4204D183683BB198472C
:10519000002038BDFF2BF8D004F08DF8EEE7012099
:1051A00038BD00BF9C1100200146014804F064B8DE
:1051B0009C1100202DE9F74F484E814633788846F0
:1051C0009246474C3BB12833E35C3A2B0AD1454B1E
:1051D00000221A807FE0A3793A2B03D194F928307A
:1051E000002BF4DA03F01AF93F4D404A0746AC466B
:1051F0009346307005F1100E2B4603CB73451060BB
:1052000051601D4602F10802F6D1364D04EB47000D
:105210002B88303030339BB2B3F5A06F88BF4FF48A
:10522000A0632B802A882E4BD21B1946303ACDF82A
:1052300004C0009303F01AFE9DE80810602222705B
:105240000022627062803A2217B183F8282000E0C1
:105250009A71274A224B1279E271228972B95A89CE
:1052600062B99A8952B9DA8942B91A8A32B95A8A24
:1052700022B99A8A12B9DB8A002BA8D01D4B0FCB1A
:105280008CE80F009BF80030FF2B05D1B9F1040F1B
:105290009DD1B8F1020F9AD114491648FFF78CFA44
:1052A0003778504607F12803E21804F8039082F893
:1052B000018004F053F82B882C37283BE0511A1258
:1052C00063713378227128331C440023638004F017
:1052D0003CF8C043608003B0BDE8F08FDD1D0020C6
:1052E000381F0020241F0020501F00202C170020F2
:1052F000A4270020401F00202DE9F0411E460F4644
:105300001B4905460C4660230B7000234B704B80F5
:105310003A238B71174B90461B7900F1100ECB711D
:10532000331D1A120A714B7101F1180213462868D5
:105330006968083503C375451A46F7D10E482C36FF
:1053400000F11001FFF738FA0C4B1B782833E518F1
:10535000E75400236B8085F8018003F0F6FFC0431B
:10536000074B68801E80BDE8F04100F029BB00BFFC
:10537000381F0020A4270020401F0020DD1D002032
:10538000241F002008B50448FFF70EFFBDE80840C1
:105390000248FFF709BF00BF1401002020010020D0
:1053A0002DE9F74F664C674AE1791378FF2903F13D
:1053B0002C0C0CEB04091CF804700192DFF8A4819A
:1053C00040F0B580234493F82930002B40F0AF80A3
:1053D00099F80430FF2B00F0AA8007F0400303F097
:1053E000FF061BB1237EFF2B00F0A1805649574DCD
:1053F00014230022B8F800B00B702A600CEB030EE7
:10540000DE4511DA04EB0E0A9AF8010010B92A60A1
:105410000B708CE014F80EE003EBC003DBB2BEF1BE
:10542000020F08BF5246E9E709F104000B702A6039
:10543000FFF7BCF8464B1860002878D1019B18781C
:1054400020443030FFF7D8FA424C2060FFF7CCFA06
:1054500025688346A146002D69D03C4B1C6834B1B9
:10546000A01C5946082203F059FCC0B200E02046B7
:1054700095F8223027F07F0A5FFA8AFAEBB9002C00
:1054800055D054F8022FCBF800206268CBF80420E6
:105490007EB185F82030304B0122D9684FF47A7301
:1054A00085F8222005F11000B1FBF3F104F0A4FD12
:1054B00039E0022385F8223035E0BA0606D428B157
:1054C000012B34D1022385F8223030E0ACB32246E0
:1054D00052F8023FCBF800305368CBF804306EB17D
:1054E000012385F822301C4B05F11000D9684FF4D8
:1054F0007A73B1FBF3F104F07FFD04E01CB110B14D
:10550000022385F82230D9F8003093F8213053B1C6
:10551000BAF1000F07D11148FFF7C0FC104A106024
:1055200008B1FFF799FCD9F8003083F821A00023D7
:10553000A8F8003003B0BDE8F08F002EE3D0CFE72D
:10554000381F0020DD1D0020101E0020A8110020A3
:10555000AC110020A4110020A4270020401F00202F
:10556000A0110020241F00202DE9F84F874CDFF800
:105570004482E379FF2B40F00381854E3378E218B3
:1055800092F83020FF2A00F0FB80234493F8293062
:10559000002B40F0F5807F4F7F4D3B6014232B7034
:1055A00030782A782C30B8F8003002449A4254DA25
:1055B000A1184878754B002800F0E280A25C012A0F
:1055C00041D11A8939607AB95A896AB99A895AB91E
:1055D000DA894AB91A8A3AB95A8A2AB99B8A1BB90E
:1055E000E38A002B00F0CC806C48FFF705FADFF867
:1055F000C8A10246CAF8000030B939680223023156
:105600006648FFF7C1F91EE0FFF7EEF983463B68F5
:10561000594603F102094846082203F07FFB50B1C6
:10562000D9F80030CBF80030D9F80430CBF804308A
:10563000DAF8003004E0DAF8003093F8222012B9EA
:10564000022283F8222033782A782C33134423440F
:105650005B7802EBC3022A70A2E720440430FEF715
:10566000A5FF4F4B494D18609946002800F08880EF
:105670002B8973B96B8963B9AB8953B9EB8943B98A
:105680002B8A33B96B8A23B9AB8A13B9EB8A002B07
:1056900076D0424D2846FEF789FF2F4600286FD16D
:1056A00040F2FF23228BA5F1080E9A4205F1100C5F
:1056B00019D16B8ABBB9AB8AABB9EB8A9BB92B8B7F
:1056C0008BB96B8BB3F5807F0DD12B7FFF2B0AD16C
:1056D00095E80F008CE80F003378734430330FCB1C
:1056E00085E80F0011E02F4D2846FEF75FFFD9F83F
:1056F0000030834244D197E80F0085E80F003378EB
:10570000234430330FCB87E80F0060222270282219
:1057100062713A22A271FF22E2718822002384F88A
:105720002820D9F80020337063706380237184F8D7
:1057300029301D4EE02384F82C30931C123235465C
:1057400018685968083303C593422E46F7D1174AA3
:10575000022384F8403084F8413013681448C4F8B8
:1057600042305368002143600622083003F0E2FB18
:105770000023638503F0E9FDC0435023608500E00A
:105780000023A8F80030BDE8F88F00BF381F0020C4
:10579000DD1D0020A8110020101E0020401F002049
:1057A000AC110020501F0020681F0020301F002077
:1057B0007A1F0020241F0020A41100202DE9F041B1
:1057C000524C534F00233B70637063803A238046F2
:1057D000A3716020FF232070E37199B96183A183D5
:1057E000E183218484F8221002200121237660764F
:1057F00084F8231084F82430537B84F82530D3892F
:10580000E3840CE00B4604F1180601F1100E354656
:1058100018685968083303C573452E46F7D18723A6
:1058200084F82830002384F82930E3621346394E87
:1058300002F1100E354618685968083303C57345E0
:105840002E46F7D1002626711046304DFEF7AEFEEB
:10585000002842D1B8F1000F0CD04346083508F1BA
:1058600010062A4618685968083303C2B342154621
:10587000F7D105E005F1080005F11801FEF79CFFDE
:105880002289224B244D82B95A8972B99A8962B908
:10589000DA8952B91A8A42B95A8A32B99A8A22B92D
:1058A000DB8A13B92B80BDE8F081282363713B7834
:1058B00001224033E254194AE0180223437013686E
:1058C0000A3040F8083C5368002140F8043C0622A6
:1058D00003F030FB50232B800CE018236B710E4B30
:1058E00040222E816E81AE81EE812E826E82AE824A
:1058F000EE821A803B7828331C440023638003F037
:1059000024FDC0436080BDE8F08100BF381F002047
:10591000DD1D0020681F0020241F0020301F0020F4
:1059200008B50448FFF740FCBDE808400248FFF70F
:105930003BBC00BF2C0100203801002008B5054801
:1059400003F049FC20B1BDE80840024803F03ABC2E
:1059500008BD00BFF4110020024B1B6803B11847BB
:105960001846704704120020014B1860704700BFB2
:105970000412002007B5074B8DF80700186828B1FE
:10598000054B0DF107021978FCF71AFD03B05DF81D
:1059900004FB00BF402600207A2A002008B5002220
:1059A00004480221FCF70CFD034A00231380034A3C
:1059B000137008BD44010020241F0020DD1D0020BD
:1059C000F8B5414E3388002B7DD0B3F5A06F70D869
:1059D0003E4B1A8B72B95A8B62B99A8B52B9DA8BD9
:1059E00042B91A8C32B95A8C22B99A8C12B9DA8C13
:1059F000002A5ED01B7EFF2B5ED03548FEF7B6FD39
:105A0000C8B93348FFF714F9044620B9FFF78EFAF6
:105A1000054688B94DE0FFF7F7F8054660B9E36938
:105A200023B11B6A93F88C0003F0DEFF2046BDE82B
:105A3000F840FFF72FB9264D284602F0ABFC074689
:105A4000B8BB2846FEF7D8FF0446F8B928462146D9
:105A500022462346FEF798FF054650B31D48FEF741
:105A6000A5FD014608B121461A482A46FFF7A6FEC1
:105A7000194B05F1180019694FF47A73B1FBF3F172
:105A800004F0BAFA012385F82030F8BD90F82230EE
:105A90007BB1022B08D1032380F82230052110307E
:105AA00004F0AAFA84F820702046FEF79DFFFFF765
:105AB00053FF00233380F8BD0020FFF74DFF074A56
:105AC000002333801370F8BD241F0020381F0020EE
:105AD000501F0020401F0020A4270020DD1D0020B3
